#WordCnt                      T0                   T1                   T2                   T3                   T4                   T5
#BeginData
0x0000        0x0000000000000000   0x0000000000000000   0x0000000000000000   0x0000000000000000   0x0000000000000000   0x0000000000000000
0x0001        0x0000000000000000   0x0000000000000000   0x0000000000000000   0x0000000000000000   0x0000000000000000   0x0000000000000000
0x0002        0x0000000000000000   0x0000000000000000   0x0000000000000000   0x0000000000000000   0x0000000000000000   0x0000000000000000
0x0003        0x0000000000000000   0x0000000000000000   0x0000000000000000   0x0000000000000000   0x0000000000000000   0x0000000000000000
0x0004        0x0000000000000000   0x0000000000000000   0x0000000000000000   0x0000000000000000   0x0000000000000000   0x0000000000000000
0x0005        0x0000000000000000   0x0000000000000000   0x0000000000000000   0x0000000000000000   0x0000000000000000   0x0000000000000000
0x0006        0x0000000000000000   0x0000000000000000   0x0000000000000000   0x0000000000000000   0x0000000000000000   0x0000000000000000
0x0007        0x0000000000000000   0x0000000000000000   0x0000000000000000   0x0000000000000000   0x0000000000000000   0x0000000000000000
0x0008        0x0000000000000000   0x0000000000000000   0x0000000000000000   0x0000000000000000   0x0000000000000000   0x0000000000000000
0x0009        0x0000000000000000   0x0000000000000000   0x0000000000000000   0x0000000000000000   0x0000000000000000   0x0000000000000000
0x000a        0x0000000000000000   0x0000000000000000   0x0000000000000000   0x0000000000000000   0x0000000000000000   0x0000000000000000
0x000b        0x0000000000000000   0x0000000000000000   0x0000000000000000   0x0000000000000000   0x0000000000000000   0x0000000000000000
0x000c        0x1C003B64ABCD8040   0x0C004564B7DF400D   0x0000000000000000   0x0000000000000000   0x0000000000000000   0x0000000000000000
0x000d        0x0000FF24CBCE8036   0x0C0039448BCF000C   0x0000000000000000   0x0000000000000000   0x0000000000000000   0x0000000000000000
0x000e        0x0C003E44AFCDC00E   0x0C004344B7CC400B   0x0000000000000000   0x0000000000000000   0x0000000000000000   0x0000000000000000
0x000f        0x0000000000000000   0x0000000000000000   0x0000000000000000   0x0000000000000000   0x0000000000000000   0x0000000000000000
0x0010        0x0000000000000000   0x0000000000000000   0x0000000000000000   0x0000000000000000   0x0000000000000000   0x0000000000000000
0x0011        0x0000000000000000   0x0000000000000000   0x0000000000000000   0x0000000000000000   0x0000000000000000   0x0000000000000000
0x0012        0x0000000000000000   0x0000000000000000   0x0000000000000000   0x0000000000000000   0x0000000000000000   0x0000000000000000
0x0013        0x0000000000000000   0x0000000000000000   0x0000000000000000   0x0000000000000000   0x0000000000000000   0x0000000000000000
0x0014        0x0000000000000000   0x0000000000000000   0x0000000000000000   0x0000000000000000   0x0000000000000000   0x0000000000000000
0x0015        0x0000000000000000   0x0000000000000000   0x0000000000000000   0x0000000000000000   0x0000000000000000   0x0000000000000000
0x0016        0x0000000000000000   0x0000000000000000   0x0000000000000000   0x0000000000000000   0x0000000000000000   0x0000000000000000
0x0017        0x0000000000000000   0x0000000000000000   0x0000000000000000   0x0000000000000000   0x0000000000000000   0x0000000000000000
0x0018        0x0000000000000000   0x0000000000000000   0x0000000000000000   0x0000000000000000   0x0000000000000000   0x0000000000000000
0x0019        0x0000000000000000   0x0000000000000000   0x0000000000000000   0x0000000000000000   0x0000000000000000   0x0000000000000000
0x001a        0x0000000000000000   0x0000000000000000   0x0000000000000000   0x0000000000000000   0x0000000000000000   0x0000000000000000
0x001b        0x0000000000000000   0x0000000000000000   0x0000000000000000   0x0000000000000000   0x0000000000000000   0x0000000000000000
0x001c        0x0000000000000000   0x0000000000000000   0x0000000000000000   0x0000000000000000   0x0000000000000000   0x0000000000000000
0x001d        0x0000000000000000   0x0000000000000000   0x0000000000000000   0x0000000000000000   0x0000000000000000   0x0000000000000000
0x001e        0x0000D004441BC038   0x0000A12448138005   0x0000000000000000   0x0000000000000000   0x0000000000000000   0x0000000000000000
0x001f        0x0000F824381C8024   0x0000000000000000   0x0000000000000000   0x0000000000000000   0x0000000000000000   0x0000000000000000
0x0020        0x0000CA24381A8007   0x0000000000000000   0x0000000000000000   0x0000000000000000   0x0000000000000000   0x0000000000000000
0x0021        0x1C003D44781B8035   0x04004266EC348008   0x0000000000000000   0x0000000000000000   0x0000000000000000   0x0000000000000000
0x0022        0x1C00436548298014   0x0000000000000000   0x0000000000000000   0x0000000000000000   0x0000000000000000   0x0000000000000000
0x0023        0x04003EA5081CC00C   0x0000000000000000   0x0000000000000000   0x0000000000000000   0x0000000000000000   0x0000000000000000
0x0024        0x04003663B01D400E   0x0000000000000000   0x0000000000000000   0x0000000000000000   0x0000000000000000   0x0000000000000000
0x0025        0x0000000000000000   0x0000000000000000   0x0000000000000000   0x0000000000000000   0x0000000000000000   0x0000000000000000
0x0026        0x0000000000000000   0x0000000000000000   0x0000000000000000   0x0000000000000000   0x0000000000000000   0x0000000000000000
0x0027        0x0000000000000000   0x0000000000000000   0x0000000000000000   0x0000000000000000   0x0000000000000000   0x0000000000000000
0x0028        0x0000000000000000   0x0000000000000000   0x0000000000000000   0x0000000000000000   0x0000000000000000   0x0000000000000000
0x0029        0x0000000000000000   0x0000000000000000   0x0000000000000000   0x0000000000000000   0x0000000000000000   0x0000000000000000
0x002a        0x0000000000000000   0x0000000000000000   0x0000000000000000   0x0000000000000000   0x0000000000000000   0x0000000000000000
0x002b        0x0000000000000000   0x0000000000000000   0x0000000000000000   0x0000000000000000   0x0000000000000000   0x0000000000000000
0x002c        0x0000000000000000   0x0000000000000000   0x0000000000000000   0x0000000000000000   0x0000000000000000   0x0000000000000000
0x002d        0x0000000000000000   0x0000000000000000   0x0000000000000000   0x0000000000000000   0x0000000000000000   0x0000000000000000
0x002e        0x0000000000000000   0x0000000000000000   0x0000000000000000   0x0000000000000000   0x0000000000000000   0x0000000000000000
0x002f        0x0000000000000000   0x0000000000000000   0x0000000000000000   0x0000000000000000   0x0000000000000000   0x0000000000000000
0x0030        0x0000000000000000   0x0000000000000000   0x0000000000000000   0x0000000000000000   0x0000000000000000   0x0000000000000000
0x0031        0x0000000000000000   0x0000000000000000   0x0000000000000000   0x0000000000000000   0x0000000000000000   0x0000000000000000
0x0032        0x0000000000000000   0x0000000000000000   0x0000000000000000   0x0000000000000000   0x0000000000000000   0x0000000000000000
0x0033        0x0000000000000000   0x0000000000000000   0x0000000000000000   0x0000000000000000   0x0000000000000000   0x0000000000000000
0x0034        0x0000000000000000   0x0000000000000000   0x0000000000000000   0x0000000000000000   0x0000000000000000   0x0000000000000000
0x0035        0x0000000000000000   0x0000000000000000   0x0000000000000000   0x0000000000000000   0x0000000000000000   0x0000000000000000
0x0036        0x0000000000000000   0x0000000000000000   0x0000000000000000   0x0000000000000000   0x0000000000000000   0x0000000000000000
0x0037        0x0000000000000000   0x0000000000000000   0x0000000000000000   0x0000000000000000   0x0000000000000000   0x0000000000000000
0x0038        0x0000000000000000   0x0000000000000000   0x0000000000000000   0x0000000000000000   0x0000000000000000   0x0000000000000000
0x0039        0x0403F440CBC80008   0x0000000000000000   0x0000000000000000   0x0000000000000000   0x0000000000000000   0x0000000000000000
0x003a        0x0000000000000000   0x0000000000000000   0x0000000000000000   0x0000000000000000   0x0000000000000000   0x0000000000000000
0x003b        0x0000000000000000   0x0000000000000000   0x0000000000000000   0x0000000000000000   0x0000000000000000   0x0000000000000000
0x003c        0x0000000000000000   0x0000000000000000   0x0000000000000000   0x0000000000000000   0x0000000000000000   0x0000000000000000
0x003d        0x0000000000000000   0x0000000000000000   0x0000000000000000   0x0000000000000000   0x0000000000000000   0x0000000000000000
0x003e        0x0000000000000000   0x0000000000000000   0x0000000000000000   0x0000000000000000   0x0000000000000000   0x0000000000000000
0x003f        0x0000000000000000   0x0000000000000000   0x0000000000000000   0x0000000000000000   0x0000000000000000   0x0000000000000000
0x0040        0x0000000000000000   0x0000000000000000   0x0000000000000000   0x0000000000000000   0x0000000000000000   0x0000000000000000
0x0041        0x0000000000000000   0x0000000000000000   0x0000000000000000   0x0000000000000000   0x0000000000000000   0x0000000000000000
0x0042        0x0000000000000000   0x0000000000000000   0x0000000000000000   0x0000000000000000   0x0000000000000000   0x0000000000000000
0x0043        0x0000000000000000   0x0000000000000000   0x0000000000000000   0x0000000000000000   0x0000000000000000   0x0000000000000000
0x0044        0x0000000000000000   0x0000000000000000   0x0000000000000000   0x0000000000000000   0x0000000000000000   0x0000000000000000
0x0045        0x0403FA43AFFEC009   0x0000000000000000   0x0000000000000000   0x0000000000000000   0x0000000000000000   0x0000000000000000
0x0046        0x0000000000000000   0x0000000000000000   0x0000000000000000   0x0000000000000000   0x0000000000000000   0x0000000000000000
0x0047        0x0000000000000000   0x0000000000000000   0x0000000000000000   0x0000000000000000   0x0000000000000000   0x0000000000000000
0x0048        0x0000000000000000   0x0000000000000000   0x0000000000000000   0x0000000000000000   0x0000000000000000   0x0000000000000000
0x0049        0x0000000000000000   0x0000000000000000   0x0000000000000000   0x0000000000000000   0x0000000000000000   0x0000000000000000
0x004a        0x0000000000000000   0x0000000000000000   0x0000000000000000   0x0000000000000000   0x0000000000000000   0x0000000000000000
0x004b        0x0000000000000000   0x0000000000000000   0x0000000000000000   0x0000000000000000   0x0000000000000000   0x0000000000000000
0x004c        0x0000000000000000   0x0000000000000000   0x0000000000000000   0x0000000000000000   0x0000000000000000   0x0000000000000000
0x004d        0x0000000000000000   0x0000000000000000   0x0000000000000000   0x0000000000000000   0x0000000000000000   0x0000000000000000
0x004e        0x0000000000000000   0x0000000000000000   0x0000000000000000   0x0000000000000000   0x0000000000000000   0x0000000000000000
0x004f        0x0000000000000000   0x0000000000000000   0x0000000000000000   0x0000000000000000   0x0000000000000000   0x0000000000000000
0x0050        0x0000000000000000   0x0000000000000000   0x0000000000000000   0x0000000000000000   0x0000000000000000   0x0000000000000000
0x0051        0x1403F85EC035402A   0x0000000000000000   0x0000000000000000   0x0000000000000000   0x0000000000000000   0x0000000000000000
0x0052        0x1C03FD5EC830401C   0x0000000000000000   0x0000000000000000   0x0000000000000000   0x0000000000000000   0x0000000000000000
0x0053        0x0000D43EE8378004   0x0000000000000000   0x0000000000000000   0x0000000000000000   0x0000000000000000   0x0000000000000000
0x0054        0x0000000000000000   0x0000000000000000   0x0000000000000000   0x0000000000000000   0x0000000000000000   0x0000000000000000
0x0055        0x0000000000000000   0x0000000000000000   0x0000000000000000   0x0000000000000000   0x0000000000000000   0x0000000000000000
0x0056        0x0000000000000000   0x0000000000000000   0x0000000000000000   0x0000000000000000   0x0000000000000000   0x0000000000000000
0x0057        0x0000000000000000   0x0000000000000000   0x0000000000000000   0x0000000000000000   0x0000000000000000   0x0000000000000000
0x0058        0x0000000000000000   0x0000000000000000   0x0000000000000000   0x0000000000000000   0x0000000000000000   0x0000000000000000
0x0059        0x0000000000000000   0x0000000000000000   0x0000000000000000   0x0000000000000000   0x0000000000000000   0x0000000000000000
0x005a        0x1403FD62FC394023   0x0000000000000000   0x0000000000000000   0x0000000000000000   0x0000000000000000   0x0000000000000000
0x005b        0x1C03F942D8354021   0x0000000000000000   0x0000000000000000   0x0000000000000000   0x0000000000000000   0x0000000000000000
0x005c        0x00005C036436800D   0x0000000000000000   0x0000000000000000   0x0000000000000000   0x0000000000000000   0x0000000000000000
0x005d        0x1403F8C2E83B002D   0x0000000000000000   0x0000000000000000   0x0000000000000000   0x0000000000000000   0x0000000000000000
0x005e        0x0000000000000000   0x0000000000000000   0x0000000000000000   0x0000000000000000   0x0000000000000000   0x0000000000000000
0x005f        0x0000000000000000   0x0000000000000000   0x0000000000000000   0x0000000000000000   0x0000000000000000   0x0000000000000000
0x0060        0x0000000000000000   0x0000000000000000   0x0000000000000000   0x0000000000000000   0x0000000000000000   0x0000000000000000
0x0061        0x0000000000000000   0x0000000000000000   0x0000000000000000   0x0000000000000000   0x0000000000000000   0x0000000000000000
0x0062        0x0000000000000000   0x0000000000000000   0x0000000000000000   0x0000000000000000   0x0000000000000000   0x0000000000000000
0x0063        0x0403F16287C5C00D   0x0000000000000000   0x0000000000000000   0x0000000000000000   0x0000000000000000   0x0000000000000000
0x0064        0x0000000000000000   0x0000000000000000   0x0000000000000000   0x0000000000000000   0x0000000000000000   0x0000000000000000
0x0065        0x0000000000000000   0x0000000000000000   0x0000000000000000   0x0000000000000000   0x0000000000000000   0x0000000000000000
0x0066        0x0403F0449446C008   0x0000000000000000   0x0000000000000000   0x0000000000000000   0x0000000000000000   0x0000000000000000
0x0067        0x0000000000000000   0x0000000000000000   0x0000000000000000   0x0000000000000000   0x0000000000000000   0x0000000000000000
0x0068        0x0000000000000000   0x0000000000000000   0x0000000000000000   0x0000000000000000   0x0000000000000000   0x0000000000000000
0x0069        0x0000000000000000   0x0000000000000000   0x0000000000000000   0x0000000000000000   0x0000000000000000   0x0000000000000000
0x006a        0x0000000000000000   0x0000000000000000   0x0000000000000000   0x0000000000000000   0x0000000000000000   0x0000000000000000
0x006b        0x0000000000000000   0x0000000000000000   0x0000000000000000   0x0000000000000000   0x0000000000000000   0x0000000000000000
0x006c        0x0403B46247C08009   0x0000000000000000   0x0000000000000000   0x0000000000000000   0x0000000000000000   0x0000000000000000
0x006d        0x0000000000000000   0x0000000000000000   0x0000000000000000   0x0000000000000000   0x0000000000000000   0x0000000000000000
0x006e        0x0000000000000000   0x0000000000000000   0x0000000000000000   0x0000000000000000   0x0000000000000000   0x0000000000000000
0x006f        0x0403B66357C8800E   0x0000000000000000   0x0000000000000000   0x0000000000000000   0x0000000000000000   0x0000000000000000
0x0070        0x0000000000000000   0x0000000000000000   0x0000000000000000   0x0000000000000000   0x0000000000000000   0x0000000000000000
0x0071        0x0000000000000000   0x0000000000000000   0x0000000000000000   0x0000000000000000   0x0000000000000000   0x0000000000000000
0x0072        0x0000000000000000   0x0000000000000000   0x0000000000000000   0x0000000000000000   0x0000000000000000   0x0000000000000000
0x0073        0x0000000000000000   0x0000000000000000   0x0000000000000000   0x0000000000000000   0x0000000000000000   0x0000000000000000
0x0074        0x0000000000000000   0x0000000000000000   0x0000000000000000   0x0000000000000000   0x0000000000000000   0x0000000000000000
0x0075        0x0000000000000000   0x0000000000000000   0x0000000000000000   0x0000000000000000   0x0000000000000000   0x0000000000000000
0x0076        0x0000000000000000   0x0000000000000000   0x0000000000000000   0x0000000000000000   0x0000000000000000   0x0000000000000000
0x0077        0x0000000000000000   0x0000000000000000   0x0000000000000000   0x0000000000000000   0x0000000000000000   0x0000000000000000
0x0078        0x0000000000000000   0x0000000000000000   0x0000000000000000   0x0000000000000000   0x0000000000000000   0x0000000000000000
0x0079        0x0000000000000000   0x0000000000000000   0x0000000000000000   0x0000000000000000   0x0000000000000000   0x0000000000000000
0x007a        0x0000000000000000   0x0000000000000000   0x0000000000000000   0x0000000000000000   0x0000000000000000   0x0000000000000000
0x007b        0x00010025BBEB8059   0x0403B365C7EE000E   0x0000000000000000   0x0000000000000000   0x0000000000000000   0x0000000000000000
0x007c        0x0000F9260BE98023   0x0000B024FBE98009   0x0000000000000000   0x0000000000000000   0x0000000000000000   0x0000000000000000
0x007d        0x00006505DBE9C010   0x00009E257BEA8004   0x0000000000000000   0x0000000000000000   0x0000000000000000   0x0000000000000000
0x007e        0x0000000000000000   0x0000000000000000   0x0000000000000000   0x0000000000000000   0x0000000000000000   0x0000000000000000
0x007f        0x0000000000000000   0x0000000000000000   0x0000000000000000   0x0000000000000000   0x0000000000000000   0x0000000000000000
0x0080        0x0000000000000000   0x0000000000000000   0x0000000000000000   0x0000000000000000   0x0000000000000000   0x0000000000000000
0x0081        0x0000000000000000   0x0000000000000000   0x0000000000000000   0x0000000000000000   0x0000000000000000   0x0000000000000000
0x0082        0x0000000000000000   0x0000000000000000   0x0000000000000000   0x0000000000000000   0x0000000000000000   0x0000000000000000
0x0083        0x0000000000000000   0x0000000000000000   0x0000000000000000   0x0000000000000000   0x0000000000000000   0x0000000000000000
0x0084        0x1C03AD7F7C18C027   0x0000CC3FB815800E   0x0000000000000000   0x0000000000000000   0x0000000000000000   0x0000000000000000
0x0085        0x1403B37F5819401B   0x0000000000000000   0x0000000000000000   0x0000000000000000   0x0000000000000000   0x0000000000000000
0x0086        0x0000E63F98178015   0x0000000000000000   0x0000000000000000   0x0000000000000000   0x0000000000000000   0x0000000000000000
0x0087        0x0000000000000000   0x0000000000000000   0x0000000000000000   0x0000000000000000   0x0000000000000000   0x0000000000000000
0x0088        0x0000000000000000   0x0000000000000000   0x0000000000000000   0x0000000000000000   0x0000000000000000   0x0000000000000000
0x0089        0x0000000000000000   0x0000000000000000   0x0000000000000000   0x0000000000000000   0x0000000000000000   0x0000000000000000
0x008a        0x0000000000000000   0x0000000000000000   0x0000000000000000   0x0000000000000000   0x0000000000000000   0x0000000000000000
0x008b        0x0000000000000000   0x0000000000000000   0x0000000000000000   0x0000000000000000   0x0000000000000000   0x0000000000000000
0x008c        0x0000000000000000   0x0000000000000000   0x0000000000000000   0x0000000000000000   0x0000000000000000   0x0000000000000000
0x008d        0x0000000000000000   0x0000000000000000   0x0000000000000000   0x0000000000000000   0x0000000000000000   0x0000000000000000
0x008e        0x0000000000000000   0x0000000000000000   0x0000000000000000   0x0000000000000000   0x0000000000000000   0x0000000000000000
0x008f        0x0000000000000000   0x0000000000000000   0x0000000000000000   0x0000000000000000   0x0000000000000000   0x0000000000000000
0x0090        0x0000000000000000   0x0000000000000000   0x0000000000000000   0x0000000000000000   0x0000000000000000   0x0000000000000000
0x0091        0x0000000000000000   0x0000000000000000   0x0000000000000000   0x0000000000000000   0x0000000000000000   0x0000000000000000
0x0092        0x0000000000000000   0x0000000000000000   0x0000000000000000   0x0000000000000000   0x0000000000000000   0x0000000000000000
0x0093        0x0C03AB40B84E8009   0x0000000000000000   0x0000000000000000   0x0000000000000000   0x0000000000000000   0x0000000000000000
0x0094        0x00001402984C0004   0x0000000000000000   0x0000000000000000   0x0000000000000000   0x0000000000000000   0x0000000000000000
0x0095        0x0000000000000000   0x0000000000000000   0x0000000000000000   0x0000000000000000   0x0000000000000000   0x0000000000000000
0x0096        0x0000000000000000   0x0000000000000000   0x0000000000000000   0x0000000000000000   0x0000000000000000   0x0000000000000000
0x0097        0x0000000000000000   0x0000000000000000   0x0000000000000000   0x0000000000000000   0x0000000000000000   0x0000000000000000
0x0098        0x0000000000000000   0x0000000000000000   0x0000000000000000   0x0000000000000000   0x0000000000000000   0x0000000000000000
0x0099        0x0000000000000000   0x0000000000000000   0x0000000000000000   0x0000000000000000   0x0000000000000000   0x0000000000000000
0x009a        0x0000000000000000   0x0000000000000000   0x0000000000000000   0x0000000000000000   0x0000000000000000   0x0000000000000000
0x009b        0x0000000000000000   0x0000000000000000   0x0000000000000000   0x0000000000000000   0x0000000000000000   0x0000000000000000
0x009c        0x0000000000000000   0x0000000000000000   0x0000000000000000   0x0000000000000000   0x0000000000000000   0x0000000000000000
0x009d        0x0000000000000000   0x0000000000000000   0x0000000000000000   0x0000000000000000   0x0000000000000000   0x0000000000000000
0x009e        0x0000000000000000   0x0000000000000000   0x0000000000000000   0x0000000000000000   0x0000000000000000   0x0000000000000000
0x009f        0x0000000000000000   0x0000000000000000   0x0000000000000000   0x0000000000000000   0x0000000000000000   0x0000000000000000
0x00a0        0x0000000000000000   0x0000000000000000   0x0000000000000000   0x0000000000000000   0x0000000000000000   0x0000000000000000
0x00a1        0x0000000000000000   0x0000000000000000   0x0000000000000000   0x0000000000000000   0x0000000000000000   0x0000000000000000
0x00a2        0x0000000000000000   0x0000000000000000   0x0000000000000000   0x0000000000000000   0x0000000000000000   0x0000000000000000
0x00a3        0x0000000000000000   0x0000000000000000   0x0000000000000000   0x0000000000000000   0x0000000000000000   0x0000000000000000
0x00a4        0x0000000000000000   0x0000000000000000   0x0000000000000000   0x0000000000000000   0x0000000000000000   0x0000000000000000
0x00a5        0x0000000000000000   0x0000000000000000   0x0000000000000000   0x0000000000000000   0x0000000000000000   0x0000000000000000
0x00a6        0x0000000000000000   0x0000000000000000   0x0000000000000000   0x0000000000000000   0x0000000000000000   0x0000000000000000
0x00a7        0x0000000000000000   0x0000000000000000   0x0000000000000000   0x0000000000000000   0x0000000000000000   0x0000000000000000
0x00a8        0x0000000000000000   0x0000000000000000   0x0000000000000000   0x0000000000000000   0x0000000000000000   0x0000000000000000
0x00a9        0x0000000000000000   0x0000000000000000   0x0000000000000000   0x0000000000000000   0x0000000000000000   0x0000000000000000
0x00aa        0x0000000000000000   0x0000000000000000   0x0000000000000000   0x0000000000000000   0x0000000000000000   0x0000000000000000
0x00ab        0x0C001C60BBFDC009   0x0000000000000000   0x0000000000000000   0x0000000000000000   0x0000000000000000   0x0000000000000000
0x00ac        0x0000000000000000   0x0000000000000000   0x0000000000000000   0x0000000000000000   0x0000000000000000   0x0000000000000000
0x00ad        0x0000000000000000   0x0000000000000000   0x0000000000000000   0x0000000000000000   0x0000000000000000   0x0000000000000000
0x00ae        0x0000000000000000   0x0000000000000000   0x0000000000000000   0x0000000000000000   0x0000000000000000   0x0000000000000000
0x00af        0x0000000000000000   0x0000000000000000   0x0000000000000000   0x0000000000000000   0x0000000000000000   0x0000000000000000
0x00b0        0x0000000000000000   0x0000000000000000   0x0000000000000000   0x0000000000000000   0x0000000000000000   0x0000000000000000
0x00b1        0x0000000000000000   0x0000000000000000   0x0000000000000000   0x0000000000000000   0x0000000000000000   0x0000000000000000
0x00b2        0x0000000000000000   0x0000000000000000   0x0000000000000000   0x0000000000000000   0x0000000000000000   0x0000000000000000
0x00b3        0x0000000000000000   0x0000000000000000   0x0000000000000000   0x0000000000000000   0x0000000000000000   0x0000000000000000
0x00b4        0x1C001E417BFB0025   0x0000000000000000   0x0000000000000000   0x0000000000000000   0x0000000000000000   0x0000000000000000
0x00b5        0x0000D1222BFD800E   0x0000000000000000   0x0000000000000000   0x0000000000000000   0x0000000000000000   0x0000000000000000
0x00b6        0x0000000000000000   0x0000000000000000   0x0000000000000000   0x0000000000000000   0x0000000000000000   0x0000000000000000
0x00b7        0x0000000000000000   0x0000000000000000   0x0000000000000000   0x0000000000000000   0x0000000000000000   0x0000000000000000
0x00b8        0x0000000000000000   0x0000000000000000   0x0000000000000000   0x0000000000000000   0x0000000000000000   0x0000000000000000
0x00b9        0x0000000000000000   0x0000000000000000   0x0000000000000000   0x0000000000000000   0x0000000000000000   0x0000000000000000
0x00ba        0x0000000000000000   0x0000000000000000   0x0000000000000000   0x0000000000000000   0x0000000000000000   0x0000000000000000
0x00bb        0x0000000000000000   0x0000000000000000   0x0000000000000000   0x0000000000000000   0x0000000000000000   0x0000000000000000
0x00bc        0x0000000000000000   0x0000000000000000   0x0000000000000000   0x0000000000000000   0x0000000000000000   0x0000000000000000
0x00bd        0x0000000000000000   0x0000000000000000   0x0000000000000000   0x0000000000000000   0x0000000000000000   0x0000000000000000
0x00be        0x0000000000000000   0x0000000000000000   0x0000000000000000   0x0000000000000000   0x0000000000000000   0x0000000000000000
0x00bf        0x0000000000000000   0x0000000000000000   0x0000000000000000   0x0000000000000000   0x0000000000000000   0x0000000000000000
0x00c0        0x0000000000000000   0x0000000000000000   0x0000000000000000   0x0000000000000000   0x0000000000000000   0x0000000000000000
0x00c1        0x0000000000000000   0x0000000000000000   0x0000000000000000   0x0000000000000000   0x0000000000000000   0x0000000000000000
0x00c2        0x0000000000000000   0x0000000000000000   0x0000000000000000   0x0000000000000000   0x0000000000000000   0x0000000000000000
0x00c3        0x0000000000000000   0x0000000000000000   0x0000000000000000   0x0000000000000000   0x0000000000000000   0x0000000000000000
0x00c4        0x0000000000000000   0x0000000000000000   0x0000000000000000   0x0000000000000000   0x0000000000000000   0x0000000000000000
0x00c5        0x0000000000000000   0x0000000000000000   0x0000000000000000   0x0000000000000000   0x0000000000000000   0x0000000000000000
0x00c6        0x0000000000000000   0x0000000000000000   0x0000000000000000   0x0000000000000000   0x0000000000000000   0x0000000000000000
0x00c7        0x0000000000000000   0x0000000000000000   0x0000000000000000   0x0000000000000000   0x0000000000000000   0x0000000000000000
0x00c8        0x0000000000000000   0x0000000000000000   0x0000000000000000   0x0000000000000000   0x0000000000000000   0x0000000000000000
0x00c9        0x0C001962CC46800C   0x0000000000000000   0x0000000000000000   0x0000000000000000   0x0000000000000000   0x0000000000000000
0x00ca        0x0000000000000000   0x0000000000000000   0x0000000000000000   0x0000000000000000   0x0000000000000000   0x0000000000000000
0x00cb        0x0000000000000000   0x0000000000000000   0x0000000000000000   0x0000000000000000   0x0000000000000000   0x0000000000000000
0x00cc        0x0000000000000000   0x0000000000000000   0x0000000000000000   0x0000000000000000   0x0000000000000000   0x0000000000000000
0x00cd        0x0000000000000000   0x0000000000000000   0x0000000000000000   0x0000000000000000   0x0000000000000000   0x0000000000000000
0x00ce        0x0000000000000000   0x0000000000000000   0x0000000000000000   0x0000000000000000   0x0000000000000000   0x0000000000000000
0x00cf        0x0000000000000000   0x0000000000000000   0x0000000000000000   0x0000000000000000   0x0000000000000000   0x0000000000000000
0x00d0        0x0000000000000000   0x0000000000000000   0x0000000000000000   0x0000000000000000   0x0000000000000000   0x0000000000000000
0x00d1        0x0000000000000000   0x0000000000000000   0x0000000000000000   0x0000000000000000   0x0000000000000000   0x0000000000000000
0x00d2        0x0000000000000000   0x0000000000000000   0x0000000000000000   0x0000000000000000   0x0000000000000000   0x0000000000000000
0x00d3        0x0000000000000000   0x0000000000000000   0x0000000000000000   0x0000000000000000   0x0000000000000000   0x0000000000000000
0x00d4        0x0000000000000000   0x0000000000000000   0x0000000000000000   0x0000000000000000   0x0000000000000000   0x0000000000000000
0x00d5        0x0000000000000000   0x0000000000000000   0x0000000000000000   0x0000000000000000   0x0000000000000000   0x0000000000000000
0x00d6        0x0000000000000000   0x0000000000000000   0x0000000000000000   0x0000000000000000   0x0000000000000000   0x0000000000000000
0x00d7        0x0000000000000000   0x0000000000000000   0x0000000000000000   0x0000000000000000   0x0000000000000000   0x0000000000000000
0x00d8        0x0000000000000000   0x0000000000000000   0x0000000000000000   0x0000000000000000   0x0000000000000000   0x0000000000000000
0x00d9        0x0000000000000000   0x0000000000000000   0x0000000000000000   0x0000000000000000   0x0000000000000000   0x0000000000000000
0x00da        0x0000000000000000   0x0000000000000000   0x0000000000000000   0x0000000000000000   0x0000000000000000   0x0000000000000000
0x00db        0x0C0044644BCB8008   0x0000000000000000   0x0000000000000000   0x0000000000000000   0x0000000000000000   0x0000000000000000
0x00dc        0x0000000000000000   0x0000000000000000   0x0000000000000000   0x0000000000000000   0x0000000000000000   0x0000000000000000
0x00dd        0x0000000000000000   0x0000000000000000   0x0000000000000000   0x0000000000000000   0x0000000000000000   0x0000000000000000
0x00de        0x0000000000000000   0x0000000000000000   0x0000000000000000   0x0000000000000000   0x0000000000000000   0x0000000000000000
0x00df        0x0000000000000000   0x0000000000000000   0x0000000000000000   0x0000000000000000   0x0000000000000000   0x0000000000000000
0x00e0        0x0000000000000000   0x0000000000000000   0x0000000000000000   0x0000000000000000   0x0000000000000000   0x0000000000000000
0x00e1        0x0C00386047F10008   0x0000000000000000   0x0000000000000000   0x0000000000000000   0x0000000000000000   0x0000000000000000
0x00e2        0x0000000000000000   0x0000000000000000   0x0000000000000000   0x0000000000000000   0x0000000000000000   0x0000000000000000
0x00e3        0x0000000000000000   0x0000000000000000   0x0000000000000000   0x0000000000000000   0x0000000000000000   0x0000000000000000
0x00e4        0x0000000000000000   0x0000000000000000   0x0000000000000000   0x0000000000000000   0x0000000000000000   0x0000000000000000
0x00e5        0x0000000000000000   0x0000000000000000   0x0000000000000000   0x0000000000000000   0x0000000000000000   0x0000000000000000
0x00e6        0x0000000000000000   0x0000000000000000   0x0000000000000000   0x0000000000000000   0x0000000000000000   0x0000000000000000
0x00e7        0x0C0038433BF6400F   0x0000000000000000   0x0000000000000000   0x0000000000000000   0x0000000000000000   0x0000000000000000
0x00e8        0x04003243C7EE400A   0x0000000000000000   0x0000000000000000   0x0000000000000000   0x0000000000000000   0x0000000000000000
0x00e9        0x0000000000000000   0x0000000000000000   0x0000000000000000   0x0000000000000000   0x0000000000000000   0x0000000000000000
0x00ea        0x0000000000000000   0x0000000000000000   0x0000000000000000   0x0000000000000000   0x0000000000000000   0x0000000000000000
0x00eb        0x0000000000000000   0x0000000000000000   0x0000000000000000   0x0000000000000000   0x0000000000000000   0x0000000000000000
0x00ec        0x0000000000000000   0x0000000000000000   0x0000000000000000   0x0000000000000000   0x0000000000000000   0x0000000000000000
0x00ed        0x0400356384128009   0x0000000000000000   0x0000000000000000   0x0000000000000000   0x0000000000000000   0x0000000000000000
0x00ee        0x0000000000000000   0x0000000000000000   0x0000000000000000   0x0000000000000000   0x0000000000000000   0x0000000000000000
0x00ef        0x0000000000000000   0x0000000000000000   0x0000000000000000   0x0000000000000000   0x0000000000000000   0x0000000000000000
0x00f0        0x0000000000000000   0x0000000000000000   0x0000000000000000   0x0000000000000000   0x0000000000000000   0x0000000000000000
0x00f1        0x0000000000000000   0x0000000000000000   0x0000000000000000   0x0000000000000000   0x0000000000000000   0x0000000000000000
0x00f2        0x0000000000000000   0x0000000000000000   0x0000000000000000   0x0000000000000000   0x0000000000000000   0x0000000000000000
0x00f3        0x14003C617834C016   0x0000000000000000   0x0000000000000000   0x0000000000000000   0x0000000000000000   0x0000000000000000
0x00f4        0x04003B613432C00D   0x0000000000000000   0x0000000000000000   0x0000000000000000   0x0000000000000000   0x0000000000000000
0x00f5        0x0000000000000000   0x0000000000000000   0x0000000000000000   0x0000000000000000   0x0000000000000000   0x0000000000000000
0x00f6        0x0C0038657006400E   0x0000000000000000   0x0000000000000000   0x0000000000000000   0x0000000000000000   0x0000000000000000
0x00f7        0x0C003B44C013C009   0x0000000000000000   0x0000000000000000   0x0000000000000000   0x0000000000000000   0x0000000000000000
0x00f8        0x0000000000000000   0x0000000000000000   0x0000000000000000   0x0000000000000000   0x0000000000000000   0x0000000000000000
0x00f9        0x0000000000000000   0x0000000000000000   0x0000000000000000   0x0000000000000000   0x0000000000000000   0x0000000000000000
0x00fa        0x0000000000000000   0x0000000000000000   0x0000000000000000   0x0000000000000000   0x0000000000000000   0x0000000000000000
0x00fb        0x0000000000000000   0x0000000000000000   0x0000000000000000   0x0000000000000000   0x0000000000000000   0x0000000000000000
0x00fc        0x0000B321E833800F   0x0C003C64441EC008   0x0000000000000000   0x0000000000000000   0x0000000000000000   0x0000000000000000
0x00fd        0x04003C41A036000B   0x0000A92218378007   0x0000000000000000   0x0000000000000000   0x0000000000000000   0x0000000000000000
0x00fe        0x000032020834C009   0x0000000000000000   0x0000000000000000   0x0000000000000000   0x0000000000000000   0x0000000000000000
0x00ff        0x14003D62CC3B801A   0x0000000000000000   0x0000000000000000   0x0000000000000000   0x0000000000000000   0x0000000000000000
0x0100        0x14003742A439C01A   0x0000000000000000   0x0000000000000000   0x0000000000000000   0x0000000000000000   0x0000000000000000
0x0101        0x0000000000000000   0x0000000000000000   0x0000000000000000   0x0000000000000000   0x0000000000000000   0x0000000000000000
0x0102        0x0000000000000000   0x0000000000000000   0x0000000000000000   0x0000000000000000   0x0000000000000000   0x0000000000000000
0x0103        0x0000000000000000   0x0000000000000000   0x0000000000000000   0x0000000000000000   0x0000000000000000   0x0000000000000000
0x0104        0x0000000000000000   0x0000000000000000   0x0000000000000000   0x0000000000000000   0x0000000000000000   0x0000000000000000
0x0105        0x0400396283BA4009   0x0000000000000000   0x0000000000000000   0x0000000000000000   0x0000000000000000   0x0000000000000000
0x0106        0x0400396283BA4009   0x0000000000000000   0x0000000000000000   0x0000000000000000   0x0000000000000000   0x0000000000000000
0x0107        0x0000000000000000   0x0000000000000000   0x0000000000000000   0x0000000000000000   0x0000000000000000   0x0000000000000000
0x0108        0x0000000000000000   0x0000000000000000   0x0000000000000000   0x0000000000000000   0x0000000000000000   0x0000000000000000
0x0109        0x0000000000000000   0x0000000000000000   0x0000000000000000   0x0000000000000000   0x0000000000000000   0x0000000000000000
0x010a        0x0000000000000000   0x0000000000000000   0x0000000000000000   0x0000000000000000   0x0000000000000000   0x0000000000000000
0x010b        0x0000000000000000   0x0000000000000000   0x0000000000000000   0x0000000000000000   0x0000000000000000   0x0000000000000000
0x010c        0x0000000000000000   0x0000000000000000   0x0000000000000000   0x0000000000000000   0x0000000000000000   0x0000000000000000
0x010d        0x0000000000000000   0x0000000000000000   0x0000000000000000   0x0000000000000000   0x0000000000000000   0x0000000000000000
0x010e        0x0000000000000000   0x0000000000000000   0x0000000000000000   0x0000000000000000   0x0000000000000000   0x0000000000000000
0x010f        0x0000000000000000   0x0000000000000000   0x0000000000000000   0x0000000000000000   0x0000000000000000   0x0000000000000000
0x0110        0x0000000000000000   0x0000000000000000   0x0000000000000000   0x0000000000000000   0x0000000000000000   0x0000000000000000
0x0111        0x0000000000000000   0x0000000000000000   0x0000000000000000   0x0000000000000000   0x0000000000000000   0x0000000000000000
0x0112        0x0000000000000000   0x0000000000000000   0x0000000000000000   0x0000000000000000   0x0000000000000000   0x0000000000000000
0x0113        0x0000000000000000   0x0000000000000000   0x0000000000000000   0x0000000000000000   0x0000000000000000   0x0000000000000000
0x0114        0x0000000000000000   0x0000000000000000   0x0000000000000000   0x0000000000000000   0x0000000000000000   0x0000000000000000
0x0115        0x0000000000000000   0x0000000000000000   0x0000000000000000   0x0000000000000000   0x0000000000000000   0x0000000000000000
0x0116        0x0000000000000000   0x0000000000000000   0x0000000000000000   0x0000000000000000   0x0000000000000000   0x0000000000000000
0x0117        0x0000000000000000   0x0000000000000000   0x0000000000000000   0x0000000000000000   0x0000000000000000   0x0000000000000000
0x0118        0x0000000000000000   0x0000000000000000   0x0000000000000000   0x0000000000000000   0x0000000000000000   0x0000000000000000
0x0119        0x0000000000000000   0x0000000000000000   0x0000000000000000   0x0000000000000000   0x0000000000000000   0x0000000000000000
0x011a        0x0000000000000000   0x0000000000000000   0x0000000000000000   0x0000000000000000   0x0000000000000000   0x0000000000000000
0x011b        0x0000000000000000   0x0000000000000000   0x0000000000000000   0x0000000000000000   0x0000000000000000   0x0000000000000000
0x011c        0x0000000000000000   0x0000000000000000   0x0000000000000000   0x0000000000000000   0x0000000000000000   0x0000000000000000
0x011d        0x0000000000000000   0x0000000000000000   0x0000000000000000   0x0000000000000000   0x0000000000000000   0x0000000000000000
0x011e        0x0000000000000000   0x0000000000000000   0x0000000000000000   0x0000000000000000   0x0000000000000000   0x0000000000000000
0x011f        0x0000000000000000   0x0000000000000000   0x0000000000000000   0x0000000000000000   0x0000000000000000   0x0000000000000000
0x0120        0x0C001D412BFE400C   0x0000000000000000   0x0000000000000000   0x0000000000000000   0x0000000000000000   0x0000000000000000
0x0121        0x0000000000000000   0x0000000000000000   0x0000000000000000   0x0000000000000000   0x0000000000000000   0x0000000000000000
0x0122        0x0000000000000000   0x0000000000000000   0x0000000000000000   0x0000000000000000   0x0000000000000000   0x0000000000000000
0x0123        0x0C001C63D8008009   0x0000000000000000   0x0000000000000000   0x0000000000000000   0x0000000000000000   0x0000000000000000
0x0124        0x0000000000000000   0x0000000000000000   0x0000000000000000   0x0000000000000000   0x0000000000000000   0x0000000000000000
0x0125        0x0000000000000000   0x0000000000000000   0x0000000000000000   0x0000000000000000   0x0000000000000000   0x0000000000000000
0x0126        0x0000000000000000   0x0000000000000000   0x0000000000000000   0x0000000000000000   0x0000000000000000   0x0000000000000000
0x0127        0x0000000000000000   0x0000000000000000   0x0000000000000000   0x0000000000000000   0x0000000000000000   0x0000000000000000
0x0128        0x0000000000000000   0x0000000000000000   0x0000000000000000   0x0000000000000000   0x0000000000000000   0x0000000000000000
0x0129        0x0000000000000000   0x0000000000000000   0x0000000000000000   0x0000000000000000   0x0000000000000000   0x0000000000000000
0x012a        0x0000000000000000   0x0000000000000000   0x0000000000000000   0x0000000000000000   0x0000000000000000   0x0000000000000000
0x012b        0x0000000000000000   0x0000000000000000   0x0000000000000000   0x0000000000000000   0x0000000000000000   0x0000000000000000
0x012c        0x0000000000000000   0x0000000000000000   0x0000000000000000   0x0000000000000000   0x0000000000000000   0x0000000000000000
0x012d        0x0000000000000000   0x0000000000000000   0x0000000000000000   0x0000000000000000   0x0000000000000000   0x0000000000000000
0x012e        0x0000000000000000   0x0000000000000000   0x0000000000000000   0x0000000000000000   0x0000000000000000   0x0000000000000000
0x012f        0x0000000000000000   0x0000000000000000   0x0000000000000000   0x0000000000000000   0x0000000000000000   0x0000000000000000
0x0130        0x0000000000000000   0x0000000000000000   0x0000000000000000   0x0000000000000000   0x0000000000000000   0x0000000000000000
0x0131        0x0000000000000000   0x0000000000000000   0x0000000000000000   0x0000000000000000   0x0000000000000000   0x0000000000000000
0x0132        0x04001340E8328008   0x0000000000000000   0x0000000000000000   0x0000000000000000   0x0000000000000000   0x0000000000000000
0x0133        0x0000000000000000   0x0000000000000000   0x0000000000000000   0x0000000000000000   0x0000000000000000   0x0000000000000000
0x0134        0x0000000000000000   0x0000000000000000   0x0000000000000000   0x0000000000000000   0x0000000000000000   0x0000000000000000
0x0135        0x0000000000000000   0x0000000000000000   0x0000000000000000   0x0000000000000000   0x0000000000000000   0x0000000000000000
0x0136        0x0000000000000000   0x0000000000000000   0x0000000000000000   0x0000000000000000   0x0000000000000000   0x0000000000000000
0x0137        0x0000000000000000   0x0000000000000000   0x0000000000000000   0x0000000000000000   0x0000000000000000   0x0000000000000000
0x0138        0x0C001E5F0052400D   0x0000000000000000   0x0000000000000000   0x0000000000000000   0x0000000000000000   0x0000000000000000
0x0139        0x0000000000000000   0x0000000000000000   0x0000000000000000   0x0000000000000000   0x0000000000000000   0x0000000000000000
0x013a        0x0000000000000000   0x0000000000000000   0x0000000000000000   0x0000000000000000   0x0000000000000000   0x0000000000000000
0x013b        0x0000000000000000   0x0000000000000000   0x0000000000000000   0x0000000000000000   0x0000000000000000   0x0000000000000000
0x013c        0x0000000000000000   0x0000000000000000   0x0000000000000000   0x0000000000000000   0x0000000000000000   0x0000000000000000
0x013d        0x0000000000000000   0x0000000000000000   0x0000000000000000   0x0000000000000000   0x0000000000000000   0x0000000000000000
0x013e        0x00004E0620450012   0x0000000000000000   0x0000000000000000   0x0000000000000000   0x0000000000000000   0x0000000000000000
0x013f        0x040021670844C00A   0x0000000000000000   0x0000000000000000   0x0000000000000000   0x0000000000000000   0x0000000000000000
0x0140        0x0000000000000000   0x0000000000000000   0x0000000000000000   0x0000000000000000   0x0000000000000000   0x0000000000000000
0x0141        0x0C00165F3BD1800A   0x0000000000000000   0x0000000000000000   0x0000000000000000   0x0000000000000000   0x0000000000000000
0x0142        0x0000000000000000   0x0000000000000000   0x0000000000000000   0x0000000000000000   0x0000000000000000   0x0000000000000000
0x0143        0x0000000000000000   0x0000000000000000   0x0000000000000000   0x0000000000000000   0x0000000000000000   0x0000000000000000
0x0144        0x0000000000000000   0x0000000000000000   0x0000000000000000   0x0000000000000000   0x0000000000000000   0x0000000000000000
0x0145        0x0000000000000000   0x0000000000000000   0x0000000000000000   0x0000000000000000   0x0000000000000000   0x0000000000000000
0x0146        0x0000000000000000   0x0000000000000000   0x0000000000000000   0x0000000000000000   0x0000000000000000   0x0000000000000000
0x0147        0x0000000000000000   0x0000000000000000   0x0000000000000000   0x0000000000000000   0x0000000000000000   0x0000000000000000
0x0148        0x0000000000000000   0x0000000000000000   0x0000000000000000   0x0000000000000000   0x0000000000000000   0x0000000000000000
0x0149        0x0000000000000000   0x0000000000000000   0x0000000000000000   0x0000000000000000   0x0000000000000000   0x0000000000000000
0x014a        0x0000000000000000   0x0000000000000000   0x0000000000000000   0x0000000000000000   0x0000000000000000   0x0000000000000000
0x014b        0x0000000000000000   0x0000000000000000   0x0000000000000000   0x0000000000000000   0x0000000000000000   0x0000000000000000
0x014c        0x0000000000000000   0x0000000000000000   0x0000000000000000   0x0000000000000000   0x0000000000000000   0x0000000000000000
0x014d        0x040058A11BF40008   0x0000000000000000   0x0000000000000000   0x0000000000000000   0x0000000000000000   0x0000000000000000
0x014e        0x0000000000000000   0x0000000000000000   0x0000000000000000   0x0000000000000000   0x0000000000000000   0x0000000000000000
0x014f        0x0000000000000000   0x0000000000000000   0x0000000000000000   0x0000000000000000   0x0000000000000000   0x0000000000000000
0x0150        0x0C005AA50FC9C012   0x0000000000000000   0x0000000000000000   0x0000000000000000   0x0000000000000000   0x0000000000000000
0x0151        0x0000000000000000   0x0000000000000000   0x0000000000000000   0x0000000000000000   0x0000000000000000   0x0000000000000000
0x0152        0x0000000000000000   0x0000000000000000   0x0000000000000000   0x0000000000000000   0x0000000000000000   0x0000000000000000
0x0153        0x0C0058442FEB800A   0x0000000000000000   0x0000000000000000   0x0000000000000000   0x0000000000000000   0x0000000000000000
0x0154        0x0000000000000000   0x0000000000000000   0x0000000000000000   0x0000000000000000   0x0000000000000000   0x0000000000000000
0x0155        0x0000000000000000   0x0000000000000000   0x0000000000000000   0x0000000000000000   0x0000000000000000   0x0000000000000000
0x0156        0x1C005E6357EB0022   0x0C005F426FF70014   0x0000D0231BF78009   0x0000000000000000   0x0000000000000000   0x0000000000000000
0x0157        0x1C006062BFFDC01A   0x0C005D633BE9C00E   0x0000CC231BE98005   0x0000000000000000   0x0000000000000000   0x0000000000000000
0x0158        0x1C005F42CFEBC015   0x04005D4247F0000D   0x0000000000000000   0x0000000000000000   0x0000000000000000   0x0000000000000000
0x0159        0x1C005E42DFFF8027   0x0000000000000000   0x0000000000000000   0x0000000000000000   0x0000000000000000   0x0000000000000000
0x015a        0x000066035C028010   0x0000000000000000   0x0000000000000000   0x0000000000000000   0x0000000000000000   0x0000000000000000
0x015b        0x0000000000000000   0x0000000000000000   0x0000000000000000   0x0000000000000000   0x0000000000000000   0x0000000000000000
0x015c        0x04005E621004800B   0x0000000000000000   0x0000000000000000   0x0000000000000000   0x0000000000000000   0x0000000000000000
0x015d        0x0000000000000000   0x0000000000000000   0x0000000000000000   0x0000000000000000   0x0000000000000000   0x0000000000000000
0x015e        0x0000000000000000   0x0000000000000000   0x0000000000000000   0x0000000000000000   0x0000000000000000   0x0000000000000000
0x015f        0x0000000000000000   0x0000000000000000   0x0000000000000000   0x0000000000000000   0x0000000000000000   0x0000000000000000
0x0160        0x0000000000000000   0x0000000000000000   0x0000000000000000   0x0000000000000000   0x0000000000000000   0x0000000000000000
0x0161        0x0000000000000000   0x0000000000000000   0x0000000000000000   0x0000000000000000   0x0000000000000000   0x0000000000000000
0x0162        0x0000000000000000   0x0000000000000000   0x0000000000000000   0x0000000000000000   0x0000000000000000   0x0000000000000000
0x0163        0x0000000000000000   0x0000000000000000   0x0000000000000000   0x0000000000000000   0x0000000000000000   0x0000000000000000
0x0164        0x0000000000000000   0x0000000000000000   0x0000000000000000   0x0000000000000000   0x0000000000000000   0x0000000000000000
0x0165        0x0000000000000000   0x0000000000000000   0x0000000000000000   0x0000000000000000   0x0000000000000000   0x0000000000000000
0x0166        0x0000000000000000   0x0000000000000000   0x0000000000000000   0x0000000000000000   0x0000000000000000   0x0000000000000000
0x0167        0x0000000000000000   0x0000000000000000   0x0000000000000000   0x0000000000000000   0x0000000000000000   0x0000000000000000
0x0168        0x0000AE22082F8012   0x0000000000000000   0x0000000000000000   0x0000000000000000   0x0000000000000000   0x0000000000000000
0x0169        0x0C005B40A42C8009   0x0000000000000000   0x0000000000000000   0x0000000000000000   0x0000000000000000   0x0000000000000000
0x016a        0x0000000000000000   0x0000000000000000   0x0000000000000000   0x0000000000000000   0x0000000000000000   0x0000000000000000
0x016b        0x0000000000000000   0x0000000000000000   0x0000000000000000   0x0000000000000000   0x0000000000000000   0x0000000000000000
0x016c        0x0000000000000000   0x0000000000000000   0x0000000000000000   0x0000000000000000   0x0000000000000000   0x0000000000000000
0x016d        0x0000000000000000   0x0000000000000000   0x0000000000000000   0x0000000000000000   0x0000000000000000   0x0000000000000000
0x016e        0x0000000000000000   0x0000000000000000   0x0000000000000000   0x0000000000000000   0x0000000000000000   0x0000000000000000
0x016f        0x0000000000000000   0x0000000000000000   0x0000000000000000   0x0000000000000000   0x0000000000000000   0x0000000000000000
0x0170        0x0000000000000000   0x0000000000000000   0x0000000000000000   0x0000000000000000   0x0000000000000000   0x0000000000000000
0x0171        0x0000000000000000   0x0000000000000000   0x0000000000000000   0x0000000000000000   0x0000000000000000   0x0000000000000000
0x0172        0x0000000000000000   0x0000000000000000   0x0000000000000000   0x0000000000000000   0x0000000000000000   0x0000000000000000
0x0173        0x0000000000000000   0x0000000000000000   0x0000000000000000   0x0000000000000000   0x0000000000000000   0x0000000000000000
0x0174        0x0000000000000000   0x0000000000000000   0x0000000000000000   0x0000000000000000   0x0000000000000000   0x0000000000000000
0x0175        0x0000000000000000   0x0000000000000000   0x0000000000000000   0x0000000000000000   0x0000000000000000   0x0000000000000000
0x0176        0x0000000000000000   0x0000000000000000   0x0000000000000000   0x0000000000000000   0x0000000000000000   0x0000000000000000
0x0177        0x0000000000000000   0x0000000000000000   0x0000000000000000   0x0000000000000000   0x0000000000000000   0x0000000000000000
0x0178        0x0000000000000000   0x0000000000000000   0x0000000000000000   0x0000000000000000   0x0000000000000000   0x0000000000000000
0x0179        0x0000000000000000   0x0000000000000000   0x0000000000000000   0x0000000000000000   0x0000000000000000   0x0000000000000000
0x017a        0x14007A5E8BC3402B   0x0000000000000000   0x0000000000000000   0x0000000000000000   0x0000000000000000   0x0000000000000000
0x017b        0x000013011FC1C004   0x0000000000000000   0x0000000000000000   0x0000000000000000   0x0000000000000000   0x0000000000000000
0x017c        0x0000000000000000   0x0000000000000000   0x0000000000000000   0x0000000000000000   0x0000000000000000   0x0000000000000000
0x017d        0x0C007A63B7D4800D   0x0000000000000000   0x0000000000000000   0x0000000000000000   0x0000000000000000   0x0000000000000000
0x017e        0x0000000000000000   0x0000000000000000   0x0000000000000000   0x0000000000000000   0x0000000000000000   0x0000000000000000
0x017f        0x0000000000000000   0x0000000000000000   0x0000000000000000   0x0000000000000000   0x0000000000000000   0x0000000000000000
0x0180        0x14007743C3C00051   0x1400794483C28014   0x0000C823DBAF8007   0x0000000000000000   0x0000000000000000   0x0000000000000000
0x0181        0x14007D43EFB4801E   0x00027B03E7C2C00F   0x0000000000000000   0x0000000000000000   0x0000000000000000   0x0000000000000000
0x0182        0x14007F43B7C08015   0x0C007643AFB6C00E   0x0000000000000000   0x0000000000000000   0x0000000000000000   0x0000000000000000
0x0183        0x0000000000000000   0x0000000000000000   0x0000000000000000   0x0000000000000000   0x0000000000000000   0x0000000000000000
0x0184        0x0000000000000000   0x0000000000000000   0x0000000000000000   0x0000000000000000   0x0000000000000000   0x0000000000000000
0x0185        0x0000000000000000   0x0000000000000000   0x0000000000000000   0x0000000000000000   0x0000000000000000   0x0000000000000000
0x0186        0x0000ED240BC88011   0x0000000000000000   0x0000000000000000   0x0000000000000000   0x0000000000000000   0x0000000000000000
0x0187        0x0C007543FBC8800D   0x0000000000000000   0x0000000000000000   0x0000000000000000   0x0000000000000000   0x0000000000000000
0x0188        0x0000000000000000   0x0000000000000000   0x0000000000000000   0x0000000000000000   0x0000000000000000   0x0000000000000000
0x0189        0x0C006E4327EF400E   0x0000000000000000   0x0000000000000000   0x0000000000000000   0x0000000000000000   0x0000000000000000
0x018a        0x0000000000000000   0x0000000000000000   0x0000000000000000   0x0000000000000000   0x0000000000000000   0x0000000000000000
0x018b        0x0000000000000000   0x0000000000000000   0x0000000000000000   0x0000000000000000   0x0000000000000000   0x0000000000000000
0x018c        0x0000000000000000   0x0000000000000000   0x0000000000000000   0x0000000000000000   0x0000000000000000   0x0000000000000000
0x018d        0x0000000000000000   0x0000000000000000   0x0000000000000000   0x0000000000000000   0x0000000000000000   0x0000000000000000
0x018e        0x0000000000000000   0x0000000000000000   0x0000000000000000   0x0000000000000000   0x0000000000000000   0x0000000000000000
0x018f        0x0000000000000000   0x0000000000000000   0x0000000000000000   0x0000000000000000   0x0000000000000000   0x0000000000000000
0x0190        0x0000000000000000   0x0000000000000000   0x0000000000000000   0x0000000000000000   0x0000000000000000   0x0000000000000000
0x0191        0x0000000000000000   0x0000000000000000   0x0000000000000000   0x0000000000000000   0x0000000000000000   0x0000000000000000
0x0192        0x0000000000000000   0x0000000000000000   0x0000000000000000   0x0000000000000000   0x0000000000000000   0x0000000000000000
0x0193        0x0000000000000000   0x0000000000000000   0x0000000000000000   0x0000000000000000   0x0000000000000000   0x0000000000000000
0x0194        0x0000000000000000   0x0000000000000000   0x0000000000000000   0x0000000000000000   0x0000000000000000   0x0000000000000000
0x0195        0x0000000000000000   0x0000000000000000   0x0000000000000000   0x0000000000000000   0x0000000000000000   0x0000000000000000
0x0196        0x0000000000000000   0x0000000000000000   0x0000000000000000   0x0000000000000000   0x0000000000000000   0x0000000000000000
0x0197        0x0000000000000000   0x0000000000000000   0x0000000000000000   0x0000000000000000   0x0000000000000000   0x0000000000000000
0x0198        0x1C007965B405C031   0x0000D125E80A8004   0x0000000000000000   0x0000000000000000   0x0000000000000000   0x0000000000000000
0x0199        0x0000C2057409002B   0x0000000000000000   0x0000000000000000   0x0000000000000000   0x0000000000000000   0x0000000000000000
0x019a        0x1C007A45980B8024   0x0000000000000000   0x0000000000000000   0x0000000000000000   0x0000000000000000   0x0000000000000000
0x019b        0x1400794484314020   0x00002304CC260006   0x0000000000000000   0x0000000000000000   0x0000000000000000   0x0000000000000000
0x019c        0x0C007964CC27000E   0x0000000000000000   0x0000000000000000   0x0000000000000000   0x0000000000000000   0x0000000000000000
0x019d        0x0C0076653C1A400B   0x0000000000000000   0x0000000000000000   0x0000000000000000   0x0000000000000000   0x0000000000000000
0x019e        0x0000000000000000   0x0000000000000000   0x0000000000000000   0x0000000000000000   0x0000000000000000   0x0000000000000000
0x019f        0x0000000000000000   0x0000000000000000   0x0000000000000000   0x0000000000000000   0x0000000000000000   0x0000000000000000
0x01a0        0x0000000000000000   0x0000000000000000   0x0000000000000000   0x0000000000000000   0x0000000000000000   0x0000000000000000
0x01a1        0x0000000000000000   0x0000000000000000   0x0000000000000000   0x0000000000000000   0x0000000000000000   0x0000000000000000
0x01a2        0x0000000000000000   0x0000000000000000   0x0000000000000000   0x0000000000000000   0x0000000000000000   0x0000000000000000
0x01a3        0x0000000000000000   0x0000000000000000   0x0000000000000000   0x0000000000000000   0x0000000000000000   0x0000000000000000
0x01a4        0x0000000000000000   0x0000000000000000   0x0000000000000000   0x0000000000000000   0x0000000000000000   0x0000000000000000
0x01a5        0x0000000000000000   0x0000000000000000   0x0000000000000000   0x0000000000000000   0x0000000000000000   0x0000000000000000
0x01a6        0x0000000000000000   0x0000000000000000   0x0000000000000000   0x0000000000000000   0x0000000000000000   0x0000000000000000
0x01a7        0x14007D6397AD0032   0x04007682BBBEC012   0x04007462EBBD4008   0x0000000000000000   0x0000000000000000   0x0000000000000000
0x01a8        0x0000FC233BBF802A   0x0400796403C1800F   0x0000DB233BAC8005   0x0000000000000000   0x0000000000000000   0x0000000000000000
0x01a9        0x00006C0347C1C012   0x0400736417B3400F   0x0000000000000000   0x0000000000000000   0x0000000000000000   0x0000000000000000
0x01aa        0x04007645203BC012   0x0000000000000000   0x0000000000000000   0x0000000000000000   0x0000000000000000   0x0000000000000000
0x01ab        0x0000000000000000   0x0000000000000000   0x0000000000000000   0x0000000000000000   0x0000000000000000   0x0000000000000000
0x01ac        0x0000000000000000   0x0000000000000000   0x0000000000000000   0x0000000000000000   0x0000000000000000   0x0000000000000000
0x01ad        0x0C007A5E9BCB000C   0x0000000000000000   0x0000000000000000   0x0000000000000000   0x0000000000000000   0x0000000000000000
0x01ae        0x0000000000000000   0x0000000000000000   0x0000000000000000   0x0000000000000000   0x0000000000000000   0x0000000000000000
0x01af        0x0000000000000000   0x0000000000000000   0x0000000000000000   0x0000000000000000   0x0000000000000000   0x0000000000000000
0x01b0        0x0000000000000000   0x0000000000000000   0x0000000000000000   0x0000000000000000   0x0000000000000000   0x0000000000000000
0x01b1        0x0000000000000000   0x0000000000000000   0x0000000000000000   0x0000000000000000   0x0000000000000000   0x0000000000000000
0x01b2        0x0000000000000000   0x0000000000000000   0x0000000000000000   0x0000000000000000   0x0000000000000000   0x0000000000000000
0x01b3        0x0000000000000000   0x0000000000000000   0x0000000000000000   0x0000000000000000   0x0000000000000000   0x0000000000000000
0x01b4        0x0000000000000000   0x0000000000000000   0x0000000000000000   0x0000000000000000   0x0000000000000000   0x0000000000000000
0x01b5        0x0000000000000000   0x0000000000000000   0x0000000000000000   0x0000000000000000   0x0000000000000000   0x0000000000000000
0x01b6        0x0C00106737BB000A   0x0000000000000000   0x0000000000000000   0x0000000000000000   0x0000000000000000   0x0000000000000000
0x01b7        0x0000000000000000   0x0000000000000000   0x0000000000000000   0x0000000000000000   0x0000000000000000   0x0000000000000000
0x01b8        0x0000000000000000   0x0000000000000000   0x0000000000000000   0x0000000000000000   0x0000000000000000   0x0000000000000000
0x01b9        0x000100204BE88051   0x04000D405FE74010   0x0000000000000000   0x0000000000000000   0x0000000000000000   0x0000000000000000
0x01ba        0x0000FF201BE58040   0x0400155FA3F1800C   0x0000000000000000   0x0000000000000000   0x0000000000000000   0x0000000000000000
0x01bb        0x00029E0027E5C021   0x0000000000000000   0x0000000000000000   0x0000000000000000   0x0000000000000000   0x0000000000000000
0x01bc        0x0000000000000000   0x0000000000000000   0x0000000000000000   0x0000000000000000   0x0000000000000000   0x0000000000000000
0x01bd        0x0000000000000000   0x0000000000000000   0x0000000000000000   0x0000000000000000   0x0000000000000000   0x0000000000000000
0x01be        0x0000000000000000   0x0000000000000000   0x0000000000000000   0x0000000000000000   0x0000000000000000   0x0000000000000000
0x01bf        0x0C00106733FB8009   0x0000000000000000   0x0000000000000000   0x0000000000000000   0x0000000000000000   0x0000000000000000
0x01c0        0x0000000000000000   0x0000000000000000   0x0000000000000000   0x0000000000000000   0x0000000000000000   0x0000000000000000
0x01c1        0x0000000000000000   0x0000000000000000   0x0000000000000000   0x0000000000000000   0x0000000000000000   0x0000000000000000
0x01c2        0x0000000000000000   0x0000000000000000   0x0000000000000000   0x0000000000000000   0x0000000000000000   0x0000000000000000
0x01c3        0x0000000000000000   0x0000000000000000   0x0000000000000000   0x0000000000000000   0x0000000000000000   0x0000000000000000
0x01c4        0x0000000000000000   0x0000000000000000   0x0000000000000000   0x0000000000000000   0x0000000000000000   0x0000000000000000
0x01c5        0x0000000000000000   0x0000000000000000   0x0000000000000000   0x0000000000000000   0x0000000000000000   0x0000000000000000
0x01c6        0x0000000000000000   0x0000000000000000   0x0000000000000000   0x0000000000000000   0x0000000000000000   0x0000000000000000
0x01c7        0x0000000000000000   0x0000000000000000   0x0000000000000000   0x0000000000000000   0x0000000000000000   0x0000000000000000
0x01c8        0x0C000E61E418400A   0x0000000000000000   0x0000000000000000   0x0000000000000000   0x0000000000000000   0x0000000000000000
0x01c9        0x0000000000000000   0x0000000000000000   0x0000000000000000   0x0000000000000000   0x0000000000000000   0x0000000000000000
0x01ca        0x0000000000000000   0x0000000000000000   0x0000000000000000   0x0000000000000000   0x0000000000000000   0x0000000000000000
0x01cb        0x0000000000000000   0x0000000000000000   0x0000000000000000   0x0000000000000000   0x0000000000000000   0x0000000000000000
0x01cc        0x0000000000000000   0x0000000000000000   0x0000000000000000   0x0000000000000000   0x0000000000000000   0x0000000000000000
0x01cd        0x0000000000000000   0x0000000000000000   0x0000000000000000   0x0000000000000000   0x0000000000000000   0x0000000000000000
0x01ce        0x0C0011667413C00B   0x0000000000000000   0x0000000000000000   0x0000000000000000   0x0000000000000000   0x0000000000000000
0x01cf        0x0000000000000000   0x0000000000000000   0x0000000000000000   0x0000000000000000   0x0000000000000000   0x0000000000000000
0x01d0        0x0000000000000000   0x0000000000000000   0x0000000000000000   0x0000000000000000   0x0000000000000000   0x0000000000000000
0x01d1        0x04000D44BC38800C   0x0000000000000000   0x0000000000000000   0x0000000000000000   0x0000000000000000   0x0000000000000000
0x01d2        0x0000000000000000   0x0000000000000000   0x0000000000000000   0x0000000000000000   0x0000000000000000   0x0000000000000000
0x01d3        0x0000000000000000   0x0000000000000000   0x0000000000000000   0x0000000000000000   0x0000000000000000   0x0000000000000000
0x01d4        0x0000000000000000   0x0000000000000000   0x0000000000000000   0x0000000000000000   0x0000000000000000   0x0000000000000000
0x01d5        0x0000000000000000   0x0000000000000000   0x0000000000000000   0x0000000000000000   0x0000000000000000   0x0000000000000000
0x01d6        0x0000000000000000   0x0000000000000000   0x0000000000000000   0x0000000000000000   0x0000000000000000   0x0000000000000000
0x01d7        0x0000000000000000   0x0000000000000000   0x0000000000000000   0x0000000000000000   0x0000000000000000   0x0000000000000000
0x01d8        0x0000000000000000   0x0000000000000000   0x0000000000000000   0x0000000000000000   0x0000000000000000   0x0000000000000000
0x01d9        0x0000000000000000   0x0000000000000000   0x0000000000000000   0x0000000000000000   0x0000000000000000   0x0000000000000000
0x01da        0x0000000000000000   0x0000000000000000   0x0000000000000000   0x0000000000000000   0x0000000000000000   0x0000000000000000
0x01db        0x0000000000000000   0x0000000000000000   0x0000000000000000   0x0000000000000000   0x0000000000000000   0x0000000000000000
0x01dc        0x0000000000000000   0x0000000000000000   0x0000000000000000   0x0000000000000000   0x0000000000000000   0x0000000000000000
0x01dd        0x0000000000000000   0x0000000000000000   0x0000000000000000   0x0000000000000000   0x0000000000000000   0x0000000000000000
0x01de        0x0000000000000000   0x0000000000000000   0x0000000000000000   0x0000000000000000   0x0000000000000000   0x0000000000000000
0x01df        0x0000000000000000   0x0000000000000000   0x0000000000000000   0x0000000000000000   0x0000000000000000   0x0000000000000000
0x01e0        0x0000000000000000   0x0000000000000000   0x0000000000000000   0x0000000000000000   0x0000000000000000   0x0000000000000000
0x01e1        0x0000000000000000   0x0000000000000000   0x0000000000000000   0x0000000000000000   0x0000000000000000   0x0000000000000000
0x01e2        0x0000000000000000   0x0000000000000000   0x0000000000000000   0x0000000000000000   0x0000000000000000   0x0000000000000000
0x01e3        0x1C000A5FFBE2C025   0x0000E0201BE1800D   0x0000000000000000   0x0000000000000000   0x0000000000000000   0x0000000000000000
0x01e4        0x1C000C7FAFE08015   0x0000B63F3BDD8007   0x0000000000000000   0x0000000000000000   0x0000000000000000   0x0000000000000000
0x01e5        0x0C0010601BE34010   0x0000000000000000   0x0000000000000000   0x0000000000000000   0x0000000000000000   0x0000000000000000
0x01e6        0x0400015E77C38009   0x0000000000000000   0x0000000000000000   0x0000000000000000   0x0000000000000000   0x0000000000000000
0x01e7        0x0000000000000000   0x0000000000000000   0x0000000000000000   0x0000000000000000   0x0000000000000000   0x0000000000000000
0x01e8        0x0000000000000000   0x0000000000000000   0x0000000000000000   0x0000000000000000   0x0000000000000000   0x0000000000000000
0x01e9        0x0000000000000000   0x0000000000000000   0x0000000000000000   0x0000000000000000   0x0000000000000000   0x0000000000000000
0x01ea        0x0000000000000000   0x0000000000000000   0x0000000000000000   0x0000000000000000   0x0000000000000000   0x0000000000000000
0x01eb        0x0000000000000000   0x0000000000000000   0x0000000000000000   0x0000000000000000   0x0000000000000000   0x0000000000000000
0x01ec        0x0000000000000000   0x0000000000000000   0x0000000000000000   0x0000000000000000   0x0000000000000000   0x0000000000000000
0x01ed        0x0000000000000000   0x0000000000000000   0x0000000000000000   0x0000000000000000   0x0000000000000000   0x0000000000000000
0x01ee        0x0000000000000000   0x0000000000000000   0x0000000000000000   0x0000000000000000   0x0000000000000000   0x0000000000000000
0x01ef        0x0000000000000000   0x0000000000000000   0x0000000000000000   0x0000000000000000   0x0000000000000000   0x0000000000000000
0x01f0        0x0000000000000000   0x0000000000000000   0x0000000000000000   0x0000000000000000   0x0000000000000000   0x0000000000000000
0x01f1        0x0000000000000000   0x0000000000000000   0x0000000000000000   0x0000000000000000   0x0000000000000000   0x0000000000000000
0x01f2        0x0000000000000000   0x0000000000000000   0x0000000000000000   0x0000000000000000   0x0000000000000000   0x0000000000000000
0x01f3        0x0000000000000000   0x0000000000000000   0x0000000000000000   0x0000000000000000   0x0000000000000000   0x0000000000000000
0x01f4        0x0000000000000000   0x0000000000000000   0x0000000000000000   0x0000000000000000   0x0000000000000000   0x0000000000000000
0x01f5        0x0000000000000000   0x0000000000000000   0x0000000000000000   0x0000000000000000   0x0000000000000000   0x0000000000000000
0x01f6        0x0000000000000000   0x0000000000000000   0x0000000000000000   0x0000000000000000   0x0000000000000000   0x0000000000000000
0x01f7        0x0000000000000000   0x0000000000000000   0x0000000000000000   0x0000000000000000   0x0000000000000000   0x0000000000000000
0x01f8        0x0000000000000000   0x0000000000000000   0x0000000000000000   0x0000000000000000   0x0000000000000000   0x0000000000000000
0x01f9        0x0000000000000000   0x0000000000000000   0x0000000000000000   0x0000000000000000   0x0000000000000000   0x0000000000000000
0x01fa        0x0000000000000000   0x0000000000000000   0x0000000000000000   0x0000000000000000   0x0000000000000000   0x0000000000000000
0x01fb        0x0000000000000000   0x0000000000000000   0x0000000000000000   0x0000000000000000   0x0000000000000000   0x0000000000000000
0x01fc        0x0000000000000000   0x0000000000000000   0x0000000000000000   0x0000000000000000   0x0000000000000000   0x0000000000000000
0x01fd        0x0000000000000000   0x0000000000000000   0x0000000000000000   0x0000000000000000   0x0000000000000000   0x0000000000000000
0x01fe        0x0C03F760CC054009   0x0000000000000000   0x0000000000000000   0x0000000000000000   0x0000000000000000   0x0000000000000000
0x01ff        0x0000000000000000   0x0000000000000000   0x0000000000000000   0x0000000000000000   0x0000000000000000   0x0000000000000000
0x0200        0x0000000000000000   0x0000000000000000   0x0000000000000000   0x0000000000000000   0x0000000000000000   0x0000000000000000
0x0201        0x0000000000000000   0x0000000000000000   0x0000000000000000   0x0000000000000000   0x0000000000000000   0x0000000000000000
0x0202        0x0000000000000000   0x0000000000000000   0x0000000000000000   0x0000000000000000   0x0000000000000000   0x0000000000000000
0x0203        0x0000000000000000   0x0000000000000000   0x0000000000000000   0x0000000000000000   0x0000000000000000   0x0000000000000000
0x0204        0x0004F1262811802D   0x0403FA66AC15000B   0x00008325D8098007   0x0000000000000000   0x0000000000000000   0x0000000000000000
0x0205        0x0C03F7450C11C012   0x0C03FA66AC15000B   0x00002305B0078006   0x0000000000000000   0x0000000000000000   0x0000000000000000
0x0206        0x0403FA656010400C   0x0403FF65E80C8009   0x00008825680D8004   0x0000000000000000   0x0000000000000000   0x0000000000000000
0x0207        0x0000000000000000   0x0000000000000000   0x0000000000000000   0x0000000000000000   0x0000000000000000   0x0000000000000000
0x0208        0x0000000000000000   0x0000000000000000   0x0000000000000000   0x0000000000000000   0x0000000000000000   0x0000000000000000
0x0209        0x0000000000000000   0x0000000000000000   0x0000000000000000   0x0000000000000000   0x0000000000000000   0x0000000000000000
0x020a        0x0403F964242A400C   0x0000000000000000   0x0000000000000000   0x0000000000000000   0x0000000000000000   0x0000000000000000
0x020b        0x0000000000000000   0x0000000000000000   0x0000000000000000   0x0000000000000000   0x0000000000000000   0x0000000000000000
0x020c        0x0000000000000000   0x0000000000000000   0x0000000000000000   0x0000000000000000   0x0000000000000000   0x0000000000000000
0x020d        0x0000000000000000   0x0000000000000000   0x0000000000000000   0x0000000000000000   0x0000000000000000   0x0000000000000000
0x020e        0x0000000000000000   0x0000000000000000   0x0000000000000000   0x0000000000000000   0x0000000000000000   0x0000000000000000
0x020f        0x0000000000000000   0x0000000000000000   0x0000000000000000   0x0000000000000000   0x0000000000000000   0x0000000000000000
0x0210        0x0000000000000000   0x0000000000000000   0x0000000000000000   0x0000000000000000   0x0000000000000000   0x0000000000000000
0x0211        0x0000000000000000   0x0000000000000000   0x0000000000000000   0x0000000000000000   0x0000000000000000   0x0000000000000000
0x0212        0x0000000000000000   0x0000000000000000   0x0000000000000000   0x0000000000000000   0x0000000000000000   0x0000000000000000
0x0213        0x0000000000000000   0x0000000000000000   0x0000000000000000   0x0000000000000000   0x0000000000000000   0x0000000000000000
0x0214        0x0000000000000000   0x0000000000000000   0x0000000000000000   0x0000000000000000   0x0000000000000000   0x0000000000000000
0x0215        0x0000000000000000   0x0000000000000000   0x0000000000000000   0x0000000000000000   0x0000000000000000   0x0000000000000000
0x0216        0x0000000000000000   0x0000000000000000   0x0000000000000000   0x0000000000000000   0x0000000000000000   0x0000000000000000
0x0217        0x0000000000000000   0x0000000000000000   0x0000000000000000   0x0000000000000000   0x0000000000000000   0x0000000000000000
0x0218        0x0000000000000000   0x0000000000000000   0x0000000000000000   0x0000000000000000   0x0000000000000000   0x0000000000000000
0x0219        0x1C03FB5FB3D64028   0x0000D13FABD48007   0x0000000000000000   0x0000000000000000   0x0000000000000000   0x0000000000000000
0x021a        0x1C03FB5F9FDA0024   0x0000000000000000   0x0000000000000000   0x0000000000000000   0x0000000000000000   0x0000000000000000
0x021b        0x0000DD202BDF8011   0x0000000000000000   0x0000000000000000   0x0000000000000000   0x0000000000000000   0x0000000000000000
0x021c        0x0400777FC7BF400D   0x0000000000000000   0x0000000000000000   0x0000000000000000   0x0000000000000000   0x0000000000000000
0x021d        0x0000000000000000   0x0000000000000000   0x0000000000000000   0x0000000000000000   0x0000000000000000   0x0000000000000000
0x021e        0x0000000000000000   0x0000000000000000   0x0000000000000000   0x0000000000000000   0x0000000000000000   0x0000000000000000
0x021f        0x0000000000000000   0x0000000000000000   0x0000000000000000   0x0000000000000000   0x0000000000000000   0x0000000000000000
0x0220        0x0000000000000000   0x0000000000000000   0x0000000000000000   0x0000000000000000   0x0000000000000000   0x0000000000000000
0x0221        0x0000000000000000   0x0000000000000000   0x0000000000000000   0x0000000000000000   0x0000000000000000   0x0000000000000000
0x0222        0x000ECE263BB88018   0x0000000000000000   0x0000000000000000   0x0000000000000000   0x0000000000000000   0x0000000000000000
0x0223        0x00002F0627B7C009   0x0000000000000000   0x0000000000000000   0x0000000000000000   0x0000000000000000   0x0000000000000000
0x0224        0x0000000000000000   0x0000000000000000   0x0000000000000000   0x0000000000000000   0x0000000000000000   0x0000000000000000
0x0225        0x0000000000000000   0x0000000000000000   0x0000000000000000   0x0000000000000000   0x0000000000000000   0x0000000000000000
0x0226        0x0000000000000000   0x0000000000000000   0x0000000000000000   0x0000000000000000   0x0000000000000000   0x0000000000000000
0x0227        0x0000000000000000   0x0000000000000000   0x0000000000000000   0x0000000000000000   0x0000000000000000   0x0000000000000000
0x0228        0x1C007D4547DC4037   0x0000000000000000   0x0000000000000000   0x0000000000000000   0x0000000000000000   0x0000000000000000
0x0229        0x1C0080454FDAC02D   0x0000000000000000   0x0000000000000000   0x0000000000000000   0x0000000000000000   0x0000000000000000
0x022a        0x0C007964B7DE400E   0x0000000000000000   0x0000000000000000   0x0000000000000000   0x0000000000000000   0x0000000000000000
0x022b        0x0000000000000000   0x0000000000000000   0x0000000000000000   0x0000000000000000   0x0000000000000000   0x0000000000000000
0x022c        0x0000000000000000   0x0000000000000000   0x0000000000000000   0x0000000000000000   0x0000000000000000   0x0000000000000000
0x022d        0x0000000000000000   0x0000000000000000   0x0000000000000000   0x0000000000000000   0x0000000000000000   0x0000000000000000
0x022e        0x0000000000000000   0x0000000000000000   0x0000000000000000   0x0000000000000000   0x0000000000000000   0x0000000000000000
0x022f        0x0000000000000000   0x0000000000000000   0x0000000000000000   0x0000000000000000   0x0000000000000000   0x0000000000000000
0x0230        0x0000000000000000   0x0000000000000000   0x0000000000000000   0x0000000000000000   0x0000000000000000   0x0000000000000000
0x0231        0x0006FA21B80A802F   0x0004872308008006   0x0000000000000000   0x0000000000000000   0x0000000000000000   0x0000000000000000
0x0232        0x1C007C416C0AC016   0x0000672168068004   0x0000000000000000   0x0000000000000000   0x0000000000000000   0x0000000000000000
0x0233        0x0C007C643000800C   0x0000000000000000   0x0000000000000000   0x0000000000000000   0x0000000000000000   0x0000000000000000
0x0234        0x0000000000000000   0x0000000000000000   0x0000000000000000   0x0000000000000000   0x0000000000000000   0x0000000000000000
0x0235        0x0000000000000000   0x0000000000000000   0x0000000000000000   0x0000000000000000   0x0000000000000000   0x0000000000000000
0x0236        0x0000000000000000   0x0000000000000000   0x0000000000000000   0x0000000000000000   0x0000000000000000   0x0000000000000000
0x0237        0x0000000000000000   0x0000000000000000   0x0000000000000000   0x0000000000000000   0x0000000000000000   0x0000000000000000
0x0238        0x0000000000000000   0x0000000000000000   0x0000000000000000   0x0000000000000000   0x0000000000000000   0x0000000000000000
0x0239        0x0000000000000000   0x0000000000000000   0x0000000000000000   0x0000000000000000   0x0000000000000000   0x0000000000000000
0x023a        0x00008F0590030028   0x0C0076660C17000C   0x0000000000000000   0x0000000000000000   0x0000000000000000   0x0000000000000000
0x023b        0x0C007D649805400F   0x0000C426080D800A   0x0000000000000000   0x0000000000000000   0x0000000000000000   0x0000000000000000
0x023c        0x0C007A67140D400D   0x0000000000000000   0x0000000000000000   0x0000000000000000   0x0000000000000000   0x0000000000000000
0x023d        0x0C0080848C1EC00B   0x0000000000000000   0x0000000000000000   0x0000000000000000   0x0000000000000000   0x0000000000000000
0x023e        0x0000000000000000   0x0000000000000000   0x0000000000000000   0x0000000000000000   0x0000000000000000   0x0000000000000000
0x023f        0x0000000000000000   0x0000000000000000   0x0000000000000000   0x0000000000000000   0x0000000000000000   0x0000000000000000
0x0240        0x0000000000000000   0x0000000000000000   0x0000000000000000   0x0000000000000000   0x0000000000000000   0x0000000000000000
0x0241        0x0000000000000000   0x0000000000000000   0x0000000000000000   0x0000000000000000   0x0000000000000000   0x0000000000000000
0x0242        0x0000000000000000   0x0000000000000000   0x0000000000000000   0x0000000000000000   0x0000000000000000   0x0000000000000000
0x0243        0x0000000000000000   0x0000000000000000   0x0000000000000000   0x0000000000000000   0x0000000000000000   0x0000000000000000
0x0244        0x0000000000000000   0x0000000000000000   0x0000000000000000   0x0000000000000000   0x0000000000000000   0x0000000000000000
0x0245        0x0000000000000000   0x0000000000000000   0x0000000000000000   0x0000000000000000   0x0000000000000000   0x0000000000000000
0x0246        0x0000000000000000   0x0000000000000000   0x0000000000000000   0x0000000000000000   0x0000000000000000   0x0000000000000000
0x0247        0x0000000000000000   0x0000000000000000   0x0000000000000000   0x0000000000000000   0x0000000000000000   0x0000000000000000
0x0248        0x0000000000000000   0x0000000000000000   0x0000000000000000   0x0000000000000000   0x0000000000000000   0x0000000000000000
0x0249        0x0000000000000000   0x0000000000000000   0x0000000000000000   0x0000000000000000   0x0000000000000000   0x0000000000000000
0x024a        0x0000000000000000   0x0000000000000000   0x0000000000000000   0x0000000000000000   0x0000000000000000   0x0000000000000000
0x024b        0x0000000000000000   0x0000000000000000   0x0000000000000000   0x0000000000000000   0x0000000000000000   0x0000000000000000
0x024c        0x0000000000000000   0x0000000000000000   0x0000000000000000   0x0000000000000000   0x0000000000000000   0x0000000000000000
0x024d        0x0000000000000000   0x0000000000000000   0x0000000000000000   0x0000000000000000   0x0000000000000000   0x0000000000000000
0x024e        0x0000000000000000   0x0000000000000000   0x0000000000000000   0x0000000000000000   0x0000000000000000   0x0000000000000000
0x024f        0x04007A5E5FC6400E   0x0000000000000000   0x0000000000000000   0x0000000000000000   0x0000000000000000   0x0000000000000000
0x0250        0x0000000000000000   0x0000000000000000   0x0000000000000000   0x0000000000000000   0x0000000000000000   0x0000000000000000
0x0251        0x0000000000000000   0x0000000000000000   0x0000000000000000   0x0000000000000000   0x0000000000000000   0x0000000000000000
0x0252        0x0C001160DFBA000C   0x0000000000000000   0x0000000000000000   0x0000000000000000   0x0000000000000000   0x0000000000000000
0x0253        0x0000000000000000   0x0000000000000000   0x0000000000000000   0x0000000000000000   0x0000000000000000   0x0000000000000000
0x0254        0x0000000000000000   0x0000000000000000   0x0000000000000000   0x0000000000000000   0x0000000000000000   0x0000000000000000
0x0255        0x0000000000000000   0x0000000000000000   0x0000000000000000   0x0000000000000000   0x0000000000000000   0x0000000000000000
0x0256        0x0000000000000000   0x0000000000000000   0x0000000000000000   0x0000000000000000   0x0000000000000000   0x0000000000000000
0x0257        0x0000000000000000   0x0000000000000000   0x0000000000000000   0x0000000000000000   0x0000000000000000   0x0000000000000000
0x0258        0x04000D4287C60008   0x0000000000000000   0x0000000000000000   0x0000000000000000   0x0000000000000000   0x0000000000000000
0x0259        0x0000000000000000   0x0000000000000000   0x0000000000000000   0x0000000000000000   0x0000000000000000   0x0000000000000000
0x025a        0x0000000000000000   0x0000000000000000   0x0000000000000000   0x0000000000000000   0x0000000000000000   0x0000000000000000
0x025b        0x0000000000000000   0x0000000000000000   0x0000000000000000   0x0000000000000000   0x0000000000000000   0x0000000000000000
0x025c        0x0000000000000000   0x0000000000000000   0x0000000000000000   0x0000000000000000   0x0000000000000000   0x0000000000000000
0x025d        0x0000000000000000   0x0000000000000000   0x0000000000000000   0x0000000000000000   0x0000000000000000   0x0000000000000000
0x025e        0x0000000000000000   0x0000000000000000   0x0000000000000000   0x0000000000000000   0x0000000000000000   0x0000000000000000
0x025f        0x0000000000000000   0x0000000000000000   0x0000000000000000   0x0000000000000000   0x0000000000000000   0x0000000000000000
0x0260        0x0000000000000000   0x0000000000000000   0x0000000000000000   0x0000000000000000   0x0000000000000000   0x0000000000000000
0x0261        0x0000000000000000   0x0000000000000000   0x0000000000000000   0x0000000000000000   0x0000000000000000   0x0000000000000000
0x0262        0x0000000000000000   0x0000000000000000   0x0000000000000000   0x0000000000000000   0x0000000000000000   0x0000000000000000
0x0263        0x0000000000000000   0x0000000000000000   0x0000000000000000   0x0000000000000000   0x0000000000000000   0x0000000000000000
0x0264        0x0000000000000000   0x0000000000000000   0x0000000000000000   0x0000000000000000   0x0000000000000000   0x0000000000000000
0x0265        0x0000000000000000   0x0000000000000000   0x0000000000000000   0x0000000000000000   0x0000000000000000   0x0000000000000000
0x0266        0x0000000000000000   0x0000000000000000   0x0000000000000000   0x0000000000000000   0x0000000000000000   0x0000000000000000
0x0267        0x00070022C81C8067   0x0000000000000000   0x0000000000000000   0x0000000000000000   0x0000000000000000   0x0000000000000000
0x0268        0x00008201C41A401D   0x0000000000000000   0x0000000000000000   0x0000000000000000   0x0000000000000000   0x0000000000000000
0x0269        0x00002503480D4005   0x0000000000000000   0x0000000000000000   0x0000000000000000   0x0000000000000000   0x0000000000000000
0x026a        0x0C001160A80E400A   0x0000000000000000   0x0000000000000000   0x0000000000000000   0x0000000000000000   0x0000000000000000
0x026b        0x0000000000000000   0x0000000000000000   0x0000000000000000   0x0000000000000000   0x0000000000000000   0x0000000000000000
0x026c        0x0000000000000000   0x0000000000000000   0x0000000000000000   0x0000000000000000   0x0000000000000000   0x0000000000000000
0x026d        0x0000000000000000   0x0000000000000000   0x0000000000000000   0x0000000000000000   0x0000000000000000   0x0000000000000000
0x026e        0x0000000000000000   0x0000000000000000   0x0000000000000000   0x0000000000000000   0x0000000000000000   0x0000000000000000
0x026f        0x0000000000000000   0x0000000000000000   0x0000000000000000   0x0000000000000000   0x0000000000000000   0x0000000000000000
0x0270        0x0000000000000000   0x0000000000000000   0x0000000000000000   0x0000000000000000   0x0000000000000000   0x0000000000000000
0x0271        0x0000000000000000   0x0000000000000000   0x0000000000000000   0x0000000000000000   0x0000000000000000   0x0000000000000000
0x0272        0x0000000000000000   0x0000000000000000   0x0000000000000000   0x0000000000000000   0x0000000000000000   0x0000000000000000
0x0273        0x0000000000000000   0x0000000000000000   0x0000000000000000   0x0000000000000000   0x0000000000000000   0x0000000000000000
0x0274        0x0000000000000000   0x0000000000000000   0x0000000000000000   0x0000000000000000   0x0000000000000000   0x0000000000000000
0x0275        0x0000000000000000   0x0000000000000000   0x0000000000000000   0x0000000000000000   0x0000000000000000   0x0000000000000000
0x0276        0x0000000000000000   0x0000000000000000   0x0000000000000000   0x0000000000000000   0x0000000000000000   0x0000000000000000
0x0277        0x0000000000000000   0x0000000000000000   0x0000000000000000   0x0000000000000000   0x0000000000000000   0x0000000000000000
0x0278        0x0000000000000000   0x0000000000000000   0x0000000000000000   0x0000000000000000   0x0000000000000000   0x0000000000000000
0x0279        0x0000000000000000   0x0000000000000000   0x0000000000000000   0x0000000000000000   0x0000000000000000   0x0000000000000000
0x027a        0x0000000000000000   0x0000000000000000   0x0000000000000000   0x0000000000000000   0x0000000000000000   0x0000000000000000
0x027b        0x0000000000000000   0x0000000000000000   0x0000000000000000   0x0000000000000000   0x0000000000000000   0x0000000000000000
0x027c        0x0000000000000000   0x0000000000000000   0x0000000000000000   0x0000000000000000   0x0000000000000000   0x0000000000000000
0x027d        0x0000000000000000   0x0000000000000000   0x0000000000000000   0x0000000000000000   0x0000000000000000   0x0000000000000000
0x027e        0x0000000000000000   0x0000000000000000   0x0000000000000000   0x0000000000000000   0x0000000000000000   0x0000000000000000
0x027f        0x1C0017A29FAC4062   0x0C0013627FADC012   0x04001642DBBF400C   0x0000000000000000   0x0000000000000000   0x0000000000000000
0x0280        0x000100229BAD8046   0x0C001442BBAD000F   0x0000000000000000   0x0000000000000000   0x0000000000000000   0x0000000000000000
0x0281        0x0000FF228BAF802E   0x00005701EFB6C00E   0x0000000000000000   0x0000000000000000   0x0000000000000000   0x0000000000000000
0x0282        0x0000000000000000   0x0000000000000000   0x0000000000000000   0x0000000000000000   0x0000000000000000   0x0000000000000000
0x0283        0x0000000000000000   0x0000000000000000   0x0000000000000000   0x0000000000000000   0x0000000000000000   0x0000000000000000
0x0284        0x0000000000000000   0x0000000000000000   0x0000000000000000   0x0000000000000000   0x0000000000000000   0x0000000000000000
0x0285        0x0000000000000000   0x0000000000000000   0x0000000000000000   0x0000000000000000   0x0000000000000000   0x0000000000000000
0x0286        0x0000000000000000   0x0000000000000000   0x0000000000000000   0x0000000000000000   0x0000000000000000   0x0000000000000000
0x0287        0x0000000000000000   0x0000000000000000   0x0000000000000000   0x0000000000000000   0x0000000000000000   0x0000000000000000
0x0288        0x0000000000000000   0x0000000000000000   0x0000000000000000   0x0000000000000000   0x0000000000000000   0x0000000000000000
0x0289        0x0000000000000000   0x0000000000000000   0x0000000000000000   0x0000000000000000   0x0000000000000000   0x0000000000000000
0x028a        0x0000000000000000   0x0000000000000000   0x0000000000000000   0x0000000000000000   0x0000000000000000   0x0000000000000000
0x028b        0x0000000000000000   0x0000000000000000   0x0000000000000000   0x0000000000000000   0x0000000000000000   0x0000000000000000
0x028c        0x0000000000000000   0x0000000000000000   0x0000000000000000   0x0000000000000000   0x0000000000000000   0x0000000000000000
0x028d        0x0000000000000000   0x0000000000000000   0x0000000000000000   0x0000000000000000   0x0000000000000000   0x0000000000000000
0x028e        0x0000000000000000   0x0000000000000000   0x0000000000000000   0x0000000000000000   0x0000000000000000   0x0000000000000000
0x028f        0x0000000000000000   0x0000000000000000   0x0000000000000000   0x0000000000000000   0x0000000000000000   0x0000000000000000
0x0290        0x0000000000000000   0x0000000000000000   0x0000000000000000   0x0000000000000000   0x0000000000000000   0x0000000000000000
0x0291        0x0000000000000000   0x0000000000000000   0x0000000000000000   0x0000000000000000   0x0000000000000000   0x0000000000000000
0x0292        0x0000000000000000   0x0000000000000000   0x0000000000000000   0x0000000000000000   0x0000000000000000   0x0000000000000000
0x0293        0x0000000000000000   0x0000000000000000   0x0000000000000000   0x0000000000000000   0x0000000000000000   0x0000000000000000
0x0294        0x0000000000000000   0x0000000000000000   0x0000000000000000   0x0000000000000000   0x0000000000000000   0x0000000000000000
0x0295        0x0000000000000000   0x0000000000000000   0x0000000000000000   0x0000000000000000   0x0000000000000000   0x0000000000000000
0x0296        0x0000000000000000   0x0000000000000000   0x0000000000000000   0x0000000000000000   0x0000000000000000   0x0000000000000000
0x0297        0x0000000000000000   0x0000000000000000   0x0000000000000000   0x0000000000000000   0x0000000000000000   0x0000000000000000
0x0298        0x0000000000000000   0x0000000000000000   0x0000000000000000   0x0000000000000000   0x0000000000000000   0x0000000000000000
0x0299        0x0000000000000000   0x0000000000000000   0x0000000000000000   0x0000000000000000   0x0000000000000000   0x0000000000000000
0x029a        0x0000000000000000   0x0000000000000000   0x0000000000000000   0x0000000000000000   0x0000000000000000   0x0000000000000000
0x029b        0x0000000000000000   0x0000000000000000   0x0000000000000000   0x0000000000000000   0x0000000000000000   0x0000000000000000
0x029c        0x0000000000000000   0x0000000000000000   0x0000000000000000   0x0000000000000000   0x0000000000000000   0x0000000000000000
0x029d        0x0000000000000000   0x0000000000000000   0x0000000000000000   0x0000000000000000   0x0000000000000000   0x0000000000000000
0x029e        0x0000000000000000   0x0000000000000000   0x0000000000000000   0x0000000000000000   0x0000000000000000   0x0000000000000000
0x029f        0x0000000000000000   0x0000000000000000   0x0000000000000000   0x0000000000000000   0x0000000000000000   0x0000000000000000
0x02a0        0x0000000000000000   0x0000000000000000   0x0000000000000000   0x0000000000000000   0x0000000000000000   0x0000000000000000
0x02a1        0x0000000000000000   0x0000000000000000   0x0000000000000000   0x0000000000000000   0x0000000000000000   0x0000000000000000
0x02a2        0x0000000000000000   0x0000000000000000   0x0000000000000000   0x0000000000000000   0x0000000000000000   0x0000000000000000
0x02a3        0x0000000000000000   0x0000000000000000   0x0000000000000000   0x0000000000000000   0x0000000000000000   0x0000000000000000
0x02a4        0x0000000000000000   0x0000000000000000   0x0000000000000000   0x0000000000000000   0x0000000000000000   0x0000000000000000
0x02a5        0x0000000000000000   0x0000000000000000   0x0000000000000000   0x0000000000000000   0x0000000000000000   0x0000000000000000
0x02a6        0x0000000000000000   0x0000000000000000   0x0000000000000000   0x0000000000000000   0x0000000000000000   0x0000000000000000
0x02a7        0x0000000000000000   0x0000000000000000   0x0000000000000000   0x0000000000000000   0x0000000000000000   0x0000000000000000
0x02a8        0x0000000000000000   0x0000000000000000   0x0000000000000000   0x0000000000000000   0x0000000000000000   0x0000000000000000
0x02a9        0x0000000000000000   0x0000000000000000   0x0000000000000000   0x0000000000000000   0x0000000000000000   0x0000000000000000
0x02aa        0x0000000000000000   0x0000000000000000   0x0000000000000000   0x0000000000000000   0x0000000000000000   0x0000000000000000
0x02ab        0x0000000000000000   0x0000000000000000   0x0000000000000000   0x0000000000000000   0x0000000000000000   0x0000000000000000
0x02ac        0x0000000000000000   0x0000000000000000   0x0000000000000000   0x0000000000000000   0x0000000000000000   0x0000000000000000
0x02ad        0x0000000000000000   0x0000000000000000   0x0000000000000000   0x0000000000000000   0x0000000000000000   0x0000000000000000
0x02ae        0x0000000000000000   0x0000000000000000   0x0000000000000000   0x0000000000000000   0x0000000000000000   0x0000000000000000
0x02af        0x0000000000000000   0x0000000000000000   0x0000000000000000   0x0000000000000000   0x0000000000000000   0x0000000000000000
0x02b0        0x0000000000000000   0x0000000000000000   0x0000000000000000   0x0000000000000000   0x0000000000000000   0x0000000000000000
0x02b1        0x0000000000000000   0x0000000000000000   0x0000000000000000   0x0000000000000000   0x0000000000000000   0x0000000000000000
0x02b2        0x0000000000000000   0x0000000000000000   0x0000000000000000   0x0000000000000000   0x0000000000000000   0x0000000000000000
0x02b3        0x0000000000000000   0x0000000000000000   0x0000000000000000   0x0000000000000000   0x0000000000000000   0x0000000000000000
0x02b4        0x0000000000000000   0x0000000000000000   0x0000000000000000   0x0000000000000000   0x0000000000000000   0x0000000000000000
0x02b5        0x0000000000000000   0x0000000000000000   0x0000000000000000   0x0000000000000000   0x0000000000000000   0x0000000000000000
0x02b6        0x0000000000000000   0x0000000000000000   0x0000000000000000   0x0000000000000000   0x0000000000000000   0x0000000000000000
0x02b7        0x0000000000000000   0x0000000000000000   0x0000000000000000   0x0000000000000000   0x0000000000000000   0x0000000000000000
0x02b8        0x0000000000000000   0x0000000000000000   0x0000000000000000   0x0000000000000000   0x0000000000000000   0x0000000000000000
0x02b9        0x0000000000000000   0x0000000000000000   0x0000000000000000   0x0000000000000000   0x0000000000000000   0x0000000000000000
0x02ba        0x0000000000000000   0x0000000000000000   0x0000000000000000   0x0000000000000000   0x0000000000000000   0x0000000000000000
0x02bb        0x0000000000000000   0x0000000000000000   0x0000000000000000   0x0000000000000000   0x0000000000000000   0x0000000000000000
0x02bc        0x0000000000000000   0x0000000000000000   0x0000000000000000   0x0000000000000000   0x0000000000000000   0x0000000000000000
0x02bd        0x0000000000000000   0x0000000000000000   0x0000000000000000   0x0000000000000000   0x0000000000000000   0x0000000000000000
0x02be        0x0000000000000000   0x0000000000000000   0x0000000000000000   0x0000000000000000   0x0000000000000000   0x0000000000000000
0x02bf        0x0000000000000000   0x0000000000000000   0x0000000000000000   0x0000000000000000   0x0000000000000000   0x0000000000000000
0x02c0        0x0000000000000000   0x0000000000000000   0x0000000000000000   0x0000000000000000   0x0000000000000000   0x0000000000000000
0x02c1        0x0000000000000000   0x0000000000000000   0x0000000000000000   0x0000000000000000   0x0000000000000000   0x0000000000000000
0x02c2        0x0000000000000000   0x0000000000000000   0x0000000000000000   0x0000000000000000   0x0000000000000000   0x0000000000000000
0x02c3        0x0000000000000000   0x0000000000000000   0x0000000000000000   0x0000000000000000   0x0000000000000000   0x0000000000000000
0x02c4        0x0000000000000000   0x0000000000000000   0x0000000000000000   0x0000000000000000   0x0000000000000000   0x0000000000000000
0x02c5        0x0000000000000000   0x0000000000000000   0x0000000000000000   0x0000000000000000   0x0000000000000000   0x0000000000000000
0x02c6        0x0000000000000000   0x0000000000000000   0x0000000000000000   0x0000000000000000   0x0000000000000000   0x0000000000000000
0x02c7        0x0000000000000000   0x0000000000000000   0x0000000000000000   0x0000000000000000   0x0000000000000000   0x0000000000000000
0x02c8        0x0000000000000000   0x0000000000000000   0x0000000000000000   0x0000000000000000   0x0000000000000000   0x0000000000000000
0x02c9        0x0000000000000000   0x0000000000000000   0x0000000000000000   0x0000000000000000   0x0000000000000000   0x0000000000000000
0x02ca        0x0000000000000000   0x0000000000000000   0x0000000000000000   0x0000000000000000   0x0000000000000000   0x0000000000000000
0x02cb        0x0000000000000000   0x0000000000000000   0x0000000000000000   0x0000000000000000   0x0000000000000000   0x0000000000000000
0x02cc        0x0000000000000000   0x0000000000000000   0x0000000000000000   0x0000000000000000   0x0000000000000000   0x0000000000000000
0x02cd        0x0000000000000000   0x0000000000000000   0x0000000000000000   0x0000000000000000   0x0000000000000000   0x0000000000000000
0x02ce        0x0000000000000000   0x0000000000000000   0x0000000000000000   0x0000000000000000   0x0000000000000000   0x0000000000000000
0x02cf        0x0000000000000000   0x0000000000000000   0x0000000000000000   0x0000000000000000   0x0000000000000000   0x0000000000000000
0x02d0        0x0000000000000000   0x0000000000000000   0x0000000000000000   0x0000000000000000   0x0000000000000000   0x0000000000000000
0x02d1        0x0000000000000000   0x0000000000000000   0x0000000000000000   0x0000000000000000   0x0000000000000000   0x0000000000000000
0x02d2        0x0000000000000000   0x0000000000000000   0x0000000000000000   0x0000000000000000   0x0000000000000000   0x0000000000000000
