#WordCnt                      T0                   T1                   T2                   T3                   T4                   T5
#BeginData
0x0000        0x0000000000000000   0x0000000000000000   0x0000000000000000   0x0000000000000000   0x0000000000000000   0x0000000000000000
0x0001        0x0000000000000000   0x0000000000000000   0x0000000000000000   0x0000000000000000   0x0000000000000000   0x0000000000000000
0x0002        0x0000000000000000   0x0000000000000000   0x0000000000000000   0x0000000000000000   0x0000000000000000   0x0000000000000000
0x0003        0x0000000000000000   0x0000000000000000   0x0000000000000000   0x0000000000000000   0x0000000000000000   0x0000000000000000
0x0004        0x0000000000000000   0x0000000000000000   0x0000000000000000   0x0000000000000000   0x0000000000000000   0x0000000000000000
0x0005        0x0000000000000000   0x0000000000000000   0x0000000000000000   0x0000000000000000   0x0000000000000000   0x0000000000000000
0x0006        0x0000000000000000   0x0000000000000000   0x0000000000000000   0x0000000000000000   0x0000000000000000   0x0000000000000000
0x0007        0x0000000000000000   0x0000000000000000   0x0000000000000000   0x0000000000000000   0x0000000000000000   0x0000000000000000
0x0008        0x0000000000000000   0x0000000000000000   0x0000000000000000   0x0000000000000000   0x0000000000000000   0x0000000000000000
0x0009        0x0000FF0067FC4078   0x0000FE204BF8802D   0x1C001560CBF5401A   0x0000000000000000   0x0000000000000000   0x0000000000000000
0x000a        0x140014A0AFFCC037   0x0000FD209BFD8026   0x0000000000000000   0x0000000000000000   0x0000000000000000   0x0000000000000000
0x000b        0x1C001440ABFC002E   0x0000FA206BFB801D   0x0000000000000000   0x0000000000000000   0x0000000000000000   0x0000000000000000
0x000c        0x0000000000000000   0x0000000000000000   0x0000000000000000   0x0000000000000000   0x0000000000000000   0x0000000000000000
0x000d        0x0000000000000000   0x0000000000000000   0x0000000000000000   0x0000000000000000   0x0000000000000000   0x0000000000000000
0x000e        0x0000000000000000   0x0000000000000000   0x0000000000000000   0x0000000000000000   0x0000000000000000   0x0000000000000000
0x000f        0x0000000000000000   0x0000000000000000   0x0000000000000000   0x0000000000000000   0x0000000000000000   0x0000000000000000
0x0010        0x0000000000000000   0x0000000000000000   0x0000000000000000   0x0000000000000000   0x0000000000000000   0x0000000000000000
0x0011        0x0000000000000000   0x0000000000000000   0x0000000000000000   0x0000000000000000   0x0000000000000000   0x0000000000000000
0x0012        0x0000000000000000   0x0000000000000000   0x0000000000000000   0x0000000000000000   0x0000000000000000   0x0000000000000000
0x0013        0x0000000000000000   0x0000000000000000   0x0000000000000000   0x0000000000000000   0x0000000000000000   0x0000000000000000
0x0014        0x0000000000000000   0x0000000000000000   0x0000000000000000   0x0000000000000000   0x0000000000000000   0x0000000000000000
0x0015        0x040019417C05C00A   0x0000000000000000   0x0000000000000000   0x0000000000000000   0x0000000000000000   0x0000000000000000
0x0016        0x0C000E407001000A   0x0000000000000000   0x0000000000000000   0x0000000000000000   0x0000000000000000   0x0000000000000000
0x0017        0x0000000000000000   0x0000000000000000   0x0000000000000000   0x0000000000000000   0x0000000000000000   0x0000000000000000
0x0018        0x0000000000000000   0x0000000000000000   0x0000000000000000   0x0000000000000000   0x0000000000000000   0x0000000000000000
0x0019        0x0000000000000000   0x0000000000000000   0x0000000000000000   0x0000000000000000   0x0000000000000000   0x0000000000000000
0x001a        0x0000000000000000   0x0000000000000000   0x0000000000000000   0x0000000000000000   0x0000000000000000   0x0000000000000000
0x001b        0x0000000000000000   0x0000000000000000   0x0000000000000000   0x0000000000000000   0x0000000000000000   0x0000000000000000
0x001c        0x0000000000000000   0x0000000000000000   0x0000000000000000   0x0000000000000000   0x0000000000000000   0x0000000000000000
0x001d        0x0000000000000000   0x0000000000000000   0x0000000000000000   0x0000000000000000   0x0000000000000000   0x0000000000000000
0x001e        0x0000000000000000   0x0000000000000000   0x0000000000000000   0x0000000000000000   0x0000000000000000   0x0000000000000000
0x001f        0x0000000000000000   0x0000000000000000   0x0000000000000000   0x0000000000000000   0x0000000000000000   0x0000000000000000
0x0020        0x0000000000000000   0x0000000000000000   0x0000000000000000   0x0000000000000000   0x0000000000000000   0x0000000000000000
0x0021        0x0000000000000000   0x0000000000000000   0x0000000000000000   0x0000000000000000   0x0000000000000000   0x0000000000000000
0x0022        0x0000000000000000   0x0000000000000000   0x0000000000000000   0x0000000000000000   0x0000000000000000   0x0000000000000000
0x0023        0x0000000000000000   0x0000000000000000   0x0000000000000000   0x0000000000000000   0x0000000000000000   0x0000000000000000
0x0024        0x0000000000000000   0x0000000000000000   0x0000000000000000   0x0000000000000000   0x0000000000000000   0x0000000000000000
0x0025        0x0000000000000000   0x0000000000000000   0x0000000000000000   0x0000000000000000   0x0000000000000000   0x0000000000000000
0x0026        0x0000000000000000   0x0000000000000000   0x0000000000000000   0x0000000000000000   0x0000000000000000   0x0000000000000000
0x0027        0x140019425C3C0014   0x0000000000000000   0x0000000000000000   0x0000000000000000   0x0000000000000000   0x0000000000000000
0x0028        0x00049D22D83E8004   0x0000000000000000   0x0000000000000000   0x0000000000000000   0x0000000000000000   0x0000000000000000
0x0029        0x0000000000000000   0x0000000000000000   0x0000000000000000   0x0000000000000000   0x0000000000000000   0x0000000000000000
0x002a        0x0000000000000000   0x0000000000000000   0x0000000000000000   0x0000000000000000   0x0000000000000000   0x0000000000000000
0x002b        0x0000000000000000   0x0000000000000000   0x0000000000000000   0x0000000000000000   0x0000000000000000   0x0000000000000000
0x002c        0x0000000000000000   0x0000000000000000   0x0000000000000000   0x0000000000000000   0x0000000000000000   0x0000000000000000
0x002d        0x0000000000000000   0x0000000000000000   0x0000000000000000   0x0000000000000000   0x0000000000000000   0x0000000000000000
0x002e        0x0000000000000000   0x0000000000000000   0x0000000000000000   0x0000000000000000   0x0000000000000000   0x0000000000000000
0x002f        0x0000000000000000   0x0000000000000000   0x0000000000000000   0x0000000000000000   0x0000000000000000   0x0000000000000000
0x0030        0x0C001066A454400A   0x0000000000000000   0x0000000000000000   0x0000000000000000   0x0000000000000000   0x0000000000000000
0x0031        0x0000000000000000   0x0000000000000000   0x0000000000000000   0x0000000000000000   0x0000000000000000   0x0000000000000000
0x0032        0x0000000000000000   0x0000000000000000   0x0000000000000000   0x0000000000000000   0x0000000000000000   0x0000000000000000
0x0033        0x0000000000000000   0x0000000000000000   0x0000000000000000   0x0000000000000000   0x0000000000000000   0x0000000000000000
0x0034        0x0000000000000000   0x0000000000000000   0x0000000000000000   0x0000000000000000   0x0000000000000000   0x0000000000000000
0x0035        0x0000000000000000   0x0000000000000000   0x0000000000000000   0x0000000000000000   0x0000000000000000   0x0000000000000000
0x0036        0x0000000000000000   0x0000000000000000   0x0000000000000000   0x0000000000000000   0x0000000000000000   0x0000000000000000
0x0037        0x0000000000000000   0x0000000000000000   0x0000000000000000   0x0000000000000000   0x0000000000000000   0x0000000000000000
0x0038        0x0000000000000000   0x0000000000000000   0x0000000000000000   0x0000000000000000   0x0000000000000000   0x0000000000000000
0x0039        0x0000000000000000   0x0000000000000000   0x0000000000000000   0x0000000000000000   0x0000000000000000   0x0000000000000000
0x003a        0x0000000000000000   0x0000000000000000   0x0000000000000000   0x0000000000000000   0x0000000000000000   0x0000000000000000
0x003b        0x0000000000000000   0x0000000000000000   0x0000000000000000   0x0000000000000000   0x0000000000000000   0x0000000000000000
0x003c        0x0403B56667C5C00A   0x0000000000000000   0x0000000000000000   0x0000000000000000   0x0000000000000000   0x0000000000000000
0x003d        0x0000000000000000   0x0000000000000000   0x0000000000000000   0x0000000000000000   0x0000000000000000   0x0000000000000000
0x003e        0x0000000000000000   0x0000000000000000   0x0000000000000000   0x0000000000000000   0x0000000000000000   0x0000000000000000
0x003f        0x0000000000000000   0x0000000000000000   0x0000000000000000   0x0000000000000000   0x0000000000000000   0x0000000000000000
0x0040        0x0000000000000000   0x0000000000000000   0x0000000000000000   0x0000000000000000   0x0000000000000000   0x0000000000000000
0x0041        0x0000000000000000   0x0000000000000000   0x0000000000000000   0x0000000000000000   0x0000000000000000   0x0000000000000000
0x0042        0x0C03AF6607DCC00B   0x0000000000000000   0x0000000000000000   0x0000000000000000   0x0000000000000000   0x0000000000000000
0x0043        0x0403B0660BC7C00A   0x0000000000000000   0x0000000000000000   0x0000000000000000   0x0000000000000000   0x0000000000000000
0x0044        0x0000000000000000   0x0000000000000000   0x0000000000000000   0x0000000000000000   0x0000000000000000   0x0000000000000000
0x0045        0x0000000000000000   0x0000000000000000   0x0000000000000000   0x0000000000000000   0x0000000000000000   0x0000000000000000
0x0046        0x0000000000000000   0x0000000000000000   0x0000000000000000   0x0000000000000000   0x0000000000000000   0x0000000000000000
0x0047        0x0000000000000000   0x0000000000000000   0x0000000000000000   0x0000000000000000   0x0000000000000000   0x0000000000000000
0x0048        0x0000000000000000   0x0000000000000000   0x0000000000000000   0x0000000000000000   0x0000000000000000   0x0000000000000000
0x0049        0x0000000000000000   0x0000000000000000   0x0000000000000000   0x0000000000000000   0x0000000000000000   0x0000000000000000
0x004a        0x0000000000000000   0x0000000000000000   0x0000000000000000   0x0000000000000000   0x0000000000000000   0x0000000000000000
0x004b        0x0000000000000000   0x0000000000000000   0x0000000000000000   0x0000000000000000   0x0000000000000000   0x0000000000000000
0x004c        0x0000000000000000   0x0000000000000000   0x0000000000000000   0x0000000000000000   0x0000000000000000   0x0000000000000000
0x004d        0x0000000000000000   0x0000000000000000   0x0000000000000000   0x0000000000000000   0x0000000000000000   0x0000000000000000
0x004e        0x0000000000000000   0x0000000000000000   0x0000000000000000   0x0000000000000000   0x0000000000000000   0x0000000000000000
0x004f        0x0000000000000000   0x0000000000000000   0x0000000000000000   0x0000000000000000   0x0000000000000000   0x0000000000000000
0x0050        0x0000000000000000   0x0000000000000000   0x0000000000000000   0x0000000000000000   0x0000000000000000   0x0000000000000000
0x0051        0x0000000000000000   0x0000000000000000   0x0000000000000000   0x0000000000000000   0x0000000000000000   0x0000000000000000
0x0052        0x0000000000000000   0x0000000000000000   0x0000000000000000   0x0000000000000000   0x0000000000000000   0x0000000000000000
0x0053        0x0000000000000000   0x0000000000000000   0x0000000000000000   0x0000000000000000   0x0000000000000000   0x0000000000000000
0x0054        0x0000000000000000   0x0000000000000000   0x0000000000000000   0x0000000000000000   0x0000000000000000   0x0000000000000000
0x0055        0x0000000000000000   0x0000000000000000   0x0000000000000000   0x0000000000000000   0x0000000000000000   0x0000000000000000
0x0056        0x0000000000000000   0x0000000000000000   0x0000000000000000   0x0000000000000000   0x0000000000000000   0x0000000000000000
0x0057        0x0000000000000000   0x0000000000000000   0x0000000000000000   0x0000000000000000   0x0000000000000000   0x0000000000000000
0x0058        0x0000000000000000   0x0000000000000000   0x0000000000000000   0x0000000000000000   0x0000000000000000   0x0000000000000000
0x0059        0x0000000000000000   0x0000000000000000   0x0000000000000000   0x0000000000000000   0x0000000000000000   0x0000000000000000
0x005a        0x0000000000000000   0x0000000000000000   0x0000000000000000   0x0000000000000000   0x0000000000000000   0x0000000000000000
0x005b        0x0000000000000000   0x0000000000000000   0x0000000000000000   0x0000000000000000   0x0000000000000000   0x0000000000000000
0x005c        0x0000000000000000   0x0000000000000000   0x0000000000000000   0x0000000000000000   0x0000000000000000   0x0000000000000000
0x005d        0x0000000000000000   0x0000000000000000   0x0000000000000000   0x0000000000000000   0x0000000000000000   0x0000000000000000
0x005e        0x0000000000000000   0x0000000000000000   0x0000000000000000   0x0000000000000000   0x0000000000000000   0x0000000000000000
0x005f        0x0000000000000000   0x0000000000000000   0x0000000000000000   0x0000000000000000   0x0000000000000000   0x0000000000000000
0x0060        0x00004D1F8443C018   0x0000000000000000   0x0000000000000000   0x0000000000000000   0x0000000000000000   0x0000000000000000
0x0061        0x0C03B55E34540009   0x0000000000000000   0x0000000000000000   0x0000000000000000   0x0000000000000000   0x0000000000000000
0x0062        0x0C03A65F1C45C008   0x0000000000000000   0x0000000000000000   0x0000000000000000   0x0000000000000000   0x0000000000000000
0x0063        0x0000000000000000   0x0000000000000000   0x0000000000000000   0x0000000000000000   0x0000000000000000   0x0000000000000000
0x0064        0x0000000000000000   0x0000000000000000   0x0000000000000000   0x0000000000000000   0x0000000000000000   0x0000000000000000
0x0065        0x0000000000000000   0x0000000000000000   0x0000000000000000   0x0000000000000000   0x0000000000000000   0x0000000000000000
0x0066        0x0000000000000000   0x0000000000000000   0x0000000000000000   0x0000000000000000   0x0000000000000000   0x0000000000000000
0x0067        0x0000000000000000   0x0000000000000000   0x0000000000000000   0x0000000000000000   0x0000000000000000   0x0000000000000000
0x0068        0x0000000000000000   0x0000000000000000   0x0000000000000000   0x0000000000000000   0x0000000000000000   0x0000000000000000
0x0069        0x0000000000000000   0x0000000000000000   0x0000000000000000   0x0000000000000000   0x0000000000000000   0x0000000000000000
0x006a        0x0000000000000000   0x0000000000000000   0x0000000000000000   0x0000000000000000   0x0000000000000000   0x0000000000000000
0x006b        0x0000000000000000   0x0000000000000000   0x0000000000000000   0x0000000000000000   0x0000000000000000   0x0000000000000000
0x006c        0x0000000000000000   0x0000000000000000   0x0000000000000000   0x0000000000000000   0x0000000000000000   0x0000000000000000
0x006d        0x0000000000000000   0x0000000000000000   0x0000000000000000   0x0000000000000000   0x0000000000000000   0x0000000000000000
0x006e        0x0000000000000000   0x0000000000000000   0x0000000000000000   0x0000000000000000   0x0000000000000000   0x0000000000000000
0x006f        0x0000000000000000   0x0000000000000000   0x0000000000000000   0x0000000000000000   0x0000000000000000   0x0000000000000000
0x0070        0x0000000000000000   0x0000000000000000   0x0000000000000000   0x0000000000000000   0x0000000000000000   0x0000000000000000
0x0071        0x0000000000000000   0x0000000000000000   0x0000000000000000   0x0000000000000000   0x0000000000000000   0x0000000000000000
0x0072        0x0000000000000000   0x0000000000000000   0x0000000000000000   0x0000000000000000   0x0000000000000000   0x0000000000000000
0x0073        0x0000000000000000   0x0000000000000000   0x0000000000000000   0x0000000000000000   0x0000000000000000   0x0000000000000000
0x0074        0x0000000000000000   0x0000000000000000   0x0000000000000000   0x0000000000000000   0x0000000000000000   0x0000000000000000
0x0075        0x0000000000000000   0x0000000000000000   0x0000000000000000   0x0000000000000000   0x0000000000000000   0x0000000000000000
0x0076        0x0000000000000000   0x0000000000000000   0x0000000000000000   0x0000000000000000   0x0000000000000000   0x0000000000000000
0x0077        0x0000000000000000   0x0000000000000000   0x0000000000000000   0x0000000000000000   0x0000000000000000   0x0000000000000000
0x0078        0x0000000000000000   0x0000000000000000   0x0000000000000000   0x0000000000000000   0x0000000000000000   0x0000000000000000
0x0079        0x0000000000000000   0x0000000000000000   0x0000000000000000   0x0000000000000000   0x0000000000000000   0x0000000000000000
0x007a        0x0000000000000000   0x0000000000000000   0x0000000000000000   0x0000000000000000   0x0000000000000000   0x0000000000000000
0x007b        0x00006625EBF38004   0x0000000000000000   0x0000000000000000   0x0000000000000000   0x0000000000000000   0x0000000000000000
0x007c        0x0000000000000000   0x0000000000000000   0x0000000000000000   0x0000000000000000   0x0000000000000000   0x0000000000000000
0x007d        0x0000000000000000   0x0000000000000000   0x0000000000000000   0x0000000000000000   0x0000000000000000   0x0000000000000000
0x007e        0x0000000000000000   0x0000000000000000   0x0000000000000000   0x0000000000000000   0x0000000000000000   0x0000000000000000
0x007f        0x0000000000000000   0x0000000000000000   0x0000000000000000   0x0000000000000000   0x0000000000000000   0x0000000000000000
0x0080        0x0000000000000000   0x0000000000000000   0x0000000000000000   0x0000000000000000   0x0000000000000000   0x0000000000000000
0x0081        0x0000F3021C1A8053   0x0000000000000000   0x0000000000000000   0x0000000000000000   0x0000000000000000   0x0000000000000000
0x0082        0x0000000000000000   0x0000000000000000   0x0000000000000000   0x0000000000000000   0x0000000000000000   0x0000000000000000
0x0083        0x0000000000000000   0x0000000000000000   0x0000000000000000   0x0000000000000000   0x0000000000000000   0x0000000000000000
0x0084        0x0000000000000000   0x0000000000000000   0x0000000000000000   0x0000000000000000   0x0000000000000000   0x0000000000000000
0x0085        0x0000000000000000   0x0000000000000000   0x0000000000000000   0x0000000000000000   0x0000000000000000   0x0000000000000000
0x0086        0x0000000000000000   0x0000000000000000   0x0000000000000000   0x0000000000000000   0x0000000000000000   0x0000000000000000
0x0087        0x0C004360B8234012   0x0000000000000000   0x0000000000000000   0x0000000000000000   0x0000000000000000   0x0000000000000000
0x0088        0x040046618837000D   0x0000000000000000   0x0000000000000000   0x0000000000000000   0x0000000000000000   0x0000000000000000
0x0089        0x0C004461941F4009   0x0000000000000000   0x0000000000000000   0x0000000000000000   0x0000000000000000   0x0000000000000000
0x008a        0x0400466694000008   0x0000000000000000   0x0000000000000000   0x0000000000000000   0x0000000000000000   0x0000000000000000
0x008b        0x0000000000000000   0x0000000000000000   0x0000000000000000   0x0000000000000000   0x0000000000000000   0x0000000000000000
0x008c        0x0000000000000000   0x0000000000000000   0x0000000000000000   0x0000000000000000   0x0000000000000000   0x0000000000000000
0x008d        0x000086047C35C01A   0x04004043E037800F   0x0000000000000000   0x0000000000000000   0x0000000000000000   0x0000000000000000
0x008e        0x0000FB23C8368017   0x0000000000000000   0x0000000000000000   0x0000000000000000   0x0000000000000000   0x0000000000000000
0x008f        0x0C004383F4324011   0x0000000000000000   0x0000000000000000   0x0000000000000000   0x0000000000000000   0x0000000000000000
0x0090        0x1C004063C0338057   0x14004361BC1D403C   0x0000DC22181D8008   0x0000000000000000   0x0000000000000000   0x0000000000000000
0x0091        0x1C004461BC1E0047   0x1C004363CC338024   0x0000D122E8328008   0x0000000000000000   0x0000000000000000   0x0000000000000000
0x0092        0x000F002158208042   0x0000EC21C823800B   0x0000000000000000   0x0000000000000000   0x0000000000000000   0x0000000000000000
0x0093        0x14003D415048C0C2   0x04003E413048000D   0x0000000000000000   0x0000000000000000   0x0000000000000000   0x0000000000000000
0x0094        0x000100016C494088   0x0000F021B8498005   0x0000000000000000   0x0000000000000000   0x0000000000000000   0x0000000000000000
0x0095        0x14004041444AC025   0x0000F021684C8005   0x0000000000000000   0x0000000000000000   0x0000000000000000   0x0000000000000000
0x0096        0x140046614C498074   0x0000000000000000   0x0000000000000000   0x0000000000000000   0x0000000000000000   0x0000000000000000
0x0097        0x140044614C48403A   0x0000000000000000   0x0000000000000000   0x0000000000000000   0x0000000000000000   0x0000000000000000
0x0098        0x00005B008449C009   0x0000000000000000   0x0000000000000000   0x0000000000000000   0x0000000000000000   0x0000000000000000
0x0099        0x0000000000000000   0x0000000000000000   0x0000000000000000   0x0000000000000000   0x0000000000000000   0x0000000000000000
0x009a        0x0000000000000000   0x0000000000000000   0x0000000000000000   0x0000000000000000   0x0000000000000000   0x0000000000000000
0x009b        0x0000000000000000   0x0000000000000000   0x0000000000000000   0x0000000000000000   0x0000000000000000   0x0000000000000000
0x009c        0x0000000000000000   0x0000000000000000   0x0000000000000000   0x0000000000000000   0x0000000000000000   0x0000000000000000
0x009d        0x0000000000000000   0x0000000000000000   0x0000000000000000   0x0000000000000000   0x0000000000000000   0x0000000000000000
0x009e        0x0000000000000000   0x0000000000000000   0x0000000000000000   0x0000000000000000   0x0000000000000000   0x0000000000000000
0x009f        0x0000000000000000   0x0000000000000000   0x0000000000000000   0x0000000000000000   0x0000000000000000   0x0000000000000000
0x00a0        0x0000000000000000   0x0000000000000000   0x0000000000000000   0x0000000000000000   0x0000000000000000   0x0000000000000000
0x00a1        0x0000000000000000   0x0000000000000000   0x0000000000000000   0x0000000000000000   0x0000000000000000   0x0000000000000000
0x00a2        0x0000000000000000   0x0000000000000000   0x0000000000000000   0x0000000000000000   0x0000000000000000   0x0000000000000000
0x00a3        0x0000000000000000   0x0000000000000000   0x0000000000000000   0x0000000000000000   0x0000000000000000   0x0000000000000000
0x00a4        0x0000000000000000   0x0000000000000000   0x0000000000000000   0x0000000000000000   0x0000000000000000   0x0000000000000000
0x00a5        0x0000000000000000   0x0000000000000000   0x0000000000000000   0x0000000000000000   0x0000000000000000   0x0000000000000000
0x00a6        0x0000000000000000   0x0000000000000000   0x0000000000000000   0x0000000000000000   0x0000000000000000   0x0000000000000000
0x00a7        0x0000000000000000   0x0000000000000000   0x0000000000000000   0x0000000000000000   0x0000000000000000   0x0000000000000000
0x00a8        0x0000000000000000   0x0000000000000000   0x0000000000000000   0x0000000000000000   0x0000000000000000   0x0000000000000000
0x00a9        0x0000000000000000   0x0000000000000000   0x0000000000000000   0x0000000000000000   0x0000000000000000   0x0000000000000000
0x00aa        0x0000000000000000   0x0000000000000000   0x0000000000000000   0x0000000000000000   0x0000000000000000   0x0000000000000000
0x00ab        0x0000000000000000   0x0000000000000000   0x0000000000000000   0x0000000000000000   0x0000000000000000   0x0000000000000000
0x00ac        0x0000000000000000   0x0000000000000000   0x0000000000000000   0x0000000000000000   0x0000000000000000   0x0000000000000000
0x00ad        0x0000000000000000   0x0000000000000000   0x0000000000000000   0x0000000000000000   0x0000000000000000   0x0000000000000000
0x00ae        0x0000000000000000   0x0000000000000000   0x0000000000000000   0x0000000000000000   0x0000000000000000   0x0000000000000000
0x00af        0x0000000000000000   0x0000000000000000   0x0000000000000000   0x0000000000000000   0x0000000000000000   0x0000000000000000
0x00b0        0x0000000000000000   0x0000000000000000   0x0000000000000000   0x0000000000000000   0x0000000000000000   0x0000000000000000
0x00b1        0x0000000000000000   0x0000000000000000   0x0000000000000000   0x0000000000000000   0x0000000000000000   0x0000000000000000
0x00b2        0x0000000000000000   0x0000000000000000   0x0000000000000000   0x0000000000000000   0x0000000000000000   0x0000000000000000
0x00b3        0x0000000000000000   0x0000000000000000   0x0000000000000000   0x0000000000000000   0x0000000000000000   0x0000000000000000
0x00b4        0x1C005562F7FCC014   0x0000000000000000   0x0000000000000000   0x0000000000000000   0x0000000000000000   0x0000000000000000
0x00b5        0x0000000000000000   0x0000000000000000   0x0000000000000000   0x0000000000000000   0x0000000000000000   0x0000000000000000
0x00b6        0x0000000000000000   0x0000000000000000   0x0000000000000000   0x0000000000000000   0x0000000000000000   0x0000000000000000
0x00b7        0x0C0058423C06C00A   0x0000000000000000   0x0000000000000000   0x0000000000000000   0x0000000000000000   0x0000000000000000
0x00b8        0x0000000000000000   0x0000000000000000   0x0000000000000000   0x0000000000000000   0x0000000000000000   0x0000000000000000
0x00b9        0x0000000000000000   0x0000000000000000   0x0000000000000000   0x0000000000000000   0x0000000000000000   0x0000000000000000
0x00ba        0x0000000000000000   0x0000000000000000   0x0000000000000000   0x0000000000000000   0x0000000000000000   0x0000000000000000
0x00bb        0x0000000000000000   0x0000000000000000   0x0000000000000000   0x0000000000000000   0x0000000000000000   0x0000000000000000
0x00bc        0x0000000000000000   0x0000000000000000   0x0000000000000000   0x0000000000000000   0x0000000000000000   0x0000000000000000
0x00bd        0x0C0059620033800D   0x0000000000000000   0x0000000000000000   0x0000000000000000   0x0000000000000000   0x0000000000000000
0x00be        0x0000000000000000   0x0000000000000000   0x0000000000000000   0x0000000000000000   0x0000000000000000   0x0000000000000000
0x00bf        0x0000000000000000   0x0000000000000000   0x0000000000000000   0x0000000000000000   0x0000000000000000   0x0000000000000000
0x00c0        0x1C0053653813C01A   0x00008F24F80C8006   0x0000000000000000   0x0000000000000000   0x0000000000000000   0x0000000000000000
0x00c1        0x040055439C09000B   0x0000000000000000   0x0000000000000000   0x0000000000000000   0x0000000000000000   0x0000000000000000
0x00c2        0x0C00544274090008   0x0000000000000000   0x0000000000000000   0x0000000000000000   0x0000000000000000   0x0000000000000000
0x00c3        0x0000000000000000   0x0000000000000000   0x0000000000000000   0x0000000000000000   0x0000000000000000   0x0000000000000000
0x00c4        0x0000000000000000   0x0000000000000000   0x0000000000000000   0x0000000000000000   0x0000000000000000   0x0000000000000000
0x00c5        0x0000000000000000   0x0000000000000000   0x0000000000000000   0x0000000000000000   0x0000000000000000   0x0000000000000000
0x00c6        0x0400544278380009   0x0000000000000000   0x0000000000000000   0x0000000000000000   0x0000000000000000   0x0000000000000000
0x00c7        0x0004A72228378005   0x0000000000000000   0x0000000000000000   0x0000000000000000   0x0000000000000000   0x0000000000000000
0x00c8        0x00001F0164380004   0x0000000000000000   0x0000000000000000   0x0000000000000000   0x0000000000000000   0x0000000000000000
0x00c9        0x1400576258398015   0x04005562A83A0009   0x0000000000000000   0x0000000000000000   0x0000000000000000   0x0000000000000000
0x00ca        0x1C0052427040C015   0x00001D03A03BC004   0x0000000000000000   0x0000000000000000   0x0000000000000000   0x0000000000000000
0x00cb        0x04005362943B0012   0x0000000000000000   0x0000000000000000   0x0000000000000000   0x0000000000000000   0x0000000000000000
0x00cc        0x0C0055402C4CC010   0x0000000000000000   0x0000000000000000   0x0000000000000000   0x0000000000000000   0x0000000000000000
0x00cd        0x0000000000000000   0x0000000000000000   0x0000000000000000   0x0000000000000000   0x0000000000000000   0x0000000000000000
0x00ce        0x0000000000000000   0x0000000000000000   0x0000000000000000   0x0000000000000000   0x0000000000000000   0x0000000000000000
0x00cf        0x0000000000000000   0x0000000000000000   0x0000000000000000   0x0000000000000000   0x0000000000000000   0x0000000000000000
0x00d0        0x0000000000000000   0x0000000000000000   0x0000000000000000   0x0000000000000000   0x0000000000000000   0x0000000000000000
0x00d1        0x0000000000000000   0x0000000000000000   0x0000000000000000   0x0000000000000000   0x0000000000000000   0x0000000000000000
0x00d2        0x0000000000000000   0x0000000000000000   0x0000000000000000   0x0000000000000000   0x0000000000000000   0x0000000000000000
0x00d3        0x0000000000000000   0x0000000000000000   0x0000000000000000   0x0000000000000000   0x0000000000000000   0x0000000000000000
0x00d4        0x0000000000000000   0x0000000000000000   0x0000000000000000   0x0000000000000000   0x0000000000000000   0x0000000000000000
0x00d5        0x0000000000000000   0x0000000000000000   0x0000000000000000   0x0000000000000000   0x0000000000000000   0x0000000000000000
0x00d6        0x0000000000000000   0x0000000000000000   0x0000000000000000   0x0000000000000000   0x0000000000000000   0x0000000000000000
0x00d7        0x0000000000000000   0x0000000000000000   0x0000000000000000   0x0000000000000000   0x0000000000000000   0x0000000000000000
0x00d8        0x04004A5E77AC000A   0x0000000000000000   0x0000000000000000   0x0000000000000000   0x0000000000000000   0x0000000000000000
0x00d9        0x0000000000000000   0x0000000000000000   0x0000000000000000   0x0000000000000000   0x0000000000000000   0x0000000000000000
0x00da        0x0000000000000000   0x0000000000000000   0x0000000000000000   0x0000000000000000   0x0000000000000000   0x0000000000000000
0x00db        0x1C004B63DBDD8015   0x0000000000000000   0x0000000000000000   0x0000000000000000   0x0000000000000000   0x0000000000000000
0x00dc        0x0000000000000000   0x0000000000000000   0x0000000000000000   0x0000000000000000   0x0000000000000000   0x0000000000000000
0x00dd        0x0000000000000000   0x0000000000000000   0x0000000000000000   0x0000000000000000   0x0000000000000000   0x0000000000000000
0x00de        0x0000000000000000   0x0000000000000000   0x0000000000000000   0x0000000000000000   0x0000000000000000   0x0000000000000000
0x00df        0x0000000000000000   0x0000000000000000   0x0000000000000000   0x0000000000000000   0x0000000000000000   0x0000000000000000
0x00e0        0x0000000000000000   0x0000000000000000   0x0000000000000000   0x0000000000000000   0x0000000000000000   0x0000000000000000
0x00e1        0x0000000000000000   0x0000000000000000   0x0000000000000000   0x0000000000000000   0x0000000000000000   0x0000000000000000
0x00e2        0x0000000000000000   0x0000000000000000   0x0000000000000000   0x0000000000000000   0x0000000000000000   0x0000000000000000
0x00e3        0x0000000000000000   0x0000000000000000   0x0000000000000000   0x0000000000000000   0x0000000000000000   0x0000000000000000
0x00e4        0x0000000000000000   0x0000000000000000   0x0000000000000000   0x0000000000000000   0x0000000000000000   0x0000000000000000
0x00e5        0x0000000000000000   0x0000000000000000   0x0000000000000000   0x0000000000000000   0x0000000000000000   0x0000000000000000
0x00e6        0x0000000000000000   0x0000000000000000   0x0000000000000000   0x0000000000000000   0x0000000000000000   0x0000000000000000
0x00e7        0x1C004B43CBE4C018   0x0004BF247BE88007   0x0000000000000000   0x0000000000000000   0x0000000000000000   0x0000000000000000
0x00e8        0x0C005343DFE6000B   0x0000000000000000   0x0000000000000000   0x0000000000000000   0x0000000000000000   0x0000000000000000
0x00e9        0x0C004D836BE7400A   0x0000000000000000   0x0000000000000000   0x0000000000000000   0x0000000000000000   0x0000000000000000
0x00ea        0x0000FE23ABE48046   0x0000000000000000   0x0000000000000000   0x0000000000000000   0x0000000000000000   0x0000000000000000
0x00eb        0x0000000000000000   0x0000000000000000   0x0000000000000000   0x0000000000000000   0x0000000000000000   0x0000000000000000
0x00ec        0x0000000000000000   0x0000000000000000   0x0000000000000000   0x0000000000000000   0x0000000000000000   0x0000000000000000
0x00ed        0x0C004542F40B8012   0x0000000000000000   0x0000000000000000   0x0000000000000000   0x0000000000000000   0x0000000000000000
0x00ee        0x00009C23B80E8004   0x0000000000000000   0x0000000000000000   0x0000000000000000   0x0000000000000000   0x0000000000000000
0x00ef        0x0000000000000000   0x0000000000000000   0x0000000000000000   0x0000000000000000   0x0000000000000000   0x0000000000000000
0x00f0        0x0C00495F900C800E   0x0000000000000000   0x0000000000000000   0x0000000000000000   0x0000000000000000   0x0000000000000000
0x00f1        0x0C004B5ED415000C   0x0000000000000000   0x0000000000000000   0x0000000000000000   0x0000000000000000   0x0000000000000000
0x00f2        0x0000000000000000   0x0000000000000000   0x0000000000000000   0x0000000000000000   0x0000000000000000   0x0000000000000000
0x00f3        0x0000000000000000   0x0000000000000000   0x0000000000000000   0x0000000000000000   0x0000000000000000   0x0000000000000000
0x00f4        0x0000000000000000   0x0000000000000000   0x0000000000000000   0x0000000000000000   0x0000000000000000   0x0000000000000000
0x00f5        0x0000000000000000   0x0000000000000000   0x0000000000000000   0x0000000000000000   0x0000000000000000   0x0000000000000000
0x00f6        0x0000000000000000   0x0000000000000000   0x0000000000000000   0x0000000000000000   0x0000000000000000   0x0000000000000000
0x00f7        0x0000000000000000   0x0000000000000000   0x0000000000000000   0x0000000000000000   0x0000000000000000   0x0000000000000000
0x00f8        0x0000000000000000   0x0000000000000000   0x0000000000000000   0x0000000000000000   0x0000000000000000   0x0000000000000000
0x00f9        0x0000000000000000   0x0000000000000000   0x0000000000000000   0x0000000000000000   0x0000000000000000   0x0000000000000000
0x00fa        0x0000000000000000   0x0000000000000000   0x0000000000000000   0x0000000000000000   0x0000000000000000   0x0000000000000000
0x00fb        0x0000000000000000   0x0000000000000000   0x0000000000000000   0x0000000000000000   0x0000000000000000   0x0000000000000000
0x00fc        0x0000000000000000   0x0000000000000000   0x0000000000000000   0x0000000000000000   0x0000000000000000   0x0000000000000000
0x00fd        0x0000000000000000   0x0000000000000000   0x0000000000000000   0x0000000000000000   0x0000000000000000   0x0000000000000000
0x00fe        0x0000000000000000   0x0000000000000000   0x0000000000000000   0x0000000000000000   0x0000000000000000   0x0000000000000000
0x00ff        0x0000000000000000   0x0000000000000000   0x0000000000000000   0x0000000000000000   0x0000000000000000   0x0000000000000000
0x0100        0x0000000000000000   0x0000000000000000   0x0000000000000000   0x0000000000000000   0x0000000000000000   0x0000000000000000
0x0101        0x0000000000000000   0x0000000000000000   0x0000000000000000   0x0000000000000000   0x0000000000000000   0x0000000000000000
0x0102        0x0000000000000000   0x0000000000000000   0x0000000000000000   0x0000000000000000   0x0000000000000000   0x0000000000000000
0x0103        0x0000000000000000   0x0000000000000000   0x0000000000000000   0x0000000000000000   0x0000000000000000   0x0000000000000000
0x0104        0x0000000000000000   0x0000000000000000   0x0000000000000000   0x0000000000000000   0x0000000000000000   0x0000000000000000
0x0105        0x0C00436437AF0009   0x0000000000000000   0x0000000000000000   0x0000000000000000   0x0000000000000000   0x0000000000000000
0x0106        0x0000000000000000   0x0000000000000000   0x0000000000000000   0x0000000000000000   0x0000000000000000   0x0000000000000000
0x0107        0x0000000000000000   0x0000000000000000   0x0000000000000000   0x0000000000000000   0x0000000000000000   0x0000000000000000
0x0108        0x0000000000000000   0x0000000000000000   0x0000000000000000   0x0000000000000000   0x0000000000000000   0x0000000000000000
0x0109        0x0000000000000000   0x0000000000000000   0x0000000000000000   0x0000000000000000   0x0000000000000000   0x0000000000000000
0x010a        0x0000000000000000   0x0000000000000000   0x0000000000000000   0x0000000000000000   0x0000000000000000   0x0000000000000000
0x010b        0x0000000000000000   0x0000000000000000   0x0000000000000000   0x0000000000000000   0x0000000000000000   0x0000000000000000
0x010c        0x0000000000000000   0x0000000000000000   0x0000000000000000   0x0000000000000000   0x0000000000000000   0x0000000000000000
0x010d        0x0000000000000000   0x0000000000000000   0x0000000000000000   0x0000000000000000   0x0000000000000000   0x0000000000000000
0x010e        0x000700213BBC8094   0x0000000000000000   0x0000000000000000   0x0000000000000000   0x0000000000000000   0x0000000000000000
0x010f        0x0C001D5EFBAA8008   0x0000000000000000   0x0000000000000000   0x0000000000000000   0x0000000000000000   0x0000000000000000
0x0110        0x0000000000000000   0x0000000000000000   0x0000000000000000   0x0000000000000000   0x0000000000000000   0x0000000000000000
0x0111        0x000E98221BC88008   0x0000000000000000   0x0000000000000000   0x0000000000000000   0x0000000000000000   0x0000000000000000
0x0112        0x0000000000000000   0x0000000000000000   0x0000000000000000   0x0000000000000000   0x0000000000000000   0x0000000000000000
0x0113        0x0000000000000000   0x0000000000000000   0x0000000000000000   0x0000000000000000   0x0000000000000000   0x0000000000000000
0x0114        0x0000000000000000   0x0000000000000000   0x0000000000000000   0x0000000000000000   0x0000000000000000   0x0000000000000000
0x0115        0x0000000000000000   0x0000000000000000   0x0000000000000000   0x0000000000000000   0x0000000000000000   0x0000000000000000
0x0116        0x0000000000000000   0x0000000000000000   0x0000000000000000   0x0000000000000000   0x0000000000000000   0x0000000000000000
0x0117        0x0000000000000000   0x0000000000000000   0x0000000000000000   0x0000000000000000   0x0000000000000000   0x0000000000000000
0x0118        0x0000000000000000   0x0000000000000000   0x0000000000000000   0x0000000000000000   0x0000000000000000   0x0000000000000000
0x0119        0x0000000000000000   0x0000000000000000   0x0000000000000000   0x0000000000000000   0x0000000000000000   0x0000000000000000
0x011a        0x0000000000000000   0x0000000000000000   0x0000000000000000   0x0000000000000000   0x0000000000000000   0x0000000000000000
0x011b        0x0000000000000000   0x0000000000000000   0x0000000000000000   0x0000000000000000   0x0000000000000000   0x0000000000000000
0x011c        0x0000000000000000   0x0000000000000000   0x0000000000000000   0x0000000000000000   0x0000000000000000   0x0000000000000000
0x011d        0x0000000000000000   0x0000000000000000   0x0000000000000000   0x0000000000000000   0x0000000000000000   0x0000000000000000
0x011e        0x0000000000000000   0x0000000000000000   0x0000000000000000   0x0000000000000000   0x0000000000000000   0x0000000000000000
0x011f        0x0000000000000000   0x0000000000000000   0x0000000000000000   0x0000000000000000   0x0000000000000000   0x0000000000000000
0x0120        0x1C002342DFF6C016   0x0000000000000000   0x0000000000000000   0x0000000000000000   0x0000000000000000   0x0000000000000000
0x0121        0x0004AE235BF1800A   0x0000000000000000   0x0000000000000000   0x0000000000000000   0x0000000000000000   0x0000000000000000
0x0122        0x0000000000000000   0x0000000000000000   0x0000000000000000   0x0000000000000000   0x0000000000000000   0x0000000000000000
0x0123        0x0000000000000000   0x0000000000000000   0x0000000000000000   0x0000000000000000   0x0000000000000000   0x0000000000000000
0x0124        0x0000000000000000   0x0000000000000000   0x0000000000000000   0x0000000000000000   0x0000000000000000   0x0000000000000000
0x0125        0x0000000000000000   0x0000000000000000   0x0000000000000000   0x0000000000000000   0x0000000000000000   0x0000000000000000
0x0126        0x0000000000000000   0x0000000000000000   0x0000000000000000   0x0000000000000000   0x0000000000000000   0x0000000000000000
0x0127        0x0000000000000000   0x0000000000000000   0x0000000000000000   0x0000000000000000   0x0000000000000000   0x0000000000000000
0x0128        0x0000000000000000   0x0000000000000000   0x0000000000000000   0x0000000000000000   0x0000000000000000   0x0000000000000000
0x0129        0x0000000000000000   0x0000000000000000   0x0000000000000000   0x0000000000000000   0x0000000000000000   0x0000000000000000
0x012a        0x0000000000000000   0x0000000000000000   0x0000000000000000   0x0000000000000000   0x0000000000000000   0x0000000000000000
0x012b        0x0000000000000000   0x0000000000000000   0x0000000000000000   0x0000000000000000   0x0000000000000000   0x0000000000000000
0x012c        0x0000000000000000   0x0000000000000000   0x0000000000000000   0x0000000000000000   0x0000000000000000   0x0000000000000000
0x012d        0x0000000000000000   0x0000000000000000   0x0000000000000000   0x0000000000000000   0x0000000000000000   0x0000000000000000
0x012e        0x0000000000000000   0x0000000000000000   0x0000000000000000   0x0000000000000000   0x0000000000000000   0x0000000000000000
0x012f        0x0000000000000000   0x0000000000000000   0x0000000000000000   0x0000000000000000   0x0000000000000000   0x0000000000000000
0x0130        0x0000000000000000   0x0000000000000000   0x0000000000000000   0x0000000000000000   0x0000000000000000   0x0000000000000000
0x0131        0x0000000000000000   0x0000000000000000   0x0000000000000000   0x0000000000000000   0x0000000000000000   0x0000000000000000
0x0132        0x0000000000000000   0x0000000000000000   0x0000000000000000   0x0000000000000000   0x0000000000000000   0x0000000000000000
0x0133        0x0000000000000000   0x0000000000000000   0x0000000000000000   0x0000000000000000   0x0000000000000000   0x0000000000000000
0x0134        0x0000000000000000   0x0000000000000000   0x0000000000000000   0x0000000000000000   0x0000000000000000   0x0000000000000000
0x0135        0x0000000000000000   0x0000000000000000   0x0000000000000000   0x0000000000000000   0x0000000000000000   0x0000000000000000
0x0136        0x0000000000000000   0x0000000000000000   0x0000000000000000   0x0000000000000000   0x0000000000000000   0x0000000000000000
0x0137        0x0000000000000000   0x0000000000000000   0x0000000000000000   0x0000000000000000   0x0000000000000000   0x0000000000000000
0x0138        0x0000000000000000   0x0000000000000000   0x0000000000000000   0x0000000000000000   0x0000000000000000   0x0000000000000000
0x0139        0x0000000000000000   0x0000000000000000   0x0000000000000000   0x0000000000000000   0x0000000000000000   0x0000000000000000
0x013a        0x0000000000000000   0x0000000000000000   0x0000000000000000   0x0000000000000000   0x0000000000000000   0x0000000000000000
0x013b        0x0400254127C4800E   0x0000000000000000   0x0000000000000000   0x0000000000000000   0x0000000000000000   0x0000000000000000
0x013c        0x0000000000000000   0x0000000000000000   0x0000000000000000   0x0000000000000000   0x0000000000000000   0x0000000000000000
0x013d        0x0000000000000000   0x0000000000000000   0x0000000000000000   0x0000000000000000   0x0000000000000000   0x0000000000000000
0x013e        0x0000000000000000   0x0000000000000000   0x0000000000000000   0x0000000000000000   0x0000000000000000   0x0000000000000000
0x013f        0x0000000000000000   0x0000000000000000   0x0000000000000000   0x0000000000000000   0x0000000000000000   0x0000000000000000
0x0140        0x0000000000000000   0x0000000000000000   0x0000000000000000   0x0000000000000000   0x0000000000000000   0x0000000000000000
0x0141        0x0000000000000000   0x0000000000000000   0x0000000000000000   0x0000000000000000   0x0000000000000000   0x0000000000000000
0x0142        0x0000000000000000   0x0000000000000000   0x0000000000000000   0x0000000000000000   0x0000000000000000   0x0000000000000000
0x0143        0x0000000000000000   0x0000000000000000   0x0000000000000000   0x0000000000000000   0x0000000000000000   0x0000000000000000
0x0144        0x0000000000000000   0x0000000000000000   0x0000000000000000   0x0000000000000000   0x0000000000000000   0x0000000000000000
0x0145        0x0000000000000000   0x0000000000000000   0x0000000000000000   0x0000000000000000   0x0000000000000000   0x0000000000000000
0x0146        0x0000000000000000   0x0000000000000000   0x0000000000000000   0x0000000000000000   0x0000000000000000   0x0000000000000000
0x0147        0x0000000000000000   0x0000000000000000   0x0000000000000000   0x0000000000000000   0x0000000000000000   0x0000000000000000
0x0148        0x0000000000000000   0x0000000000000000   0x0000000000000000   0x0000000000000000   0x0000000000000000   0x0000000000000000
0x0149        0x0000000000000000   0x0000000000000000   0x0000000000000000   0x0000000000000000   0x0000000000000000   0x0000000000000000
0x014a        0x0000000000000000   0x0000000000000000   0x0000000000000000   0x0000000000000000   0x0000000000000000   0x0000000000000000
0x014b        0x0000000000000000   0x0000000000000000   0x0000000000000000   0x0000000000000000   0x0000000000000000   0x0000000000000000
0x014c        0x0000000000000000   0x0000000000000000   0x0000000000000000   0x0000000000000000   0x0000000000000000   0x0000000000000000
0x014d        0x0000000000000000   0x0000000000000000   0x0000000000000000   0x0000000000000000   0x0000000000000000   0x0000000000000000
0x014e        0x0000000000000000   0x0000000000000000   0x0000000000000000   0x0000000000000000   0x0000000000000000   0x0000000000000000
0x014f        0x0000000000000000   0x0000000000000000   0x0000000000000000   0x0000000000000000   0x0000000000000000   0x0000000000000000
0x0150        0x0000000000000000   0x0000000000000000   0x0000000000000000   0x0000000000000000   0x0000000000000000   0x0000000000000000
0x0151        0x0000000000000000   0x0000000000000000   0x0000000000000000   0x0000000000000000   0x0000000000000000   0x0000000000000000
0x0152        0x0000000000000000   0x0000000000000000   0x0000000000000000   0x0000000000000000   0x0000000000000000   0x0000000000000000
0x0153        0x0000FD258BF48039   0x1C002F659FF9C015   0x0C002F6533F4C00C   0x0000000000000000   0x0000000000000000   0x0000000000000000
0x0154        0x0000FC259BF18035   0x0C002C65BBF10011   0x0000000000000000   0x0000000000000000   0x0000000000000000   0x0000000000000000
0x0155        0x1C002F45C7F18025   0x0000E025FBEF800D   0x0000000000000000   0x0000000000000000   0x0000000000000000   0x0000000000000000
0x0156        0x0000000000000000   0x0000000000000000   0x0000000000000000   0x0000000000000000   0x0000000000000000   0x0000000000000000
0x0157        0x0000000000000000   0x0000000000000000   0x0000000000000000   0x0000000000000000   0x0000000000000000   0x0000000000000000
0x0158        0x0000000000000000   0x0000000000000000   0x0000000000000000   0x0000000000000000   0x0000000000000000   0x0000000000000000
0x0159        0x0000000000000000   0x0000000000000000   0x0000000000000000   0x0000000000000000   0x0000000000000000   0x0000000000000000
0x015a        0x0000000000000000   0x0000000000000000   0x0000000000000000   0x0000000000000000   0x0000000000000000   0x0000000000000000
0x015b        0x0000000000000000   0x0000000000000000   0x0000000000000000   0x0000000000000000   0x0000000000000000   0x0000000000000000
0x015c        0x0000000000000000   0x0000000000000000   0x0000000000000000   0x0000000000000000   0x0000000000000000   0x0000000000000000
0x015d        0x0000000000000000   0x0000000000000000   0x0000000000000000   0x0000000000000000   0x0000000000000000   0x0000000000000000
0x015e        0x0000000000000000   0x0000000000000000   0x0000000000000000   0x0000000000000000   0x0000000000000000   0x0000000000000000
0x015f        0x0000000000000000   0x0000000000000000   0x0000000000000000   0x0000000000000000   0x0000000000000000   0x0000000000000000
0x0160        0x0000000000000000   0x0000000000000000   0x0000000000000000   0x0000000000000000   0x0000000000000000   0x0000000000000000
0x0161        0x0000000000000000   0x0000000000000000   0x0000000000000000   0x0000000000000000   0x0000000000000000   0x0000000000000000
0x0162        0x0004A1263800800B   0x0000000000000000   0x0000000000000000   0x0000000000000000   0x0000000000000000   0x0000000000000000
0x0163        0x0000000000000000   0x0000000000000000   0x0000000000000000   0x0000000000000000   0x0000000000000000   0x0000000000000000
0x0164        0x0000000000000000   0x0000000000000000   0x0000000000000000   0x0000000000000000   0x0000000000000000   0x0000000000000000
0x0165        0x0000000000000000   0x0000000000000000   0x0000000000000000   0x0000000000000000   0x0000000000000000   0x0000000000000000
0x0166        0x0000000000000000   0x0000000000000000   0x0000000000000000   0x0000000000000000   0x0000000000000000   0x0000000000000000
0x0167        0x0000000000000000   0x0000000000000000   0x0000000000000000   0x0000000000000000   0x0000000000000000   0x0000000000000000
0x0168        0x0000000000000000   0x0000000000000000   0x0000000000000000   0x0000000000000000   0x0000000000000000   0x0000000000000000
0x0169        0x0000000000000000   0x0000000000000000   0x0000000000000000   0x0000000000000000   0x0000000000000000   0x0000000000000000
0x016a        0x0000000000000000   0x0000000000000000   0x0000000000000000   0x0000000000000000   0x0000000000000000   0x0000000000000000
0x016b        0x0000000000000000   0x0000000000000000   0x0000000000000000   0x0000000000000000   0x0000000000000000   0x0000000000000000
0x016c        0x0000000000000000   0x0000000000000000   0x0000000000000000   0x0000000000000000   0x0000000000000000   0x0000000000000000
0x016d        0x0000000000000000   0x0000000000000000   0x0000000000000000   0x0000000000000000   0x0000000000000000   0x0000000000000000
0x016e        0x0000000000000000   0x0000000000000000   0x0000000000000000   0x0000000000000000   0x0000000000000000   0x0000000000000000
0x016f        0x0000000000000000   0x0000000000000000   0x0000000000000000   0x0000000000000000   0x0000000000000000   0x0000000000000000
0x0170        0x0000000000000000   0x0000000000000000   0x0000000000000000   0x0000000000000000   0x0000000000000000   0x0000000000000000
0x0171        0x0000000000000000   0x0000000000000000   0x0000000000000000   0x0000000000000000   0x0000000000000000   0x0000000000000000
0x0172        0x0000000000000000   0x0000000000000000   0x0000000000000000   0x0000000000000000   0x0000000000000000   0x0000000000000000
0x0173        0x0000000000000000   0x0000000000000000   0x0000000000000000   0x0000000000000000   0x0000000000000000   0x0000000000000000
0x0174        0x040032443C41000C   0x0000000000000000   0x0000000000000000   0x0000000000000000   0x0000000000000000   0x0000000000000000
0x0175        0x0C00364274420008   0x0000000000000000   0x0000000000000000   0x0000000000000000   0x0000000000000000   0x0000000000000000
0x0176        0x0000000000000000   0x0000000000000000   0x0000000000000000   0x0000000000000000   0x0000000000000000   0x0000000000000000
0x0177        0x0000000000000000   0x0000000000000000   0x0000000000000000   0x0000000000000000   0x0000000000000000   0x0000000000000000
0x0178        0x0000000000000000   0x0000000000000000   0x0000000000000000   0x0000000000000000   0x0000000000000000   0x0000000000000000
0x0179        0x0000000000000000   0x0000000000000000   0x0000000000000000   0x0000000000000000   0x0000000000000000   0x0000000000000000
0x017a        0x0000000000000000   0x0000000000000000   0x0000000000000000   0x0000000000000000   0x0000000000000000   0x0000000000000000
0x017b        0x0000000000000000   0x0000000000000000   0x0000000000000000   0x0000000000000000   0x0000000000000000   0x0000000000000000
0x017c        0x0000000000000000   0x0000000000000000   0x0000000000000000   0x0000000000000000   0x0000000000000000   0x0000000000000000
0x017d        0x0000000000000000   0x0000000000000000   0x0000000000000000   0x0000000000000000   0x0000000000000000   0x0000000000000000
0x017e        0x0000000000000000   0x0000000000000000   0x0000000000000000   0x0000000000000000   0x0000000000000000   0x0000000000000000
0x017f        0x0000000000000000   0x0000000000000000   0x0000000000000000   0x0000000000000000   0x0000000000000000   0x0000000000000000
0x0180        0x0000000000000000   0x0000000000000000   0x0000000000000000   0x0000000000000000   0x0000000000000000   0x0000000000000000
0x0181        0x0000000000000000   0x0000000000000000   0x0000000000000000   0x0000000000000000   0x0000000000000000   0x0000000000000000
0x0182        0x0000000000000000   0x0000000000000000   0x0000000000000000   0x0000000000000000   0x0000000000000000   0x0000000000000000
0x0183        0x0000000000000000   0x0000000000000000   0x0000000000000000   0x0000000000000000   0x0000000000000000   0x0000000000000000
0x0184        0x0000000000000000   0x0000000000000000   0x0000000000000000   0x0000000000000000   0x0000000000000000   0x0000000000000000
0x0185        0x0000000000000000   0x0000000000000000   0x0000000000000000   0x0000000000000000   0x0000000000000000   0x0000000000000000
0x0186        0x0000000000000000   0x0000000000000000   0x0000000000000000   0x0000000000000000   0x0000000000000000   0x0000000000000000
0x0187        0x0000000000000000   0x0000000000000000   0x0000000000000000   0x0000000000000000   0x0000000000000000   0x0000000000000000
0x0188        0x0000000000000000   0x0000000000000000   0x0000000000000000   0x0000000000000000   0x0000000000000000   0x0000000000000000
0x0189        0x0000000000000000   0x0000000000000000   0x0000000000000000   0x0000000000000000   0x0000000000000000   0x0000000000000000
0x018a        0x0000000000000000   0x0000000000000000   0x0000000000000000   0x0000000000000000   0x0000000000000000   0x0000000000000000
0x018b        0x0000000000000000   0x0000000000000000   0x0000000000000000   0x0000000000000000   0x0000000000000000   0x0000000000000000
0x018c        0x0000000000000000   0x0000000000000000   0x0000000000000000   0x0000000000000000   0x0000000000000000   0x0000000000000000
0x018d        0x0000000000000000   0x0000000000000000   0x0000000000000000   0x0000000000000000   0x0000000000000000   0x0000000000000000
0x018e        0x0000000000000000   0x0000000000000000   0x0000000000000000   0x0000000000000000   0x0000000000000000   0x0000000000000000
0x018f        0x0000000000000000   0x0000000000000000   0x0000000000000000   0x0000000000000000   0x0000000000000000   0x0000000000000000
0x0190        0x0000000000000000   0x0000000000000000   0x0000000000000000   0x0000000000000000   0x0000000000000000   0x0000000000000000
0x0191        0x0000000000000000   0x0000000000000000   0x0000000000000000   0x0000000000000000   0x0000000000000000   0x0000000000000000
0x0192        0x0000000000000000   0x0000000000000000   0x0000000000000000   0x0000000000000000   0x0000000000000000   0x0000000000000000
0x0193        0x0000000000000000   0x0000000000000000   0x0000000000000000   0x0000000000000000   0x0000000000000000   0x0000000000000000
0x0194        0x0000000000000000   0x0000000000000000   0x0000000000000000   0x0000000000000000   0x0000000000000000   0x0000000000000000
0x0195        0x0000000000000000   0x0000000000000000   0x0000000000000000   0x0000000000000000   0x0000000000000000   0x0000000000000000
0x0196        0x0000000000000000   0x0000000000000000   0x0000000000000000   0x0000000000000000   0x0000000000000000   0x0000000000000000
0x0197        0x0000000000000000   0x0000000000000000   0x0000000000000000   0x0000000000000000   0x0000000000000000   0x0000000000000000
0x0198        0x0000000000000000   0x0000000000000000   0x0000000000000000   0x0000000000000000   0x0000000000000000   0x0000000000000000
0x0199        0x0000000000000000   0x0000000000000000   0x0000000000000000   0x0000000000000000   0x0000000000000000   0x0000000000000000
0x019a        0x0000000000000000   0x0000000000000000   0x0000000000000000   0x0000000000000000   0x0000000000000000   0x0000000000000000
0x019b        0x1C038944B8240017   0x0000000000000000   0x0000000000000000   0x0000000000000000   0x0000000000000000   0x0000000000000000
0x019c        0x0000000000000000   0x0000000000000000   0x0000000000000000   0x0000000000000000   0x0000000000000000   0x0000000000000000
0x019d        0x0000000000000000   0x0000000000000000   0x0000000000000000   0x0000000000000000   0x0000000000000000   0x0000000000000000
0x019e        0x0000000000000000   0x0000000000000000   0x0000000000000000   0x0000000000000000   0x0000000000000000   0x0000000000000000
0x019f        0x0000000000000000   0x0000000000000000   0x0000000000000000   0x0000000000000000   0x0000000000000000   0x0000000000000000
0x01a0        0x0000000000000000   0x0000000000000000   0x0000000000000000   0x0000000000000000   0x0000000000000000   0x0000000000000000
0x01a1        0x0000000000000000   0x0000000000000000   0x0000000000000000   0x0000000000000000   0x0000000000000000   0x0000000000000000
0x01a2        0x0000000000000000   0x0000000000000000   0x0000000000000000   0x0000000000000000   0x0000000000000000   0x0000000000000000
0x01a3        0x0000000000000000   0x0000000000000000   0x0000000000000000   0x0000000000000000   0x0000000000000000   0x0000000000000000
0x01a4        0x0000000000000000   0x0000000000000000   0x0000000000000000   0x0000000000000000   0x0000000000000000   0x0000000000000000
0x01a5        0x0000000000000000   0x0000000000000000   0x0000000000000000   0x0000000000000000   0x0000000000000000   0x0000000000000000
0x01a6        0x0000000000000000   0x0000000000000000   0x0000000000000000   0x0000000000000000   0x0000000000000000   0x0000000000000000
0x01a7        0x0000000000000000   0x0000000000000000   0x0000000000000000   0x0000000000000000   0x0000000000000000   0x0000000000000000
0x01a8        0x0000000000000000   0x0000000000000000   0x0000000000000000   0x0000000000000000   0x0000000000000000   0x0000000000000000
0x01a9        0x0000000000000000   0x0000000000000000   0x0000000000000000   0x0000000000000000   0x0000000000000000   0x0000000000000000
0x01aa        0x0000000000000000   0x0000000000000000   0x0000000000000000   0x0000000000000000   0x0000000000000000   0x0000000000000000
0x01ab        0x0000000000000000   0x0000000000000000   0x0000000000000000   0x0000000000000000   0x0000000000000000   0x0000000000000000
0x01ac        0x0000000000000000   0x0000000000000000   0x0000000000000000   0x0000000000000000   0x0000000000000000   0x0000000000000000
0x01ad        0x0000000000000000   0x0000000000000000   0x0000000000000000   0x0000000000000000   0x0000000000000000   0x0000000000000000
0x01ae        0x0000000000000000   0x0000000000000000   0x0000000000000000   0x0000000000000000   0x0000000000000000   0x0000000000000000
0x01af        0x0000000000000000   0x0000000000000000   0x0000000000000000   0x0000000000000000   0x0000000000000000   0x0000000000000000
0x01b0        0x0000000000000000   0x0000000000000000   0x0000000000000000   0x0000000000000000   0x0000000000000000   0x0000000000000000
0x01b1        0x0000000000000000   0x0000000000000000   0x0000000000000000   0x0000000000000000   0x0000000000000000   0x0000000000000000
0x01b2        0x0000000000000000   0x0000000000000000   0x0000000000000000   0x0000000000000000   0x0000000000000000   0x0000000000000000
0x01b3        0x0C005F62FFD6800C   0x0000000000000000   0x0000000000000000   0x0000000000000000   0x0000000000000000   0x0000000000000000
0x01b4        0x0000000000000000   0x0000000000000000   0x0000000000000000   0x0000000000000000   0x0000000000000000   0x0000000000000000
0x01b5        0x0000000000000000   0x0000000000000000   0x0000000000000000   0x0000000000000000   0x0000000000000000   0x0000000000000000
0x01b6        0x0000000000000000   0x0000000000000000   0x0000000000000000   0x0000000000000000   0x0000000000000000   0x0000000000000000
0x01b7        0x0000000000000000   0x0000000000000000   0x0000000000000000   0x0000000000000000   0x0000000000000000   0x0000000000000000
0x01b8        0x0000000000000000   0x0000000000000000   0x0000000000000000   0x0000000000000000   0x0000000000000000   0x0000000000000000
0x01b9        0x0000000000000000   0x0000000000000000   0x0000000000000000   0x0000000000000000   0x0000000000000000   0x0000000000000000
0x01ba        0x0000000000000000   0x0000000000000000   0x0000000000000000   0x0000000000000000   0x0000000000000000   0x0000000000000000
0x01bb        0x0000000000000000   0x0000000000000000   0x0000000000000000   0x0000000000000000   0x0000000000000000   0x0000000000000000
0x01bc        0x0000000000000000   0x0000000000000000   0x0000000000000000   0x0000000000000000   0x0000000000000000   0x0000000000000000
0x01bd        0x0000000000000000   0x0000000000000000   0x0000000000000000   0x0000000000000000   0x0000000000000000   0x0000000000000000
0x01be        0x0000000000000000   0x0000000000000000   0x0000000000000000   0x0000000000000000   0x0000000000000000   0x0000000000000000
0x01bf        0x0000000000000000   0x0000000000000000   0x0000000000000000   0x0000000000000000   0x0000000000000000   0x0000000000000000
0x01c0        0x0000000000000000   0x0000000000000000   0x0000000000000000   0x0000000000000000   0x0000000000000000   0x0000000000000000
0x01c1        0x0000000000000000   0x0000000000000000   0x0000000000000000   0x0000000000000000   0x0000000000000000   0x0000000000000000
0x01c2        0x0000000000000000   0x0000000000000000   0x0000000000000000   0x0000000000000000   0x0000000000000000   0x0000000000000000
0x01c3        0x0000000000000000   0x0000000000000000   0x0000000000000000   0x0000000000000000   0x0000000000000000   0x0000000000000000
0x01c4        0x0000000000000000   0x0000000000000000   0x0000000000000000   0x0000000000000000   0x0000000000000000   0x0000000000000000
0x01c5        0x0000000000000000   0x0000000000000000   0x0000000000000000   0x0000000000000000   0x0000000000000000   0x0000000000000000
0x01c6        0x0000000000000000   0x0000000000000000   0x0000000000000000   0x0000000000000000   0x0000000000000000   0x0000000000000000
0x01c7        0x0000000000000000   0x0000000000000000   0x0000000000000000   0x0000000000000000   0x0000000000000000   0x0000000000000000
0x01c8        0x0000000000000000   0x0000000000000000   0x0000000000000000   0x0000000000000000   0x0000000000000000   0x0000000000000000
0x01c9        0x0000000000000000   0x0000000000000000   0x0000000000000000   0x0000000000000000   0x0000000000000000   0x0000000000000000
0x01ca        0x0000000000000000   0x0000000000000000   0x0000000000000000   0x0000000000000000   0x0000000000000000   0x0000000000000000
0x01cb        0x0C005D5F0C26000A   0x0000000000000000   0x0000000000000000   0x0000000000000000   0x0000000000000000   0x0000000000000000
0x01cc        0x0000000000000000   0x0000000000000000   0x0000000000000000   0x0000000000000000   0x0000000000000000   0x0000000000000000
0x01cd        0x0000000000000000   0x0000000000000000   0x0000000000000000   0x0000000000000000   0x0000000000000000   0x0000000000000000
0x01ce        0x0000FA05E81B4060   0x0000000000000000   0x0000000000000000   0x0000000000000000   0x0000000000000000   0x0000000000000000
0x01cf        0x00010025D81A805E   0x0000000000000000   0x0000000000000000   0x0000000000000000   0x0000000000000000   0x0000000000000000
0x01d0        0x1C005F45C418C027   0x0000000000000000   0x0000000000000000   0x0000000000000000   0x0000000000000000   0x0000000000000000
0x01d1        0x0000000000000000   0x0000000000000000   0x0000000000000000   0x0000000000000000   0x0000000000000000   0x0000000000000000
0x01d2        0x0000000000000000   0x0000000000000000   0x0000000000000000   0x0000000000000000   0x0000000000000000   0x0000000000000000
0x01d3        0x0000000000000000   0x0000000000000000   0x0000000000000000   0x0000000000000000   0x0000000000000000   0x0000000000000000
0x01d4        0x0000000000000000   0x0000000000000000   0x0000000000000000   0x0000000000000000   0x0000000000000000   0x0000000000000000
0x01d5        0x0000000000000000   0x0000000000000000   0x0000000000000000   0x0000000000000000   0x0000000000000000   0x0000000000000000
0x01d6        0x0000000000000000   0x0000000000000000   0x0000000000000000   0x0000000000000000   0x0000000000000000   0x0000000000000000
0x01d7        0x0C0054421855000B   0x0000000000000000   0x0000000000000000   0x0000000000000000   0x0000000000000000   0x0000000000000000
0x01d8        0x0000000000000000   0x0000000000000000   0x0000000000000000   0x0000000000000000   0x0000000000000000   0x0000000000000000
0x01d9        0x0000000000000000   0x0000000000000000   0x0000000000000000   0x0000000000000000   0x0000000000000000   0x0000000000000000
0x01da        0x0C005D62144F800C   0x0000000000000000   0x0000000000000000   0x0000000000000000   0x0000000000000000   0x0000000000000000
0x01db        0x0000000000000000   0x0000000000000000   0x0000000000000000   0x0000000000000000   0x0000000000000000   0x0000000000000000
0x01dc        0x0000000000000000   0x0000000000000000   0x0000000000000000   0x0000000000000000   0x0000000000000000   0x0000000000000000
0x01dd        0x0000000000000000   0x0000000000000000   0x0000000000000000   0x0000000000000000   0x0000000000000000   0x0000000000000000
0x01de        0x0000000000000000   0x0000000000000000   0x0000000000000000   0x0000000000000000   0x0000000000000000   0x0000000000000000
0x01df        0x0000000000000000   0x0000000000000000   0x0000000000000000   0x0000000000000000   0x0000000000000000   0x0000000000000000
0x01e0        0x0000000000000000   0x0000000000000000   0x0000000000000000   0x0000000000000000   0x0000000000000000   0x0000000000000000
0x01e1        0x0000000000000000   0x0000000000000000   0x0000000000000000   0x0000000000000000   0x0000000000000000   0x0000000000000000
0x01e2        0x0000000000000000   0x0000000000000000   0x0000000000000000   0x0000000000000000   0x0000000000000000   0x0000000000000000
0x01e3        0x0000000000000000   0x0000000000000000   0x0000000000000000   0x0000000000000000   0x0000000000000000   0x0000000000000000
0x01e4        0x0000000000000000   0x0000000000000000   0x0000000000000000   0x0000000000000000   0x0000000000000000   0x0000000000000000
0x01e5        0x0000000000000000   0x0000000000000000   0x0000000000000000   0x0000000000000000   0x0000000000000000   0x0000000000000000
0x01e6        0x0403BC617BC4000F   0x0000000000000000   0x0000000000000000   0x0000000000000000   0x0000000000000000   0x0000000000000000
0x01e7        0x0403BB622BB8000B   0x0000000000000000   0x0000000000000000   0x0000000000000000   0x0000000000000000   0x0000000000000000
0x01e8        0x0000000000000000   0x0000000000000000   0x0000000000000000   0x0000000000000000   0x0000000000000000   0x0000000000000000
0x01e9        0x0000000000000000   0x0000000000000000   0x0000000000000000   0x0000000000000000   0x0000000000000000   0x0000000000000000
0x01ea        0x0000000000000000   0x0000000000000000   0x0000000000000000   0x0000000000000000   0x0000000000000000   0x0000000000000000
0x01eb        0x0000000000000000   0x0000000000000000   0x0000000000000000   0x0000000000000000   0x0000000000000000   0x0000000000000000
0x01ec        0x0000000000000000   0x0000000000000000   0x0000000000000000   0x0000000000000000   0x0000000000000000   0x0000000000000000
0x01ed        0x0000000000000000   0x0000000000000000   0x0000000000000000   0x0000000000000000   0x0000000000000000   0x0000000000000000
0x01ee        0x0000000000000000   0x0000000000000000   0x0000000000000000   0x0000000000000000   0x0000000000000000   0x0000000000000000
0x01ef        0x0000000000000000   0x0000000000000000   0x0000000000000000   0x0000000000000000   0x0000000000000000   0x0000000000000000
0x01f0        0x0000000000000000   0x0000000000000000   0x0000000000000000   0x0000000000000000   0x0000000000000000   0x0000000000000000
0x01f1        0x0000000000000000   0x0000000000000000   0x0000000000000000   0x0000000000000000   0x0000000000000000   0x0000000000000000
0x01f2        0x0000000000000000   0x0000000000000000   0x0000000000000000   0x0000000000000000   0x0000000000000000   0x0000000000000000
0x01f3        0x0000000000000000   0x0000000000000000   0x0000000000000000   0x0000000000000000   0x0000000000000000   0x0000000000000000
0x01f4        0x0000000000000000   0x0000000000000000   0x0000000000000000   0x0000000000000000   0x0000000000000000   0x0000000000000000
0x01f5        0x0000000000000000   0x0000000000000000   0x0000000000000000   0x0000000000000000   0x0000000000000000   0x0000000000000000
0x01f6        0x0000000000000000   0x0000000000000000   0x0000000000000000   0x0000000000000000   0x0000000000000000   0x0000000000000000
0x01f7        0x0000000000000000   0x0000000000000000   0x0000000000000000   0x0000000000000000   0x0000000000000000   0x0000000000000000
0x01f8        0x0000000000000000   0x0000000000000000   0x0000000000000000   0x0000000000000000   0x0000000000000000   0x0000000000000000
0x01f9        0x0000000000000000   0x0000000000000000   0x0000000000000000   0x0000000000000000   0x0000000000000000   0x0000000000000000
0x01fa        0x0000000000000000   0x0000000000000000   0x0000000000000000   0x0000000000000000   0x0000000000000000   0x0000000000000000
0x01fb        0x0000000000000000   0x0000000000000000   0x0000000000000000   0x0000000000000000   0x0000000000000000   0x0000000000000000
0x01fc        0x0000000000000000   0x0000000000000000   0x0000000000000000   0x0000000000000000   0x0000000000000000   0x0000000000000000
0x01fd        0x0000000000000000   0x0000000000000000   0x0000000000000000   0x0000000000000000   0x0000000000000000   0x0000000000000000
0x01fe        0x0000000000000000   0x0000000000000000   0x0000000000000000   0x0000000000000000   0x0000000000000000   0x0000000000000000
0x01ff        0x0000000000000000   0x0000000000000000   0x0000000000000000   0x0000000000000000   0x0000000000000000   0x0000000000000000
0x0200        0x0000000000000000   0x0000000000000000   0x0000000000000000   0x0000000000000000   0x0000000000000000   0x0000000000000000
0x0201        0x0000000000000000   0x0000000000000000   0x0000000000000000   0x0000000000000000   0x0000000000000000   0x0000000000000000
0x0202        0x0000000000000000   0x0000000000000000   0x0000000000000000   0x0000000000000000   0x0000000000000000   0x0000000000000000
0x0203        0x0000000000000000   0x0000000000000000   0x0000000000000000   0x0000000000000000   0x0000000000000000   0x0000000000000000
0x0204        0x0000000000000000   0x0000000000000000   0x0000000000000000   0x0000000000000000   0x0000000000000000   0x0000000000000000
0x0205        0x0000000000000000   0x0000000000000000   0x0000000000000000   0x0000000000000000   0x0000000000000000   0x0000000000000000
0x0206        0x0000000000000000   0x0000000000000000   0x0000000000000000   0x0000000000000000   0x0000000000000000   0x0000000000000000
0x0207        0x0000000000000000   0x0000000000000000   0x0000000000000000   0x0000000000000000   0x0000000000000000   0x0000000000000000
0x0208        0x0000000000000000   0x0000000000000000   0x0000000000000000   0x0000000000000000   0x0000000000000000   0x0000000000000000
0x0209        0x0000000000000000   0x0000000000000000   0x0000000000000000   0x0000000000000000   0x0000000000000000   0x0000000000000000
0x020a        0x0000000000000000   0x0000000000000000   0x0000000000000000   0x0000000000000000   0x0000000000000000   0x0000000000000000
0x020b        0x0000000000000000   0x0000000000000000   0x0000000000000000   0x0000000000000000   0x0000000000000000   0x0000000000000000
0x020c        0x0000000000000000   0x0000000000000000   0x0000000000000000   0x0000000000000000   0x0000000000000000   0x0000000000000000
0x020d        0x0000000000000000   0x0000000000000000   0x0000000000000000   0x0000000000000000   0x0000000000000000   0x0000000000000000
0x020e        0x0000000000000000   0x0000000000000000   0x0000000000000000   0x0000000000000000   0x0000000000000000   0x0000000000000000
0x020f        0x0000000000000000   0x0000000000000000   0x0000000000000000   0x0000000000000000   0x0000000000000000   0x0000000000000000
0x0210        0x0000000000000000   0x0000000000000000   0x0000000000000000   0x0000000000000000   0x0000000000000000   0x0000000000000000
0x0211        0x0000000000000000   0x0000000000000000   0x0000000000000000   0x0000000000000000   0x0000000000000000   0x0000000000000000
0x0212        0x0000000000000000   0x0000000000000000   0x0000000000000000   0x0000000000000000   0x0000000000000000   0x0000000000000000
0x0213        0x0403BC419FBE000C   0x0000000000000000   0x0000000000000000   0x0000000000000000   0x0000000000000000   0x0000000000000000
0x0214        0x0000000000000000   0x0000000000000000   0x0000000000000000   0x0000000000000000   0x0000000000000000   0x0000000000000000
0x0215        0x0000000000000000   0x0000000000000000   0x0000000000000000   0x0000000000000000   0x0000000000000000   0x0000000000000000
0x0216        0x0000000000000000   0x0000000000000000   0x0000000000000000   0x0000000000000000   0x0000000000000000   0x0000000000000000
0x0217        0x0000000000000000   0x0000000000000000   0x0000000000000000   0x0000000000000000   0x0000000000000000   0x0000000000000000
0x0218        0x0000000000000000   0x0000000000000000   0x0000000000000000   0x0000000000000000   0x0000000000000000   0x0000000000000000
0x0219        0x0000000000000000   0x0000000000000000   0x0000000000000000   0x0000000000000000   0x0000000000000000   0x0000000000000000
0x021a        0x0000000000000000   0x0000000000000000   0x0000000000000000   0x0000000000000000   0x0000000000000000   0x0000000000000000
0x021b        0x0000000000000000   0x0000000000000000   0x0000000000000000   0x0000000000000000   0x0000000000000000   0x0000000000000000
0x021c        0x0000000000000000   0x0000000000000000   0x0000000000000000   0x0000000000000000   0x0000000000000000   0x0000000000000000
0x021d        0x0000000000000000   0x0000000000000000   0x0000000000000000   0x0000000000000000   0x0000000000000000   0x0000000000000000
0x021e        0x0000000000000000   0x0000000000000000   0x0000000000000000   0x0000000000000000   0x0000000000000000   0x0000000000000000
0x021f        0x0000000000000000   0x0000000000000000   0x0000000000000000   0x0000000000000000   0x0000000000000000   0x0000000000000000
0x0220        0x0000000000000000   0x0000000000000000   0x0000000000000000   0x0000000000000000   0x0000000000000000   0x0000000000000000
0x0221        0x0000000000000000   0x0000000000000000   0x0000000000000000   0x0000000000000000   0x0000000000000000   0x0000000000000000
0x0222        0x0000000000000000   0x0000000000000000   0x0000000000000000   0x0000000000000000   0x0000000000000000   0x0000000000000000
0x0223        0x0000000000000000   0x0000000000000000   0x0000000000000000   0x0000000000000000   0x0000000000000000   0x0000000000000000
0x0224        0x0000000000000000   0x0000000000000000   0x0000000000000000   0x0000000000000000   0x0000000000000000   0x0000000000000000
0x0225        0x0000000000000000   0x0000000000000000   0x0000000000000000   0x0000000000000000   0x0000000000000000   0x0000000000000000
0x0226        0x0000000000000000   0x0000000000000000   0x0000000000000000   0x0000000000000000   0x0000000000000000   0x0000000000000000
0x0227        0x0000000000000000   0x0000000000000000   0x0000000000000000   0x0000000000000000   0x0000000000000000   0x0000000000000000
0x0228        0x0000000000000000   0x0000000000000000   0x0000000000000000   0x0000000000000000   0x0000000000000000   0x0000000000000000
0x0229        0x0000000000000000   0x0000000000000000   0x0000000000000000   0x0000000000000000   0x0000000000000000   0x0000000000000000
0x022a        0x0000000000000000   0x0000000000000000   0x0000000000000000   0x0000000000000000   0x0000000000000000   0x0000000000000000
0x022b        0x0000000000000000   0x0000000000000000   0x0000000000000000   0x0000000000000000   0x0000000000000000   0x0000000000000000
0x022c        0x0000000000000000   0x0000000000000000   0x0000000000000000   0x0000000000000000   0x0000000000000000   0x0000000000000000
0x022d        0x0000000000000000   0x0000000000000000   0x0000000000000000   0x0000000000000000   0x0000000000000000   0x0000000000000000
0x022e        0x0000000000000000   0x0000000000000000   0x0000000000000000   0x0000000000000000   0x0000000000000000   0x0000000000000000
0x022f        0x0000000000000000   0x0000000000000000   0x0000000000000000   0x0000000000000000   0x0000000000000000   0x0000000000000000
0x0230        0x0000000000000000   0x0000000000000000   0x0000000000000000   0x0000000000000000   0x0000000000000000   0x0000000000000000
0x0231        0x0000000000000000   0x0000000000000000   0x0000000000000000   0x0000000000000000   0x0000000000000000   0x0000000000000000
0x0232        0x0000000000000000   0x0000000000000000   0x0000000000000000   0x0000000000000000   0x0000000000000000   0x0000000000000000
0x0233        0x0000000000000000   0x0000000000000000   0x0000000000000000   0x0000000000000000   0x0000000000000000   0x0000000000000000
0x0234        0x0000000000000000   0x0000000000000000   0x0000000000000000   0x0000000000000000   0x0000000000000000   0x0000000000000000
0x0235        0x0000000000000000   0x0000000000000000   0x0000000000000000   0x0000000000000000   0x0000000000000000   0x0000000000000000
0x0236        0x0000000000000000   0x0000000000000000   0x0000000000000000   0x0000000000000000   0x0000000000000000   0x0000000000000000
0x0237        0x0000000000000000   0x0000000000000000   0x0000000000000000   0x0000000000000000   0x0000000000000000   0x0000000000000000
0x0238        0x0000000000000000   0x0000000000000000   0x0000000000000000   0x0000000000000000   0x0000000000000000   0x0000000000000000
0x0239        0x0000000000000000   0x0000000000000000   0x0000000000000000   0x0000000000000000   0x0000000000000000   0x0000000000000000
0x023a        0x0000000000000000   0x0000000000000000   0x0000000000000000   0x0000000000000000   0x0000000000000000   0x0000000000000000
0x023b        0x0000000000000000   0x0000000000000000   0x0000000000000000   0x0000000000000000   0x0000000000000000   0x0000000000000000
0x023c        0x0000000000000000   0x0000000000000000   0x0000000000000000   0x0000000000000000   0x0000000000000000   0x0000000000000000
0x023d        0x0000000000000000   0x0000000000000000   0x0000000000000000   0x0000000000000000   0x0000000000000000   0x0000000000000000
0x023e        0x0000000000000000   0x0000000000000000   0x0000000000000000   0x0000000000000000   0x0000000000000000   0x0000000000000000
0x023f        0x0000000000000000   0x0000000000000000   0x0000000000000000   0x0000000000000000   0x0000000000000000   0x0000000000000000
0x0240        0x0C0038430832400F   0x0000000000000000   0x0000000000000000   0x0000000000000000   0x0000000000000000   0x0000000000000000
0x0241        0x0000000000000000   0x0000000000000000   0x0000000000000000   0x0000000000000000   0x0000000000000000   0x0000000000000000
0x0242        0x0000000000000000   0x0000000000000000   0x0000000000000000   0x0000000000000000   0x0000000000000000   0x0000000000000000
0x0243        0x04003D63C03A4009   0x0000000000000000   0x0000000000000000   0x0000000000000000   0x0000000000000000   0x0000000000000000
0x0244        0x0000000000000000   0x0000000000000000   0x0000000000000000   0x0000000000000000   0x0000000000000000   0x0000000000000000
0x0245        0x0000000000000000   0x0000000000000000   0x0000000000000000   0x0000000000000000   0x0000000000000000   0x0000000000000000
0x0246        0x0000000000000000   0x0000000000000000   0x0000000000000000   0x0000000000000000   0x0000000000000000   0x0000000000000000
0x0247        0x0000000000000000   0x0000000000000000   0x0000000000000000   0x0000000000000000   0x0000000000000000   0x0000000000000000
0x0248        0x0000000000000000   0x0000000000000000   0x0000000000000000   0x0000000000000000   0x0000000000000000   0x0000000000000000
0x0249        0x04003B6413BBC00C   0x0000000000000000   0x0000000000000000   0x0000000000000000   0x0000000000000000   0x0000000000000000
0x024a        0x0000000000000000   0x0000000000000000   0x0000000000000000   0x0000000000000000   0x0000000000000000   0x0000000000000000
0x024b        0x0000000000000000   0x0000000000000000   0x0000000000000000   0x0000000000000000   0x0000000000000000   0x0000000000000000
0x024c        0x0C00374308524008   0x0000000000000000   0x0000000000000000   0x0000000000000000   0x0000000000000000   0x0000000000000000
0x024d        0x0000000000000000   0x0000000000000000   0x0000000000000000   0x0000000000000000   0x0000000000000000   0x0000000000000000
0x024e        0x0000000000000000   0x0000000000000000   0x0000000000000000   0x0000000000000000   0x0000000000000000   0x0000000000000000
0x024f        0x0000000000000000   0x0000000000000000   0x0000000000000000   0x0000000000000000   0x0000000000000000   0x0000000000000000
0x0250        0x0000000000000000   0x0000000000000000   0x0000000000000000   0x0000000000000000   0x0000000000000000   0x0000000000000000
0x0251        0x0000000000000000   0x0000000000000000   0x0000000000000000   0x0000000000000000   0x0000000000000000   0x0000000000000000
0x0252        0x0000000000000000   0x0000000000000000   0x0000000000000000   0x0000000000000000   0x0000000000000000   0x0000000000000000
0x0253        0x0000000000000000   0x0000000000000000   0x0000000000000000   0x0000000000000000   0x0000000000000000   0x0000000000000000
0x0254        0x0000000000000000   0x0000000000000000   0x0000000000000000   0x0000000000000000   0x0000000000000000   0x0000000000000000
0x0255        0x0000000000000000   0x0000000000000000   0x0000000000000000   0x0000000000000000   0x0000000000000000   0x0000000000000000
0x0256        0x0000000000000000   0x0000000000000000   0x0000000000000000   0x0000000000000000   0x0000000000000000   0x0000000000000000
0x0257        0x0000000000000000   0x0000000000000000   0x0000000000000000   0x0000000000000000   0x0000000000000000   0x0000000000000000
0x0258        0x0000000000000000   0x0000000000000000   0x0000000000000000   0x0000000000000000   0x0000000000000000   0x0000000000000000
0x0259        0x0000000000000000   0x0000000000000000   0x0000000000000000   0x0000000000000000   0x0000000000000000   0x0000000000000000
0x025a        0x0000000000000000   0x0000000000000000   0x0000000000000000   0x0000000000000000   0x0000000000000000   0x0000000000000000
0x025b        0x0000000000000000   0x0000000000000000   0x0000000000000000   0x0000000000000000   0x0000000000000000   0x0000000000000000
0x025c        0x0000000000000000   0x0000000000000000   0x0000000000000000   0x0000000000000000   0x0000000000000000   0x0000000000000000
0x025d        0x0000000000000000   0x0000000000000000   0x0000000000000000   0x0000000000000000   0x0000000000000000   0x0000000000000000
0x025e        0x0000000000000000   0x0000000000000000   0x0000000000000000   0x0000000000000000   0x0000000000000000   0x0000000000000000
0x025f        0x0000000000000000   0x0000000000000000   0x0000000000000000   0x0000000000000000   0x0000000000000000   0x0000000000000000
0x0260        0x0000000000000000   0x0000000000000000   0x0000000000000000   0x0000000000000000   0x0000000000000000   0x0000000000000000
0x0261        0x0C000E442BED800E   0x0000000000000000   0x0000000000000000   0x0000000000000000   0x0000000000000000   0x0000000000000000
0x0262        0x0C000642B3F40009   0x0000000000000000   0x0000000000000000   0x0000000000000000   0x0000000000000000   0x0000000000000000
0x0263        0x0C0010654FF24008   0x0000000000000000   0x0000000000000000   0x0000000000000000   0x0000000000000000   0x0000000000000000
0x0264        0x0C00116423EB000F   0x0000000000000000   0x0000000000000000   0x0000000000000000   0x0000000000000000   0x0000000000000000
0x0265        0x0000000000000000   0x0000000000000000   0x0000000000000000   0x0000000000000000   0x0000000000000000   0x0000000000000000
0x0266        0x0000000000000000   0x0000000000000000   0x0000000000000000   0x0000000000000000   0x0000000000000000   0x0000000000000000
0x0267        0x0000000000000000   0x0000000000000000   0x0000000000000000   0x0000000000000000   0x0000000000000000   0x0000000000000000
0x0268        0x0000000000000000   0x0000000000000000   0x0000000000000000   0x0000000000000000   0x0000000000000000   0x0000000000000000
0x0269        0x0000000000000000   0x0000000000000000   0x0000000000000000   0x0000000000000000   0x0000000000000000   0x0000000000000000
0x026a        0x0000000000000000   0x0000000000000000   0x0000000000000000   0x0000000000000000   0x0000000000000000   0x0000000000000000
0x026b        0x0000000000000000   0x0000000000000000   0x0000000000000000   0x0000000000000000   0x0000000000000000   0x0000000000000000
0x026c        0x0000000000000000   0x0000000000000000   0x0000000000000000   0x0000000000000000   0x0000000000000000   0x0000000000000000
0x026d        0x0000000000000000   0x0000000000000000   0x0000000000000000   0x0000000000000000   0x0000000000000000   0x0000000000000000
0x026e        0x0000000000000000   0x0000000000000000   0x0000000000000000   0x0000000000000000   0x0000000000000000   0x0000000000000000
0x026f        0x0000000000000000   0x0000000000000000   0x0000000000000000   0x0000000000000000   0x0000000000000000   0x0000000000000000
0x0270        0x1C0010646005401A   0x0C000D668012000B   0x0000000000000000   0x0000000000000000   0x0000000000000000   0x0000000000000000
0x0271        0x1C000D44C40E4016   0x0000000000000000   0x0000000000000000   0x0000000000000000   0x0000000000000000   0x0000000000000000
0x0272        0x0C000F66FC15000C   0x0000000000000000   0x0000000000000000   0x0000000000000000   0x0000000000000000   0x0000000000000000
0x0273        0x00002C056C1CC009   0x0000000000000000   0x0000000000000000   0x0000000000000000   0x0000000000000000   0x0000000000000000
0x0274        0x040011654C32C009   0x0000000000000000   0x0000000000000000   0x0000000000000000   0x0000000000000000   0x0000000000000000
0x0275        0x00005A25E8228004   0x0000000000000000   0x0000000000000000   0x0000000000000000   0x0000000000000000   0x0000000000000000
0x0276        0x00050022982F8065   0x0000000000000000   0x0000000000000000   0x0000000000000000   0x0000000000000000   0x0000000000000000
0x0277        0x0000FF22A82C802F   0x0000000000000000   0x0000000000000000   0x0000000000000000   0x0000000000000000   0x0000000000000000
0x0278        0x0000F323282E801C   0x0000000000000000   0x0000000000000000   0x0000000000000000   0x0000000000000000   0x0000000000000000
0x0279        0x0000000000000000   0x0000000000000000   0x0000000000000000   0x0000000000000000   0x0000000000000000   0x0000000000000000
0x027a        0x0000000000000000   0x0000000000000000   0x0000000000000000   0x0000000000000000   0x0000000000000000   0x0000000000000000
0x027b        0x0000000000000000   0x0000000000000000   0x0000000000000000   0x0000000000000000   0x0000000000000000   0x0000000000000000
0x027c        0x0000000000000000   0x0000000000000000   0x0000000000000000   0x0000000000000000   0x0000000000000000   0x0000000000000000
0x027d        0x0000000000000000   0x0000000000000000   0x0000000000000000   0x0000000000000000   0x0000000000000000   0x0000000000000000
0x027e        0x0000000000000000   0x0000000000000000   0x0000000000000000   0x0000000000000000   0x0000000000000000   0x0000000000000000
0x027f        0x0000000000000000   0x0000000000000000   0x0000000000000000   0x0000000000000000   0x0000000000000000   0x0000000000000000
0x0280        0x0000000000000000   0x0000000000000000   0x0000000000000000   0x0000000000000000   0x0000000000000000   0x0000000000000000
0x0281        0x0000000000000000   0x0000000000000000   0x0000000000000000   0x0000000000000000   0x0000000000000000   0x0000000000000000
0x0282        0x0C000E659846800D   0x0000000000000000   0x0000000000000000   0x0000000000000000   0x0000000000000000   0x0000000000000000
0x0283        0x0000000000000000   0x0000000000000000   0x0000000000000000   0x0000000000000000   0x0000000000000000   0x0000000000000000
0x0284        0x0000000000000000   0x0000000000000000   0x0000000000000000   0x0000000000000000   0x0000000000000000   0x0000000000000000
0x0285        0x0C000E5DBBD8C00A   0x0000000000000000   0x0000000000000000   0x0000000000000000   0x0000000000000000   0x0000000000000000
0x0286        0x0000000000000000   0x0000000000000000   0x0000000000000000   0x0000000000000000   0x0000000000000000   0x0000000000000000
0x0287        0x0000000000000000   0x0000000000000000   0x0000000000000000   0x0000000000000000   0x0000000000000000   0x0000000000000000
0x0288        0x0000000000000000   0x0000000000000000   0x0000000000000000   0x0000000000000000   0x0000000000000000   0x0000000000000000
0x0289        0x0000000000000000   0x0000000000000000   0x0000000000000000   0x0000000000000000   0x0000000000000000   0x0000000000000000
0x028a        0x0000000000000000   0x0000000000000000   0x0000000000000000   0x0000000000000000   0x0000000000000000   0x0000000000000000
0x028b        0x0000000000000000   0x0000000000000000   0x0000000000000000   0x0000000000000000   0x0000000000000000   0x0000000000000000
0x028c        0x0000000000000000   0x0000000000000000   0x0000000000000000   0x0000000000000000   0x0000000000000000   0x0000000000000000
0x028d        0x0000000000000000   0x0000000000000000   0x0000000000000000   0x0000000000000000   0x0000000000000000   0x0000000000000000
0x028e        0x0000000000000000   0x0000000000000000   0x0000000000000000   0x0000000000000000   0x0000000000000000   0x0000000000000000
0x028f        0x0000000000000000   0x0000000000000000   0x0000000000000000   0x0000000000000000   0x0000000000000000   0x0000000000000000
0x0290        0x0000000000000000   0x0000000000000000   0x0000000000000000   0x0000000000000000   0x0000000000000000   0x0000000000000000
0x0291        0x0000000000000000   0x0000000000000000   0x0000000000000000   0x0000000000000000   0x0000000000000000   0x0000000000000000
0x0292        0x0000000000000000   0x0000000000000000   0x0000000000000000   0x0000000000000000   0x0000000000000000   0x0000000000000000
0x0293        0x0000000000000000   0x0000000000000000   0x0000000000000000   0x0000000000000000   0x0000000000000000   0x0000000000000000
0x0294        0x0000000000000000   0x0000000000000000   0x0000000000000000   0x0000000000000000   0x0000000000000000   0x0000000000000000
0x0295        0x0000000000000000   0x0000000000000000   0x0000000000000000   0x0000000000000000   0x0000000000000000   0x0000000000000000
0x0296        0x0000000000000000   0x0000000000000000   0x0000000000000000   0x0000000000000000   0x0000000000000000   0x0000000000000000
0x0297        0x0000000000000000   0x0000000000000000   0x0000000000000000   0x0000000000000000   0x0000000000000000   0x0000000000000000
0x0298        0x0000000000000000   0x0000000000000000   0x0000000000000000   0x0000000000000000   0x0000000000000000   0x0000000000000000
0x0299        0x0000000000000000   0x0000000000000000   0x0000000000000000   0x0000000000000000   0x0000000000000000   0x0000000000000000
0x029a        0x0000000000000000   0x0000000000000000   0x0000000000000000   0x0000000000000000   0x0000000000000000   0x0000000000000000
0x029b        0x0000000000000000   0x0000000000000000   0x0000000000000000   0x0000000000000000   0x0000000000000000   0x0000000000000000
0x029c        0x0000000000000000   0x0000000000000000   0x0000000000000000   0x0000000000000000   0x0000000000000000   0x0000000000000000
0x029d        0x0000000000000000   0x0000000000000000   0x0000000000000000   0x0000000000000000   0x0000000000000000   0x0000000000000000
0x029e        0x0000000000000000   0x0000000000000000   0x0000000000000000   0x0000000000000000   0x0000000000000000   0x0000000000000000
0x029f        0x0000000000000000   0x0000000000000000   0x0000000000000000   0x0000000000000000   0x0000000000000000   0x0000000000000000
0x02a0        0x0000000000000000   0x0000000000000000   0x0000000000000000   0x0000000000000000   0x0000000000000000   0x0000000000000000
0x02a1        0x0000000000000000   0x0000000000000000   0x0000000000000000   0x0000000000000000   0x0000000000000000   0x0000000000000000
0x02a2        0x0000000000000000   0x0000000000000000   0x0000000000000000   0x0000000000000000   0x0000000000000000   0x0000000000000000
0x02a3        0x0000000000000000   0x0000000000000000   0x0000000000000000   0x0000000000000000   0x0000000000000000   0x0000000000000000
0x02a4        0x0000000000000000   0x0000000000000000   0x0000000000000000   0x0000000000000000   0x0000000000000000   0x0000000000000000
0x02a5        0x0000000000000000   0x0000000000000000   0x0000000000000000   0x0000000000000000   0x0000000000000000   0x0000000000000000
0x02a6        0x0000000000000000   0x0000000000000000   0x0000000000000000   0x0000000000000000   0x0000000000000000   0x0000000000000000
0x02a7        0x0000000000000000   0x0000000000000000   0x0000000000000000   0x0000000000000000   0x0000000000000000   0x0000000000000000
0x02a8        0x0000000000000000   0x0000000000000000   0x0000000000000000   0x0000000000000000   0x0000000000000000   0x0000000000000000
0x02a9        0x0000000000000000   0x0000000000000000   0x0000000000000000   0x0000000000000000   0x0000000000000000   0x0000000000000000
0x02aa        0x0000000000000000   0x0000000000000000   0x0000000000000000   0x0000000000000000   0x0000000000000000   0x0000000000000000
0x02ab        0x0000000000000000   0x0000000000000000   0x0000000000000000   0x0000000000000000   0x0000000000000000   0x0000000000000000
0x02ac        0x0000000000000000   0x0000000000000000   0x0000000000000000   0x0000000000000000   0x0000000000000000   0x0000000000000000
0x02ad        0x0000000000000000   0x0000000000000000   0x0000000000000000   0x0000000000000000   0x0000000000000000   0x0000000000000000
0x02ae        0x0000000000000000   0x0000000000000000   0x0000000000000000   0x0000000000000000   0x0000000000000000   0x0000000000000000
0x02af        0x0000000000000000   0x0000000000000000   0x0000000000000000   0x0000000000000000   0x0000000000000000   0x0000000000000000
0x02b0        0x0000000000000000   0x0000000000000000   0x0000000000000000   0x0000000000000000   0x0000000000000000   0x0000000000000000
0x02b1        0x0000000000000000   0x0000000000000000   0x0000000000000000   0x0000000000000000   0x0000000000000000   0x0000000000000000
0x02b2        0x0000000000000000   0x0000000000000000   0x0000000000000000   0x0000000000000000   0x0000000000000000   0x0000000000000000
0x02b3        0x0000000000000000   0x0000000000000000   0x0000000000000000   0x0000000000000000   0x0000000000000000   0x0000000000000000
0x02b4        0x0000000000000000   0x0000000000000000   0x0000000000000000   0x0000000000000000   0x0000000000000000   0x0000000000000000
0x02b5        0x0000000000000000   0x0000000000000000   0x0000000000000000   0x0000000000000000   0x0000000000000000   0x0000000000000000
0x02b6        0x0000000000000000   0x0000000000000000   0x0000000000000000   0x0000000000000000   0x0000000000000000   0x0000000000000000
0x02b7        0x0000000000000000   0x0000000000000000   0x0000000000000000   0x0000000000000000   0x0000000000000000   0x0000000000000000
0x02b8        0x0000000000000000   0x0000000000000000   0x0000000000000000   0x0000000000000000   0x0000000000000000   0x0000000000000000
0x02b9        0x0000000000000000   0x0000000000000000   0x0000000000000000   0x0000000000000000   0x0000000000000000   0x0000000000000000
0x02ba        0x0000000000000000   0x0000000000000000   0x0000000000000000   0x0000000000000000   0x0000000000000000   0x0000000000000000
0x02bb        0x0000000000000000   0x0000000000000000   0x0000000000000000   0x0000000000000000   0x0000000000000000   0x0000000000000000
0x02bc        0x0000000000000000   0x0000000000000000   0x0000000000000000   0x0000000000000000   0x0000000000000000   0x0000000000000000
0x02bd        0x0000000000000000   0x0000000000000000   0x0000000000000000   0x0000000000000000   0x0000000000000000   0x0000000000000000
0x02be        0x0000000000000000   0x0000000000000000   0x0000000000000000   0x0000000000000000   0x0000000000000000   0x0000000000000000
0x02bf        0x0000000000000000   0x0000000000000000   0x0000000000000000   0x0000000000000000   0x0000000000000000   0x0000000000000000
0x02c0        0x0000000000000000   0x0000000000000000   0x0000000000000000   0x0000000000000000   0x0000000000000000   0x0000000000000000
0x02c1        0x0000000000000000   0x0000000000000000   0x0000000000000000   0x0000000000000000   0x0000000000000000   0x0000000000000000
0x02c2        0x0000000000000000   0x0000000000000000   0x0000000000000000   0x0000000000000000   0x0000000000000000   0x0000000000000000
0x02c3        0x0000000000000000   0x0000000000000000   0x0000000000000000   0x0000000000000000   0x0000000000000000   0x0000000000000000
0x02c4        0x0000000000000000   0x0000000000000000   0x0000000000000000   0x0000000000000000   0x0000000000000000   0x0000000000000000
0x02c5        0x0000000000000000   0x0000000000000000   0x0000000000000000   0x0000000000000000   0x0000000000000000   0x0000000000000000
0x02c6        0x0000000000000000   0x0000000000000000   0x0000000000000000   0x0000000000000000   0x0000000000000000   0x0000000000000000
0x02c7        0x0000000000000000   0x0000000000000000   0x0000000000000000   0x0000000000000000   0x0000000000000000   0x0000000000000000
0x02c8        0x0000000000000000   0x0000000000000000   0x0000000000000000   0x0000000000000000   0x0000000000000000   0x0000000000000000
0x02c9        0x0000000000000000   0x0000000000000000   0x0000000000000000   0x0000000000000000   0x0000000000000000   0x0000000000000000
0x02ca        0x0000000000000000   0x0000000000000000   0x0000000000000000   0x0000000000000000   0x0000000000000000   0x0000000000000000
0x02cb        0x0000000000000000   0x0000000000000000   0x0000000000000000   0x0000000000000000   0x0000000000000000   0x0000000000000000
0x02cc        0x0000000000000000   0x0000000000000000   0x0000000000000000   0x0000000000000000   0x0000000000000000   0x0000000000000000
0x02cd        0x0000000000000000   0x0000000000000000   0x0000000000000000   0x0000000000000000   0x0000000000000000   0x0000000000000000
0x02ce        0x0000000000000000   0x0000000000000000   0x0000000000000000   0x0000000000000000   0x0000000000000000   0x0000000000000000
0x02cf        0x0000000000000000   0x0000000000000000   0x0000000000000000   0x0000000000000000   0x0000000000000000   0x0000000000000000
0x02d0        0x0000000000000000   0x0000000000000000   0x0000000000000000   0x0000000000000000   0x0000000000000000   0x0000000000000000
0x02d1        0x0000000000000000   0x0000000000000000   0x0000000000000000   0x0000000000000000   0x0000000000000000   0x0000000000000000
0x02d2        0x0000000000000000   0x0000000000000000   0x0000000000000000   0x0000000000000000   0x0000000000000000   0x0000000000000000
