#WordCnt                      T0                   T1                   T2                   T3                   T4                   T5
#BeginData
0x0000        0x0000000000000000   0x0000000000000000   0x0000000000000000   0x0000000000000000   0x0000000000000000   0x0000000000000000
0x0001        0x0000000000000000   0x0000000000000000   0x0000000000000000   0x0000000000000000   0x0000000000000000   0x0000000000000000
0x0002        0x0000000000000000   0x0000000000000000   0x0000000000000000   0x0000000000000000   0x0000000000000000   0x0000000000000000
0x0003        0x1C037DE2D7D300C9   0x1C037D62E7D3001C   0x0C03848257D30009   0x0000000000000000   0x0000000000000000   0x0000000000000000
0x0004        0x14037F42EFD1C052   0x04037E63DFDDC011   0x00003401E3C80005   0x0000000000000000   0x0000000000000000   0x0000000000000000
0x0005        0x00050022CBD0803B   0x0C038940F3E2C010   0x0000000000000000   0x0000000000000000   0x0000000000000000   0x0000000000000000
0x0006        0x0000000000000000   0x0000000000000000   0x0000000000000000   0x0000000000000000   0x0000000000000000   0x0000000000000000
0x0007        0x0000000000000000   0x0000000000000000   0x0000000000000000   0x0000000000000000   0x0000000000000000   0x0000000000000000
0x0008        0x0000000000000000   0x0000000000000000   0x0000000000000000   0x0000000000000000   0x0000000000000000   0x0000000000000000
0x0009        0x0000000000000000   0x0000000000000000   0x0000000000000000   0x0000000000000000   0x0000000000000000   0x0000000000000000
0x000a        0x0000000000000000   0x0000000000000000   0x0000000000000000   0x0000000000000000   0x0000000000000000   0x0000000000000000
0x000b        0x0000000000000000   0x0000000000000000   0x0000000000000000   0x0000000000000000   0x0000000000000000   0x0000000000000000
0x000c        0x1C038163F3E38073   0x0000FA23EBDD8013   0x0000000000000000   0x0000000000000000   0x0000000000000000   0x0000000000000000
0x000d        0x000500241BE08058   0x0000F9240BE28011   0x0000000000000000   0x0000000000000000   0x0000000000000000   0x0000000000000000
0x000e        0x1C037D43FFDF402D   0x0000000000000000   0x0000000000000000   0x0000000000000000   0x0000000000000000   0x0000000000000000
0x000f        0x04038043BBE74010   0x0000000000000000   0x0000000000000000   0x0000000000000000   0x0000000000000000   0x0000000000000000
0x0010        0x0000000000000000   0x0000000000000000   0x0000000000000000   0x0000000000000000   0x0000000000000000   0x0000000000000000
0x0011        0x0000000000000000   0x0000000000000000   0x0000000000000000   0x0000000000000000   0x0000000000000000   0x0000000000000000
0x0012        0x0000000000000000   0x0000000000000000   0x0000000000000000   0x0000000000000000   0x0000000000000000   0x0000000000000000
0x0013        0x0000000000000000   0x0000000000000000   0x0000000000000000   0x0000000000000000   0x0000000000000000   0x0000000000000000
0x0014        0x0000000000000000   0x0000000000000000   0x0000000000000000   0x0000000000000000   0x0000000000000000   0x0000000000000000
0x0015        0x04037E40580B4009   0x0000000000000000   0x0000000000000000   0x0000000000000000   0x0000000000000000   0x0000000000000000
0x0016        0x0C038064EC054008   0x0000000000000000   0x0000000000000000   0x0000000000000000   0x0000000000000000   0x0000000000000000
0x0017        0x0000000000000000   0x0000000000000000   0x0000000000000000   0x0000000000000000   0x0000000000000000   0x0000000000000000
0x0018        0x0C037E60840B800F   0x0000000000000000   0x0000000000000000   0x0000000000000000   0x0000000000000000   0x0000000000000000
0x0019        0x0000000000000000   0x0000000000000000   0x0000000000000000   0x0000000000000000   0x0000000000000000   0x0000000000000000
0x001a        0x0000000000000000   0x0000000000000000   0x0000000000000000   0x0000000000000000   0x0000000000000000   0x0000000000000000
0x001b        0x0000000000000000   0x0000000000000000   0x0000000000000000   0x0000000000000000   0x0000000000000000   0x0000000000000000
0x001c        0x0000000000000000   0x0000000000000000   0x0000000000000000   0x0000000000000000   0x0000000000000000   0x0000000000000000
0x001d        0x0000000000000000   0x0000000000000000   0x0000000000000000   0x0000000000000000   0x0000000000000000   0x0000000000000000
0x001e        0x0000000000000000   0x0000000000000000   0x0000000000000000   0x0000000000000000   0x0000000000000000   0x0000000000000000
0x001f        0x0000000000000000   0x0000000000000000   0x0000000000000000   0x0000000000000000   0x0000000000000000   0x0000000000000000
0x0020        0x0000000000000000   0x0000000000000000   0x0000000000000000   0x0000000000000000   0x0000000000000000   0x0000000000000000
0x0021        0x1C038365AC2C404B   0x04037A659029C012   0x0000000000000000   0x0000000000000000   0x0000000000000000   0x0000000000000000
0x0022        0x1C038045CC2B801E   0x0C037F44FC23400D   0x0000000000000000   0x0000000000000000   0x0000000000000000   0x0000000000000000
0x0023        0x04037C6590298012   0x0000000000000000   0x0000000000000000   0x0000000000000000   0x0000000000000000   0x0000000000000000
0x0024        0x0C037E62E82E400D   0x0000000000000000   0x0000000000000000   0x0000000000000000   0x0000000000000000   0x0000000000000000
0x0025        0x0000000000000000   0x0000000000000000   0x0000000000000000   0x0000000000000000   0x0000000000000000   0x0000000000000000
0x0026        0x0000000000000000   0x0000000000000000   0x0000000000000000   0x0000000000000000   0x0000000000000000   0x0000000000000000
0x0027        0x0000000000000000   0x0000000000000000   0x0000000000000000   0x0000000000000000   0x0000000000000000   0x0000000000000000
0x0028        0x0000000000000000   0x0000000000000000   0x0000000000000000   0x0000000000000000   0x0000000000000000   0x0000000000000000
0x0029        0x0000000000000000   0x0000000000000000   0x0000000000000000   0x0000000000000000   0x0000000000000000   0x0000000000000000
0x002a        0x0000000000000000   0x0000000000000000   0x0000000000000000   0x0000000000000000   0x0000000000000000   0x0000000000000000
0x002b        0x0000000000000000   0x0000000000000000   0x0000000000000000   0x0000000000000000   0x0000000000000000   0x0000000000000000
0x002c        0x0000000000000000   0x0000000000000000   0x0000000000000000   0x0000000000000000   0x0000000000000000   0x0000000000000000
0x002d        0x0000E6222BC58006   0x0000000000000000   0x0000000000000000   0x0000000000000000   0x0000000000000000   0x0000000000000000
0x002e        0x0000000000000000   0x0000000000000000   0x0000000000000000   0x0000000000000000   0x0000000000000000   0x0000000000000000
0x002f        0x0000000000000000   0x0000000000000000   0x0000000000000000   0x0000000000000000   0x0000000000000000   0x0000000000000000
0x0030        0x0000000000000000   0x0000000000000000   0x0000000000000000   0x0000000000000000   0x0000000000000000   0x0000000000000000
0x0031        0x0000000000000000   0x0000000000000000   0x0000000000000000   0x0000000000000000   0x0000000000000000   0x0000000000000000
0x0032        0x0000000000000000   0x0000000000000000   0x0000000000000000   0x0000000000000000   0x0000000000000000   0x0000000000000000
0x0033        0x0000000000000000   0x0000000000000000   0x0000000000000000   0x0000000000000000   0x0000000000000000   0x0000000000000000
0x0034        0x0000000000000000   0x0000000000000000   0x0000000000000000   0x0000000000000000   0x0000000000000000   0x0000000000000000
0x0035        0x0000000000000000   0x0000000000000000   0x0000000000000000   0x0000000000000000   0x0000000000000000   0x0000000000000000
0x0036        0x1403A66043BF0029   0x0000000000000000   0x0000000000000000   0x0000000000000000   0x0000000000000000   0x0000000000000000
0x0037        0x00009B3F6BC48007   0x0000000000000000   0x0000000000000000   0x0000000000000000   0x0000000000000000   0x0000000000000000
0x0038        0x00008F20BBBC8005   0x0000000000000000   0x0000000000000000   0x0000000000000000   0x0000000000000000   0x0000000000000000
0x0039        0x0C039F424BE20009   0x0000000000000000   0x0000000000000000   0x0000000000000000   0x0000000000000000   0x0000000000000000
0x003a        0x0000000000000000   0x0000000000000000   0x0000000000000000   0x0000000000000000   0x0000000000000000   0x0000000000000000
0x003b        0x0000000000000000   0x0000000000000000   0x0000000000000000   0x0000000000000000   0x0000000000000000   0x0000000000000000
0x003c        0x14039C667BC0401A   0x0000000000000000   0x0000000000000000   0x0000000000000000   0x0000000000000000   0x0000000000000000
0x003d        0x0000000000000000   0x0000000000000000   0x0000000000000000   0x0000000000000000   0x0000000000000000   0x0000000000000000
0x003e        0x0000000000000000   0x0000000000000000   0x0000000000000000   0x0000000000000000   0x0000000000000000   0x0000000000000000
0x003f        0x1C03A3613C01C01F   0x0000000000000000   0x0000000000000000   0x0000000000000000   0x0000000000000000   0x0000000000000000
0x0040        0x0403A55E5FF2C00A   0x0000000000000000   0x0000000000000000   0x0000000000000000   0x0000000000000000   0x0000000000000000
0x0041        0x0000000000000000   0x0000000000000000   0x0000000000000000   0x0000000000000000   0x0000000000000000   0x0000000000000000
0x0042        0x0C03A2664FDD0009   0x0000000000000000   0x0000000000000000   0x0000000000000000   0x0000000000000000   0x0000000000000000
0x0043        0x0000000000000000   0x0000000000000000   0x0000000000000000   0x0000000000000000   0x0000000000000000   0x0000000000000000
0x0044        0x0000000000000000   0x0000000000000000   0x0000000000000000   0x0000000000000000   0x0000000000000000   0x0000000000000000
0x0045        0x0000000000000000   0x0000000000000000   0x0000000000000000   0x0000000000000000   0x0000000000000000   0x0000000000000000
0x0046        0x0000000000000000   0x0000000000000000   0x0000000000000000   0x0000000000000000   0x0000000000000000   0x0000000000000000
0x0047        0x0000000000000000   0x0000000000000000   0x0000000000000000   0x0000000000000000   0x0000000000000000   0x0000000000000000
0x0048        0x0000A001BBFE402C   0x0000000000000000   0x0000000000000000   0x0000000000000000   0x0000000000000000   0x0000000000000000
0x0049        0x0000A921BBFC8009   0x0000000000000000   0x0000000000000000   0x0000000000000000   0x0000000000000000   0x0000000000000000
0x004a        0x0000000000000000   0x0000000000000000   0x0000000000000000   0x0000000000000000   0x0000000000000000   0x0000000000000000
0x004b        0x1C03A541D404001D   0x0000000000000000   0x0000000000000000   0x0000000000000000   0x0000000000000000   0x0000000000000000
0x004c        0x0000A52168028007   0x0000000000000000   0x0000000000000000   0x0000000000000000   0x0000000000000000   0x0000000000000000
0x004d        0x0000000000000000   0x0000000000000000   0x0000000000000000   0x0000000000000000   0x0000000000000000   0x0000000000000000
0x004e        0x00006400D8018011   0x0000000000000000   0x0000000000000000   0x0000000000000000   0x0000000000000000   0x0000000000000000
0x004f        0x0000000000000000   0x0000000000000000   0x0000000000000000   0x0000000000000000   0x0000000000000000   0x0000000000000000
0x0050        0x0000000000000000   0x0000000000000000   0x0000000000000000   0x0000000000000000   0x0000000000000000   0x0000000000000000
0x0051        0x0000000000000000   0x0000000000000000   0x0000000000000000   0x0000000000000000   0x0000000000000000   0x0000000000000000
0x0052        0x0000000000000000   0x0000000000000000   0x0000000000000000   0x0000000000000000   0x0000000000000000   0x0000000000000000
0x0053        0x0000000000000000   0x0000000000000000   0x0000000000000000   0x0000000000000000   0x0000000000000000   0x0000000000000000
0x0054        0x0C03A743AC1A4009   0x0000000000000000   0x0000000000000000   0x0000000000000000   0x0000000000000000   0x0000000000000000
0x0055        0x0000000000000000   0x0000000000000000   0x0000000000000000   0x0000000000000000   0x0000000000000000   0x0000000000000000
0x0056        0x0000000000000000   0x0000000000000000   0x0000000000000000   0x0000000000000000   0x0000000000000000   0x0000000000000000
0x0057        0x0000000000000000   0x0000000000000000   0x0000000000000000   0x0000000000000000   0x0000000000000000   0x0000000000000000
0x0058        0x0000000000000000   0x0000000000000000   0x0000000000000000   0x0000000000000000   0x0000000000000000   0x0000000000000000
0x0059        0x0000000000000000   0x0000000000000000   0x0000000000000000   0x0000000000000000   0x0000000000000000   0x0000000000000000
0x005a        0x0000000000000000   0x0000000000000000   0x0000000000000000   0x0000000000000000   0x0000000000000000   0x0000000000000000
0x005b        0x0000000000000000   0x0000000000000000   0x0000000000000000   0x0000000000000000   0x0000000000000000   0x0000000000000000
0x005c        0x0000000000000000   0x0000000000000000   0x0000000000000000   0x0000000000000000   0x0000000000000000   0x0000000000000000
0x005d        0x0000000000000000   0x0000000000000000   0x0000000000000000   0x0000000000000000   0x0000000000000000   0x0000000000000000
0x005e        0x0000000000000000   0x0000000000000000   0x0000000000000000   0x0000000000000000   0x0000000000000000   0x0000000000000000
0x005f        0x0000000000000000   0x0000000000000000   0x0000000000000000   0x0000000000000000   0x0000000000000000   0x0000000000000000
0x0060        0x0000000000000000   0x0000000000000000   0x0000000000000000   0x0000000000000000   0x0000000000000000   0x0000000000000000
0x0061        0x0000000000000000   0x0000000000000000   0x0000000000000000   0x0000000000000000   0x0000000000000000   0x0000000000000000
0x0062        0x0000000000000000   0x0000000000000000   0x0000000000000000   0x0000000000000000   0x0000000000000000   0x0000000000000000
0x0063        0x0000000000000000   0x0000000000000000   0x0000000000000000   0x0000000000000000   0x0000000000000000   0x0000000000000000
0x0064        0x0000000000000000   0x0000000000000000   0x0000000000000000   0x0000000000000000   0x0000000000000000   0x0000000000000000
0x0065        0x0000000000000000   0x0000000000000000   0x0000000000000000   0x0000000000000000   0x0000000000000000   0x0000000000000000
0x0066        0x0000000000000000   0x0000000000000000   0x0000000000000000   0x0000000000000000   0x0000000000000000   0x0000000000000000
0x0067        0x0000000000000000   0x0000000000000000   0x0000000000000000   0x0000000000000000   0x0000000000000000   0x0000000000000000
0x0068        0x0000000000000000   0x0000000000000000   0x0000000000000000   0x0000000000000000   0x0000000000000000   0x0000000000000000
0x0069        0x0006FB3FEBCB803C   0x0000000000000000   0x0000000000000000   0x0000000000000000   0x0000000000000000   0x0000000000000000
0x006a        0x00022A1FD3CAC007   0x0000000000000000   0x0000000000000000   0x0000000000000000   0x0000000000000000   0x0000000000000000
0x006b        0x0000000000000000   0x0000000000000000   0x0000000000000000   0x0000000000000000   0x0000000000000000   0x0000000000000000
0x006c        0x0000000000000000   0x0000000000000000   0x0000000000000000   0x0000000000000000   0x0000000000000000   0x0000000000000000
0x006d        0x0000000000000000   0x0000000000000000   0x0000000000000000   0x0000000000000000   0x0000000000000000   0x0000000000000000
0x006e        0x0000000000000000   0x0000000000000000   0x0000000000000000   0x0000000000000000   0x0000000000000000   0x0000000000000000
0x006f        0x0000000000000000   0x0000000000000000   0x0000000000000000   0x0000000000000000   0x0000000000000000   0x0000000000000000
0x0070        0x0000000000000000   0x0000000000000000   0x0000000000000000   0x0000000000000000   0x0000000000000000   0x0000000000000000
0x0071        0x0000000000000000   0x0000000000000000   0x0000000000000000   0x0000000000000000   0x0000000000000000   0x0000000000000000
0x0072        0x0000000000000000   0x0000000000000000   0x0000000000000000   0x0000000000000000   0x0000000000000000   0x0000000000000000
0x0073        0x0000000000000000   0x0000000000000000   0x0000000000000000   0x0000000000000000   0x0000000000000000   0x0000000000000000
0x0074        0x0000000000000000   0x0000000000000000   0x0000000000000000   0x0000000000000000   0x0000000000000000   0x0000000000000000
0x0075        0x0000000000000000   0x0000000000000000   0x0000000000000000   0x0000000000000000   0x0000000000000000   0x0000000000000000
0x0076        0x0000000000000000   0x0000000000000000   0x0000000000000000   0x0000000000000000   0x0000000000000000   0x0000000000000000
0x0077        0x0000000000000000   0x0000000000000000   0x0000000000000000   0x0000000000000000   0x0000000000000000   0x0000000000000000
0x0078        0x0000000000000000   0x0000000000000000   0x0000000000000000   0x0000000000000000   0x0000000000000000   0x0000000000000000
0x0079        0x0000000000000000   0x0000000000000000   0x0000000000000000   0x0000000000000000   0x0000000000000000   0x0000000000000000
0x007a        0x0000000000000000   0x0000000000000000   0x0000000000000000   0x0000000000000000   0x0000000000000000   0x0000000000000000
0x007b        0x0000000000000000   0x0000000000000000   0x0000000000000000   0x0000000000000000   0x0000000000000000   0x0000000000000000
0x007c        0x0000000000000000   0x0000000000000000   0x0000000000000000   0x0000000000000000   0x0000000000000000   0x0000000000000000
0x007d        0x0000000000000000   0x0000000000000000   0x0000000000000000   0x0000000000000000   0x0000000000000000   0x0000000000000000
0x007e        0x04005E412FE9000A   0x0000000000000000   0x0000000000000000   0x0000000000000000   0x0000000000000000   0x0000000000000000
0x007f        0x0000000000000000   0x0000000000000000   0x0000000000000000   0x0000000000000000   0x0000000000000000   0x0000000000000000
0x0080        0x0000000000000000   0x0000000000000000   0x0000000000000000   0x0000000000000000   0x0000000000000000   0x0000000000000000
0x0081        0x1C005A8363FF8027   0x0000000000000000   0x0000000000000000   0x0000000000000000   0x0000000000000000   0x0000000000000000
0x0082        0x00005F039802000F   0x0000000000000000   0x0000000000000000   0x0000000000000000   0x0000000000000000   0x0000000000000000
0x0083        0x0000000000000000   0x0000000000000000   0x0000000000000000   0x0000000000000000   0x0000000000000000   0x0000000000000000
0x0084        0x0000000000000000   0x0000000000000000   0x0000000000000000   0x0000000000000000   0x0000000000000000   0x0000000000000000
0x0085        0x0000000000000000   0x0000000000000000   0x0000000000000000   0x0000000000000000   0x0000000000000000   0x0000000000000000
0x0086        0x0000000000000000   0x0000000000000000   0x0000000000000000   0x0000000000000000   0x0000000000000000   0x0000000000000000
0x0087        0x0000000000000000   0x0000000000000000   0x0000000000000000   0x0000000000000000   0x0000000000000000   0x0000000000000000
0x0088        0x0000000000000000   0x0000000000000000   0x0000000000000000   0x0000000000000000   0x0000000000000000   0x0000000000000000
0x0089        0x0000000000000000   0x0000000000000000   0x0000000000000000   0x0000000000000000   0x0000000000000000   0x0000000000000000
0x008a        0x0000000000000000   0x0000000000000000   0x0000000000000000   0x0000000000000000   0x0000000000000000   0x0000000000000000
0x008b        0x0000000000000000   0x0000000000000000   0x0000000000000000   0x0000000000000000   0x0000000000000000   0x0000000000000000
0x008c        0x0000000000000000   0x0000000000000000   0x0000000000000000   0x0000000000000000   0x0000000000000000   0x0000000000000000
0x008d        0x0000000000000000   0x0000000000000000   0x0000000000000000   0x0000000000000000   0x0000000000000000   0x0000000000000000
0x008e        0x0000000000000000   0x0000000000000000   0x0000000000000000   0x0000000000000000   0x0000000000000000   0x0000000000000000
0x008f        0x0000000000000000   0x0000000000000000   0x0000000000000000   0x0000000000000000   0x0000000000000000   0x0000000000000000
0x0090        0x0000000000000000   0x0000000000000000   0x0000000000000000   0x0000000000000000   0x0000000000000000   0x0000000000000000
0x0091        0x0000000000000000   0x0000000000000000   0x0000000000000000   0x0000000000000000   0x0000000000000000   0x0000000000000000
0x0092        0x0000000000000000   0x0000000000000000   0x0000000000000000   0x0000000000000000   0x0000000000000000   0x0000000000000000
0x0093        0x1C005A61E05500E4   0x0000000000000000   0x0000000000000000   0x0000000000000000   0x0000000000000000   0x0000000000000000
0x0094        0x14005841E454C030   0x0000000000000000   0x0000000000000000   0x0000000000000000   0x0000000000000000   0x0000000000000000
0x0095        0x0000F021C84F8005   0x0000000000000000   0x0000000000000000   0x0000000000000000   0x0000000000000000   0x0000000000000000
0x0096        0x0000000000000000   0x0000000000000000   0x0000000000000000   0x0000000000000000   0x0000000000000000   0x0000000000000000
0x0097        0x0000000000000000   0x0000000000000000   0x0000000000000000   0x0000000000000000   0x0000000000000000   0x0000000000000000
0x0098        0x0000000000000000   0x0000000000000000   0x0000000000000000   0x0000000000000000   0x0000000000000000   0x0000000000000000
0x0099        0x0000000000000000   0x0000000000000000   0x0000000000000000   0x0000000000000000   0x0000000000000000   0x0000000000000000
0x009a        0x0000000000000000   0x0000000000000000   0x0000000000000000   0x0000000000000000   0x0000000000000000   0x0000000000000000
0x009b        0x0000000000000000   0x0000000000000000   0x0000000000000000   0x0000000000000000   0x0000000000000000   0x0000000000000000
0x009c        0x04001AE56454000A   0x0000000000000000   0x0000000000000000   0x0000000000000000   0x0000000000000000   0x0000000000000000
0x009d        0x0000000000000000   0x0000000000000000   0x0000000000000000   0x0000000000000000   0x0000000000000000   0x0000000000000000
0x009e        0x0000000000000000   0x0000000000000000   0x0000000000000000   0x0000000000000000   0x0000000000000000   0x0000000000000000
0x009f        0x0000000000000000   0x0000000000000000   0x0000000000000000   0x0000000000000000   0x0000000000000000   0x0000000000000000
0x00a0        0x0000000000000000   0x0000000000000000   0x0000000000000000   0x0000000000000000   0x0000000000000000   0x0000000000000000
0x00a1        0x0000000000000000   0x0000000000000000   0x0000000000000000   0x0000000000000000   0x0000000000000000   0x0000000000000000
0x00a2        0x000100007FB8C09C   0x140398604FB88016   0x0000000000000000   0x0000000000000000   0x0000000000000000   0x0000000000000000
0x00a3        0x14039A801FB70031   0x0C0398401FB5400F   0x0000000000000000   0x0000000000000000   0x0000000000000000   0x0000000000000000
0x00a4        0x0000F3206BBB801B   0x0000000000000000   0x0000000000000000   0x0000000000000000   0x0000000000000000   0x0000000000000000
0x00a5        0x0000000000000000   0x0000000000000000   0x0000000000000000   0x0000000000000000   0x0000000000000000   0x0000000000000000
0x00a6        0x0000000000000000   0x0000000000000000   0x0000000000000000   0x0000000000000000   0x0000000000000000   0x0000000000000000
0x00a7        0x0000000000000000   0x0000000000000000   0x0000000000000000   0x0000000000000000   0x0000000000000000   0x0000000000000000
0x00a8        0x0000000000000000   0x0000000000000000   0x0000000000000000   0x0000000000000000   0x0000000000000000   0x0000000000000000
0x00a9        0x0000000000000000   0x0000000000000000   0x0000000000000000   0x0000000000000000   0x0000000000000000   0x0000000000000000
0x00aa        0x0000000000000000   0x0000000000000000   0x0000000000000000   0x0000000000000000   0x0000000000000000   0x0000000000000000
0x00ab        0x0000000000000000   0x0000000000000000   0x0000000000000000   0x0000000000000000   0x0000000000000000   0x0000000000000000
0x00ac        0x0000000000000000   0x0000000000000000   0x0000000000000000   0x0000000000000000   0x0000000000000000   0x0000000000000000
0x00ad        0x0000000000000000   0x0000000000000000   0x0000000000000000   0x0000000000000000   0x0000000000000000   0x0000000000000000
0x00ae        0x000100261BD9806A   0x0000460613DB800D   0x0000000000000000   0x0000000000000000   0x0000000000000000   0x0000000000000000
0x00af        0x0000D025FBDB8015   0x0C03A04323D9C00A   0x0000000000000000   0x0000000000000000   0x0000000000000000   0x0000000000000000
0x00b0        0x0000A2258BD58014   0x00009125FBE08007   0x0000000000000000   0x0000000000000000   0x0000000000000000   0x0000000000000000
0x00b1        0x0000000000000000   0x0000000000000000   0x0000000000000000   0x0000000000000000   0x0000000000000000   0x0000000000000000
0x00b2        0x0000000000000000   0x0000000000000000   0x0000000000000000   0x0000000000000000   0x0000000000000000   0x0000000000000000
0x00b3        0x0000000000000000   0x0000000000000000   0x0000000000000000   0x0000000000000000   0x0000000000000000   0x0000000000000000
0x00b4        0x0000000000000000   0x0000000000000000   0x0000000000000000   0x0000000000000000   0x0000000000000000   0x0000000000000000
0x00b5        0x0000000000000000   0x0000000000000000   0x0000000000000000   0x0000000000000000   0x0000000000000000   0x0000000000000000
0x00b6        0x0000000000000000   0x0000000000000000   0x0000000000000000   0x0000000000000000   0x0000000000000000   0x0000000000000000
0x00b7        0x0000000000000000   0x0000000000000000   0x0000000000000000   0x0000000000000000   0x0000000000000000   0x0000000000000000
0x00b8        0x0000000000000000   0x0000000000000000   0x0000000000000000   0x0000000000000000   0x0000000000000000   0x0000000000000000
0x00b9        0x0000000000000000   0x0000000000000000   0x0000000000000000   0x0000000000000000   0x0000000000000000   0x0000000000000000
0x00ba        0x0000000000000000   0x0000000000000000   0x0000000000000000   0x0000000000000000   0x0000000000000000   0x0000000000000000
0x00bb        0x0000000000000000   0x0000000000000000   0x0000000000000000   0x0000000000000000   0x0000000000000000   0x0000000000000000
0x00bc        0x0000000000000000   0x0000000000000000   0x0000000000000000   0x0000000000000000   0x0000000000000000   0x0000000000000000
0x00bd        0x0000000000000000   0x0000000000000000   0x0000000000000000   0x0000000000000000   0x0000000000000000   0x0000000000000000
0x00be        0x0000000000000000   0x0000000000000000   0x0000000000000000   0x0000000000000000   0x0000000000000000   0x0000000000000000
0x00bf        0x0000000000000000   0x0000000000000000   0x0000000000000000   0x0000000000000000   0x0000000000000000   0x0000000000000000
0x00c0        0x0000000000000000   0x0000000000000000   0x0000000000000000   0x0000000000000000   0x0000000000000000   0x0000000000000000
0x00c1        0x0000000000000000   0x0000000000000000   0x0000000000000000   0x0000000000000000   0x0000000000000000   0x0000000000000000
0x00c2        0x0000000000000000   0x0000000000000000   0x0000000000000000   0x0000000000000000   0x0000000000000000   0x0000000000000000
0x00c3        0x0000000000000000   0x0000000000000000   0x0000000000000000   0x0000000000000000   0x0000000000000000   0x0000000000000000
0x00c4        0x0000000000000000   0x0000000000000000   0x0000000000000000   0x0000000000000000   0x0000000000000000   0x0000000000000000
0x00c5        0x0000000000000000   0x0000000000000000   0x0000000000000000   0x0000000000000000   0x0000000000000000   0x0000000000000000
0x00c6        0x0000000000000000   0x0000000000000000   0x0000000000000000   0x0000000000000000   0x0000000000000000   0x0000000000000000
0x00c7        0x0000000000000000   0x0000000000000000   0x0000000000000000   0x0000000000000000   0x0000000000000000   0x0000000000000000
0x00c8        0x0000000000000000   0x0000000000000000   0x0000000000000000   0x0000000000000000   0x0000000000000000   0x0000000000000000
0x00c9        0x0000000000000000   0x0000000000000000   0x0000000000000000   0x0000000000000000   0x0000000000000000   0x0000000000000000
0x00ca        0x0000000000000000   0x0000000000000000   0x0000000000000000   0x0000000000000000   0x0000000000000000   0x0000000000000000
0x00cb        0x0000000000000000   0x0000000000000000   0x0000000000000000   0x0000000000000000   0x0000000000000000   0x0000000000000000
0x00cc        0x0000000000000000   0x0000000000000000   0x0000000000000000   0x0000000000000000   0x0000000000000000   0x0000000000000000
0x00cd        0x0000000000000000   0x0000000000000000   0x0000000000000000   0x0000000000000000   0x0000000000000000   0x0000000000000000
0x00ce        0x0000000000000000   0x0000000000000000   0x0000000000000000   0x0000000000000000   0x0000000000000000   0x0000000000000000
0x00cf        0x0000000000000000   0x0000000000000000   0x0000000000000000   0x0000000000000000   0x0000000000000000   0x0000000000000000
0x00d0        0x0000000000000000   0x0000000000000000   0x0000000000000000   0x0000000000000000   0x0000000000000000   0x0000000000000000
0x00d1        0x0000000000000000   0x0000000000000000   0x0000000000000000   0x0000000000000000   0x0000000000000000   0x0000000000000000
0x00d2        0x0000000000000000   0x0000000000000000   0x0000000000000000   0x0000000000000000   0x0000000000000000   0x0000000000000000
0x00d3        0x0000000000000000   0x0000000000000000   0x0000000000000000   0x0000000000000000   0x0000000000000000   0x0000000000000000
0x00d4        0x0000000000000000   0x0000000000000000   0x0000000000000000   0x0000000000000000   0x0000000000000000   0x0000000000000000
0x00d5        0x0000000000000000   0x0000000000000000   0x0000000000000000   0x0000000000000000   0x0000000000000000   0x0000000000000000
0x00d6        0x0000000000000000   0x0000000000000000   0x0000000000000000   0x0000000000000000   0x0000000000000000   0x0000000000000000
0x00d7        0x0000000000000000   0x0000000000000000   0x0000000000000000   0x0000000000000000   0x0000000000000000   0x0000000000000000
0x00d8        0x0000000000000000   0x0000000000000000   0x0000000000000000   0x0000000000000000   0x0000000000000000   0x0000000000000000
0x00d9        0x0000000000000000   0x0000000000000000   0x0000000000000000   0x0000000000000000   0x0000000000000000   0x0000000000000000
0x00da        0x0000000000000000   0x0000000000000000   0x0000000000000000   0x0000000000000000   0x0000000000000000   0x0000000000000000
0x00db        0x0000000000000000   0x0000000000000000   0x0000000000000000   0x0000000000000000   0x0000000000000000   0x0000000000000000
0x00dc        0x0000000000000000   0x0000000000000000   0x0000000000000000   0x0000000000000000   0x0000000000000000   0x0000000000000000
0x00dd        0x0000000000000000   0x0000000000000000   0x0000000000000000   0x0000000000000000   0x0000000000000000   0x0000000000000000
0x00de        0x1C032843E3ACC03A   0x0000000000000000   0x0000000000000000   0x0000000000000000   0x0000000000000000   0x0000000000000000
0x00df        0x0000000000000000   0x0000000000000000   0x0000000000000000   0x0000000000000000   0x0000000000000000   0x0000000000000000
0x00e0        0x0000000000000000   0x0000000000000000   0x0000000000000000   0x0000000000000000   0x0000000000000000   0x0000000000000000
0x00e1        0x0000771F57E8C012   0x0000000000000000   0x0000000000000000   0x0000000000000000   0x0000000000000000   0x0000000000000000
0x00e2        0x000EED3F5BEB8011   0x0000000000000000   0x0000000000000000   0x0000000000000000   0x0000000000000000   0x0000000000000000
0x00e3        0x0000000000000000   0x0000000000000000   0x0000000000000000   0x0000000000000000   0x0000000000000000   0x0000000000000000
0x00e4        0x0C032D6603DFC010   0x0000000000000000   0x0000000000000000   0x0000000000000000   0x0000000000000000   0x0000000000000000
0x00e5        0x0000000000000000   0x0000000000000000   0x0000000000000000   0x0000000000000000   0x0000000000000000   0x0000000000000000
0x00e6        0x0000000000000000   0x0000000000000000   0x0000000000000000   0x0000000000000000   0x0000000000000000   0x0000000000000000
0x00e7        0x0000000000000000   0x0000000000000000   0x0000000000000000   0x0000000000000000   0x0000000000000000   0x0000000000000000
0x00e8        0x0000000000000000   0x0000000000000000   0x0000000000000000   0x0000000000000000   0x0000000000000000   0x0000000000000000
0x00e9        0x0000000000000000   0x0000000000000000   0x0000000000000000   0x0000000000000000   0x0000000000000000   0x0000000000000000
0x00ea        0x0000000000000000   0x0000000000000000   0x0000000000000000   0x0000000000000000   0x0000000000000000   0x0000000000000000
0x00eb        0x0000000000000000   0x0000000000000000   0x0000000000000000   0x0000000000000000   0x0000000000000000   0x0000000000000000
0x00ec        0x0000000000000000   0x0000000000000000   0x0000000000000000   0x0000000000000000   0x0000000000000000   0x0000000000000000
0x00ed        0x0000000000000000   0x0000000000000000   0x0000000000000000   0x0000000000000000   0x0000000000000000   0x0000000000000000
0x00ee        0x0000000000000000   0x0000000000000000   0x0000000000000000   0x0000000000000000   0x0000000000000000   0x0000000000000000
0x00ef        0x0000000000000000   0x0000000000000000   0x0000000000000000   0x0000000000000000   0x0000000000000000   0x0000000000000000
0x00f0        0x0C03315E04150009   0x0000000000000000   0x0000000000000000   0x0000000000000000   0x0000000000000000   0x0000000000000000
0x00f1        0x0000000000000000   0x0000000000000000   0x0000000000000000   0x0000000000000000   0x0000000000000000   0x0000000000000000
0x00f2        0x0000000000000000   0x0000000000000000   0x0000000000000000   0x0000000000000000   0x0000000000000000   0x0000000000000000
0x00f3        0x0000000000000000   0x0000000000000000   0x0000000000000000   0x0000000000000000   0x0000000000000000   0x0000000000000000
0x00f4        0x0000000000000000   0x0000000000000000   0x0000000000000000   0x0000000000000000   0x0000000000000000   0x0000000000000000
0x00f5        0x0000000000000000   0x0000000000000000   0x0000000000000000   0x0000000000000000   0x0000000000000000   0x0000000000000000
0x00f6        0x0000000000000000   0x0000000000000000   0x0000000000000000   0x0000000000000000   0x0000000000000000   0x0000000000000000
0x00f7        0x0000000000000000   0x0000000000000000   0x0000000000000000   0x0000000000000000   0x0000000000000000   0x0000000000000000
0x00f8        0x0000000000000000   0x0000000000000000   0x0000000000000000   0x0000000000000000   0x0000000000000000   0x0000000000000000
0x00f9        0x0000000000000000   0x0000000000000000   0x0000000000000000   0x0000000000000000   0x0000000000000000   0x0000000000000000
0x00fa        0x0000000000000000   0x0000000000000000   0x0000000000000000   0x0000000000000000   0x0000000000000000   0x0000000000000000
0x00fb        0x0000000000000000   0x0000000000000000   0x0000000000000000   0x0000000000000000   0x0000000000000000   0x0000000000000000
0x00fc        0x0000000000000000   0x0000000000000000   0x0000000000000000   0x0000000000000000   0x0000000000000000   0x0000000000000000
0x00fd        0x0000000000000000   0x0000000000000000   0x0000000000000000   0x0000000000000000   0x0000000000000000   0x0000000000000000
0x00fe        0x0000000000000000   0x0000000000000000   0x0000000000000000   0x0000000000000000   0x0000000000000000   0x0000000000000000
0x00ff        0x0000000000000000   0x0000000000000000   0x0000000000000000   0x0000000000000000   0x0000000000000000   0x0000000000000000
0x0100        0x0000000000000000   0x0000000000000000   0x0000000000000000   0x0000000000000000   0x0000000000000000   0x0000000000000000
0x0101        0x0000000000000000   0x0000000000000000   0x0000000000000000   0x0000000000000000   0x0000000000000000   0x0000000000000000
0x0102        0x0000000000000000   0x0000000000000000   0x0000000000000000   0x0000000000000000   0x0000000000000000   0x0000000000000000
0x0103        0x0000000000000000   0x0000000000000000   0x0000000000000000   0x0000000000000000   0x0000000000000000   0x0000000000000000
0x0104        0x0000000000000000   0x0000000000000000   0x0000000000000000   0x0000000000000000   0x0000000000000000   0x0000000000000000
0x0105        0x000EE3237BB4801A   0x0000000000000000   0x0000000000000000   0x0000000000000000   0x0000000000000000   0x0000000000000000
0x0106        0x0000000000000000   0x0000000000000000   0x0000000000000000   0x0000000000000000   0x0000000000000000   0x0000000000000000
0x0107        0x0000000000000000   0x0000000000000000   0x0000000000000000   0x0000000000000000   0x0000000000000000   0x0000000000000000
0x0108        0x0000000000000000   0x0000000000000000   0x0000000000000000   0x0000000000000000   0x0000000000000000   0x0000000000000000
0x0109        0x0000000000000000   0x0000000000000000   0x0000000000000000   0x0000000000000000   0x0000000000000000   0x0000000000000000
0x010a        0x0000000000000000   0x0000000000000000   0x0000000000000000   0x0000000000000000   0x0000000000000000   0x0000000000000000
0x010b        0x14032E7F9BDF009E   0x1C032A5F7FDF403F   0x0C03317FEFE20011   0x0000000000000000   0x0000000000000000   0x0000000000000000
0x010c        0x0001001F8FDB007F   0x1C032FBFA3DD0037   0x0C032E60BBD2C00F   0x0000000000000000   0x0000000000000000   0x0000000000000000
0x010d        0x1403317F8BDF0051   0x1C032D5F83DE8029   0x0000641EC7DC800C   0x0000000000000000   0x0000000000000000   0x0000000000000000
0x010e        0x0000000000000000   0x0000000000000000   0x0000000000000000   0x0000000000000000   0x0000000000000000   0x0000000000000000
0x010f        0x0000000000000000   0x0000000000000000   0x0000000000000000   0x0000000000000000   0x0000000000000000   0x0000000000000000
0x0110        0x0000000000000000   0x0000000000000000   0x0000000000000000   0x0000000000000000   0x0000000000000000   0x0000000000000000
0x0111        0x0000000000000000   0x0000000000000000   0x0000000000000000   0x0000000000000000   0x0000000000000000   0x0000000000000000
0x0112        0x0000000000000000   0x0000000000000000   0x0000000000000000   0x0000000000000000   0x0000000000000000   0x0000000000000000
0x0113        0x0000000000000000   0x0000000000000000   0x0000000000000000   0x0000000000000000   0x0000000000000000   0x0000000000000000
0x0114        0x0000000000000000   0x0000000000000000   0x0000000000000000   0x0000000000000000   0x0000000000000000   0x0000000000000000
0x0115        0x0000000000000000   0x0000000000000000   0x0000000000000000   0x0000000000000000   0x0000000000000000   0x0000000000000000
0x0116        0x0000000000000000   0x0000000000000000   0x0000000000000000   0x0000000000000000   0x0000000000000000   0x0000000000000000
0x0117        0x0000000000000000   0x0000000000000000   0x0000000000000000   0x0000000000000000   0x0000000000000000   0x0000000000000000
0x0118        0x0000000000000000   0x0000000000000000   0x0000000000000000   0x0000000000000000   0x0000000000000000   0x0000000000000000
0x0119        0x0000000000000000   0x0000000000000000   0x0000000000000000   0x0000000000000000   0x0000000000000000   0x0000000000000000
0x011a        0x0000000000000000   0x0000000000000000   0x0000000000000000   0x0000000000000000   0x0000000000000000   0x0000000000000000
0x011b        0x0000000000000000   0x0000000000000000   0x0000000000000000   0x0000000000000000   0x0000000000000000   0x0000000000000000
0x011c        0x0000000000000000   0x0000000000000000   0x0000000000000000   0x0000000000000000   0x0000000000000000   0x0000000000000000
0x011d        0x0000000000000000   0x0000000000000000   0x0000000000000000   0x0000000000000000   0x0000000000000000   0x0000000000000000
0x011e        0x0000000000000000   0x0000000000000000   0x0000000000000000   0x0000000000000000   0x0000000000000000   0x0000000000000000
0x011f        0x0000000000000000   0x0000000000000000   0x0000000000000000   0x0000000000000000   0x0000000000000000   0x0000000000000000
0x0120        0x0000000000000000   0x0000000000000000   0x0000000000000000   0x0000000000000000   0x0000000000000000   0x0000000000000000
0x0121        0x0000000000000000   0x0000000000000000   0x0000000000000000   0x0000000000000000   0x0000000000000000   0x0000000000000000
0x0122        0x0000000000000000   0x0000000000000000   0x0000000000000000   0x0000000000000000   0x0000000000000000   0x0000000000000000
0x0123        0x1C004C63E4194041   0x0000000000000000   0x0000000000000000   0x0000000000000000   0x0000000000000000   0x0000000000000000
0x0124        0x0C0050636C18C00B   0x0000000000000000   0x0000000000000000   0x0000000000000000   0x0000000000000000   0x0000000000000000
0x0125        0x0000000000000000   0x0000000000000000   0x0000000000000000   0x0000000000000000   0x0000000000000000   0x0000000000000000
0x0126        0x0000000000000000   0x0000000000000000   0x0000000000000000   0x0000000000000000   0x0000000000000000   0x0000000000000000
0x0127        0x0000000000000000   0x0000000000000000   0x0000000000000000   0x0000000000000000   0x0000000000000000   0x0000000000000000
0x0128        0x0000000000000000   0x0000000000000000   0x0000000000000000   0x0000000000000000   0x0000000000000000   0x0000000000000000
0x0129        0x0400476178218014   0x0000000000000000   0x0000000000000000   0x0000000000000000   0x0000000000000000   0x0000000000000000
0x012a        0x0000000000000000   0x0000000000000000   0x0000000000000000   0x0000000000000000   0x0000000000000000   0x0000000000000000
0x012b        0x0000000000000000   0x0000000000000000   0x0000000000000000   0x0000000000000000   0x0000000000000000   0x0000000000000000
0x012c        0x1C004E43E81A402A   0x0000CA2498178007   0x0000000000000000   0x0000000000000000   0x0000000000000000   0x0000000000000000
0x012d        0x0C004E8438194011   0x00003E043C1B0006   0x0000000000000000   0x0000000000000000   0x0000000000000000   0x0000000000000000
0x012e        0x0C005242900C8008   0x0000000000000000   0x0000000000000000   0x0000000000000000   0x0000000000000000   0x0000000000000000
0x012f        0x0000000000000000   0x0000000000000000   0x0000000000000000   0x0000000000000000   0x0000000000000000   0x0000000000000000
0x0130        0x0000000000000000   0x0000000000000000   0x0000000000000000   0x0000000000000000   0x0000000000000000   0x0000000000000000
0x0131        0x0000000000000000   0x0000000000000000   0x0000000000000000   0x0000000000000000   0x0000000000000000   0x0000000000000000
0x0132        0x0006FE22081E8036   0x000023015C29C006   0x0000000000000000   0x0000000000000000   0x0000000000000000   0x0000000000000000
0x0133        0x1C004D41901C8021   0x0000000000000000   0x0000000000000000   0x0000000000000000   0x0000000000000000   0x0000000000000000
0x0134        0x04005163E81C0012   0x0000000000000000   0x0000000000000000   0x0000000000000000   0x0000000000000000   0x0000000000000000
0x0135        0x0000000000000000   0x0000000000000000   0x0000000000000000   0x0000000000000000   0x0000000000000000   0x0000000000000000
0x0136        0x0000000000000000   0x0000000000000000   0x0000000000000000   0x0000000000000000   0x0000000000000000   0x0000000000000000
0x0137        0x0000000000000000   0x0000000000000000   0x0000000000000000   0x0000000000000000   0x0000000000000000   0x0000000000000000
0x0138        0x0000000000000000   0x0000000000000000   0x0000000000000000   0x0000000000000000   0x0000000000000000   0x0000000000000000
0x0139        0x0000000000000000   0x0000000000000000   0x0000000000000000   0x0000000000000000   0x0000000000000000   0x0000000000000000
0x013a        0x0000000000000000   0x0000000000000000   0x0000000000000000   0x0000000000000000   0x0000000000000000   0x0000000000000000
0x013b        0x0000000000000000   0x0000000000000000   0x0000000000000000   0x0000000000000000   0x0000000000000000   0x0000000000000000
0x013c        0x0000000000000000   0x0000000000000000   0x0000000000000000   0x0000000000000000   0x0000000000000000   0x0000000000000000
0x013d        0x0000000000000000   0x0000000000000000   0x0000000000000000   0x0000000000000000   0x0000000000000000   0x0000000000000000
0x013e        0x0000000000000000   0x0000000000000000   0x0000000000000000   0x0000000000000000   0x0000000000000000   0x0000000000000000
0x013f        0x0000000000000000   0x0000000000000000   0x0000000000000000   0x0000000000000000   0x0000000000000000   0x0000000000000000
0x0140        0x0000000000000000   0x0000000000000000   0x0000000000000000   0x0000000000000000   0x0000000000000000   0x0000000000000000
0x0141        0x0000000000000000   0x0000000000000000   0x0000000000000000   0x0000000000000000   0x0000000000000000   0x0000000000000000
0x0142        0x0000000000000000   0x0000000000000000   0x0000000000000000   0x0000000000000000   0x0000000000000000   0x0000000000000000
0x0143        0x0000000000000000   0x0000000000000000   0x0000000000000000   0x0000000000000000   0x0000000000000000   0x0000000000000000
0x0144        0x0000000000000000   0x0000000000000000   0x0000000000000000   0x0000000000000000   0x0000000000000000   0x0000000000000000
0x0145        0x0000000000000000   0x0000000000000000   0x0000000000000000   0x0000000000000000   0x0000000000000000   0x0000000000000000
0x0146        0x0000000000000000   0x0000000000000000   0x0000000000000000   0x0000000000000000   0x0000000000000000   0x0000000000000000
0x0147        0x000700222BE3809A   0x0C03AD409BDFC008   0x0000000000000000   0x0000000000000000   0x0000000000000000   0x0000000000000000
0x0148        0x1403B240C7D8C015   0x0000EE21FBE38005   0x0000000000000000   0x0000000000000000   0x0000000000000000   0x0000000000000000
0x0149        0x0C03AE40E3DD000B   0x0000E7222BDF8004   0x0000000000000000   0x0000000000000000   0x0000000000000000   0x0000000000000000
0x014a        0x0000000000000000   0x0000000000000000   0x0000000000000000   0x0000000000000000   0x0000000000000000   0x0000000000000000
0x014b        0x0000000000000000   0x0000000000000000   0x0000000000000000   0x0000000000000000   0x0000000000000000   0x0000000000000000
0x014c        0x0000000000000000   0x0000000000000000   0x0000000000000000   0x0000000000000000   0x0000000000000000   0x0000000000000000
0x014d        0x0000C7001BFA0035   0x0000000000000000   0x0000000000000000   0x0000000000000000   0x0000000000000000   0x0000000000000000
0x014e        0x0004DF201BFC8011   0x0000000000000000   0x0000000000000000   0x0000000000000000   0x0000000000000000   0x0000000000000000
0x014f        0x0C03AC60D7E5C00E   0x0000000000000000   0x0000000000000000   0x0000000000000000   0x0000000000000000   0x0000000000000000
0x0150        0x0000000000000000   0x0000000000000000   0x0000000000000000   0x0000000000000000   0x0000000000000000   0x0000000000000000
0x0151        0x0000000000000000   0x0000000000000000   0x0000000000000000   0x0000000000000000   0x0000000000000000   0x0000000000000000
0x0152        0x0000000000000000   0x0000000000000000   0x0000000000000000   0x0000000000000000   0x0000000000000000   0x0000000000000000
0x0153        0x0000000000000000   0x0000000000000000   0x0000000000000000   0x0000000000000000   0x0000000000000000   0x0000000000000000
0x0154        0x0000000000000000   0x0000000000000000   0x0000000000000000   0x0000000000000000   0x0000000000000000   0x0000000000000000
0x0155        0x0000000000000000   0x0000000000000000   0x0000000000000000   0x0000000000000000   0x0000000000000000   0x0000000000000000
0x0156        0x0403A34083E60009   0x0000000000000000   0x0000000000000000   0x0000000000000000   0x0000000000000000   0x0000000000000000
0x0157        0x0000000000000000   0x0000000000000000   0x0000000000000000   0x0000000000000000   0x0000000000000000   0x0000000000000000
0x0158        0x0000000000000000   0x0000000000000000   0x0000000000000000   0x0000000000000000   0x0000000000000000   0x0000000000000000
0x0159        0x0000000000000000   0x0000000000000000   0x0000000000000000   0x0000000000000000   0x0000000000000000   0x0000000000000000
0x015a        0x0000000000000000   0x0000000000000000   0x0000000000000000   0x0000000000000000   0x0000000000000000   0x0000000000000000
0x015b        0x0000000000000000   0x0000000000000000   0x0000000000000000   0x0000000000000000   0x0000000000000000   0x0000000000000000
0x015c        0x0C03AC7FE403800C   0x0000000000000000   0x0000000000000000   0x0000000000000000   0x0000000000000000   0x0000000000000000
0x015d        0x0000000000000000   0x0000000000000000   0x0000000000000000   0x0000000000000000   0x0000000000000000   0x0000000000000000
0x015e        0x0000000000000000   0x0000000000000000   0x0000000000000000   0x0000000000000000   0x0000000000000000   0x0000000000000000
0x015f        0x0000000000000000   0x0000000000000000   0x0000000000000000   0x0000000000000000   0x0000000000000000   0x0000000000000000
0x0160        0x0000000000000000   0x0000000000000000   0x0000000000000000   0x0000000000000000   0x0000000000000000   0x0000000000000000
0x0161        0x0000000000000000   0x0000000000000000   0x0000000000000000   0x0000000000000000   0x0000000000000000   0x0000000000000000
0x0162        0x0000000000000000   0x0000000000000000   0x0000000000000000   0x0000000000000000   0x0000000000000000   0x0000000000000000
0x0163        0x0000000000000000   0x0000000000000000   0x0000000000000000   0x0000000000000000   0x0000000000000000   0x0000000000000000
0x0164        0x0000000000000000   0x0000000000000000   0x0000000000000000   0x0000000000000000   0x0000000000000000   0x0000000000000000
0x0165        0x0000000000000000   0x0000000000000000   0x0000000000000000   0x0000000000000000   0x0000000000000000   0x0000000000000000
0x0166        0x0000000000000000   0x0000000000000000   0x0000000000000000   0x0000000000000000   0x0000000000000000   0x0000000000000000
0x0167        0x0000000000000000   0x0000000000000000   0x0000000000000000   0x0000000000000000   0x0000000000000000   0x0000000000000000
0x0168        0x0000000000000000   0x0000000000000000   0x0000000000000000   0x0000000000000000   0x0000000000000000   0x0000000000000000
0x0169        0x0000000000000000   0x0000000000000000   0x0000000000000000   0x0000000000000000   0x0000000000000000   0x0000000000000000
0x016a        0x0000000000000000   0x0000000000000000   0x0000000000000000   0x0000000000000000   0x0000000000000000   0x0000000000000000
0x016b        0x0000000000000000   0x0000000000000000   0x0000000000000000   0x0000000000000000   0x0000000000000000   0x0000000000000000
0x016c        0x0000000000000000   0x0000000000000000   0x0000000000000000   0x0000000000000000   0x0000000000000000   0x0000000000000000
0x016d        0x0000000000000000   0x0000000000000000   0x0000000000000000   0x0000000000000000   0x0000000000000000   0x0000000000000000
0x016e        0x0000000000000000   0x0000000000000000   0x0000000000000000   0x0000000000000000   0x0000000000000000   0x0000000000000000
0x016f        0x0000000000000000   0x0000000000000000   0x0000000000000000   0x0000000000000000   0x0000000000000000   0x0000000000000000
0x0170        0x0000000000000000   0x0000000000000000   0x0000000000000000   0x0000000000000000   0x0000000000000000   0x0000000000000000
0x0171        0x0000000000000000   0x0000000000000000   0x0000000000000000   0x0000000000000000   0x0000000000000000   0x0000000000000000
0x0172        0x0000000000000000   0x0000000000000000   0x0000000000000000   0x0000000000000000   0x0000000000000000   0x0000000000000000
0x0173        0x0000000000000000   0x0000000000000000   0x0000000000000000   0x0000000000000000   0x0000000000000000   0x0000000000000000
0x0174        0x0000000000000000   0x0000000000000000   0x0000000000000000   0x0000000000000000   0x0000000000000000   0x0000000000000000
0x0175        0x0000000000000000   0x0000000000000000   0x0000000000000000   0x0000000000000000   0x0000000000000000   0x0000000000000000
0x0176        0x0000000000000000   0x0000000000000000   0x0000000000000000   0x0000000000000000   0x0000000000000000   0x0000000000000000
0x0177        0x0000FE0097DA0069   0x0000F8205BDB8018   0x0000EB20BBD6800B   0x0000000000000000   0x0000000000000000   0x0000000000000000
0x0178        0x1403AB60BBDA803B   0x1C03AC6063DE4017   0x0000D920EBDC8008   0x0000000000000000   0x0000000000000000   0x0000000000000000
0x0179        0x1C03AE606BD7401C   0x0C03AE409BDCC013   0x00001B1FD3CA4004   0x0000000000000000   0x0000000000000000   0x0000000000000000
0x017a        0x0000000000000000   0x0000000000000000   0x0000000000000000   0x0000000000000000   0x0000000000000000   0x0000000000000000
0x017b        0x0000000000000000   0x0000000000000000   0x0000000000000000   0x0000000000000000   0x0000000000000000   0x0000000000000000
0x017c        0x0000000000000000   0x0000000000000000   0x0000000000000000   0x0000000000000000   0x0000000000000000   0x0000000000000000
0x017d        0x0000000000000000   0x0000000000000000   0x0000000000000000   0x0000000000000000   0x0000000000000000   0x0000000000000000
0x017e        0x0000000000000000   0x0000000000000000   0x0000000000000000   0x0000000000000000   0x0000000000000000   0x0000000000000000
0x017f        0x0000000000000000   0x0000000000000000   0x0000000000000000   0x0000000000000000   0x0000000000000000   0x0000000000000000
0x0180        0x0000000000000000   0x0000000000000000   0x0000000000000000   0x0000000000000000   0x0000000000000000   0x0000000000000000
0x0181        0x0000000000000000   0x0000000000000000   0x0000000000000000   0x0000000000000000   0x0000000000000000   0x0000000000000000
0x0182        0x0000000000000000   0x0000000000000000   0x0000000000000000   0x0000000000000000   0x0000000000000000   0x0000000000000000
0x0183        0x0000000000000000   0x0000000000000000   0x0000000000000000   0x0000000000000000   0x0000000000000000   0x0000000000000000
0x0184        0x0000000000000000   0x0000000000000000   0x0000000000000000   0x0000000000000000   0x0000000000000000   0x0000000000000000
0x0185        0x0000000000000000   0x0000000000000000   0x0000000000000000   0x0000000000000000   0x0000000000000000   0x0000000000000000
0x0186        0x04036CE62BD3C009   0x0000000000000000   0x0000000000000000   0x0000000000000000   0x0000000000000000   0x0000000000000000
0x0187        0x0000000000000000   0x0000000000000000   0x0000000000000000   0x0000000000000000   0x0000000000000000   0x0000000000000000
0x0188        0x0000000000000000   0x0000000000000000   0x0000000000000000   0x0000000000000000   0x0000000000000000   0x0000000000000000
0x0189        0x0000000000000000   0x0000000000000000   0x0000000000000000   0x0000000000000000   0x0000000000000000   0x0000000000000000
0x018a        0x0000000000000000   0x0000000000000000   0x0000000000000000   0x0000000000000000   0x0000000000000000   0x0000000000000000
0x018b        0x0000000000000000   0x0000000000000000   0x0000000000000000   0x0000000000000000   0x0000000000000000   0x0000000000000000
0x018c        0x1C0367A1DFF9C042   0x0000000000000000   0x0000000000000000   0x0000000000000000   0x0000000000000000   0x0000000000000000
0x018d        0x0000000000000000   0x0000000000000000   0x0000000000000000   0x0000000000000000   0x0000000000000000   0x0000000000000000
0x018e        0x0000000000000000   0x0000000000000000   0x0000000000000000   0x0000000000000000   0x0000000000000000   0x0000000000000000
0x018f        0x0000000000000000   0x0000000000000000   0x0000000000000000   0x0000000000000000   0x0000000000000000   0x0000000000000000
0x0190        0x0000000000000000   0x0000000000000000   0x0000000000000000   0x0000000000000000   0x0000000000000000   0x0000000000000000
0x0191        0x0000000000000000   0x0000000000000000   0x0000000000000000   0x0000000000000000   0x0000000000000000   0x0000000000000000
0x0192        0x14036A6038158090   0x0000FF20180F8028   0x0000E33F880D8007   0x0000000000000000   0x0000000000000000   0x0000000000000000
0x0193        0x0000F9003C13C04A   0x0000FE2068178024   0x0000000000000000   0x0000000000000000   0x0000000000000000   0x0000000000000000
0x0194        0x1C0367402816C02E   0x0C036B6070104009   0x0000000000000000   0x0000000000000000   0x0000000000000000   0x0000000000000000
0x0195        0x00010020B824814F   0x14036C60AC270045   0x0000FA20A8228014   0x0000000000000000   0x0000000000000000   0x0000000000000000
0x0196        0x00010000B425412B   0x1C036A6098270042   0x0000000000000000   0x0000000000000000   0x0000000000000000   0x0000000000000000
0x0197        0x1C036940C028006C   0x0000FF20A8268030   0x0000000000000000   0x0000000000000000   0x0000000000000000   0x0000000000000000
0x0198        0x0000000000000000   0x0000000000000000   0x0000000000000000   0x0000000000000000   0x0000000000000000   0x0000000000000000
0x0199        0x0000000000000000   0x0000000000000000   0x0000000000000000   0x0000000000000000   0x0000000000000000   0x0000000000000000
0x019a        0x0000000000000000   0x0000000000000000   0x0000000000000000   0x0000000000000000   0x0000000000000000   0x0000000000000000
0x019b        0x0000000000000000   0x0000000000000000   0x0000000000000000   0x0000000000000000   0x0000000000000000   0x0000000000000000
0x019c        0x0000000000000000   0x0000000000000000   0x0000000000000000   0x0000000000000000   0x0000000000000000   0x0000000000000000
0x019d        0x0000000000000000   0x0000000000000000   0x0000000000000000   0x0000000000000000   0x0000000000000000   0x0000000000000000
0x019e        0x0C036740B427C013   0x0000000000000000   0x0000000000000000   0x0000000000000000   0x0000000000000000   0x0000000000000000
0x019f        0x0C036780CC254009   0x0000000000000000   0x0000000000000000   0x0000000000000000   0x0000000000000000   0x0000000000000000
0x01a0        0x0000000000000000   0x0000000000000000   0x0000000000000000   0x0000000000000000   0x0000000000000000   0x0000000000000000
0x01a1        0x0000000000000000   0x0000000000000000   0x0000000000000000   0x0000000000000000   0x0000000000000000   0x0000000000000000
0x01a2        0x0000000000000000   0x0000000000000000   0x0000000000000000   0x0000000000000000   0x0000000000000000   0x0000000000000000
0x01a3        0x0000000000000000   0x0000000000000000   0x0000000000000000   0x0000000000000000   0x0000000000000000   0x0000000000000000
0x01a4        0x14036440783D802B   0x0000000000000000   0x0000000000000000   0x0000000000000000   0x0000000000000000   0x0000000000000000
0x01a5        0x0000000000000000   0x0000000000000000   0x0000000000000000   0x0000000000000000   0x0000000000000000   0x0000000000000000
0x01a6        0x0000000000000000   0x0000000000000000   0x0000000000000000   0x0000000000000000   0x0000000000000000   0x0000000000000000
0x01a7        0x0000000000000000   0x0000000000000000   0x0000000000000000   0x0000000000000000   0x0000000000000000   0x0000000000000000
0x01a8        0x0000000000000000   0x0000000000000000   0x0000000000000000   0x0000000000000000   0x0000000000000000   0x0000000000000000
0x01a9        0x0000000000000000   0x0000000000000000   0x0000000000000000   0x0000000000000000   0x0000000000000000   0x0000000000000000
0x01aa        0x0000000000000000   0x0000000000000000   0x0000000000000000   0x0000000000000000   0x0000000000000000   0x0000000000000000
0x01ab        0x0000000000000000   0x0000000000000000   0x0000000000000000   0x0000000000000000   0x0000000000000000   0x0000000000000000
0x01ac        0x0000000000000000   0x0000000000000000   0x0000000000000000   0x0000000000000000   0x0000000000000000   0x0000000000000000
0x01ad        0x0000000000000000   0x0000000000000000   0x0000000000000000   0x0000000000000000   0x0000000000000000   0x0000000000000000
0x01ae        0x0000000000000000   0x0000000000000000   0x0000000000000000   0x0000000000000000   0x0000000000000000   0x0000000000000000
0x01af        0x0000000000000000   0x0000000000000000   0x0000000000000000   0x0000000000000000   0x0000000000000000   0x0000000000000000
0x01b0        0x0000000000000000   0x0000000000000000   0x0000000000000000   0x0000000000000000   0x0000000000000000   0x0000000000000000
0x01b1        0x0000000000000000   0x0000000000000000   0x0000000000000000   0x0000000000000000   0x0000000000000000   0x0000000000000000
0x01b2        0x0000000000000000   0x0000000000000000   0x0000000000000000   0x0000000000000000   0x0000000000000000   0x0000000000000000
0x01b3        0x0000000000000000   0x0000000000000000   0x0000000000000000   0x0000000000000000   0x0000000000000000   0x0000000000000000
0x01b4        0x0000000000000000   0x0000000000000000   0x0000000000000000   0x0000000000000000   0x0000000000000000   0x0000000000000000
0x01b5        0x0000000000000000   0x0000000000000000   0x0000000000000000   0x0000000000000000   0x0000000000000000   0x0000000000000000
0x01b6        0x0000000000000000   0x0000000000000000   0x0000000000000000   0x0000000000000000   0x0000000000000000   0x0000000000000000
0x01b7        0x0000000000000000   0x0000000000000000   0x0000000000000000   0x0000000000000000   0x0000000000000000   0x0000000000000000
0x01b8        0x0000000000000000   0x0000000000000000   0x0000000000000000   0x0000000000000000   0x0000000000000000   0x0000000000000000
0x01b9        0x0000000000000000   0x0000000000000000   0x0000000000000000   0x0000000000000000   0x0000000000000000   0x0000000000000000
0x01ba        0x0000000000000000   0x0000000000000000   0x0000000000000000   0x0000000000000000   0x0000000000000000   0x0000000000000000
0x01bb        0x0000000000000000   0x0000000000000000   0x0000000000000000   0x0000000000000000   0x0000000000000000   0x0000000000000000
0x01bc        0x0000000000000000   0x0000000000000000   0x0000000000000000   0x0000000000000000   0x0000000000000000   0x0000000000000000
0x01bd        0x0000000000000000   0x0000000000000000   0x0000000000000000   0x0000000000000000   0x0000000000000000   0x0000000000000000
0x01be        0x0000000000000000   0x0000000000000000   0x0000000000000000   0x0000000000000000   0x0000000000000000   0x0000000000000000
0x01bf        0x0000000000000000   0x0000000000000000   0x0000000000000000   0x0000000000000000   0x0000000000000000   0x0000000000000000
0x01c0        0x0000000000000000   0x0000000000000000   0x0000000000000000   0x0000000000000000   0x0000000000000000   0x0000000000000000
0x01c1        0x0000000000000000   0x0000000000000000   0x0000000000000000   0x0000000000000000   0x0000000000000000   0x0000000000000000
0x01c2        0x0C03A0630001C00B   0x0000000000000000   0x0000000000000000   0x0000000000000000   0x0000000000000000   0x0000000000000000
0x01c3        0x0000EF22EBFD8004   0x0000000000000000   0x0000000000000000   0x0000000000000000   0x0000000000000000   0x0000000000000000
0x01c4        0x0000000000000000   0x0000000000000000   0x0000000000000000   0x0000000000000000   0x0000000000000000   0x0000000000000000
0x01c5        0x1C03A662F8038087   0x0000000000000000   0x0000000000000000   0x0000000000000000   0x0000000000000000   0x0000000000000000
0x01c6        0x1C03A342E805C019   0x0000000000000000   0x0000000000000000   0x0000000000000000   0x0000000000000000   0x0000000000000000
0x01c7        0x0000F22258028011   0x0000000000000000   0x0000000000000000   0x0000000000000000   0x0000000000000000   0x0000000000000000
0x01c8        0x0C03A65EC80B8008   0x0000000000000000   0x0000000000000000   0x0000000000000000   0x0000000000000000   0x0000000000000000
0x01c9        0x0000000000000000   0x0000000000000000   0x0000000000000000   0x0000000000000000   0x0000000000000000   0x0000000000000000
0x01ca        0x0000000000000000   0x0000000000000000   0x0000000000000000   0x0000000000000000   0x0000000000000000   0x0000000000000000
0x01cb        0x1C03AB6130204015   0x0000000000000000   0x0000000000000000   0x0000000000000000   0x0000000000000000   0x0000000000000000
0x01cc        0x0000000000000000   0x0000000000000000   0x0000000000000000   0x0000000000000000   0x0000000000000000   0x0000000000000000
0x01cd        0x0000000000000000   0x0000000000000000   0x0000000000000000   0x0000000000000000   0x0000000000000000   0x0000000000000000
0x01ce        0x0403A642BC080008   0x0000000000000000   0x0000000000000000   0x0000000000000000   0x0000000000000000   0x0000000000000000
0x01cf        0x0000000000000000   0x0000000000000000   0x0000000000000000   0x0000000000000000   0x0000000000000000   0x0000000000000000
0x01d0        0x0000000000000000   0x0000000000000000   0x0000000000000000   0x0000000000000000   0x0000000000000000   0x0000000000000000
0x01d1        0x0000000000000000   0x0000000000000000   0x0000000000000000   0x0000000000000000   0x0000000000000000   0x0000000000000000
0x01d2        0x0000000000000000   0x0000000000000000   0x0000000000000000   0x0000000000000000   0x0000000000000000   0x0000000000000000
0x01d3        0x0000000000000000   0x0000000000000000   0x0000000000000000   0x0000000000000000   0x0000000000000000   0x0000000000000000
0x01d4        0x00046D21481E8005   0x0000000000000000   0x0000000000000000   0x0000000000000000   0x0000000000000000   0x0000000000000000
0x01d5        0x0000000000000000   0x0000000000000000   0x0000000000000000   0x0000000000000000   0x0000000000000000   0x0000000000000000
0x01d6        0x0000000000000000   0x0000000000000000   0x0000000000000000   0x0000000000000000   0x0000000000000000   0x0000000000000000
0x01d7        0x0C03A040FC518011   0x0C03A240C453C00D   0x0000000000000000   0x0000000000000000   0x0000000000000000   0x0000000000000000
0x01d8        0x0C03A040FC518011   0x0000000000000000   0x0000000000000000   0x0000000000000000   0x0000000000000000   0x0000000000000000
0x01d9        0x0403A0416049C00E   0x0000000000000000   0x0000000000000000   0x0000000000000000   0x0000000000000000   0x0000000000000000
0x01da        0x1C03A960D452004C   0x0000000000000000   0x0000000000000000   0x0000000000000000   0x0000000000000000   0x0000000000000000
0x01db        0x14039F40C856C022   0x0000000000000000   0x0000000000000000   0x0000000000000000   0x0000000000000000   0x0000000000000000
0x01dc        0x0C03A260B855C00C   0x0000000000000000   0x0000000000000000   0x0000000000000000   0x0000000000000000   0x0000000000000000
0x01dd        0x0000000000000000   0x0000000000000000   0x0000000000000000   0x0000000000000000   0x0000000000000000   0x0000000000000000
0x01de        0x0000000000000000   0x0000000000000000   0x0000000000000000   0x0000000000000000   0x0000000000000000   0x0000000000000000
0x01df        0x0000000000000000   0x0000000000000000   0x0000000000000000   0x0000000000000000   0x0000000000000000   0x0000000000000000
0x01e0        0x0000000000000000   0x0000000000000000   0x0000000000000000   0x0000000000000000   0x0000000000000000   0x0000000000000000
0x01e1        0x0000000000000000   0x0000000000000000   0x0000000000000000   0x0000000000000000   0x0000000000000000   0x0000000000000000
0x01e2        0x0000000000000000   0x0000000000000000   0x0000000000000000   0x0000000000000000   0x0000000000000000   0x0000000000000000
0x01e3        0x0403A65F77E0C009   0x0000000000000000   0x0000000000000000   0x0000000000000000   0x0000000000000000   0x0000000000000000
0x01e4        0x0000000000000000   0x0000000000000000   0x0000000000000000   0x0000000000000000   0x0000000000000000   0x0000000000000000
0x01e5        0x0000000000000000   0x0000000000000000   0x0000000000000000   0x0000000000000000   0x0000000000000000   0x0000000000000000
0x01e6        0x0000000000000000   0x0000000000000000   0x0000000000000000   0x0000000000000000   0x0000000000000000   0x0000000000000000
0x01e7        0x0000000000000000   0x0000000000000000   0x0000000000000000   0x0000000000000000   0x0000000000000000   0x0000000000000000
0x01e8        0x0000000000000000   0x0000000000000000   0x0000000000000000   0x0000000000000000   0x0000000000000000   0x0000000000000000
0x01e9        0x0C03D16457D1800B   0x0000000000000000   0x0000000000000000   0x0000000000000000   0x0000000000000000   0x0000000000000000
0x01ea        0x0000000000000000   0x0000000000000000   0x0000000000000000   0x0000000000000000   0x0000000000000000   0x0000000000000000
0x01eb        0x0000000000000000   0x0000000000000000   0x0000000000000000   0x0000000000000000   0x0000000000000000   0x0000000000000000
0x01ec        0x0000000000000000   0x0000000000000000   0x0000000000000000   0x0000000000000000   0x0000000000000000   0x0000000000000000
0x01ed        0x0000000000000000   0x0000000000000000   0x0000000000000000   0x0000000000000000   0x0000000000000000   0x0000000000000000
0x01ee        0x0000000000000000   0x0000000000000000   0x0000000000000000   0x0000000000000000   0x0000000000000000   0x0000000000000000
0x01ef        0x0C03D05FC3EB800E   0x0000000000000000   0x0000000000000000   0x0000000000000000   0x0000000000000000   0x0000000000000000
0x01f0        0x0000000000000000   0x0000000000000000   0x0000000000000000   0x0000000000000000   0x0000000000000000   0x0000000000000000
0x01f1        0x0000000000000000   0x0000000000000000   0x0000000000000000   0x0000000000000000   0x0000000000000000   0x0000000000000000
0x01f2        0x1C03D144A7D18031   0x0000000000000000   0x0000000000000000   0x0000000000000000   0x0000000000000000   0x0000000000000000
0x01f3        0x1C03CF648FD1C024   0x0000000000000000   0x0000000000000000   0x0000000000000000   0x0000000000000000   0x0000000000000000
0x01f4        0x0C03D764CFD2800C   0x0000000000000000   0x0000000000000000   0x0000000000000000   0x0000000000000000   0x0000000000000000
0x01f5        0x0000000000000000   0x0000000000000000   0x0000000000000000   0x0000000000000000   0x0000000000000000   0x0000000000000000
0x01f6        0x0000000000000000   0x0000000000000000   0x0000000000000000   0x0000000000000000   0x0000000000000000   0x0000000000000000
0x01f7        0x0000000000000000   0x0000000000000000   0x0000000000000000   0x0000000000000000   0x0000000000000000   0x0000000000000000
0x01f8        0x0000000000000000   0x0000000000000000   0x0000000000000000   0x0000000000000000   0x0000000000000000   0x0000000000000000
0x01f9        0x0000000000000000   0x0000000000000000   0x0000000000000000   0x0000000000000000   0x0000000000000000   0x0000000000000000
0x01fa        0x0000000000000000   0x0000000000000000   0x0000000000000000   0x0000000000000000   0x0000000000000000   0x0000000000000000
0x01fb        0x1C03D562A418002B   0x00049923B8178007   0x0000000000000000   0x0000000000000000   0x0000000000000000   0x0000000000000000
0x01fc        0x1C03D542AC178016   0x0000000000000000   0x0000000000000000   0x0000000000000000   0x0000000000000000   0x0000000000000000
0x01fd        0x0C03D462B81C0014   0x0000000000000000   0x0000000000000000   0x0000000000000000   0x0000000000000000   0x0000000000000000
0x01fe        0x0000000000000000   0x0000000000000000   0x0000000000000000   0x0000000000000000   0x0000000000000000   0x0000000000000000
0x01ff        0x0000000000000000   0x0000000000000000   0x0000000000000000   0x0000000000000000   0x0000000000000000   0x0000000000000000
0x0200        0x0000000000000000   0x0000000000000000   0x0000000000000000   0x0000000000000000   0x0000000000000000   0x0000000000000000
0x0201        0x0000000000000000   0x0000000000000000   0x0000000000000000   0x0000000000000000   0x0000000000000000   0x0000000000000000
0x0202        0x0000000000000000   0x0000000000000000   0x0000000000000000   0x0000000000000000   0x0000000000000000   0x0000000000000000
0x0203        0x0000000000000000   0x0000000000000000   0x0000000000000000   0x0000000000000000   0x0000000000000000   0x0000000000000000
0x0204        0x00010004DC0B00CF   0x0000000000000000   0x0000000000000000   0x0000000000000000   0x0000000000000000   0x0000000000000000
0x0205        0x0C03D564B009400E   0x0000000000000000   0x0000000000000000   0x0000000000000000   0x0000000000000000   0x0000000000000000
0x0206        0x0C03D242A0184009   0x0000000000000000   0x0000000000000000   0x0000000000000000   0x0000000000000000   0x0000000000000000
0x0207        0x0000000000000000   0x0000000000000000   0x0000000000000000   0x0000000000000000   0x0000000000000000   0x0000000000000000
0x0208        0x0000000000000000   0x0000000000000000   0x0000000000000000   0x0000000000000000   0x0000000000000000   0x0000000000000000
0x0209        0x0000000000000000   0x0000000000000000   0x0000000000000000   0x0000000000000000   0x0000000000000000   0x0000000000000000
0x020a        0x0000000000000000   0x0000000000000000   0x0000000000000000   0x0000000000000000   0x0000000000000000   0x0000000000000000
0x020b        0x0000000000000000   0x0000000000000000   0x0000000000000000   0x0000000000000000   0x0000000000000000   0x0000000000000000
0x020c        0x0000000000000000   0x0000000000000000   0x0000000000000000   0x0000000000000000   0x0000000000000000   0x0000000000000000
0x020d        0x0000000000000000   0x0000000000000000   0x0000000000000000   0x0000000000000000   0x0000000000000000   0x0000000000000000
0x020e        0x0000000000000000   0x0000000000000000   0x0000000000000000   0x0000000000000000   0x0000000000000000   0x0000000000000000
0x020f        0x0000000000000000   0x0000000000000000   0x0000000000000000   0x0000000000000000   0x0000000000000000   0x0000000000000000
0x0210        0x0000000000000000   0x0000000000000000   0x0000000000000000   0x0000000000000000   0x0000000000000000   0x0000000000000000
0x0211        0x0000000000000000   0x0000000000000000   0x0000000000000000   0x0000000000000000   0x0000000000000000   0x0000000000000000
0x0212        0x0000000000000000   0x0000000000000000   0x0000000000000000   0x0000000000000000   0x0000000000000000   0x0000000000000000
0x0213        0x0000000000000000   0x0000000000000000   0x0000000000000000   0x0000000000000000   0x0000000000000000   0x0000000000000000
0x0214        0x0000000000000000   0x0000000000000000   0x0000000000000000   0x0000000000000000   0x0000000000000000   0x0000000000000000
0x0215        0x0000000000000000   0x0000000000000000   0x0000000000000000   0x0000000000000000   0x0000000000000000   0x0000000000000000
0x0216        0x0000000000000000   0x0000000000000000   0x0000000000000000   0x0000000000000000   0x0000000000000000   0x0000000000000000
0x0217        0x0000000000000000   0x0000000000000000   0x0000000000000000   0x0000000000000000   0x0000000000000000   0x0000000000000000
0x0218        0x0000000000000000   0x0000000000000000   0x0000000000000000   0x0000000000000000   0x0000000000000000   0x0000000000000000
0x0219        0x0000000000000000   0x0000000000000000   0x0000000000000000   0x0000000000000000   0x0000000000000000   0x0000000000000000
0x021a        0x0000000000000000   0x0000000000000000   0x0000000000000000   0x0000000000000000   0x0000000000000000   0x0000000000000000
0x021b        0x0000000000000000   0x0000000000000000   0x0000000000000000   0x0000000000000000   0x0000000000000000   0x0000000000000000
0x021c        0x0C00674073ADC00F   0x0000000000000000   0x0000000000000000   0x0000000000000000   0x0000000000000000   0x0000000000000000
0x021d        0x0000000000000000   0x0000000000000000   0x0000000000000000   0x0000000000000000   0x0000000000000000   0x0000000000000000
0x021e        0x0000000000000000   0x0000000000000000   0x0000000000000000   0x0000000000000000   0x0000000000000000   0x0000000000000000
0x021f        0x0000000000000000   0x0000000000000000   0x0000000000000000   0x0000000000000000   0x0000000000000000   0x0000000000000000
0x0220        0x0000000000000000   0x0000000000000000   0x0000000000000000   0x0000000000000000   0x0000000000000000   0x0000000000000000
0x0221        0x0000000000000000   0x0000000000000000   0x0000000000000000   0x0000000000000000   0x0000000000000000   0x0000000000000000
0x0222        0x04005F4323B5000D   0x0000000000000000   0x0000000000000000   0x0000000000000000   0x0000000000000000   0x0000000000000000
0x0223        0x0C0064444BBB800A   0x0000000000000000   0x0000000000000000   0x0000000000000000   0x0000000000000000   0x0000000000000000
0x0224        0x0000000000000000   0x0000000000000000   0x0000000000000000   0x0000000000000000   0x0000000000000000   0x0000000000000000
0x0225        0x0000000000000000   0x0000000000000000   0x0000000000000000   0x0000000000000000   0x0000000000000000   0x0000000000000000
0x0226        0x0000000000000000   0x0000000000000000   0x0000000000000000   0x0000000000000000   0x0000000000000000   0x0000000000000000
0x0227        0x0000000000000000   0x0000000000000000   0x0000000000000000   0x0000000000000000   0x0000000000000000   0x0000000000000000
0x0228        0x0000000000000000   0x0000000000000000   0x0000000000000000   0x0000000000000000   0x0000000000000000   0x0000000000000000
0x0229        0x0000000000000000   0x0000000000000000   0x0000000000000000   0x0000000000000000   0x0000000000000000   0x0000000000000000
0x022a        0x0000000000000000   0x0000000000000000   0x0000000000000000   0x0000000000000000   0x0000000000000000   0x0000000000000000
0x022b        0x1C005E4377F3001A   0x0000000000000000   0x0000000000000000   0x0000000000000000   0x0000000000000000   0x0000000000000000
0x022c        0x0000000000000000   0x0000000000000000   0x0000000000000000   0x0000000000000000   0x0000000000000000   0x0000000000000000
0x022d        0x0000000000000000   0x0000000000000000   0x0000000000000000   0x0000000000000000   0x0000000000000000   0x0000000000000000
0x022e        0x1C005E6373F6405B   0x0000000000000000   0x0000000000000000   0x0000000000000000   0x0000000000000000   0x0000000000000000
0x022f        0x0000FD237BFB801E   0x0000000000000000   0x0000000000000000   0x0000000000000000   0x0000000000000000   0x0000000000000000
0x0230        0x0000550353F9C007   0x0000000000000000   0x0000000000000000   0x0000000000000000   0x0000000000000000   0x0000000000000000
0x0231        0x0C005D634002400D   0x0000000000000000   0x0000000000000000   0x0000000000000000   0x0000000000000000   0x0000000000000000
0x0232        0x0000000000000000   0x0000000000000000   0x0000000000000000   0x0000000000000000   0x0000000000000000   0x0000000000000000
0x0233        0x0000000000000000   0x0000000000000000   0x0000000000000000   0x0000000000000000   0x0000000000000000   0x0000000000000000
0x0234        0x0C00605ED40F0012   0x0000000000000000   0x0000000000000000   0x0000000000000000   0x0000000000000000   0x0000000000000000
0x0235        0x0000000000000000   0x0000000000000000   0x0000000000000000   0x0000000000000000   0x0000000000000000   0x0000000000000000
0x0236        0x0000000000000000   0x0000000000000000   0x0000000000000000   0x0000000000000000   0x0000000000000000   0x0000000000000000
0x0237        0x0000000000000000   0x0000000000000000   0x0000000000000000   0x0000000000000000   0x0000000000000000   0x0000000000000000
0x0238        0x0000000000000000   0x0000000000000000   0x0000000000000000   0x0000000000000000   0x0000000000000000   0x0000000000000000
0x0239        0x0000000000000000   0x0000000000000000   0x0000000000000000   0x0000000000000000   0x0000000000000000   0x0000000000000000
0x023a        0x0C005B43F802C00B   0x0000000000000000   0x0000000000000000   0x0000000000000000   0x0000000000000000   0x0000000000000000
0x023b        0x0000000000000000   0x0000000000000000   0x0000000000000000   0x0000000000000000   0x0000000000000000   0x0000000000000000
0x023c        0x0000000000000000   0x0000000000000000   0x0000000000000000   0x0000000000000000   0x0000000000000000   0x0000000000000000
0x023d        0x0000000000000000   0x0000000000000000   0x0000000000000000   0x0000000000000000   0x0000000000000000   0x0000000000000000
0x023e        0x0000000000000000   0x0000000000000000   0x0000000000000000   0x0000000000000000   0x0000000000000000   0x0000000000000000
0x023f        0x0000000000000000   0x0000000000000000   0x0000000000000000   0x0000000000000000   0x0000000000000000   0x0000000000000000
0x0240        0x0000000000000000   0x0000000000000000   0x0000000000000000   0x0000000000000000   0x0000000000000000   0x0000000000000000
0x0241        0x0000000000000000   0x0000000000000000   0x0000000000000000   0x0000000000000000   0x0000000000000000   0x0000000000000000
0x0242        0x0000000000000000   0x0000000000000000   0x0000000000000000   0x0000000000000000   0x0000000000000000   0x0000000000000000
0x0243        0x0000000000000000   0x0000000000000000   0x0000000000000000   0x0000000000000000   0x0000000000000000   0x0000000000000000
0x0244        0x0000000000000000   0x0000000000000000   0x0000000000000000   0x0000000000000000   0x0000000000000000   0x0000000000000000
0x0245        0x0000000000000000   0x0000000000000000   0x0000000000000000   0x0000000000000000   0x0000000000000000   0x0000000000000000
0x0246        0x0000000000000000   0x0000000000000000   0x0000000000000000   0x0000000000000000   0x0000000000000000   0x0000000000000000
0x0247        0x0000000000000000   0x0000000000000000   0x0000000000000000   0x0000000000000000   0x0000000000000000   0x0000000000000000
0x0248        0x0000000000000000   0x0000000000000000   0x0000000000000000   0x0000000000000000   0x0000000000000000   0x0000000000000000
0x0249        0x0000B6032FB4C02E   0x0000000000000000   0x0000000000000000   0x0000000000000000   0x0000000000000000   0x0000000000000000
0x024a        0x14005B42BFB1C01D   0x0000000000000000   0x0000000000000000   0x0000000000000000   0x0000000000000000   0x0000000000000000
0x024b        0x0C005E62FBB0C014   0x0000000000000000   0x0000000000000000   0x0000000000000000   0x0000000000000000   0x0000000000000000
0x024c        0x0000000000000000   0x0000000000000000   0x0000000000000000   0x0000000000000000   0x0000000000000000   0x0000000000000000
0x024d        0x0000000000000000   0x0000000000000000   0x0000000000000000   0x0000000000000000   0x0000000000000000   0x0000000000000000
0x024e        0x0000000000000000   0x0000000000000000   0x0000000000000000   0x0000000000000000   0x0000000000000000   0x0000000000000000
0x024f        0x0000000000000000   0x0000000000000000   0x0000000000000000   0x0000000000000000   0x0000000000000000   0x0000000000000000
0x0250        0x0000000000000000   0x0000000000000000   0x0000000000000000   0x0000000000000000   0x0000000000000000   0x0000000000000000
0x0251        0x0000000000000000   0x0000000000000000   0x0000000000000000   0x0000000000000000   0x0000000000000000   0x0000000000000000
0x0252        0x0000000000000000   0x0000000000000000   0x0000000000000000   0x0000000000000000   0x0000000000000000   0x0000000000000000
0x0253        0x0000000000000000   0x0000000000000000   0x0000000000000000   0x0000000000000000   0x0000000000000000   0x0000000000000000
0x0254        0x0000000000000000   0x0000000000000000   0x0000000000000000   0x0000000000000000   0x0000000000000000   0x0000000000000000
0x0255        0x0004B823BBCF8017   0x0000000000000000   0x0000000000000000   0x0000000000000000   0x0000000000000000   0x0000000000000000
0x0256        0x0000000000000000   0x0000000000000000   0x0000000000000000   0x0000000000000000   0x0000000000000000   0x0000000000000000
0x0257        0x0000000000000000   0x0000000000000000   0x0000000000000000   0x0000000000000000   0x0000000000000000   0x0000000000000000
0x0258        0x140013455FC2C01B   0x0000000000000000   0x0000000000000000   0x0000000000000000   0x0000000000000000   0x0000000000000000
0x0259        0x04000964FBC34013   0x0000000000000000   0x0000000000000000   0x0000000000000000   0x0000000000000000   0x0000000000000000
0x025a        0x0400106553C6400A   0x0000000000000000   0x0000000000000000   0x0000000000000000   0x0000000000000000   0x0000000000000000
0x025b        0x0000000000000000   0x0000000000000000   0x0000000000000000   0x0000000000000000   0x0000000000000000   0x0000000000000000
0x025c        0x0000000000000000   0x0000000000000000   0x0000000000000000   0x0000000000000000   0x0000000000000000   0x0000000000000000
0x025d        0x0000000000000000   0x0000000000000000   0x0000000000000000   0x0000000000000000   0x0000000000000000   0x0000000000000000
0x025e        0x04000D451FCAC010   0x000028053BCF0007   0x0000000000000000   0x0000000000000000   0x0000000000000000   0x0000000000000000
0x025f        0x04001044B3C8800D   0x0000000000000000   0x0000000000000000   0x0000000000000000   0x0000000000000000   0x0000000000000000
0x0260        0x0C00096577CD400C   0x0000000000000000   0x0000000000000000   0x0000000000000000   0x0000000000000000   0x0000000000000000
0x0261        0x0000000000000000   0x0000000000000000   0x0000000000000000   0x0000000000000000   0x0000000000000000   0x0000000000000000
0x0262        0x0000000000000000   0x0000000000000000   0x0000000000000000   0x0000000000000000   0x0000000000000000   0x0000000000000000
0x0263        0x0000000000000000   0x0000000000000000   0x0000000000000000   0x0000000000000000   0x0000000000000000   0x0000000000000000
0x0264        0x0000000000000000   0x0000000000000000   0x0000000000000000   0x0000000000000000   0x0000000000000000   0x0000000000000000
0x0265        0x0000000000000000   0x0000000000000000   0x0000000000000000   0x0000000000000000   0x0000000000000000   0x0000000000000000
0x0266        0x0000000000000000   0x0000000000000000   0x0000000000000000   0x0000000000000000   0x0000000000000000   0x0000000000000000
0x0267        0x0000000000000000   0x0000000000000000   0x0000000000000000   0x0000000000000000   0x0000000000000000   0x0000000000000000
0x0268        0x0000000000000000   0x0000000000000000   0x0000000000000000   0x0000000000000000   0x0000000000000000   0x0000000000000000
0x0269        0x0000000000000000   0x0000000000000000   0x0000000000000000   0x0000000000000000   0x0000000000000000   0x0000000000000000
0x026a        0x0000000000000000   0x0000000000000000   0x0000000000000000   0x0000000000000000   0x0000000000000000   0x0000000000000000
0x026b        0x0000000000000000   0x0000000000000000   0x0000000000000000   0x0000000000000000   0x0000000000000000   0x0000000000000000
0x026c        0x0000000000000000   0x0000000000000000   0x0000000000000000   0x0000000000000000   0x0000000000000000   0x0000000000000000
0x026d        0x0C000E5ED82C800D   0x0000000000000000   0x0000000000000000   0x0000000000000000   0x0000000000000000   0x0000000000000000
0x026e        0x0000000000000000   0x0000000000000000   0x0000000000000000   0x0000000000000000   0x0000000000000000   0x0000000000000000
0x026f        0x0000000000000000   0x0000000000000000   0x0000000000000000   0x0000000000000000   0x0000000000000000   0x0000000000000000
0x0270        0x0000C3058C1B8034   0x0C0002445812800B   0x0000000000000000   0x0000000000000000   0x0000000000000000   0x0000000000000000
0x0271        0x14001184F01B4018   0x0004A6249813800B   0x0000000000000000   0x0000000000000000   0x0000000000000000   0x0000000000000000
0x0272        0x0C000F44BC180011   0x04000343F801C009   0x0000000000000000   0x0000000000000000   0x0000000000000000   0x0000000000000000
0x0273        0x0C000C64E41CC014   0x0000000000000000   0x0000000000000000   0x0000000000000000   0x0000000000000000   0x0000000000000000
0x0274        0x0000D324B81D8013   0x0000000000000000   0x0000000000000000   0x0000000000000000   0x0000000000000000   0x0000000000000000
0x0275        0x04000642D4318008   0x0000000000000000   0x0000000000000000   0x0000000000000000   0x0000000000000000   0x0000000000000000
0x0276        0x0400106410204008   0x0000000000000000   0x0000000000000000   0x0000000000000000   0x0000000000000000   0x0000000000000000
0x0277        0x0000000000000000   0x0000000000000000   0x0000000000000000   0x0000000000000000   0x0000000000000000   0x0000000000000000
0x0278        0x0000000000000000   0x0000000000000000   0x0000000000000000   0x0000000000000000   0x0000000000000000   0x0000000000000000
0x0279        0x0000000000000000   0x0000000000000000   0x0000000000000000   0x0000000000000000   0x0000000000000000   0x0000000000000000
0x027a        0x0000000000000000   0x0000000000000000   0x0000000000000000   0x0000000000000000   0x0000000000000000   0x0000000000000000
0x027b        0x0000000000000000   0x0000000000000000   0x0000000000000000   0x0000000000000000   0x0000000000000000   0x0000000000000000
0x027c        0x0000000000000000   0x0000000000000000   0x0000000000000000   0x0000000000000000   0x0000000000000000   0x0000000000000000
0x027d        0x0000000000000000   0x0000000000000000   0x0000000000000000   0x0000000000000000   0x0000000000000000   0x0000000000000000
0x027e        0x0000000000000000   0x0000000000000000   0x0000000000000000   0x0000000000000000   0x0000000000000000   0x0000000000000000
0x027f        0x0000000000000000   0x0000000000000000   0x0000000000000000   0x0000000000000000   0x0000000000000000   0x0000000000000000
0x0280        0x0000000000000000   0x0000000000000000   0x0000000000000000   0x0000000000000000   0x0000000000000000   0x0000000000000000
0x0281        0x0000000000000000   0x0000000000000000   0x0000000000000000   0x0000000000000000   0x0000000000000000   0x0000000000000000
0x0282        0x0000000000000000   0x0000000000000000   0x0000000000000000   0x0000000000000000   0x0000000000000000   0x0000000000000000
0x0283        0x0000000000000000   0x0000000000000000   0x0000000000000000   0x0000000000000000   0x0000000000000000   0x0000000000000000
0x0284        0x0000000000000000   0x0000000000000000   0x0000000000000000   0x0000000000000000   0x0000000000000000   0x0000000000000000
0x0285        0x0000000000000000   0x0000000000000000   0x0000000000000000   0x0000000000000000   0x0000000000000000   0x0000000000000000
0x0286        0x0000000000000000   0x0000000000000000   0x0000000000000000   0x0000000000000000   0x0000000000000000   0x0000000000000000
0x0287        0x0000000000000000   0x0000000000000000   0x0000000000000000   0x0000000000000000   0x0000000000000000   0x0000000000000000
0x0288        0x0000000000000000   0x0000000000000000   0x0000000000000000   0x0000000000000000   0x0000000000000000   0x0000000000000000
0x0289        0x0000000000000000   0x0000000000000000   0x0000000000000000   0x0000000000000000   0x0000000000000000   0x0000000000000000
0x028a        0x0000000000000000   0x0000000000000000   0x0000000000000000   0x0000000000000000   0x0000000000000000   0x0000000000000000
0x028b        0x0000000000000000   0x0000000000000000   0x0000000000000000   0x0000000000000000   0x0000000000000000   0x0000000000000000
0x028c        0x0000000000000000   0x0000000000000000   0x0000000000000000   0x0000000000000000   0x0000000000000000   0x0000000000000000
0x028d        0x0000000000000000   0x0000000000000000   0x0000000000000000   0x0000000000000000   0x0000000000000000   0x0000000000000000
0x028e        0x0000000000000000   0x0000000000000000   0x0000000000000000   0x0000000000000000   0x0000000000000000   0x0000000000000000
0x028f        0x0000000000000000   0x0000000000000000   0x0000000000000000   0x0000000000000000   0x0000000000000000   0x0000000000000000
0x0290        0x0000000000000000   0x0000000000000000   0x0000000000000000   0x0000000000000000   0x0000000000000000   0x0000000000000000
0x0291        0x0000000000000000   0x0000000000000000   0x0000000000000000   0x0000000000000000   0x0000000000000000   0x0000000000000000
0x0292        0x0000000000000000   0x0000000000000000   0x0000000000000000   0x0000000000000000   0x0000000000000000   0x0000000000000000
0x0293        0x0000000000000000   0x0000000000000000   0x0000000000000000   0x0000000000000000   0x0000000000000000   0x0000000000000000
0x0294        0x0000000000000000   0x0000000000000000   0x0000000000000000   0x0000000000000000   0x0000000000000000   0x0000000000000000
0x0295        0x0000000000000000   0x0000000000000000   0x0000000000000000   0x0000000000000000   0x0000000000000000   0x0000000000000000
0x0296        0x0000000000000000   0x0000000000000000   0x0000000000000000   0x0000000000000000   0x0000000000000000   0x0000000000000000
0x0297        0x0000000000000000   0x0000000000000000   0x0000000000000000   0x0000000000000000   0x0000000000000000   0x0000000000000000
0x0298        0x0000000000000000   0x0000000000000000   0x0000000000000000   0x0000000000000000   0x0000000000000000   0x0000000000000000
0x0299        0x0000000000000000   0x0000000000000000   0x0000000000000000   0x0000000000000000   0x0000000000000000   0x0000000000000000
0x029a        0x0000000000000000   0x0000000000000000   0x0000000000000000   0x0000000000000000   0x0000000000000000   0x0000000000000000
0x029b        0x0000000000000000   0x0000000000000000   0x0000000000000000   0x0000000000000000   0x0000000000000000   0x0000000000000000
0x029c        0x0000000000000000   0x0000000000000000   0x0000000000000000   0x0000000000000000   0x0000000000000000   0x0000000000000000
0x029d        0x0000000000000000   0x0000000000000000   0x0000000000000000   0x0000000000000000   0x0000000000000000   0x0000000000000000
0x029e        0x0000000000000000   0x0000000000000000   0x0000000000000000   0x0000000000000000   0x0000000000000000   0x0000000000000000
0x029f        0x0000000000000000   0x0000000000000000   0x0000000000000000   0x0000000000000000   0x0000000000000000   0x0000000000000000
0x02a0        0x0000000000000000   0x0000000000000000   0x0000000000000000   0x0000000000000000   0x0000000000000000   0x0000000000000000
0x02a1        0x0000000000000000   0x0000000000000000   0x0000000000000000   0x0000000000000000   0x0000000000000000   0x0000000000000000
0x02a2        0x0000000000000000   0x0000000000000000   0x0000000000000000   0x0000000000000000   0x0000000000000000   0x0000000000000000
0x02a3        0x0000000000000000   0x0000000000000000   0x0000000000000000   0x0000000000000000   0x0000000000000000   0x0000000000000000
0x02a4        0x0000000000000000   0x0000000000000000   0x0000000000000000   0x0000000000000000   0x0000000000000000   0x0000000000000000
0x02a5        0x0000000000000000   0x0000000000000000   0x0000000000000000   0x0000000000000000   0x0000000000000000   0x0000000000000000
0x02a6        0x0000000000000000   0x0000000000000000   0x0000000000000000   0x0000000000000000   0x0000000000000000   0x0000000000000000
0x02a7        0x0000000000000000   0x0000000000000000   0x0000000000000000   0x0000000000000000   0x0000000000000000   0x0000000000000000
0x02a8        0x0000000000000000   0x0000000000000000   0x0000000000000000   0x0000000000000000   0x0000000000000000   0x0000000000000000
0x02a9        0x0000000000000000   0x0000000000000000   0x0000000000000000   0x0000000000000000   0x0000000000000000   0x0000000000000000
0x02aa        0x0000000000000000   0x0000000000000000   0x0000000000000000   0x0000000000000000   0x0000000000000000   0x0000000000000000
0x02ab        0x0000000000000000   0x0000000000000000   0x0000000000000000   0x0000000000000000   0x0000000000000000   0x0000000000000000
0x02ac        0x0000000000000000   0x0000000000000000   0x0000000000000000   0x0000000000000000   0x0000000000000000   0x0000000000000000
0x02ad        0x0000000000000000   0x0000000000000000   0x0000000000000000   0x0000000000000000   0x0000000000000000   0x0000000000000000
0x02ae        0x0000000000000000   0x0000000000000000   0x0000000000000000   0x0000000000000000   0x0000000000000000   0x0000000000000000
0x02af        0x0000000000000000   0x0000000000000000   0x0000000000000000   0x0000000000000000   0x0000000000000000   0x0000000000000000
0x02b0        0x0000000000000000   0x0000000000000000   0x0000000000000000   0x0000000000000000   0x0000000000000000   0x0000000000000000
0x02b1        0x0000000000000000   0x0000000000000000   0x0000000000000000   0x0000000000000000   0x0000000000000000   0x0000000000000000
0x02b2        0x0000000000000000   0x0000000000000000   0x0000000000000000   0x0000000000000000   0x0000000000000000   0x0000000000000000
0x02b3        0x0000000000000000   0x0000000000000000   0x0000000000000000   0x0000000000000000   0x0000000000000000   0x0000000000000000
0x02b4        0x0000000000000000   0x0000000000000000   0x0000000000000000   0x0000000000000000   0x0000000000000000   0x0000000000000000
0x02b5        0x0000000000000000   0x0000000000000000   0x0000000000000000   0x0000000000000000   0x0000000000000000   0x0000000000000000
0x02b6        0x0000000000000000   0x0000000000000000   0x0000000000000000   0x0000000000000000   0x0000000000000000   0x0000000000000000
0x02b7        0x0000000000000000   0x0000000000000000   0x0000000000000000   0x0000000000000000   0x0000000000000000   0x0000000000000000
0x02b8        0x0000000000000000   0x0000000000000000   0x0000000000000000   0x0000000000000000   0x0000000000000000   0x0000000000000000
0x02b9        0x0000000000000000   0x0000000000000000   0x0000000000000000   0x0000000000000000   0x0000000000000000   0x0000000000000000
0x02ba        0x0000000000000000   0x0000000000000000   0x0000000000000000   0x0000000000000000   0x0000000000000000   0x0000000000000000
0x02bb        0x0000000000000000   0x0000000000000000   0x0000000000000000   0x0000000000000000   0x0000000000000000   0x0000000000000000
0x02bc        0x0000000000000000   0x0000000000000000   0x0000000000000000   0x0000000000000000   0x0000000000000000   0x0000000000000000
0x02bd        0x0000000000000000   0x0000000000000000   0x0000000000000000   0x0000000000000000   0x0000000000000000   0x0000000000000000
0x02be        0x0000000000000000   0x0000000000000000   0x0000000000000000   0x0000000000000000   0x0000000000000000   0x0000000000000000
0x02bf        0x0000000000000000   0x0000000000000000   0x0000000000000000   0x0000000000000000   0x0000000000000000   0x0000000000000000
0x02c0        0x0000000000000000   0x0000000000000000   0x0000000000000000   0x0000000000000000   0x0000000000000000   0x0000000000000000
0x02c1        0x0000000000000000   0x0000000000000000   0x0000000000000000   0x0000000000000000   0x0000000000000000   0x0000000000000000
0x02c2        0x0000000000000000   0x0000000000000000   0x0000000000000000   0x0000000000000000   0x0000000000000000   0x0000000000000000
0x02c3        0x0000000000000000   0x0000000000000000   0x0000000000000000   0x0000000000000000   0x0000000000000000   0x0000000000000000
0x02c4        0x0000000000000000   0x0000000000000000   0x0000000000000000   0x0000000000000000   0x0000000000000000   0x0000000000000000
0x02c5        0x0000000000000000   0x0000000000000000   0x0000000000000000   0x0000000000000000   0x0000000000000000   0x0000000000000000
0x02c6        0x0000000000000000   0x0000000000000000   0x0000000000000000   0x0000000000000000   0x0000000000000000   0x0000000000000000
0x02c7        0x0000000000000000   0x0000000000000000   0x0000000000000000   0x0000000000000000   0x0000000000000000   0x0000000000000000
0x02c8        0x0000000000000000   0x0000000000000000   0x0000000000000000   0x0000000000000000   0x0000000000000000   0x0000000000000000
0x02c9        0x0000000000000000   0x0000000000000000   0x0000000000000000   0x0000000000000000   0x0000000000000000   0x0000000000000000
0x02ca        0x0000000000000000   0x0000000000000000   0x0000000000000000   0x0000000000000000   0x0000000000000000   0x0000000000000000
0x02cb        0x0000000000000000   0x0000000000000000   0x0000000000000000   0x0000000000000000   0x0000000000000000   0x0000000000000000
0x02cc        0x0000000000000000   0x0000000000000000   0x0000000000000000   0x0000000000000000   0x0000000000000000   0x0000000000000000
0x02cd        0x0000000000000000   0x0000000000000000   0x0000000000000000   0x0000000000000000   0x0000000000000000   0x0000000000000000
0x02ce        0x0000000000000000   0x0000000000000000   0x0000000000000000   0x0000000000000000   0x0000000000000000   0x0000000000000000
0x02cf        0x0000000000000000   0x0000000000000000   0x0000000000000000   0x0000000000000000   0x0000000000000000   0x0000000000000000
0x02d0        0x0000000000000000   0x0000000000000000   0x0000000000000000   0x0000000000000000   0x0000000000000000   0x0000000000000000
0x02d1        0x0000000000000000   0x0000000000000000   0x0000000000000000   0x0000000000000000   0x0000000000000000   0x0000000000000000
0x02d2        0x0000000000000000   0x0000000000000000   0x0000000000000000   0x0000000000000000   0x0000000000000000   0x0000000000000000
