#WordCnt                      T0                   T1                   T2                   T3                   T4                   T5
#BeginData
0x0000        0x0000000000000000   0x0000000000000000   0x0000000000000000   0x0000000000000000   0x0000000000000000   0x0000000000000000
0x0001        0x0000000000000000   0x0000000000000000   0x0000000000000000   0x0000000000000000   0x0000000000000000   0x0000000000000000
0x0002        0x0000000000000000   0x0000000000000000   0x0000000000000000   0x0000000000000000   0x0000000000000000   0x0000000000000000
0x0003        0x04036B41CFD6400D   0x0000000000000000   0x0000000000000000   0x0000000000000000   0x0000000000000000   0x0000000000000000
0x0004        0x0000000000000000   0x0000000000000000   0x0000000000000000   0x0000000000000000   0x0000000000000000   0x0000000000000000
0x0005        0x0000000000000000   0x0000000000000000   0x0000000000000000   0x0000000000000000   0x0000000000000000   0x0000000000000000
0x0006        0x0000000000000000   0x0000000000000000   0x0000000000000000   0x0000000000000000   0x0000000000000000   0x0000000000000000
0x0007        0x0000000000000000   0x0000000000000000   0x0000000000000000   0x0000000000000000   0x0000000000000000   0x0000000000000000
0x0008        0x0000000000000000   0x0000000000000000   0x0000000000000000   0x0000000000000000   0x0000000000000000   0x0000000000000000
0x0009        0x0000000000000000   0x0000000000000000   0x0000000000000000   0x0000000000000000   0x0000000000000000   0x0000000000000000
0x000a        0x0000000000000000   0x0000000000000000   0x0000000000000000   0x0000000000000000   0x0000000000000000   0x0000000000000000
0x000b        0x0000000000000000   0x0000000000000000   0x0000000000000000   0x0000000000000000   0x0000000000000000   0x0000000000000000
0x000c        0x0000000000000000   0x0000000000000000   0x0000000000000000   0x0000000000000000   0x0000000000000000   0x0000000000000000
0x000d        0x0000000000000000   0x0000000000000000   0x0000000000000000   0x0000000000000000   0x0000000000000000   0x0000000000000000
0x000e        0x0000000000000000   0x0000000000000000   0x0000000000000000   0x0000000000000000   0x0000000000000000   0x0000000000000000
0x000f        0x0000000000000000   0x0000000000000000   0x0000000000000000   0x0000000000000000   0x0000000000000000   0x0000000000000000
0x0010        0x0000000000000000   0x0000000000000000   0x0000000000000000   0x0000000000000000   0x0000000000000000   0x0000000000000000
0x0011        0x0000000000000000   0x0000000000000000   0x0000000000000000   0x0000000000000000   0x0000000000000000   0x0000000000000000
0x0012        0x0000EB21FBF6802F   0x0C037241D7FC8010   0x0000000000000000   0x0000000000000000   0x0000000000000000   0x0000000000000000
0x0013        0x0000CA21ABF58023   0x000096222BF4800B   0x0000000000000000   0x0000000000000000   0x0000000000000000   0x0000000000000000
0x0014        0x00026501FFF6801C   0x0000B0224BFB800B   0x0000000000000000   0x0000000000000000   0x0000000000000000   0x0000000000000000
0x0015        0x0000000000000000   0x0000000000000000   0x0000000000000000   0x0000000000000000   0x0000000000000000   0x0000000000000000
0x0016        0x0000000000000000   0x0000000000000000   0x0000000000000000   0x0000000000000000   0x0000000000000000   0x0000000000000000
0x0017        0x0000000000000000   0x0000000000000000   0x0000000000000000   0x0000000000000000   0x0000000000000000   0x0000000000000000
0x0018        0x0000000000000000   0x0000000000000000   0x0000000000000000   0x0000000000000000   0x0000000000000000   0x0000000000000000
0x0019        0x0000000000000000   0x0000000000000000   0x0000000000000000   0x0000000000000000   0x0000000000000000   0x0000000000000000
0x001a        0x0000000000000000   0x0000000000000000   0x0000000000000000   0x0000000000000000   0x0000000000000000   0x0000000000000000
0x001b        0x0403755E94384012   0x0000000000000000   0x0000000000000000   0x0000000000000000   0x0000000000000000   0x0000000000000000
0x001c        0x0000000000000000   0x0000000000000000   0x0000000000000000   0x0000000000000000   0x0000000000000000   0x0000000000000000
0x001d        0x0000000000000000   0x0000000000000000   0x0000000000000000   0x0000000000000000   0x0000000000000000   0x0000000000000000
0x001e        0x0000DE04F4180041   0x1C037345841C001C   0x0000000000000000   0x0000000000000000   0x0000000000000000   0x0000000000000000
0x001f        0x0004FE24D818803D   0x14037645241AC01B   0x0000000000000000   0x0000000000000000   0x0000000000000000   0x0000000000000000
0x0020        0x14037144FC1E402B   0x0000000000000000   0x0000000000000000   0x0000000000000000   0x0000000000000000   0x0000000000000000
0x0021        0x04036B64A034C00F   0x0C036C451021C00E   0x0000000000000000   0x0000000000000000   0x0000000000000000   0x0000000000000000
0x0022        0x0000E925481F800E   0x00021F04A0200004   0x0000000000000000   0x0000000000000000   0x0000000000000000   0x0000000000000000
0x0023        0x0000DD25A820800E   0x0000000000000000   0x0000000000000000   0x0000000000000000   0x0000000000000000   0x0000000000000000
0x0024        0x04036763B83B800B   0x0000000000000000   0x0000000000000000   0x0000000000000000   0x0000000000000000   0x0000000000000000
0x0025        0x0000000000000000   0x0000000000000000   0x0000000000000000   0x0000000000000000   0x0000000000000000   0x0000000000000000
0x0026        0x0000000000000000   0x0000000000000000   0x0000000000000000   0x0000000000000000   0x0000000000000000   0x0000000000000000
0x0027        0x0000000000000000   0x0000000000000000   0x0000000000000000   0x0000000000000000   0x0000000000000000   0x0000000000000000
0x0028        0x0000000000000000   0x0000000000000000   0x0000000000000000   0x0000000000000000   0x0000000000000000   0x0000000000000000
0x0029        0x0000000000000000   0x0000000000000000   0x0000000000000000   0x0000000000000000   0x0000000000000000   0x0000000000000000
0x002a        0x0000BC1F8045C02A   0x0000000000000000   0x0000000000000000   0x0000000000000000   0x0000000000000000   0x0000000000000000
0x002b        0x0000000000000000   0x0000000000000000   0x0000000000000000   0x0000000000000000   0x0000000000000000   0x0000000000000000
0x002c        0x0000000000000000   0x0000000000000000   0x0000000000000000   0x0000000000000000   0x0000000000000000   0x0000000000000000
0x002d        0x0000000000000000   0x0000000000000000   0x0000000000000000   0x0000000000000000   0x0000000000000000   0x0000000000000000
0x002e        0x0000000000000000   0x0000000000000000   0x0000000000000000   0x0000000000000000   0x0000000000000000   0x0000000000000000
0x002f        0x0000000000000000   0x0000000000000000   0x0000000000000000   0x0000000000000000   0x0000000000000000   0x0000000000000000
0x0030        0x0000000000000000   0x0000000000000000   0x0000000000000000   0x0000000000000000   0x0000000000000000   0x0000000000000000
0x0031        0x0000000000000000   0x0000000000000000   0x0000000000000000   0x0000000000000000   0x0000000000000000   0x0000000000000000
0x0032        0x0000000000000000   0x0000000000000000   0x0000000000000000   0x0000000000000000   0x0000000000000000   0x0000000000000000
0x0033        0x0000000000000000   0x0000000000000000   0x0000000000000000   0x0000000000000000   0x0000000000000000   0x0000000000000000
0x0034        0x0000000000000000   0x0000000000000000   0x0000000000000000   0x0000000000000000   0x0000000000000000   0x0000000000000000
0x0035        0x0000000000000000   0x0000000000000000   0x0000000000000000   0x0000000000000000   0x0000000000000000   0x0000000000000000
0x0036        0x0000000000000000   0x0000000000000000   0x0000000000000000   0x0000000000000000   0x0000000000000000   0x0000000000000000
0x0037        0x0000000000000000   0x0000000000000000   0x0000000000000000   0x0000000000000000   0x0000000000000000   0x0000000000000000
0x0038        0x0000000000000000   0x0000000000000000   0x0000000000000000   0x0000000000000000   0x0000000000000000   0x0000000000000000
0x0039        0x1C00196253E14023   0x0000000000000000   0x0000000000000000   0x0000000000000000   0x0000000000000000   0x0000000000000000
0x003a        0x0C00144223E00012   0x0000000000000000   0x0000000000000000   0x0000000000000000   0x0000000000000000   0x0000000000000000
0x003b        0x0000000000000000   0x0000000000000000   0x0000000000000000   0x0000000000000000   0x0000000000000000   0x0000000000000000
0x003c        0x0000000000000000   0x0000000000000000   0x0000000000000000   0x0000000000000000   0x0000000000000000   0x0000000000000000
0x003d        0x0000000000000000   0x0000000000000000   0x0000000000000000   0x0000000000000000   0x0000000000000000   0x0000000000000000
0x003e        0x0000000000000000   0x0000000000000000   0x0000000000000000   0x0000000000000000   0x0000000000000000   0x0000000000000000
0x003f        0x0000000000000000   0x0000000000000000   0x0000000000000000   0x0000000000000000   0x0000000000000000   0x0000000000000000
0x0040        0x0000000000000000   0x0000000000000000   0x0000000000000000   0x0000000000000000   0x0000000000000000   0x0000000000000000
0x0041        0x0000000000000000   0x0000000000000000   0x0000000000000000   0x0000000000000000   0x0000000000000000   0x0000000000000000
0x0042        0x0000000000000000   0x0000000000000000   0x0000000000000000   0x0000000000000000   0x0000000000000000   0x0000000000000000
0x0043        0x0000000000000000   0x0000000000000000   0x0000000000000000   0x0000000000000000   0x0000000000000000   0x0000000000000000
0x0044        0x0000000000000000   0x0000000000000000   0x0000000000000000   0x0000000000000000   0x0000000000000000   0x0000000000000000
0x0045        0x140014641BFDC0AE   0x0000F523DBFA800A   0x0000000000000000   0x0000000000000000   0x0000000000000000   0x0000000000000000
0x0046        0x1C0014440FFC8038   0x0000000000000000   0x0000000000000000   0x0000000000000000   0x0000000000000000   0x0000000000000000
0x0047        0x1C00156443FCC028   0x0000000000000000   0x0000000000000000   0x0000000000000000   0x0000000000000000   0x0000000000000000
0x0048        0x1C00146227E68077   0x0400116297F80014   0x0000000000000000   0x0000000000000000   0x0000000000000000   0x0000000000000000
0x0049        0x0000B602C3E40028   0x0C0010421BED800B   0x0000000000000000   0x0000000000000000   0x0000000000000000   0x0000000000000000
0x004a        0x0000FE21EBE78020   0x000067227BFE8004   0x0000000000000000   0x0000000000000000   0x0000000000000000   0x0000000000000000
0x004b        0x0000000000000000   0x0000000000000000   0x0000000000000000   0x0000000000000000   0x0000000000000000   0x0000000000000000
0x004c        0x0000000000000000   0x0000000000000000   0x0000000000000000   0x0000000000000000   0x0000000000000000   0x0000000000000000
0x004d        0x0000000000000000   0x0000000000000000   0x0000000000000000   0x0000000000000000   0x0000000000000000   0x0000000000000000
0x004e        0x0000000000000000   0x0000000000000000   0x0000000000000000   0x0000000000000000   0x0000000000000000   0x0000000000000000
0x004f        0x0000000000000000   0x0000000000000000   0x0000000000000000   0x0000000000000000   0x0000000000000000   0x0000000000000000
0x0050        0x0000000000000000   0x0000000000000000   0x0000000000000000   0x0000000000000000   0x0000000000000000   0x0000000000000000
0x0051        0x00003D0014200010   0x0000000000000000   0x0000000000000000   0x0000000000000000   0x0000000000000000   0x0000000000000000
0x0052        0x0400155F281F4008   0x0000000000000000   0x0000000000000000   0x0000000000000000   0x0000000000000000   0x0000000000000000
0x0053        0x0000000000000000   0x0000000000000000   0x0000000000000000   0x0000000000000000   0x0000000000000000   0x0000000000000000
0x0054        0x1C001043C801C01B   0x00006304A00B000E   0x0000000000000000   0x0000000000000000   0x0000000000000000   0x0000000000000000
0x0055        0x0C001444BC0A4013   0x0000000000000000   0x0000000000000000   0x0000000000000000   0x0000000000000000   0x0000000000000000
0x0056        0x0004EE24780D8012   0x0000000000000000   0x0000000000000000   0x0000000000000000   0x0000000000000000   0x0000000000000000
0x0057        0x00070025782C8079   0x1C001185382B8022   0x0000000000000000   0x0000000000000000   0x0000000000000000   0x0000000000000000
0x0058        0x1C0015656C2D0042   0x00005F05702A800A   0x0000000000000000   0x0000000000000000   0x0000000000000000   0x0000000000000000
0x0059        0x0000FC2578288024   0x0000370568350006   0x0000000000000000   0x0000000000000000   0x0000000000000000   0x0000000000000000
0x005a        0x0000000000000000   0x0000000000000000   0x0000000000000000   0x0000000000000000   0x0000000000000000   0x0000000000000000
0x005b        0x0000000000000000   0x0000000000000000   0x0000000000000000   0x0000000000000000   0x0000000000000000   0x0000000000000000
0x005c        0x0000000000000000   0x0000000000000000   0x0000000000000000   0x0000000000000000   0x0000000000000000   0x0000000000000000
0x005d        0x0000000000000000   0x0000000000000000   0x0000000000000000   0x0000000000000000   0x0000000000000000   0x0000000000000000
0x005e        0x0000000000000000   0x0000000000000000   0x0000000000000000   0x0000000000000000   0x0000000000000000   0x0000000000000000
0x005f        0x0000000000000000   0x0000000000000000   0x0000000000000000   0x0000000000000000   0x0000000000000000   0x0000000000000000
0x0060        0x0000000000000000   0x0000000000000000   0x0000000000000000   0x0000000000000000   0x0000000000000000   0x0000000000000000
0x0061        0x0000000000000000   0x0000000000000000   0x0000000000000000   0x0000000000000000   0x0000000000000000   0x0000000000000000
0x0062        0x0000000000000000   0x0000000000000000   0x0000000000000000   0x0000000000000000   0x0000000000000000   0x0000000000000000
0x0063        0x0000000000000000   0x0000000000000000   0x0000000000000000   0x0000000000000000   0x0000000000000000   0x0000000000000000
0x0064        0x0000000000000000   0x0000000000000000   0x0000000000000000   0x0000000000000000   0x0000000000000000   0x0000000000000000
0x0065        0x0000000000000000   0x0000000000000000   0x0000000000000000   0x0000000000000000   0x0000000000000000   0x0000000000000000
0x0066        0x0000000000000000   0x0000000000000000   0x0000000000000000   0x0000000000000000   0x0000000000000000   0x0000000000000000
0x0067        0x0000000000000000   0x0000000000000000   0x0000000000000000   0x0000000000000000   0x0000000000000000   0x0000000000000000
0x0068        0x0000000000000000   0x0000000000000000   0x0000000000000000   0x0000000000000000   0x0000000000000000   0x0000000000000000
0x0069        0x0C000C622FE2C009   0x0000000000000000   0x0000000000000000   0x0000000000000000   0x0000000000000000   0x0000000000000000
0x006a        0x0000000000000000   0x0000000000000000   0x0000000000000000   0x0000000000000000   0x0000000000000000   0x0000000000000000
0x006b        0x0000000000000000   0x0000000000000000   0x0000000000000000   0x0000000000000000   0x0000000000000000   0x0000000000000000
0x006c        0x0000000000000000   0x0000000000000000   0x0000000000000000   0x0000000000000000   0x0000000000000000   0x0000000000000000
0x006d        0x0000000000000000   0x0000000000000000   0x0000000000000000   0x0000000000000000   0x0000000000000000   0x0000000000000000
0x006e        0x0000000000000000   0x0000000000000000   0x0000000000000000   0x0000000000000000   0x0000000000000000   0x0000000000000000
0x006f        0x0000000000000000   0x0000000000000000   0x0000000000000000   0x0000000000000000   0x0000000000000000   0x0000000000000000
0x0070        0x0000000000000000   0x0000000000000000   0x0000000000000000   0x0000000000000000   0x0000000000000000   0x0000000000000000
0x0071        0x0000000000000000   0x0000000000000000   0x0000000000000000   0x0000000000000000   0x0000000000000000   0x0000000000000000
0x0072        0x0000000000000000   0x0000000000000000   0x0000000000000000   0x0000000000000000   0x0000000000000000   0x0000000000000000
0x0073        0x0000000000000000   0x0000000000000000   0x0000000000000000   0x0000000000000000   0x0000000000000000   0x0000000000000000
0x0074        0x0000000000000000   0x0000000000000000   0x0000000000000000   0x0000000000000000   0x0000000000000000   0x0000000000000000
0x0075        0x0000000000000000   0x0000000000000000   0x0000000000000000   0x0000000000000000   0x0000000000000000   0x0000000000000000
0x0076        0x0000000000000000   0x0000000000000000   0x0000000000000000   0x0000000000000000   0x0000000000000000   0x0000000000000000
0x0077        0x0000000000000000   0x0000000000000000   0x0000000000000000   0x0000000000000000   0x0000000000000000   0x0000000000000000
0x0078        0x0C002F42BBD30009   0x0000000000000000   0x0000000000000000   0x0000000000000000   0x0000000000000000   0x0000000000000000
0x0079        0x0000000000000000   0x0000000000000000   0x0000000000000000   0x0000000000000000   0x0000000000000000   0x0000000000000000
0x007a        0x0000000000000000   0x0000000000000000   0x0000000000000000   0x0000000000000000   0x0000000000000000   0x0000000000000000
0x007b        0x0000000000000000   0x0000000000000000   0x0000000000000000   0x0000000000000000   0x0000000000000000   0x0000000000000000
0x007c        0x0000000000000000   0x0000000000000000   0x0000000000000000   0x0000000000000000   0x0000000000000000   0x0000000000000000
0x007d        0x0000000000000000   0x0000000000000000   0x0000000000000000   0x0000000000000000   0x0000000000000000   0x0000000000000000
0x007e        0x0000000000000000   0x0000000000000000   0x0000000000000000   0x0000000000000000   0x0000000000000000   0x0000000000000000
0x007f        0x0000000000000000   0x0000000000000000   0x0000000000000000   0x0000000000000000   0x0000000000000000   0x0000000000000000
0x0080        0x0000000000000000   0x0000000000000000   0x0000000000000000   0x0000000000000000   0x0000000000000000   0x0000000000000000
0x0081        0x0C002F407C17800E   0x0000000000000000   0x0000000000000000   0x0000000000000000   0x0000000000000000   0x0000000000000000
0x0082        0x0000000000000000   0x0000000000000000   0x0000000000000000   0x0000000000000000   0x0000000000000000   0x0000000000000000
0x0083        0x0000000000000000   0x0000000000000000   0x0000000000000000   0x0000000000000000   0x0000000000000000   0x0000000000000000
0x0084        0x1C003040B4104032   0x000EC8201813800C   0x0000000000000000   0x0000000000000000   0x0000000000000000   0x0000000000000000
0x0085        0x1C003240A0104030   0x0000000000000000   0x0000000000000000   0x0000000000000000   0x0000000000000000   0x0000000000000000
0x0086        0x000053004412000E   0x0000000000000000   0x0000000000000000   0x0000000000000000   0x0000000000000000   0x0000000000000000
0x0087        0x0000000000000000   0x0000000000000000   0x0000000000000000   0x0000000000000000   0x0000000000000000   0x0000000000000000
0x0088        0x0000000000000000   0x0000000000000000   0x0000000000000000   0x0000000000000000   0x0000000000000000   0x0000000000000000
0x0089        0x0000000000000000   0x0000000000000000   0x0000000000000000   0x0000000000000000   0x0000000000000000   0x0000000000000000
0x008a        0x0000000000000000   0x0000000000000000   0x0000000000000000   0x0000000000000000   0x0000000000000000   0x0000000000000000
0x008b        0x0000000000000000   0x0000000000000000   0x0000000000000000   0x0000000000000000   0x0000000000000000   0x0000000000000000
0x008c        0x0000000000000000   0x0000000000000000   0x0000000000000000   0x0000000000000000   0x0000000000000000   0x0000000000000000
0x008d        0x0000000000000000   0x0000000000000000   0x0000000000000000   0x0000000000000000   0x0000000000000000   0x0000000000000000
0x008e        0x0000000000000000   0x0000000000000000   0x0000000000000000   0x0000000000000000   0x0000000000000000   0x0000000000000000
0x008f        0x0000000000000000   0x0000000000000000   0x0000000000000000   0x0000000000000000   0x0000000000000000   0x0000000000000000
0x0090        0x0000000000000000   0x0000000000000000   0x0000000000000000   0x0000000000000000   0x0000000000000000   0x0000000000000000
0x0091        0x0000000000000000   0x0000000000000000   0x0000000000000000   0x0000000000000000   0x0000000000000000   0x0000000000000000
0x0092        0x0000000000000000   0x0000000000000000   0x0000000000000000   0x0000000000000000   0x0000000000000000   0x0000000000000000
0x0093        0x0000000000000000   0x0000000000000000   0x0000000000000000   0x0000000000000000   0x0000000000000000   0x0000000000000000
0x0094        0x0000000000000000   0x0000000000000000   0x0000000000000000   0x0000000000000000   0x0000000000000000   0x0000000000000000
0x0095        0x0000000000000000   0x0000000000000000   0x0000000000000000   0x0000000000000000   0x0000000000000000   0x0000000000000000
0x0096        0x0000000000000000   0x0000000000000000   0x0000000000000000   0x0000000000000000   0x0000000000000000   0x0000000000000000
0x0097        0x0000000000000000   0x0000000000000000   0x0000000000000000   0x0000000000000000   0x0000000000000000   0x0000000000000000
0x0098        0x0000000000000000   0x0000000000000000   0x0000000000000000   0x0000000000000000   0x0000000000000000   0x0000000000000000
0x0099        0x0000000000000000   0x0000000000000000   0x0000000000000000   0x0000000000000000   0x0000000000000000   0x0000000000000000
0x009a        0x0000000000000000   0x0000000000000000   0x0000000000000000   0x0000000000000000   0x0000000000000000   0x0000000000000000
0x009b        0x0000000000000000   0x0000000000000000   0x0000000000000000   0x0000000000000000   0x0000000000000000   0x0000000000000000
0x009c        0x0000000000000000   0x0000000000000000   0x0000000000000000   0x0000000000000000   0x0000000000000000   0x0000000000000000
0x009d        0x0000000000000000   0x0000000000000000   0x0000000000000000   0x0000000000000000   0x0000000000000000   0x0000000000000000
0x009e        0x0000000000000000   0x0000000000000000   0x0000000000000000   0x0000000000000000   0x0000000000000000   0x0000000000000000
0x009f        0x0000000000000000   0x0000000000000000   0x0000000000000000   0x0000000000000000   0x0000000000000000   0x0000000000000000
0x00a0        0x0000000000000000   0x0000000000000000   0x0000000000000000   0x0000000000000000   0x0000000000000000   0x0000000000000000
0x00a1        0x0000000000000000   0x0000000000000000   0x0000000000000000   0x0000000000000000   0x0000000000000000   0x0000000000000000
0x00a2        0x0000000000000000   0x0000000000000000   0x0000000000000000   0x0000000000000000   0x0000000000000000   0x0000000000000000
0x00a3        0x0000000000000000   0x0000000000000000   0x0000000000000000   0x0000000000000000   0x0000000000000000   0x0000000000000000
0x00a4        0x0000000000000000   0x0000000000000000   0x0000000000000000   0x0000000000000000   0x0000000000000000   0x0000000000000000
0x00a5        0x0000000000000000   0x0000000000000000   0x0000000000000000   0x0000000000000000   0x0000000000000000   0x0000000000000000
0x00a6        0x0000000000000000   0x0000000000000000   0x0000000000000000   0x0000000000000000   0x0000000000000000   0x0000000000000000
0x00a7        0x0000000000000000   0x0000000000000000   0x0000000000000000   0x0000000000000000   0x0000000000000000   0x0000000000000000
0x00a8        0x0004B225FBAD8006   0x0000000000000000   0x0000000000000000   0x0000000000000000   0x0000000000000000   0x0000000000000000
0x00a9        0x0000000000000000   0x0000000000000000   0x0000000000000000   0x0000000000000000   0x0000000000000000   0x0000000000000000
0x00aa        0x0000000000000000   0x0000000000000000   0x0000000000000000   0x0000000000000000   0x0000000000000000   0x0000000000000000
0x00ab        0x0000000000000000   0x0000000000000000   0x0000000000000000   0x0000000000000000   0x0000000000000000   0x0000000000000000
0x00ac        0x0000000000000000   0x0000000000000000   0x0000000000000000   0x0000000000000000   0x0000000000000000   0x0000000000000000
0x00ad        0x0000000000000000   0x0000000000000000   0x0000000000000000   0x0000000000000000   0x0000000000000000   0x0000000000000000
0x00ae        0x0000000000000000   0x0000000000000000   0x0000000000000000   0x0000000000000000   0x0000000000000000   0x0000000000000000
0x00af        0x0000000000000000   0x0000000000000000   0x0000000000000000   0x0000000000000000   0x0000000000000000   0x0000000000000000
0x00b0        0x0000000000000000   0x0000000000000000   0x0000000000000000   0x0000000000000000   0x0000000000000000   0x0000000000000000
0x00b1        0x0C03BA66B7E68009   0x0000000000000000   0x0000000000000000   0x0000000000000000   0x0000000000000000   0x0000000000000000
0x00b2        0x0000000000000000   0x0000000000000000   0x0000000000000000   0x0000000000000000   0x0000000000000000   0x0000000000000000
0x00b3        0x0000000000000000   0x0000000000000000   0x0000000000000000   0x0000000000000000   0x0000000000000000   0x0000000000000000
0x00b4        0x0000000000000000   0x0000000000000000   0x0000000000000000   0x0000000000000000   0x0000000000000000   0x0000000000000000
0x00b5        0x0000000000000000   0x0000000000000000   0x0000000000000000   0x0000000000000000   0x0000000000000000   0x0000000000000000
0x00b6        0x0000000000000000   0x0000000000000000   0x0000000000000000   0x0000000000000000   0x0000000000000000   0x0000000000000000
0x00b7        0x0000000000000000   0x0000000000000000   0x0000000000000000   0x0000000000000000   0x0000000000000000   0x0000000000000000
0x00b8        0x0000000000000000   0x0000000000000000   0x0000000000000000   0x0000000000000000   0x0000000000000000   0x0000000000000000
0x00b9        0x0000000000000000   0x0000000000000000   0x0000000000000000   0x0000000000000000   0x0000000000000000   0x0000000000000000
0x00ba        0x0403C061B41D400A   0x0000000000000000   0x0000000000000000   0x0000000000000000   0x0000000000000000   0x0000000000000000
0x00bb        0x0000000000000000   0x0000000000000000   0x0000000000000000   0x0000000000000000   0x0000000000000000   0x0000000000000000
0x00bc        0x0000000000000000   0x0000000000000000   0x0000000000000000   0x0000000000000000   0x0000000000000000   0x0000000000000000
0x00bd        0x0000000000000000   0x0000000000000000   0x0000000000000000   0x0000000000000000   0x0000000000000000   0x0000000000000000
0x00be        0x0000000000000000   0x0000000000000000   0x0000000000000000   0x0000000000000000   0x0000000000000000   0x0000000000000000
0x00bf        0x0000000000000000   0x0000000000000000   0x0000000000000000   0x0000000000000000   0x0000000000000000   0x0000000000000000
0x00c0        0x0000000000000000   0x0000000000000000   0x0000000000000000   0x0000000000000000   0x0000000000000000   0x0000000000000000
0x00c1        0x0000000000000000   0x0000000000000000   0x0000000000000000   0x0000000000000000   0x0000000000000000   0x0000000000000000
0x00c2        0x0000000000000000   0x0000000000000000   0x0000000000000000   0x0000000000000000   0x0000000000000000   0x0000000000000000
0x00c3        0x00009124481D8007   0x0000000000000000   0x0000000000000000   0x0000000000000000   0x0000000000000000   0x0000000000000000
0x00c4        0x0000000000000000   0x0000000000000000   0x0000000000000000   0x0000000000000000   0x0000000000000000   0x0000000000000000
0x00c5        0x0000000000000000   0x0000000000000000   0x0000000000000000   0x0000000000000000   0x0000000000000000   0x0000000000000000
0x00c6        0x1C03C34338258028   0x0000000000000000   0x0000000000000000   0x0000000000000000   0x0000000000000000   0x0000000000000000
0x00c7        0x1C03BC633027401D   0x0000000000000000   0x0000000000000000   0x0000000000000000   0x0000000000000000   0x0000000000000000
0x00c8        0x0403C142D8260011   0x0000000000000000   0x0000000000000000   0x0000000000000000   0x0000000000000000   0x0000000000000000
0x00c9        0x0000000000000000   0x0000000000000000   0x0000000000000000   0x0000000000000000   0x0000000000000000   0x0000000000000000
0x00ca        0x0000000000000000   0x0000000000000000   0x0000000000000000   0x0000000000000000   0x0000000000000000   0x0000000000000000
0x00cb        0x0000000000000000   0x0000000000000000   0x0000000000000000   0x0000000000000000   0x0000000000000000   0x0000000000000000
0x00cc        0x0C03BE5E2456800E   0x0000000000000000   0x0000000000000000   0x0000000000000000   0x0000000000000000   0x0000000000000000
0x00cd        0x0000000000000000   0x0000000000000000   0x0000000000000000   0x0000000000000000   0x0000000000000000   0x0000000000000000
0x00ce        0x0000000000000000   0x0000000000000000   0x0000000000000000   0x0000000000000000   0x0000000000000000   0x0000000000000000
0x00cf        0x0000000000000000   0x0000000000000000   0x0000000000000000   0x0000000000000000   0x0000000000000000   0x0000000000000000
0x00d0        0x0000000000000000   0x0000000000000000   0x0000000000000000   0x0000000000000000   0x0000000000000000   0x0000000000000000
0x00d1        0x0000000000000000   0x0000000000000000   0x0000000000000000   0x0000000000000000   0x0000000000000000   0x0000000000000000
0x00d2        0x0000000000000000   0x0000000000000000   0x0000000000000000   0x0000000000000000   0x0000000000000000   0x0000000000000000
0x00d3        0x0000000000000000   0x0000000000000000   0x0000000000000000   0x0000000000000000   0x0000000000000000   0x0000000000000000
0x00d4        0x0000000000000000   0x0000000000000000   0x0000000000000000   0x0000000000000000   0x0000000000000000   0x0000000000000000
0x00d5        0x0000000000000000   0x0000000000000000   0x0000000000000000   0x0000000000000000   0x0000000000000000   0x0000000000000000
0x00d6        0x0000000000000000   0x0000000000000000   0x0000000000000000   0x0000000000000000   0x0000000000000000   0x0000000000000000
0x00d7        0x0000000000000000   0x0000000000000000   0x0000000000000000   0x0000000000000000   0x0000000000000000   0x0000000000000000
0x00d8        0x0000000000000000   0x0000000000000000   0x0000000000000000   0x0000000000000000   0x0000000000000000   0x0000000000000000
0x00d9        0x0000000000000000   0x0000000000000000   0x0000000000000000   0x0000000000000000   0x0000000000000000   0x0000000000000000
0x00da        0x0000000000000000   0x0000000000000000   0x0000000000000000   0x0000000000000000   0x0000000000000000   0x0000000000000000
0x00db        0x04000E6487DF000C   0x0000000000000000   0x0000000000000000   0x0000000000000000   0x0000000000000000   0x0000000000000000
0x00dc        0x0000000000000000   0x0000000000000000   0x0000000000000000   0x0000000000000000   0x0000000000000000   0x0000000000000000
0x00dd        0x0000000000000000   0x0000000000000000   0x0000000000000000   0x0000000000000000   0x0000000000000000   0x0000000000000000
0x00de        0x0000000000000000   0x0000000000000000   0x0000000000000000   0x0000000000000000   0x0000000000000000   0x0000000000000000
0x00df        0x0000000000000000   0x0000000000000000   0x0000000000000000   0x0000000000000000   0x0000000000000000   0x0000000000000000
0x00e0        0x0000000000000000   0x0000000000000000   0x0000000000000000   0x0000000000000000   0x0000000000000000   0x0000000000000000
0x00e1        0x0000000000000000   0x0000000000000000   0x0000000000000000   0x0000000000000000   0x0000000000000000   0x0000000000000000
0x00e2        0x0000000000000000   0x0000000000000000   0x0000000000000000   0x0000000000000000   0x0000000000000000   0x0000000000000000
0x00e3        0x0000000000000000   0x0000000000000000   0x0000000000000000   0x0000000000000000   0x0000000000000000   0x0000000000000000
0x00e4        0x0C00094337D8000B   0x0000000000000000   0x0000000000000000   0x0000000000000000   0x0000000000000000   0x0000000000000000
0x00e5        0x0000000000000000   0x0000000000000000   0x0000000000000000   0x0000000000000000   0x0000000000000000   0x0000000000000000
0x00e6        0x0000000000000000   0x0000000000000000   0x0000000000000000   0x0000000000000000   0x0000000000000000   0x0000000000000000
0x00e7        0x0000000000000000   0x0000000000000000   0x0000000000000000   0x0000000000000000   0x0000000000000000   0x0000000000000000
0x00e8        0x0000000000000000   0x0000000000000000   0x0000000000000000   0x0000000000000000   0x0000000000000000   0x0000000000000000
0x00e9        0x0000000000000000   0x0000000000000000   0x0000000000000000   0x0000000000000000   0x0000000000000000   0x0000000000000000
0x00ea        0x000043236BEA8004   0x0000000000000000   0x0000000000000000   0x0000000000000000   0x0000000000000000   0x0000000000000000
0x00eb        0x0000000000000000   0x0000000000000000   0x0000000000000000   0x0000000000000000   0x0000000000000000   0x0000000000000000
0x00ec        0x0000000000000000   0x0000000000000000   0x0000000000000000   0x0000000000000000   0x0000000000000000   0x0000000000000000
0x00ed        0x0000000000000000   0x0000000000000000   0x0000000000000000   0x0000000000000000   0x0000000000000000   0x0000000000000000
0x00ee        0x0000000000000000   0x0000000000000000   0x0000000000000000   0x0000000000000000   0x0000000000000000   0x0000000000000000
0x00ef        0x0000000000000000   0x0000000000000000   0x0000000000000000   0x0000000000000000   0x0000000000000000   0x0000000000000000
0x00f0        0x0000000000000000   0x0000000000000000   0x0000000000000000   0x0000000000000000   0x0000000000000000   0x0000000000000000
0x00f1        0x0000000000000000   0x0000000000000000   0x0000000000000000   0x0000000000000000   0x0000000000000000   0x0000000000000000
0x00f2        0x0000000000000000   0x0000000000000000   0x0000000000000000   0x0000000000000000   0x0000000000000000   0x0000000000000000
0x00f3        0x0000000000000000   0x0000000000000000   0x0000000000000000   0x0000000000000000   0x0000000000000000   0x0000000000000000
0x00f4        0x0000000000000000   0x0000000000000000   0x0000000000000000   0x0000000000000000   0x0000000000000000   0x0000000000000000
0x00f5        0x0000000000000000   0x0000000000000000   0x0000000000000000   0x0000000000000000   0x0000000000000000   0x0000000000000000
0x00f6        0x0C000765841B400F   0x0000000000000000   0x0000000000000000   0x0000000000000000   0x0000000000000000   0x0000000000000000
0x00f7        0x0000000000000000   0x0000000000000000   0x0000000000000000   0x0000000000000000   0x0000000000000000   0x0000000000000000
0x00f8        0x0000000000000000   0x0000000000000000   0x0000000000000000   0x0000000000000000   0x0000000000000000   0x0000000000000000
0x00f9        0x0000000000000000   0x0000000000000000   0x0000000000000000   0x0000000000000000   0x0000000000000000   0x0000000000000000
0x00fa        0x0000000000000000   0x0000000000000000   0x0000000000000000   0x0000000000000000   0x0000000000000000   0x0000000000000000
0x00fb        0x0000000000000000   0x0000000000000000   0x0000000000000000   0x0000000000000000   0x0000000000000000   0x0000000000000000
0x00fc        0x0000000000000000   0x0000000000000000   0x0000000000000000   0x0000000000000000   0x0000000000000000   0x0000000000000000
0x00fd        0x0000000000000000   0x0000000000000000   0x0000000000000000   0x0000000000000000   0x0000000000000000   0x0000000000000000
0x00fe        0x0000000000000000   0x0000000000000000   0x0000000000000000   0x0000000000000000   0x0000000000000000   0x0000000000000000
0x00ff        0x0000000000000000   0x0000000000000000   0x0000000000000000   0x0000000000000000   0x0000000000000000   0x0000000000000000
0x0100        0x0000000000000000   0x0000000000000000   0x0000000000000000   0x0000000000000000   0x0000000000000000   0x0000000000000000
0x0101        0x0000000000000000   0x0000000000000000   0x0000000000000000   0x0000000000000000   0x0000000000000000   0x0000000000000000
0x0102        0x0000B02018528014   0x0000000000000000   0x0000000000000000   0x0000000000000000   0x0000000000000000   0x0000000000000000
0x0103        0x0C000E5E5C54000A   0x0000000000000000   0x0000000000000000   0x0000000000000000   0x0000000000000000   0x0000000000000000
0x0104        0x00004320284A8005   0x0000000000000000   0x0000000000000000   0x0000000000000000   0x0000000000000000   0x0000000000000000
0x0105        0x0C00106497AF400B   0x0000000000000000   0x0000000000000000   0x0000000000000000   0x0000000000000000   0x0000000000000000
0x0106        0x0000000000000000   0x0000000000000000   0x0000000000000000   0x0000000000000000   0x0000000000000000   0x0000000000000000
0x0107        0x0000000000000000   0x0000000000000000   0x0000000000000000   0x0000000000000000   0x0000000000000000   0x0000000000000000
0x0108        0x0000000000000000   0x0000000000000000   0x0000000000000000   0x0000000000000000   0x0000000000000000   0x0000000000000000
0x0109        0x0000000000000000   0x0000000000000000   0x0000000000000000   0x0000000000000000   0x0000000000000000   0x0000000000000000
0x010a        0x0000000000000000   0x0000000000000000   0x0000000000000000   0x0000000000000000   0x0000000000000000   0x0000000000000000
0x010b        0x0000000000000000   0x0000000000000000   0x0000000000000000   0x0000000000000000   0x0000000000000000   0x0000000000000000
0x010c        0x0000000000000000   0x0000000000000000   0x0000000000000000   0x0000000000000000   0x0000000000000000   0x0000000000000000
0x010d        0x0000000000000000   0x0000000000000000   0x0000000000000000   0x0000000000000000   0x0000000000000000   0x0000000000000000
0x010e        0x0000000000000000   0x0000000000000000   0x0000000000000000   0x0000000000000000   0x0000000000000000   0x0000000000000000
0x010f        0x0000000000000000   0x0000000000000000   0x0000000000000000   0x0000000000000000   0x0000000000000000   0x0000000000000000
0x0110        0x0000000000000000   0x0000000000000000   0x0000000000000000   0x0000000000000000   0x0000000000000000   0x0000000000000000
0x0111        0x0000000000000000   0x0000000000000000   0x0000000000000000   0x0000000000000000   0x0000000000000000   0x0000000000000000
0x0112        0x0000000000000000   0x0000000000000000   0x0000000000000000   0x0000000000000000   0x0000000000000000   0x0000000000000000
0x0113        0x0000000000000000   0x0000000000000000   0x0000000000000000   0x0000000000000000   0x0000000000000000   0x0000000000000000
0x0114        0x0000000000000000   0x0000000000000000   0x0000000000000000   0x0000000000000000   0x0000000000000000   0x0000000000000000
0x0115        0x0000000000000000   0x0000000000000000   0x0000000000000000   0x0000000000000000   0x0000000000000000   0x0000000000000000
0x0116        0x0000000000000000   0x0000000000000000   0x0000000000000000   0x0000000000000000   0x0000000000000000   0x0000000000000000
0x0117        0x0000000000000000   0x0000000000000000   0x0000000000000000   0x0000000000000000   0x0000000000000000   0x0000000000000000
0x0118        0x0000000000000000   0x0000000000000000   0x0000000000000000   0x0000000000000000   0x0000000000000000   0x0000000000000000
0x0119        0x0000000000000000   0x0000000000000000   0x0000000000000000   0x0000000000000000   0x0000000000000000   0x0000000000000000
0x011a        0x0000000000000000   0x0000000000000000   0x0000000000000000   0x0000000000000000   0x0000000000000000   0x0000000000000000
0x011b        0x0000000000000000   0x0000000000000000   0x0000000000000000   0x0000000000000000   0x0000000000000000   0x0000000000000000
0x011c        0x0000000000000000   0x0000000000000000   0x0000000000000000   0x0000000000000000   0x0000000000000000   0x0000000000000000
0x011d        0x0000000000000000   0x0000000000000000   0x0000000000000000   0x0000000000000000   0x0000000000000000   0x0000000000000000
0x011e        0x0000000000000000   0x0000000000000000   0x0000000000000000   0x0000000000000000   0x0000000000000000   0x0000000000000000
0x011f        0x0000000000000000   0x0000000000000000   0x0000000000000000   0x0000000000000000   0x0000000000000000   0x0000000000000000
0x0120        0x0000000000000000   0x0000000000000000   0x0000000000000000   0x0000000000000000   0x0000000000000000   0x0000000000000000
0x0121        0x0000000000000000   0x0000000000000000   0x0000000000000000   0x0000000000000000   0x0000000000000000   0x0000000000000000
0x0122        0x0000000000000000   0x0000000000000000   0x0000000000000000   0x0000000000000000   0x0000000000000000   0x0000000000000000
0x0123        0x1C037742B40A4018   0x00002C02B40EC008   0x0000000000000000   0x0000000000000000   0x0000000000000000   0x0000000000000000
0x0124        0x0004CD22A8008017   0x00001E02AC028004   0x0000000000000000   0x0000000000000000   0x0000000000000000   0x0000000000000000
0x0125        0x1C037762800B8017   0x0000000000000000   0x0000000000000000   0x0000000000000000   0x0000000000000000   0x0000000000000000
0x0126        0x0000000000000000   0x0000000000000000   0x0000000000000000   0x0000000000000000   0x0000000000000000   0x0000000000000000
0x0127        0x0000000000000000   0x0000000000000000   0x0000000000000000   0x0000000000000000   0x0000000000000000   0x0000000000000000
0x0128        0x0000000000000000   0x0000000000000000   0x0000000000000000   0x0000000000000000   0x0000000000000000   0x0000000000000000
0x0129        0x0000000000000000   0x0000000000000000   0x0000000000000000   0x0000000000000000   0x0000000000000000   0x0000000000000000
0x012a        0x0000000000000000   0x0000000000000000   0x0000000000000000   0x0000000000000000   0x0000000000000000   0x0000000000000000
0x012b        0x0000000000000000   0x0000000000000000   0x0000000000000000   0x0000000000000000   0x0000000000000000   0x0000000000000000
0x012c        0x0000000000000000   0x0000000000000000   0x0000000000000000   0x0000000000000000   0x0000000000000000   0x0000000000000000
0x012d        0x0000000000000000   0x0000000000000000   0x0000000000000000   0x0000000000000000   0x0000000000000000   0x0000000000000000
0x012e        0x0000000000000000   0x0000000000000000   0x0000000000000000   0x0000000000000000   0x0000000000000000   0x0000000000000000
0x012f        0x04037966B0388014   0x0000000000000000   0x0000000000000000   0x0000000000000000   0x0000000000000000   0x0000000000000000
0x0130        0x0000000000000000   0x0000000000000000   0x0000000000000000   0x0000000000000000   0x0000000000000000   0x0000000000000000
0x0131        0x0000000000000000   0x0000000000000000   0x0000000000000000   0x0000000000000000   0x0000000000000000   0x0000000000000000
0x0132        0x0000000000000000   0x0000000000000000   0x0000000000000000   0x0000000000000000   0x0000000000000000   0x0000000000000000
0x0133        0x0000000000000000   0x0000000000000000   0x0000000000000000   0x0000000000000000   0x0000000000000000   0x0000000000000000
0x0134        0x0000000000000000   0x0000000000000000   0x0000000000000000   0x0000000000000000   0x0000000000000000   0x0000000000000000
0x0135        0x0000000000000000   0x0000000000000000   0x0000000000000000   0x0000000000000000   0x0000000000000000   0x0000000000000000
0x0136        0x0000000000000000   0x0000000000000000   0x0000000000000000   0x0000000000000000   0x0000000000000000   0x0000000000000000
0x0137        0x0000000000000000   0x0000000000000000   0x0000000000000000   0x0000000000000000   0x0000000000000000   0x0000000000000000
0x0138        0x0000000000000000   0x0000000000000000   0x0000000000000000   0x0000000000000000   0x0000000000000000   0x0000000000000000
0x0139        0x0000000000000000   0x0000000000000000   0x0000000000000000   0x0000000000000000   0x0000000000000000   0x0000000000000000
0x013a        0x0000000000000000   0x0000000000000000   0x0000000000000000   0x0000000000000000   0x0000000000000000   0x0000000000000000
0x013b        0x0000000000000000   0x0000000000000000   0x0000000000000000   0x0000000000000000   0x0000000000000000   0x0000000000000000
0x013c        0x0000000000000000   0x0000000000000000   0x0000000000000000   0x0000000000000000   0x0000000000000000   0x0000000000000000
0x013d        0x0000000000000000   0x0000000000000000   0x0000000000000000   0x0000000000000000   0x0000000000000000   0x0000000000000000
0x013e        0x04037366443F0008   0x0000000000000000   0x0000000000000000   0x0000000000000000   0x0000000000000000   0x0000000000000000
0x013f        0x0000000000000000   0x0000000000000000   0x0000000000000000   0x0000000000000000   0x0000000000000000   0x0000000000000000
0x0140        0x0000000000000000   0x0000000000000000   0x0000000000000000   0x0000000000000000   0x0000000000000000   0x0000000000000000
0x0141        0x0000000000000000   0x0000000000000000   0x0000000000000000   0x0000000000000000   0x0000000000000000   0x0000000000000000
0x0142        0x0000000000000000   0x0000000000000000   0x0000000000000000   0x0000000000000000   0x0000000000000000   0x0000000000000000
0x0143        0x0000000000000000   0x0000000000000000   0x0000000000000000   0x0000000000000000   0x0000000000000000   0x0000000000000000
0x0144        0x0000000000000000   0x0000000000000000   0x0000000000000000   0x0000000000000000   0x0000000000000000   0x0000000000000000
0x0145        0x0000000000000000   0x0000000000000000   0x0000000000000000   0x0000000000000000   0x0000000000000000   0x0000000000000000
0x0146        0x0000000000000000   0x0000000000000000   0x0000000000000000   0x0000000000000000   0x0000000000000000   0x0000000000000000
0x0147        0x0000000000000000   0x0000000000000000   0x0000000000000000   0x0000000000000000   0x0000000000000000   0x0000000000000000
0x0148        0x0000000000000000   0x0000000000000000   0x0000000000000000   0x0000000000000000   0x0000000000000000   0x0000000000000000
0x0149        0x0000000000000000   0x0000000000000000   0x0000000000000000   0x0000000000000000   0x0000000000000000   0x0000000000000000
0x014a        0x0000000000000000   0x0000000000000000   0x0000000000000000   0x0000000000000000   0x0000000000000000   0x0000000000000000
0x014b        0x0000000000000000   0x0000000000000000   0x0000000000000000   0x0000000000000000   0x0000000000000000   0x0000000000000000
0x014c        0x0000000000000000   0x0000000000000000   0x0000000000000000   0x0000000000000000   0x0000000000000000   0x0000000000000000
0x014d        0x0000000000000000   0x0000000000000000   0x0000000000000000   0x0000000000000000   0x0000000000000000   0x0000000000000000
0x014e        0x0000000000000000   0x0000000000000000   0x0000000000000000   0x0000000000000000   0x0000000000000000   0x0000000000000000
0x014f        0x0000000000000000   0x0000000000000000   0x0000000000000000   0x0000000000000000   0x0000000000000000   0x0000000000000000
0x0150        0x14007C64BBDCC0CE   0x1C007C64DBDCC041   0x0000F4253BE1800B   0x0000000000000000   0x0000000000000000   0x0000000000000000
0x0151        0x0001000497DEC0A0   0x1C007944BFD94019   0x0000570457CF000B   0x0000000000000000   0x0000000000000000   0x0000000000000000
0x0152        0x1C007B64D7D84042   0x04008044ABDD000D   0x0000000000000000   0x0000000000000000   0x0000000000000000   0x0000000000000000
0x0153        0x00008A047BEBC016   0x0000E4247BEC8007   0x0000000000000000   0x0000000000000000   0x0000000000000000   0x0000000000000000
0x0154        0x1C007B44ABE2C014   0x0000000000000000   0x0000000000000000   0x0000000000000000   0x0000000000000000   0x0000000000000000
0x0155        0x0000F5249BE8800D   0x0000000000000000   0x0000000000000000   0x0000000000000000   0x0000000000000000   0x0000000000000000
0x0156        0x0000000000000000   0x0000000000000000   0x0000000000000000   0x0000000000000000   0x0000000000000000   0x0000000000000000
0x0157        0x0000000000000000   0x0000000000000000   0x0000000000000000   0x0000000000000000   0x0000000000000000   0x0000000000000000
0x0158        0x0000000000000000   0x0000000000000000   0x0000000000000000   0x0000000000000000   0x0000000000000000   0x0000000000000000
0x0159        0x0000000000000000   0x0000000000000000   0x0000000000000000   0x0000000000000000   0x0000000000000000   0x0000000000000000
0x015a        0x0000000000000000   0x0000000000000000   0x0000000000000000   0x0000000000000000   0x0000000000000000   0x0000000000000000
0x015b        0x0000000000000000   0x0000000000000000   0x0000000000000000   0x0000000000000000   0x0000000000000000   0x0000000000000000
0x015c        0x1C007FDFC01640BB   0x0C00735DDC08800A   0x0000000000000000   0x0000000000000000   0x0000000000000000   0x0000000000000000
0x015d        0x0000C21FCC188022   0x0000000000000000   0x0000000000000000   0x0000000000000000   0x0000000000000000   0x0000000000000000
0x015e        0x00009D1F1C16001B   0x0000000000000000   0x0000000000000000   0x0000000000000000   0x0000000000000000   0x0000000000000000
0x015f        0x0004D23FD8288004   0x0000000000000000   0x0000000000000000   0x0000000000000000   0x0000000000000000   0x0000000000000000
0x0160        0x0000000000000000   0x0000000000000000   0x0000000000000000   0x0000000000000000   0x0000000000000000   0x0000000000000000
0x0161        0x0000000000000000   0x0000000000000000   0x0000000000000000   0x0000000000000000   0x0000000000000000   0x0000000000000000
0x0162        0x0000000000000000   0x0000000000000000   0x0000000000000000   0x0000000000000000   0x0000000000000000   0x0000000000000000
0x0163        0x0000000000000000   0x0000000000000000   0x0000000000000000   0x0000000000000000   0x0000000000000000   0x0000000000000000
0x0164        0x0000000000000000   0x0000000000000000   0x0000000000000000   0x0000000000000000   0x0000000000000000   0x0000000000000000
0x0165        0x0000000000000000   0x0000000000000000   0x0000000000000000   0x0000000000000000   0x0000000000000000   0x0000000000000000
0x0166        0x0000000000000000   0x0000000000000000   0x0000000000000000   0x0000000000000000   0x0000000000000000   0x0000000000000000
0x0167        0x0000000000000000   0x0000000000000000   0x0000000000000000   0x0000000000000000   0x0000000000000000   0x0000000000000000
0x0168        0x0000000000000000   0x0000000000000000   0x0000000000000000   0x0000000000000000   0x0000000000000000   0x0000000000000000
0x0169        0x0000000000000000   0x0000000000000000   0x0000000000000000   0x0000000000000000   0x0000000000000000   0x0000000000000000
0x016a        0x0000000000000000   0x0000000000000000   0x0000000000000000   0x0000000000000000   0x0000000000000000   0x0000000000000000
0x016b        0x0000000000000000   0x0000000000000000   0x0000000000000000   0x0000000000000000   0x0000000000000000   0x0000000000000000
0x016c        0x0000000000000000   0x0000000000000000   0x0000000000000000   0x0000000000000000   0x0000000000000000   0x0000000000000000
0x016d        0x0000000000000000   0x0000000000000000   0x0000000000000000   0x0000000000000000   0x0000000000000000   0x0000000000000000
0x016e        0x0000000000000000   0x0000000000000000   0x0000000000000000   0x0000000000000000   0x0000000000000000   0x0000000000000000
0x016f        0x0000000000000000   0x0000000000000000   0x0000000000000000   0x0000000000000000   0x0000000000000000   0x0000000000000000
0x0170        0x0000000000000000   0x0000000000000000   0x0000000000000000   0x0000000000000000   0x0000000000000000   0x0000000000000000
0x0171        0x04007341D7BCC010   0x0000000000000000   0x0000000000000000   0x0000000000000000   0x0000000000000000   0x0000000000000000
0x0172        0x000465232BB08009   0x0000000000000000   0x0000000000000000   0x0000000000000000   0x0000000000000000   0x0000000000000000
0x0173        0x0000000000000000   0x0000000000000000   0x0000000000000000   0x0000000000000000   0x0000000000000000   0x0000000000000000
0x0174        0x0000000000000000   0x0000000000000000   0x0000000000000000   0x0000000000000000   0x0000000000000000   0x0000000000000000
0x0175        0x0000000000000000   0x0000000000000000   0x0000000000000000   0x0000000000000000   0x0000000000000000   0x0000000000000000
0x0176        0x0000000000000000   0x0000000000000000   0x0000000000000000   0x0000000000000000   0x0000000000000000   0x0000000000000000
0x0177        0x0000000000000000   0x0000000000000000   0x0000000000000000   0x0000000000000000   0x0000000000000000   0x0000000000000000
0x0178        0x0000000000000000   0x0000000000000000   0x0000000000000000   0x0000000000000000   0x0000000000000000   0x0000000000000000
0x0179        0x0000000000000000   0x0000000000000000   0x0000000000000000   0x0000000000000000   0x0000000000000000   0x0000000000000000
0x017a        0x0000000000000000   0x0000000000000000   0x0000000000000000   0x0000000000000000   0x0000000000000000   0x0000000000000000
0x017b        0x0000000000000000   0x0000000000000000   0x0000000000000000   0x0000000000000000   0x0000000000000000   0x0000000000000000
0x017c        0x0000000000000000   0x0000000000000000   0x0000000000000000   0x0000000000000000   0x0000000000000000   0x0000000000000000
0x017d        0x0000000000000000   0x0000000000000000   0x0000000000000000   0x0000000000000000   0x0000000000000000   0x0000000000000000
0x017e        0x0000000000000000   0x0000000000000000   0x0000000000000000   0x0000000000000000   0x0000000000000000   0x0000000000000000
0x017f        0x0000000000000000   0x0000000000000000   0x0000000000000000   0x0000000000000000   0x0000000000000000   0x0000000000000000
0x0180        0x000029060FB2000B   0x0000000000000000   0x0000000000000000   0x0000000000000000   0x0000000000000000   0x0000000000000000
0x0181        0x0000000000000000   0x0000000000000000   0x0000000000000000   0x0000000000000000   0x0000000000000000   0x0000000000000000
0x0182        0x0000000000000000   0x0000000000000000   0x0000000000000000   0x0000000000000000   0x0000000000000000   0x0000000000000000
0x0183        0x0C002A609FE38010   0x0000000000000000   0x0000000000000000   0x0000000000000000   0x0000000000000000   0x0000000000000000
0x0184        0x0000000000000000   0x0000000000000000   0x0000000000000000   0x0000000000000000   0x0000000000000000   0x0000000000000000
0x0185        0x0000000000000000   0x0000000000000000   0x0000000000000000   0x0000000000000000   0x0000000000000000   0x0000000000000000
0x0186        0x0C00284443E2C00B   0x0000000000000000   0x0000000000000000   0x0000000000000000   0x0000000000000000   0x0000000000000000
0x0187        0x0C002844B3D1000A   0x0000000000000000   0x0000000000000000   0x0000000000000000   0x0000000000000000   0x0000000000000000
0x0188        0x0400336577DF4008   0x0000000000000000   0x0000000000000000   0x0000000000000000   0x0000000000000000   0x0000000000000000
0x0189        0x0000000000000000   0x0000000000000000   0x0000000000000000   0x0000000000000000   0x0000000000000000   0x0000000000000000
0x018a        0x0000000000000000   0x0000000000000000   0x0000000000000000   0x0000000000000000   0x0000000000000000   0x0000000000000000
0x018b        0x0000000000000000   0x0000000000000000   0x0000000000000000   0x0000000000000000   0x0000000000000000   0x0000000000000000
0x018c        0x0000000000000000   0x0000000000000000   0x0000000000000000   0x0000000000000000   0x0000000000000000   0x0000000000000000
0x018d        0x0000000000000000   0x0000000000000000   0x0000000000000000   0x0000000000000000   0x0000000000000000   0x0000000000000000
0x018e        0x0000000000000000   0x0000000000000000   0x0000000000000000   0x0000000000000000   0x0000000000000000   0x0000000000000000
0x018f        0x0000000000000000   0x0000000000000000   0x0000000000000000   0x0000000000000000   0x0000000000000000   0x0000000000000000
0x0190        0x0000000000000000   0x0000000000000000   0x0000000000000000   0x0000000000000000   0x0000000000000000   0x0000000000000000
0x0191        0x0000000000000000   0x0000000000000000   0x0000000000000000   0x0000000000000000   0x0000000000000000   0x0000000000000000
0x0192        0x0000000000000000   0x0000000000000000   0x0000000000000000   0x0000000000000000   0x0000000000000000   0x0000000000000000
0x0193        0x0000000000000000   0x0000000000000000   0x0000000000000000   0x0000000000000000   0x0000000000000000   0x0000000000000000
0x0194        0x0000000000000000   0x0000000000000000   0x0000000000000000   0x0000000000000000   0x0000000000000000   0x0000000000000000
0x0195        0x0000000000000000   0x0000000000000000   0x0000000000000000   0x0000000000000000   0x0000000000000000   0x0000000000000000
0x0196        0x0000000000000000   0x0000000000000000   0x0000000000000000   0x0000000000000000   0x0000000000000000   0x0000000000000000
0x0197        0x0000000000000000   0x0000000000000000   0x0000000000000000   0x0000000000000000   0x0000000000000000   0x0000000000000000
0x0198        0x00010025F81B805C   0x000089062C1A8015   0x0400296534194008   0x000034056C150006   0x0000000000000000   0x0000000000000000
0x0199        0x14002E460018403E   0x0000F32628168010   0x0C002865A018C008   0x00048924781C8005   0x0000000000000000   0x0000000000000000
0x019a        0x0000F72598188020   0x0400286534194008   0x00003205FC0B8007   0x0000000000000000   0x0000000000000000   0x0000000000000000
0x019b        0x0C002C65F01CC008   0x0000000000000000   0x0000000000000000   0x0000000000000000   0x0000000000000000   0x0000000000000000
0x019c        0x0000000000000000   0x0000000000000000   0x0000000000000000   0x0000000000000000   0x0000000000000000   0x0000000000000000
0x019d        0x0000000000000000   0x0000000000000000   0x0000000000000000   0x0000000000000000   0x0000000000000000   0x0000000000000000
0x019e        0x0000000000000000   0x0000000000000000   0x0000000000000000   0x0000000000000000   0x0000000000000000   0x0000000000000000
0x019f        0x0000000000000000   0x0000000000000000   0x0000000000000000   0x0000000000000000   0x0000000000000000   0x0000000000000000
0x01a0        0x0000000000000000   0x0000000000000000   0x0000000000000000   0x0000000000000000   0x0000000000000000   0x0000000000000000
0x01a1        0x0000000000000000   0x0000000000000000   0x0000000000000000   0x0000000000000000   0x0000000000000000   0x0000000000000000
0x01a2        0x0000000000000000   0x0000000000000000   0x0000000000000000   0x0000000000000000   0x0000000000000000   0x0000000000000000
0x01a3        0x0000000000000000   0x0000000000000000   0x0000000000000000   0x0000000000000000   0x0000000000000000   0x0000000000000000
0x01a4        0x0000000000000000   0x0000000000000000   0x0000000000000000   0x0000000000000000   0x0000000000000000   0x0000000000000000
0x01a5        0x0000000000000000   0x0000000000000000   0x0000000000000000   0x0000000000000000   0x0000000000000000   0x0000000000000000
0x01a6        0x0000000000000000   0x0000000000000000   0x0000000000000000   0x0000000000000000   0x0000000000000000   0x0000000000000000
0x01a7        0x0000000000000000   0x0000000000000000   0x0000000000000000   0x0000000000000000   0x0000000000000000   0x0000000000000000
0x01a8        0x0000000000000000   0x0000000000000000   0x0000000000000000   0x0000000000000000   0x0000000000000000   0x0000000000000000
0x01a9        0x0000000000000000   0x0000000000000000   0x0000000000000000   0x0000000000000000   0x0000000000000000   0x0000000000000000
0x01aa        0x0000000000000000   0x0000000000000000   0x0000000000000000   0x0000000000000000   0x0000000000000000   0x0000000000000000
0x01ab        0x0000000000000000   0x0000000000000000   0x0000000000000000   0x0000000000000000   0x0000000000000000   0x0000000000000000
0x01ac        0x0000000000000000   0x0000000000000000   0x0000000000000000   0x0000000000000000   0x0000000000000000   0x0000000000000000
0x01ad        0x0400285E7BD74008   0x0000000000000000   0x0000000000000000   0x0000000000000000   0x0000000000000000   0x0000000000000000
0x01ae        0x0000000000000000   0x0000000000000000   0x0000000000000000   0x0000000000000000   0x0000000000000000   0x0000000000000000
0x01af        0x0000000000000000   0x0000000000000000   0x0000000000000000   0x0000000000000000   0x0000000000000000   0x0000000000000000
0x01b0        0x0000000000000000   0x0000000000000000   0x0000000000000000   0x0000000000000000   0x0000000000000000   0x0000000000000000
0x01b1        0x0000000000000000   0x0000000000000000   0x0000000000000000   0x0000000000000000   0x0000000000000000   0x0000000000000000
0x01b2        0x0000000000000000   0x0000000000000000   0x0000000000000000   0x0000000000000000   0x0000000000000000   0x0000000000000000
0x01b3        0x0000000000000000   0x0000000000000000   0x0000000000000000   0x0000000000000000   0x0000000000000000   0x0000000000000000
0x01b4        0x0000000000000000   0x0000000000000000   0x0000000000000000   0x0000000000000000   0x0000000000000000   0x0000000000000000
0x01b5        0x0000000000000000   0x0000000000000000   0x0000000000000000   0x0000000000000000   0x0000000000000000   0x0000000000000000
0x01b6        0x000100256BB68101   0x0000D804DBB80031   0x1403F2A563B6C019   0x0C00004427AAC00B   0x0000000000000000   0x0000000000000000
0x01b7        0x0001000583B740BE   0x1C03F84583B18026   0x0000F424FBB6800C   0x0000000000000000   0x0000000000000000   0x0000000000000000
0x01b8        0x1403FF4573B5404C   0x1C03FA4573B28025   0x0000F5255BB8800B   0x0000000000000000   0x0000000000000000   0x0000000000000000
0x01b9        0x0000000000000000   0x0000000000000000   0x0000000000000000   0x0000000000000000   0x0000000000000000   0x0000000000000000
0x01ba        0x0000000000000000   0x0000000000000000   0x0000000000000000   0x0000000000000000   0x0000000000000000   0x0000000000000000
0x01bb        0x0000000000000000   0x0000000000000000   0x0000000000000000   0x0000000000000000   0x0000000000000000   0x0000000000000000
0x01bc        0x0000000000000000   0x0000000000000000   0x0000000000000000   0x0000000000000000   0x0000000000000000   0x0000000000000000
0x01bd        0x0000000000000000   0x0000000000000000   0x0000000000000000   0x0000000000000000   0x0000000000000000   0x0000000000000000
0x01be        0x0000000000000000   0x0000000000000000   0x0000000000000000   0x0000000000000000   0x0000000000000000   0x0000000000000000
0x01bf        0x0000000000000000   0x0000000000000000   0x0000000000000000   0x0000000000000000   0x0000000000000000   0x0000000000000000
0x01c0        0x0000000000000000   0x0000000000000000   0x0000000000000000   0x0000000000000000   0x0000000000000000   0x0000000000000000
0x01c1        0x0000000000000000   0x0000000000000000   0x0000000000000000   0x0000000000000000   0x0000000000000000   0x0000000000000000
0x01c2        0x0000000000000000   0x0000000000000000   0x0000000000000000   0x0000000000000000   0x0000000000000000   0x0000000000000000
0x01c3        0x0000000000000000   0x0000000000000000   0x0000000000000000   0x0000000000000000   0x0000000000000000   0x0000000000000000
0x01c4        0x0000000000000000   0x0000000000000000   0x0000000000000000   0x0000000000000000   0x0000000000000000   0x0000000000000000
0x01c5        0x0000000000000000   0x0000000000000000   0x0000000000000000   0x0000000000000000   0x0000000000000000   0x0000000000000000
0x01c6        0x0000000000000000   0x0000000000000000   0x0000000000000000   0x0000000000000000   0x0000000000000000   0x0000000000000000
0x01c7        0x0000000000000000   0x0000000000000000   0x0000000000000000   0x0000000000000000   0x0000000000000000   0x0000000000000000
0x01c8        0x0C03FF7FEC09000D   0x0000000000000000   0x0000000000000000   0x0000000000000000   0x0000000000000000   0x0000000000000000
0x01c9        0x0000151F4800C004   0x0000000000000000   0x0000000000000000   0x0000000000000000   0x0000000000000000   0x0000000000000000
0x01ca        0x0000000000000000   0x0000000000000000   0x0000000000000000   0x0000000000000000   0x0000000000000000   0x0000000000000000
0x01cb        0x0403FD622024800A   0x0000000000000000   0x0000000000000000   0x0000000000000000   0x0000000000000000   0x0000000000000000
0x01cc        0x0000000000000000   0x0000000000000000   0x0000000000000000   0x0000000000000000   0x0000000000000000   0x0000000000000000
0x01cd        0x0000000000000000   0x0000000000000000   0x0000000000000000   0x0000000000000000   0x0000000000000000   0x0000000000000000
0x01ce        0x0000000000000000   0x0000000000000000   0x0000000000000000   0x0000000000000000   0x0000000000000000   0x0000000000000000
0x01cf        0x0000000000000000   0x0000000000000000   0x0000000000000000   0x0000000000000000   0x0000000000000000   0x0000000000000000
0x01d0        0x0000000000000000   0x0000000000000000   0x0000000000000000   0x0000000000000000   0x0000000000000000   0x0000000000000000
0x01d1        0x0000000000000000   0x0000000000000000   0x0000000000000000   0x0000000000000000   0x0000000000000000   0x0000000000000000
0x01d2        0x0000000000000000   0x0000000000000000   0x0000000000000000   0x0000000000000000   0x0000000000000000   0x0000000000000000
0x01d3        0x0000000000000000   0x0000000000000000   0x0000000000000000   0x0000000000000000   0x0000000000000000   0x0000000000000000
0x01d4        0x0000000000000000   0x0000000000000000   0x0000000000000000   0x0000000000000000   0x0000000000000000   0x0000000000000000
0x01d5        0x0000000000000000   0x0000000000000000   0x0000000000000000   0x0000000000000000   0x0000000000000000   0x0000000000000000
0x01d6        0x0000000000000000   0x0000000000000000   0x0000000000000000   0x0000000000000000   0x0000000000000000   0x0000000000000000
0x01d7        0x0403FA41943E400B   0x0000000000000000   0x0000000000000000   0x0000000000000000   0x0000000000000000   0x0000000000000000
0x01d8        0x00007122683F8004   0x0000000000000000   0x0000000000000000   0x0000000000000000   0x0000000000000000   0x0000000000000000
0x01d9        0x0000000000000000   0x0000000000000000   0x0000000000000000   0x0000000000000000   0x0000000000000000   0x0000000000000000
0x01da        0x0403FD60A047C00A   0x0000000000000000   0x0000000000000000   0x0000000000000000   0x0000000000000000   0x0000000000000000
0x01db        0x0000201F6C49C005   0x0000000000000000   0x0000000000000000   0x0000000000000000   0x0000000000000000   0x0000000000000000
0x01dc        0x0000000000000000   0x0000000000000000   0x0000000000000000   0x0000000000000000   0x0000000000000000   0x0000000000000000
0x01dd        0x0000000000000000   0x0000000000000000   0x0000000000000000   0x0000000000000000   0x0000000000000000   0x0000000000000000
0x01de        0x0000000000000000   0x0000000000000000   0x0000000000000000   0x0000000000000000   0x0000000000000000   0x0000000000000000
0x01df        0x0000000000000000   0x0000000000000000   0x0000000000000000   0x0000000000000000   0x0000000000000000   0x0000000000000000
0x01e0        0x0000000000000000   0x0000000000000000   0x0000000000000000   0x0000000000000000   0x0000000000000000   0x0000000000000000
0x01e1        0x0000000000000000   0x0000000000000000   0x0000000000000000   0x0000000000000000   0x0000000000000000   0x0000000000000000
0x01e2        0x0000000000000000   0x0000000000000000   0x0000000000000000   0x0000000000000000   0x0000000000000000   0x0000000000000000
0x01e3        0x0000000000000000   0x0000000000000000   0x0000000000000000   0x0000000000000000   0x0000000000000000   0x0000000000000000
0x01e4        0x0000000000000000   0x0000000000000000   0x0000000000000000   0x0000000000000000   0x0000000000000000   0x0000000000000000
0x01e5        0x0000000000000000   0x0000000000000000   0x0000000000000000   0x0000000000000000   0x0000000000000000   0x0000000000000000
0x01e6        0x0000000000000000   0x0000000000000000   0x0000000000000000   0x0000000000000000   0x0000000000000000   0x0000000000000000
0x01e7        0x0000000000000000   0x0000000000000000   0x0000000000000000   0x0000000000000000   0x0000000000000000   0x0000000000000000
0x01e8        0x0000000000000000   0x0000000000000000   0x0000000000000000   0x0000000000000000   0x0000000000000000   0x0000000000000000
0x01e9        0x1403E0C173CB41AB   0x0000F0214BD08005   0x0000000000000000   0x0000000000000000   0x0000000000000000   0x0000000000000000
0x01ea        0x0000A201EBC70018   0x0000000000000000   0x0000000000000000   0x0000000000000000   0x0000000000000000   0x0000000000000000
0x01eb        0x00009E0177D20016   0x0000000000000000   0x0000000000000000   0x0000000000000000   0x0000000000000000   0x0000000000000000
0x01ec        0x0000000000000000   0x0000000000000000   0x0000000000000000   0x0000000000000000   0x0000000000000000   0x0000000000000000
0x01ed        0x0000000000000000   0x0000000000000000   0x0000000000000000   0x0000000000000000   0x0000000000000000   0x0000000000000000
0x01ee        0x0000000000000000   0x0000000000000000   0x0000000000000000   0x0000000000000000   0x0000000000000000   0x0000000000000000
0x01ef        0x0000000000000000   0x0000000000000000   0x0000000000000000   0x0000000000000000   0x0000000000000000   0x0000000000000000
0x01f0        0x0000000000000000   0x0000000000000000   0x0000000000000000   0x0000000000000000   0x0000000000000000   0x0000000000000000
0x01f1        0x0000000000000000   0x0000000000000000   0x0000000000000000   0x0000000000000000   0x0000000000000000   0x0000000000000000
0x01f2        0x0403DE43CBD30009   0x0000000000000000   0x0000000000000000   0x0000000000000000   0x0000000000000000   0x0000000000000000
0x01f3        0x0000000000000000   0x0000000000000000   0x0000000000000000   0x0000000000000000   0x0000000000000000   0x0000000000000000
0x01f4        0x0000000000000000   0x0000000000000000   0x0000000000000000   0x0000000000000000   0x0000000000000000   0x0000000000000000
0x01f5        0x0000000000000000   0x0000000000000000   0x0000000000000000   0x0000000000000000   0x0000000000000000   0x0000000000000000
0x01f6        0x0000000000000000   0x0000000000000000   0x0000000000000000   0x0000000000000000   0x0000000000000000   0x0000000000000000
0x01f7        0x0000000000000000   0x0000000000000000   0x0000000000000000   0x0000000000000000   0x0000000000000000   0x0000000000000000
0x01f8        0x0C03E564EFF30009   0x0000000000000000   0x0000000000000000   0x0000000000000000   0x0000000000000000   0x0000000000000000
0x01f9        0x0000000000000000   0x0000000000000000   0x0000000000000000   0x0000000000000000   0x0000000000000000   0x0000000000000000
0x01fa        0x0000000000000000   0x0000000000000000   0x0000000000000000   0x0000000000000000   0x0000000000000000   0x0000000000000000
0x01fb        0x0000000000000000   0x0000000000000000   0x0000000000000000   0x0000000000000000   0x0000000000000000   0x0000000000000000
0x01fc        0x0000000000000000   0x0000000000000000   0x0000000000000000   0x0000000000000000   0x0000000000000000   0x0000000000000000
0x01fd        0x0000000000000000   0x0000000000000000   0x0000000000000000   0x0000000000000000   0x0000000000000000   0x0000000000000000
0x01fe        0x0000000000000000   0x0000000000000000   0x0000000000000000   0x0000000000000000   0x0000000000000000   0x0000000000000000
0x01ff        0x0000000000000000   0x0000000000000000   0x0000000000000000   0x0000000000000000   0x0000000000000000   0x0000000000000000
0x0200        0x0000000000000000   0x0000000000000000   0x0000000000000000   0x0000000000000000   0x0000000000000000   0x0000000000000000
0x0201        0x0000000000000000   0x0000000000000000   0x0000000000000000   0x0000000000000000   0x0000000000000000   0x0000000000000000
0x0202        0x0000000000000000   0x0000000000000000   0x0000000000000000   0x0000000000000000   0x0000000000000000   0x0000000000000000
0x0203        0x0000000000000000   0x0000000000000000   0x0000000000000000   0x0000000000000000   0x0000000000000000   0x0000000000000000
0x0204        0x0000000000000000   0x0000000000000000   0x0000000000000000   0x0000000000000000   0x0000000000000000   0x0000000000000000
0x0205        0x0000000000000000   0x0000000000000000   0x0000000000000000   0x0000000000000000   0x0000000000000000   0x0000000000000000
0x0206        0x0000000000000000   0x0000000000000000   0x0000000000000000   0x0000000000000000   0x0000000000000000   0x0000000000000000
0x0207        0x0C03E24588354013   0x0000000000000000   0x0000000000000000   0x0000000000000000   0x0000000000000000   0x0000000000000000
0x0208        0x0000000000000000   0x0000000000000000   0x0000000000000000   0x0000000000000000   0x0000000000000000   0x0000000000000000
0x0209        0x0000000000000000   0x0000000000000000   0x0000000000000000   0x0000000000000000   0x0000000000000000   0x0000000000000000
0x020a        0x0000000000000000   0x0000000000000000   0x0000000000000000   0x0000000000000000   0x0000000000000000   0x0000000000000000
0x020b        0x0000000000000000   0x0000000000000000   0x0000000000000000   0x0000000000000000   0x0000000000000000   0x0000000000000000
0x020c        0x0000000000000000   0x0000000000000000   0x0000000000000000   0x0000000000000000   0x0000000000000000   0x0000000000000000
0x020d        0x0000000000000000   0x0000000000000000   0x0000000000000000   0x0000000000000000   0x0000000000000000   0x0000000000000000
0x020e        0x0000000000000000   0x0000000000000000   0x0000000000000000   0x0000000000000000   0x0000000000000000   0x0000000000000000
0x020f        0x0000000000000000   0x0000000000000000   0x0000000000000000   0x0000000000000000   0x0000000000000000   0x0000000000000000
0x0210        0x0000000000000000   0x0000000000000000   0x0000000000000000   0x0000000000000000   0x0000000000000000   0x0000000000000000
0x0211        0x0000000000000000   0x0000000000000000   0x0000000000000000   0x0000000000000000   0x0000000000000000   0x0000000000000000
0x0212        0x0000000000000000   0x0000000000000000   0x0000000000000000   0x0000000000000000   0x0000000000000000   0x0000000000000000
0x0213        0x0004EB219BC28004   0x0000000000000000   0x0000000000000000   0x0000000000000000   0x0000000000000000   0x0000000000000000
0x0214        0x0000000000000000   0x0000000000000000   0x0000000000000000   0x0000000000000000   0x0000000000000000   0x0000000000000000
0x0215        0x0000000000000000   0x0000000000000000   0x0000000000000000   0x0000000000000000   0x0000000000000000   0x0000000000000000
0x0216        0x0000000000000000   0x0000000000000000   0x0000000000000000   0x0000000000000000   0x0000000000000000   0x0000000000000000
0x0217        0x0000000000000000   0x0000000000000000   0x0000000000000000   0x0000000000000000   0x0000000000000000   0x0000000000000000
0x0218        0x0000000000000000   0x0000000000000000   0x0000000000000000   0x0000000000000000   0x0000000000000000   0x0000000000000000
0x0219        0x0C03DC5FA7D6800C   0x0000000000000000   0x0000000000000000   0x0000000000000000   0x0000000000000000   0x0000000000000000
0x021a        0x00025400CBC90008   0x0000000000000000   0x0000000000000000   0x0000000000000000   0x0000000000000000   0x0000000000000000
0x021b        0x0000E520CBCB8004   0x0000000000000000   0x0000000000000000   0x0000000000000000   0x0000000000000000   0x0000000000000000
0x021c        0x1403B37F1BC1C025   0x000EDD209BAB8009   0x0000000000000000   0x0000000000000000   0x0000000000000000   0x0000000000000000
0x021d        0x0403B05F47C3800F   0x0000000000000000   0x0000000000000000   0x0000000000000000   0x0000000000000000   0x0000000000000000
0x021e        0x0403AE9F77C7C00D   0x0000000000000000   0x0000000000000000   0x0000000000000000   0x0000000000000000   0x0000000000000000
0x021f        0x00002E0183CC400B   0x0000000000000000   0x0000000000000000   0x0000000000000000   0x0000000000000000   0x0000000000000000
0x0220        0x0000000000000000   0x0000000000000000   0x0000000000000000   0x0000000000000000   0x0000000000000000   0x0000000000000000
0x0221        0x0000000000000000   0x0000000000000000   0x0000000000000000   0x0000000000000000   0x0000000000000000   0x0000000000000000
0x0222        0x0000000000000000   0x0000000000000000   0x0000000000000000   0x0000000000000000   0x0000000000000000   0x0000000000000000
0x0223        0x0000000000000000   0x0000000000000000   0x0000000000000000   0x0000000000000000   0x0000000000000000   0x0000000000000000
0x0224        0x0000000000000000   0x0000000000000000   0x0000000000000000   0x0000000000000000   0x0000000000000000   0x0000000000000000
0x0225        0x0000000000000000   0x0000000000000000   0x0000000000000000   0x0000000000000000   0x0000000000000000   0x0000000000000000
0x0226        0x0000000000000000   0x0000000000000000   0x0000000000000000   0x0000000000000000   0x0000000000000000   0x0000000000000000
0x0227        0x0000000000000000   0x0000000000000000   0x0000000000000000   0x0000000000000000   0x0000000000000000   0x0000000000000000
0x0228        0x000EFF24FBCB804A   0x0403B6650BCC000E   0x0000000000000000   0x0000000000000000   0x0000000000000000   0x0000000000000000
0x0229        0x1403BA44FBD0C01F   0x0000A8249BC98009   0x0000000000000000   0x0000000000000000   0x0000000000000000   0x0000000000000000
0x022a        0x1C03BC44FBCB4017   0x0000000000000000   0x0000000000000000   0x0000000000000000   0x0000000000000000   0x0000000000000000
0x022b        0x1C03BB43D3F0002C   0x0000F723DBEC800D   0x0000000000000000   0x0000000000000000   0x0000000000000000   0x0000000000000000
0x022c        0x1C03B643A7F0001A   0x0403BA83A3EC4009   0x0000000000000000   0x0000000000000000   0x0000000000000000   0x0000000000000000
0x022d        0x0000760447EFC00F   0x0000000000000000   0x0000000000000000   0x0000000000000000   0x0000000000000000   0x0000000000000000
0x022e        0x1C03B763ABF00097   0x0000F8236BF2800F   0x0000000000000000   0x0000000000000000   0x0000000000000000   0x0000000000000000
0x022f        0x0000FF23ABF08026   0x00005702F7FC800D   0x0000000000000000   0x0000000000000000   0x0000000000000000   0x0000000000000000
0x0230        0x1C03BB63A3F1C015   0x00005822EBFD8004   0x0000000000000000   0x0000000000000000   0x0000000000000000   0x0000000000000000
0x0231        0x0403B742880F000A   0x0000000000000000   0x0000000000000000   0x0000000000000000   0x0000000000000000   0x0000000000000000
0x0232        0x00044322E80F8004   0x0000000000000000   0x0000000000000000   0x0000000000000000   0x0000000000000000   0x0000000000000000
0x0233        0x0000000000000000   0x0000000000000000   0x0000000000000000   0x0000000000000000   0x0000000000000000   0x0000000000000000
0x0234        0x0000000000000000   0x0000000000000000   0x0000000000000000   0x0000000000000000   0x0000000000000000   0x0000000000000000
0x0235        0x0000000000000000   0x0000000000000000   0x0000000000000000   0x0000000000000000   0x0000000000000000   0x0000000000000000
0x0236        0x0000000000000000   0x0000000000000000   0x0000000000000000   0x0000000000000000   0x0000000000000000   0x0000000000000000
0x0237        0x0C03BB6290264008   0x0000000000000000   0x0000000000000000   0x0000000000000000   0x0000000000000000   0x0000000000000000
0x0238        0x0000000000000000   0x0000000000000000   0x0000000000000000   0x0000000000000000   0x0000000000000000   0x0000000000000000
0x0239        0x0000000000000000   0x0000000000000000   0x0000000000000000   0x0000000000000000   0x0000000000000000   0x0000000000000000
0x023a        0x0000000000000000   0x0000000000000000   0x0000000000000000   0x0000000000000000   0x0000000000000000   0x0000000000000000
0x023b        0x0000000000000000   0x0000000000000000   0x0000000000000000   0x0000000000000000   0x0000000000000000   0x0000000000000000
0x023c        0x0000000000000000   0x0000000000000000   0x0000000000000000   0x0000000000000000   0x0000000000000000   0x0000000000000000
0x023d        0x0000000000000000   0x0000000000000000   0x0000000000000000   0x0000000000000000   0x0000000000000000   0x0000000000000000
0x023e        0x0000000000000000   0x0000000000000000   0x0000000000000000   0x0000000000000000   0x0000000000000000   0x0000000000000000
0x023f        0x0000000000000000   0x0000000000000000   0x0000000000000000   0x0000000000000000   0x0000000000000000   0x0000000000000000
0x0240        0x0000000000000000   0x0000000000000000   0x0000000000000000   0x0000000000000000   0x0000000000000000   0x0000000000000000
0x0241        0x0000000000000000   0x0000000000000000   0x0000000000000000   0x0000000000000000   0x0000000000000000   0x0000000000000000
0x0242        0x0000000000000000   0x0000000000000000   0x0000000000000000   0x0000000000000000   0x0000000000000000   0x0000000000000000
0x0243        0x0000000000000000   0x0000000000000000   0x0000000000000000   0x0000000000000000   0x0000000000000000   0x0000000000000000
0x0244        0x0000000000000000   0x0000000000000000   0x0000000000000000   0x0000000000000000   0x0000000000000000   0x0000000000000000
0x0245        0x0000000000000000   0x0000000000000000   0x0000000000000000   0x0000000000000000   0x0000000000000000   0x0000000000000000
0x0246        0x0000000000000000   0x0000000000000000   0x0000000000000000   0x0000000000000000   0x0000000000000000   0x0000000000000000
0x0247        0x0000000000000000   0x0000000000000000   0x0000000000000000   0x0000000000000000   0x0000000000000000   0x0000000000000000
0x0248        0x0000000000000000   0x0000000000000000   0x0000000000000000   0x0000000000000000   0x0000000000000000   0x0000000000000000
0x0249        0x0000000000000000   0x0000000000000000   0x0000000000000000   0x0000000000000000   0x0000000000000000   0x0000000000000000
0x024a        0x0000000000000000   0x0000000000000000   0x0000000000000000   0x0000000000000000   0x0000000000000000   0x0000000000000000
0x024b        0x0000000000000000   0x0000000000000000   0x0000000000000000   0x0000000000000000   0x0000000000000000   0x0000000000000000
0x024c        0x0000000000000000   0x0000000000000000   0x0000000000000000   0x0000000000000000   0x0000000000000000   0x0000000000000000
0x024d        0x0000000000000000   0x0000000000000000   0x0000000000000000   0x0000000000000000   0x0000000000000000   0x0000000000000000
0x024e        0x0000000000000000   0x0000000000000000   0x0000000000000000   0x0000000000000000   0x0000000000000000   0x0000000000000000
0x024f        0x0C03AE5FF7CC4012   0x0000000000000000   0x0000000000000000   0x0000000000000000   0x0000000000000000   0x0000000000000000
0x0250        0x0000000000000000   0x0000000000000000   0x0000000000000000   0x0000000000000000   0x0000000000000000   0x0000000000000000
0x0251        0x0000000000000000   0x0000000000000000   0x0000000000000000   0x0000000000000000   0x0000000000000000   0x0000000000000000
0x0252        0x1C03BE5E43B14015   0x0C03C05E33B08009   0x0000000000000000   0x0000000000000000   0x0000000000000000   0x0000000000000000
0x0253        0x0004BB3F7BC08012   0x0000813FEBC48005   0x0000000000000000   0x0000000000000000   0x0000000000000000   0x0000000000000000
0x0254        0x0403BC5EC7C6000D   0x0000000000000000   0x0000000000000000   0x0000000000000000   0x0000000000000000   0x0000000000000000
0x0255        0x0000000000000000   0x0000000000000000   0x0000000000000000   0x0000000000000000   0x0000000000000000   0x0000000000000000
0x0256        0x0000000000000000   0x0000000000000000   0x0000000000000000   0x0000000000000000   0x0000000000000000   0x0000000000000000
0x0257        0x0000000000000000   0x0000000000000000   0x0000000000000000   0x0000000000000000   0x0000000000000000   0x0000000000000000
0x0258        0x0000000000000000   0x0000000000000000   0x0000000000000000   0x0000000000000000   0x0000000000000000   0x0000000000000000
0x0259        0x0000000000000000   0x0000000000000000   0x0000000000000000   0x0000000000000000   0x0000000000000000   0x0000000000000000
0x025a        0x0000000000000000   0x0000000000000000   0x0000000000000000   0x0000000000000000   0x0000000000000000   0x0000000000000000
0x025b        0x0000000000000000   0x0000000000000000   0x0000000000000000   0x0000000000000000   0x0000000000000000   0x0000000000000000
0x025c        0x0000000000000000   0x0000000000000000   0x0000000000000000   0x0000000000000000   0x0000000000000000   0x0000000000000000
0x025d        0x0000000000000000   0x0000000000000000   0x0000000000000000   0x0000000000000000   0x0000000000000000   0x0000000000000000
0x025e        0x1C03BC45F3D3C03B   0x000034060FD10004   0x0000000000000000   0x0000000000000000   0x0000000000000000   0x0000000000000000
0x025f        0x0000E3261BCE8007   0x0000000000000000   0x0000000000000000   0x0000000000000000   0x0000000000000000   0x0000000000000000
0x0260        0x000022057BDF8005   0x0000000000000000   0x0000000000000000   0x0000000000000000   0x0000000000000000   0x0000000000000000
0x0261        0x0C03B46633EE4008   0x0000000000000000   0x0000000000000000   0x0000000000000000   0x0000000000000000   0x0000000000000000
0x0262        0x0000000000000000   0x0000000000000000   0x0000000000000000   0x0000000000000000   0x0000000000000000   0x0000000000000000
0x0263        0x0000000000000000   0x0000000000000000   0x0000000000000000   0x0000000000000000   0x0000000000000000   0x0000000000000000
0x0264        0x0000000000000000   0x0000000000000000   0x0000000000000000   0x0000000000000000   0x0000000000000000   0x0000000000000000
0x0265        0x0000000000000000   0x0000000000000000   0x0000000000000000   0x0000000000000000   0x0000000000000000   0x0000000000000000
0x0266        0x0000000000000000   0x0000000000000000   0x0000000000000000   0x0000000000000000   0x0000000000000000   0x0000000000000000
0x0267        0x0000000000000000   0x0000000000000000   0x0000000000000000   0x0000000000000000   0x0000000000000000   0x0000000000000000
0x0268        0x0000000000000000   0x0000000000000000   0x0000000000000000   0x0000000000000000   0x0000000000000000   0x0000000000000000
0x0269        0x0000000000000000   0x0000000000000000   0x0000000000000000   0x0000000000000000   0x0000000000000000   0x0000000000000000
0x026a        0x0000000000000000   0x0000000000000000   0x0000000000000000   0x0000000000000000   0x0000000000000000   0x0000000000000000
0x026b        0x0000000000000000   0x0000000000000000   0x0000000000000000   0x0000000000000000   0x0000000000000000   0x0000000000000000
0x026c        0x0000000000000000   0x0000000000000000   0x0000000000000000   0x0000000000000000   0x0000000000000000   0x0000000000000000
0x026d        0x0000000000000000   0x0000000000000000   0x0000000000000000   0x0000000000000000   0x0000000000000000   0x0000000000000000
0x026e        0x0000000000000000   0x0000000000000000   0x0000000000000000   0x0000000000000000   0x0000000000000000   0x0000000000000000
0x026f        0x0000000000000000   0x0000000000000000   0x0000000000000000   0x0000000000000000   0x0000000000000000   0x0000000000000000
0x0270        0x0000000000000000   0x0000000000000000   0x0000000000000000   0x0000000000000000   0x0000000000000000   0x0000000000000000
0x0271        0x0000000000000000   0x0000000000000000   0x0000000000000000   0x0000000000000000   0x0000000000000000   0x0000000000000000
0x0272        0x0000000000000000   0x0000000000000000   0x0000000000000000   0x0000000000000000   0x0000000000000000   0x0000000000000000
0x0273        0x0C03C042F429C00D   0x0000000000000000   0x0000000000000000   0x0000000000000000   0x0000000000000000   0x0000000000000000
0x0274        0x0000000000000000   0x0000000000000000   0x0000000000000000   0x0000000000000000   0x0000000000000000   0x0000000000000000
0x0275        0x0000000000000000   0x0000000000000000   0x0000000000000000   0x0000000000000000   0x0000000000000000   0x0000000000000000
0x0276        0x0C03C0643427000B   0x0000000000000000   0x0000000000000000   0x0000000000000000   0x0000000000000000   0x0000000000000000
0x0277        0x0000000000000000   0x0000000000000000   0x0000000000000000   0x0000000000000000   0x0000000000000000   0x0000000000000000
0x0278        0x0000000000000000   0x0000000000000000   0x0000000000000000   0x0000000000000000   0x0000000000000000   0x0000000000000000
0x0279        0x0000150394454005   0x0000000000000000   0x0000000000000000   0x0000000000000000   0x0000000000000000   0x0000000000000000
0x027a        0x0000000000000000   0x0000000000000000   0x0000000000000000   0x0000000000000000   0x0000000000000000   0x0000000000000000
0x027b        0x0000000000000000   0x0000000000000000   0x0000000000000000   0x0000000000000000   0x0000000000000000   0x0000000000000000
0x027c        0x0000000000000000   0x0000000000000000   0x0000000000000000   0x0000000000000000   0x0000000000000000   0x0000000000000000
0x027d        0x0000000000000000   0x0000000000000000   0x0000000000000000   0x0000000000000000   0x0000000000000000   0x0000000000000000
0x027e        0x0000000000000000   0x0000000000000000   0x0000000000000000   0x0000000000000000   0x0000000000000000   0x0000000000000000
0x027f        0x0000000000000000   0x0000000000000000   0x0000000000000000   0x0000000000000000   0x0000000000000000   0x0000000000000000
0x0280        0x0000000000000000   0x0000000000000000   0x0000000000000000   0x0000000000000000   0x0000000000000000   0x0000000000000000
0x0281        0x0000000000000000   0x0000000000000000   0x0000000000000000   0x0000000000000000   0x0000000000000000   0x0000000000000000
0x0282        0x0C03C36594460008   0x0000000000000000   0x0000000000000000   0x0000000000000000   0x0000000000000000   0x0000000000000000
0x0283        0x0000000000000000   0x0000000000000000   0x0000000000000000   0x0000000000000000   0x0000000000000000   0x0000000000000000
0x0284        0x0000000000000000   0x0000000000000000   0x0000000000000000   0x0000000000000000   0x0000000000000000   0x0000000000000000
0x0285        0x0000000000000000   0x0000000000000000   0x0000000000000000   0x0000000000000000   0x0000000000000000   0x0000000000000000
0x0286        0x0000000000000000   0x0000000000000000   0x0000000000000000   0x0000000000000000   0x0000000000000000   0x0000000000000000
0x0287        0x0000000000000000   0x0000000000000000   0x0000000000000000   0x0000000000000000   0x0000000000000000   0x0000000000000000
0x0288        0x0000000000000000   0x0000000000000000   0x0000000000000000   0x0000000000000000   0x0000000000000000   0x0000000000000000
0x0289        0x0000000000000000   0x0000000000000000   0x0000000000000000   0x0000000000000000   0x0000000000000000   0x0000000000000000
0x028a        0x0000000000000000   0x0000000000000000   0x0000000000000000   0x0000000000000000   0x0000000000000000   0x0000000000000000
0x028b        0x0000000000000000   0x0000000000000000   0x0000000000000000   0x0000000000000000   0x0000000000000000   0x0000000000000000
0x028c        0x0000000000000000   0x0000000000000000   0x0000000000000000   0x0000000000000000   0x0000000000000000   0x0000000000000000
0x028d        0x0000000000000000   0x0000000000000000   0x0000000000000000   0x0000000000000000   0x0000000000000000   0x0000000000000000
0x028e        0x0000000000000000   0x0000000000000000   0x0000000000000000   0x0000000000000000   0x0000000000000000   0x0000000000000000
0x028f        0x0000000000000000   0x0000000000000000   0x0000000000000000   0x0000000000000000   0x0000000000000000   0x0000000000000000
0x0290        0x0000000000000000   0x0000000000000000   0x0000000000000000   0x0000000000000000   0x0000000000000000   0x0000000000000000
0x0291        0x0000000000000000   0x0000000000000000   0x0000000000000000   0x0000000000000000   0x0000000000000000   0x0000000000000000
0x0292        0x0000000000000000   0x0000000000000000   0x0000000000000000   0x0000000000000000   0x0000000000000000   0x0000000000000000
0x0293        0x0000000000000000   0x0000000000000000   0x0000000000000000   0x0000000000000000   0x0000000000000000   0x0000000000000000
0x0294        0x0000000000000000   0x0000000000000000   0x0000000000000000   0x0000000000000000   0x0000000000000000   0x0000000000000000
0x0295        0x0000000000000000   0x0000000000000000   0x0000000000000000   0x0000000000000000   0x0000000000000000   0x0000000000000000
0x0296        0x0000000000000000   0x0000000000000000   0x0000000000000000   0x0000000000000000   0x0000000000000000   0x0000000000000000
0x0297        0x0000000000000000   0x0000000000000000   0x0000000000000000   0x0000000000000000   0x0000000000000000   0x0000000000000000
0x0298        0x0000000000000000   0x0000000000000000   0x0000000000000000   0x0000000000000000   0x0000000000000000   0x0000000000000000
0x0299        0x0000000000000000   0x0000000000000000   0x0000000000000000   0x0000000000000000   0x0000000000000000   0x0000000000000000
0x029a        0x0000000000000000   0x0000000000000000   0x0000000000000000   0x0000000000000000   0x0000000000000000   0x0000000000000000
0x029b        0x0000000000000000   0x0000000000000000   0x0000000000000000   0x0000000000000000   0x0000000000000000   0x0000000000000000
0x029c        0x0000000000000000   0x0000000000000000   0x0000000000000000   0x0000000000000000   0x0000000000000000   0x0000000000000000
0x029d        0x0000000000000000   0x0000000000000000   0x0000000000000000   0x0000000000000000   0x0000000000000000   0x0000000000000000
0x029e        0x0000000000000000   0x0000000000000000   0x0000000000000000   0x0000000000000000   0x0000000000000000   0x0000000000000000
0x029f        0x0000000000000000   0x0000000000000000   0x0000000000000000   0x0000000000000000   0x0000000000000000   0x0000000000000000
0x02a0        0x0000000000000000   0x0000000000000000   0x0000000000000000   0x0000000000000000   0x0000000000000000   0x0000000000000000
0x02a1        0x0000000000000000   0x0000000000000000   0x0000000000000000   0x0000000000000000   0x0000000000000000   0x0000000000000000
0x02a2        0x0000000000000000   0x0000000000000000   0x0000000000000000   0x0000000000000000   0x0000000000000000   0x0000000000000000
0x02a3        0x0000000000000000   0x0000000000000000   0x0000000000000000   0x0000000000000000   0x0000000000000000   0x0000000000000000
0x02a4        0x0000000000000000   0x0000000000000000   0x0000000000000000   0x0000000000000000   0x0000000000000000   0x0000000000000000
0x02a5        0x0000000000000000   0x0000000000000000   0x0000000000000000   0x0000000000000000   0x0000000000000000   0x0000000000000000
0x02a6        0x0000000000000000   0x0000000000000000   0x0000000000000000   0x0000000000000000   0x0000000000000000   0x0000000000000000
0x02a7        0x0000000000000000   0x0000000000000000   0x0000000000000000   0x0000000000000000   0x0000000000000000   0x0000000000000000
0x02a8        0x0000000000000000   0x0000000000000000   0x0000000000000000   0x0000000000000000   0x0000000000000000   0x0000000000000000
0x02a9        0x0000000000000000   0x0000000000000000   0x0000000000000000   0x0000000000000000   0x0000000000000000   0x0000000000000000
0x02aa        0x0000000000000000   0x0000000000000000   0x0000000000000000   0x0000000000000000   0x0000000000000000   0x0000000000000000
0x02ab        0x0000000000000000   0x0000000000000000   0x0000000000000000   0x0000000000000000   0x0000000000000000   0x0000000000000000
0x02ac        0x0000000000000000   0x0000000000000000   0x0000000000000000   0x0000000000000000   0x0000000000000000   0x0000000000000000
0x02ad        0x0000000000000000   0x0000000000000000   0x0000000000000000   0x0000000000000000   0x0000000000000000   0x0000000000000000
0x02ae        0x0000000000000000   0x0000000000000000   0x0000000000000000   0x0000000000000000   0x0000000000000000   0x0000000000000000
0x02af        0x0000000000000000   0x0000000000000000   0x0000000000000000   0x0000000000000000   0x0000000000000000   0x0000000000000000
0x02b0        0x0000000000000000   0x0000000000000000   0x0000000000000000   0x0000000000000000   0x0000000000000000   0x0000000000000000
0x02b1        0x0000000000000000   0x0000000000000000   0x0000000000000000   0x0000000000000000   0x0000000000000000   0x0000000000000000
0x02b2        0x0000000000000000   0x0000000000000000   0x0000000000000000   0x0000000000000000   0x0000000000000000   0x0000000000000000
0x02b3        0x0000000000000000   0x0000000000000000   0x0000000000000000   0x0000000000000000   0x0000000000000000   0x0000000000000000
0x02b4        0x0000000000000000   0x0000000000000000   0x0000000000000000   0x0000000000000000   0x0000000000000000   0x0000000000000000
0x02b5        0x0000000000000000   0x0000000000000000   0x0000000000000000   0x0000000000000000   0x0000000000000000   0x0000000000000000
0x02b6        0x0000000000000000   0x0000000000000000   0x0000000000000000   0x0000000000000000   0x0000000000000000   0x0000000000000000
0x02b7        0x0000000000000000   0x0000000000000000   0x0000000000000000   0x0000000000000000   0x0000000000000000   0x0000000000000000
0x02b8        0x0000000000000000   0x0000000000000000   0x0000000000000000   0x0000000000000000   0x0000000000000000   0x0000000000000000
0x02b9        0x0000000000000000   0x0000000000000000   0x0000000000000000   0x0000000000000000   0x0000000000000000   0x0000000000000000
0x02ba        0x0000000000000000   0x0000000000000000   0x0000000000000000   0x0000000000000000   0x0000000000000000   0x0000000000000000
0x02bb        0x0000000000000000   0x0000000000000000   0x0000000000000000   0x0000000000000000   0x0000000000000000   0x0000000000000000
0x02bc        0x0000000000000000   0x0000000000000000   0x0000000000000000   0x0000000000000000   0x0000000000000000   0x0000000000000000
0x02bd        0x0000000000000000   0x0000000000000000   0x0000000000000000   0x0000000000000000   0x0000000000000000   0x0000000000000000
0x02be        0x0000000000000000   0x0000000000000000   0x0000000000000000   0x0000000000000000   0x0000000000000000   0x0000000000000000
0x02bf        0x0000000000000000   0x0000000000000000   0x0000000000000000   0x0000000000000000   0x0000000000000000   0x0000000000000000
0x02c0        0x0000000000000000   0x0000000000000000   0x0000000000000000   0x0000000000000000   0x0000000000000000   0x0000000000000000
0x02c1        0x0000000000000000   0x0000000000000000   0x0000000000000000   0x0000000000000000   0x0000000000000000   0x0000000000000000
0x02c2        0x0000000000000000   0x0000000000000000   0x0000000000000000   0x0000000000000000   0x0000000000000000   0x0000000000000000
0x02c3        0x0000000000000000   0x0000000000000000   0x0000000000000000   0x0000000000000000   0x0000000000000000   0x0000000000000000
0x02c4        0x0000000000000000   0x0000000000000000   0x0000000000000000   0x0000000000000000   0x0000000000000000   0x0000000000000000
0x02c5        0x0000000000000000   0x0000000000000000   0x0000000000000000   0x0000000000000000   0x0000000000000000   0x0000000000000000
0x02c6        0x0000000000000000   0x0000000000000000   0x0000000000000000   0x0000000000000000   0x0000000000000000   0x0000000000000000
0x02c7        0x0000000000000000   0x0000000000000000   0x0000000000000000   0x0000000000000000   0x0000000000000000   0x0000000000000000
0x02c8        0x0000000000000000   0x0000000000000000   0x0000000000000000   0x0000000000000000   0x0000000000000000   0x0000000000000000
0x02c9        0x0000000000000000   0x0000000000000000   0x0000000000000000   0x0000000000000000   0x0000000000000000   0x0000000000000000
0x02ca        0x0000000000000000   0x0000000000000000   0x0000000000000000   0x0000000000000000   0x0000000000000000   0x0000000000000000
0x02cb        0x0000000000000000   0x0000000000000000   0x0000000000000000   0x0000000000000000   0x0000000000000000   0x0000000000000000
0x02cc        0x0000000000000000   0x0000000000000000   0x0000000000000000   0x0000000000000000   0x0000000000000000   0x0000000000000000
0x02cd        0x0000000000000000   0x0000000000000000   0x0000000000000000   0x0000000000000000   0x0000000000000000   0x0000000000000000
0x02ce        0x0000000000000000   0x0000000000000000   0x0000000000000000   0x0000000000000000   0x0000000000000000   0x0000000000000000
0x02cf        0x0000000000000000   0x0000000000000000   0x0000000000000000   0x0000000000000000   0x0000000000000000   0x0000000000000000
0x02d0        0x0000000000000000   0x0000000000000000   0x0000000000000000   0x0000000000000000   0x0000000000000000   0x0000000000000000
0x02d1        0x0000000000000000   0x0000000000000000   0x0000000000000000   0x0000000000000000   0x0000000000000000   0x0000000000000000
0x02d2        0x0000000000000000   0x0000000000000000   0x0000000000000000   0x0000000000000000   0x0000000000000000   0x0000000000000000
